:020000040000FA
:100000000C94A3000C94FF120C94D8120C94CB0007
:100010000C94CB000C94CB000C94CB000C94CB0034
:100020000C94CB000C94CB000C94CB000C94CB0024
:100030000C94CB000C94CB000C94CB000C94CB0014
:100040000C948E120C94CB000C944C130C9426132D
:100050000C94CB000C94CB000C94CB000C94CB00F4
:100060000C94CB000C94CB0007634236B79BD8A707
:100070001A39685618AEBAAB558C1D3CB7CC5763CD
:10008000BD6DEDFD753EF6177231BF000000803F7B
:1000900008000000BE922449123EABAAAA2ABECD97
:1000A000CCCC4C3E00000080BEABAAAAAA3E000009
:1000B0000000BF000000803F000000000008417801
:1000C000D3BB4387D1133D190E3CC3BD4282AD2B38
:1000D0003E68EC8276BED98FE1A93E4C80EFFFBE30
:1000E00001C4FF7F3F00000000000000000024006A
:1000F00027002A0000000000250028002B00000037
:10010000000023002600290004040404040404045D
:1001100002020202020203030303030301020408B2
:100120001020408001020408102001020408102061
:1001300000000008000201000003040700000000A6
:1001400000000000491511241FBECFEFD8E0DEBF2C
:10015000CDBF11E0A0E0B1E0E0EEF8E302C0059011
:100160000D92A833B107D9F723E0A8E3B1E001C0AD
:100170001D92A230B207E1F710E0C3EAD0E004C05C
:100180002197FE010E94681CC23AD107C9F70E945C
:10019000D5150C946E1C0C940000833081F028F46B
:1001A000813099F08230A9F008958730A9F0883025
:1001B000C9F08430B1F4809180008F7D03C08091BC
:1001C00080008F7780938000089584B58F7784BDF9
:1001D000089584B58F7DFBCF8091B0008F77809399
:1001E000B00008958091B0008F7DF9CFCF93DF9359
:1001F000282F30E0F901E05DFE4F8491F901E45EC3
:10020000FE4FD491F901E85FFE4FC491CC23A1F0D9
:1002100081110E94CD00EC2FF0E0EE0FFF1FE250A5
:10022000FF4FA591B491EC91ED2381E090E009F4AA
:1002300080E0DF91CF91089580E090E0FACF1F93A6
:10024000CF93DF93282F30E0F901E05DFE4F8491DA
:10025000F901E45EFE4FD491F901E85FFE4FC491CD
:10026000CC23A9F0162F81110E94CD00EC2FF0E0D5
:10027000EE0FFF1FEC50FF4FA591B4918FB7F8948C
:10028000EC91111108C0D095DE23DC938FBFDF9174
:10029000CF911F910895DE2BF8CFCF93DF9360E0CD
:1002A0008CE00E941F0160E088E00E941F01C7E00F
:1002B000D0E060E084E00E941F018091410190E065
:1002C0000C2E02C0959587950A94E2F761E080FFB5
:1002D00060E088E00E941F0161E084E00E941F014D
:1002E000219738F761E08CE0DF91CF910C941F01EA
:1002F000CF93DF9390E0FC01E45EFE4F2491885F92
:100300009E4FFC0184918823D1F090E0880F991FC3
:10031000FC01E651FF4FA591B491FC01EC50FF4F59
:10032000C591D49161110EC09FB7F8948C91E22FC2
:10033000E0958E238C932881E223E8839FBFDF9191
:10034000CF9108958FB7F894EC91E22BEC938FBF87
:10035000F6CF80914101837F809341010E944D013E
:10036000E0EBF0E080818368808382E08093B100DD
:100370001092B30061E08BE00C94780161E08CE0B6
:100380000E94780161E087E00E94780161E088E0E6
:100390000E94780161E084E00E947801109241019E
:1003A0000E944D0160E087E00C941F013FB7F89474
:1003B0008091390190913A01A0913B01B0913C01AB
:1003C00026B5A89B05C02F3F19F00196A11DB11DB0
:1003D0003FBFBA2FA92F982F8827BC01CD01620FEC
:1003E000711D811D911D42E0660F771F881F991FA7
:1003F0004A95D1F708958F929F92AF92BF92CF9274
:10040000DF92EF92FF926B017C010E94D6014B01BB
:100410005C01C114D104E104F104B9F00E94D601D9
:10042000681979098A099B09683E7340810591051D
:1004300080F321E0C21AD108E108F10888EE880EA5
:1004400083E0981EA11CB11CE4CFFF90EF90DF90D9
:10045000CF90BF90AF909F908F9008950895AF92E6
:10046000BF92CF92DF92EF92FF920F931F93CF93A1
:10047000DF936C017B018B01040F151FEB015E0103
:10048000AE18BF08C017D10759F06991D601ED9198
:10049000FC910190F081E02DC6010995892B79F737
:1004A000C501DF91CF911F910F91FF90EF90DF90E9
:1004B000CF90BF90AF900895FC01538D448D252FB0
:1004C00030E0842F90E0821B930B541710F0CF96EE
:1004D000089501970895FC01918D828D981761F020
:1004E000A28DAE0FBF2FB11D5D968C91928D9F5F37
:1004F0009F73928F90E008958FEF9FEF0895FC0116
:10050000918D828D981731F0828DE80FF11D858DC8
:1005100090E008958FEF9FEF0895FC01918D228D5B
:10052000892F90E0805C9F4F821B91098F739927E0
:10053000089582E491E00E948D0221E0892B09F464
:1005400020E0822F089580E090E0892B29F00E941E
:10055000990281110C9400000895FC01A48DA80F4C
:10056000B92FB11DA35ABF4F2C91848D90E00196F5
:100570008F739927848FA689B7892C93A089B18915
:100580008C91837080648C93938D848D981306C0B6
:100590000288F389E02D80818F7D80830895EF921A
:1005A000FF920F931F93CF93DF93EC0181E0888F2D
:1005B0009B8D8C8D98131AC0E889F989808185FFFD
:1005C00015C09FB7F894EE89FF896083E889F9899F
:1005D00080818370806480839FBF81E090E0DF91A1
:1005E000CF911F910F91FF90EF900895F62E0B8DF4
:1005F00010E00F5F1F4F0F731127E02E8C8D8E11AF
:100600000CC00FB607FCFACFE889F989808185FF15
:10061000F5CFCE010E94AD02F1CFEB8DEC0FFD2F97
:10062000F11DE35AFF4FF0829FB7F8940B8FEA89D0
:10063000FB8980818062CFCFCF93DF93EC01888DDF
:100640008823B9F0AA89BB89E889F9898C9185FD4D
:1006500003C0808186FD0DC00FB607FCF7CF8C91DB
:1006600085FFF2CF808185FFEDCFCE010E94AD02E4
:10067000E9CFDF91CF910895FC018081823069F04C
:1006800028F423E092E0813051F00895833011F195
:1006900026E090E0843019F0089524E091E0623083
:1006A000E1F0643079F1613009F03FC041E050E0A1
:1006B000BA0101C0660F9A95EAF780914101862B35
:1006C00001C0440F2A95EAF7409548234093410121
:1006D0000C944D0127E095E0E2CF41E050E0BA01F3
:1006E00002C0660F771F9A95E2F7CB018095909133
:1006F0004101892301C0440F2A95EAF7842B809396
:100700004101E6CF41E050E0FA0102C0EE0FFF1FC9
:100710009A95E2F7CF0101C0440F2A95EAF7842B9E
:100720008095909141018923EACF0895CF93DF937B
:10073000EC016C817D81072E000C880B990B0E94C7
:100740004D1920E030E040EF54E40E94A3186A877E
:100750007B878C879D879B01AC010E9432182BED13
:100760003FE049E450E40E94021A2E813F8148850F
:1007700059850E94021ADF91CF9108950F931F931C
:10078000CF93DF93EC018F890E94F6008C01898D55
:1007900081110DC00130110551F4888D0E94F600C1
:1007A0009C019A8D21153105E1F491111A8E098F62
:1007B0002E89688179818A819B810C811D813A8D86
:1007C000311117C0211117C020E030E040E85FE38D
:1007D0000E943218688379838A839B830F5F1F4F3F
:1007E00016C02130310519F79111E1CF81E08A8FD0
:1007F000DECF2111E9CF20E030E040E85FE30E9446
:100800003118688379838A839B83015011091D8382
:100810000C83DF91CF911F910F91089580E592E0B5
:100820000C94BE0389EA92E00C94BE03FC01AC0177
:10083000455E5F4F9B0177FF04C022273327261BAD
:10084000370B938D9230C9F078F4913099F0868906
:10085000882319F07195619571091616170694F49D
:1008600061E0CA010C943C03933051F0943079F765
:1008700028BDEDCF2093B300EACF2093B400E7CF9B
:1008800027BDE5CF672B11F062E0EBCF64E0E9CF45
:100890002F923F924F925F926F927F928F929F9290
:1008A000AF92BF92CF92DF92EF92FF920F931F937E
:1008B000CF93DF93CDB7DEB763970FB6F894DEBF63
:1008C0000FBECDBFFC01E95AFF4F2081222309F45E
:1008D00079C12FB7F89440913D0150913E0160914C
:1008E0003F01709140014E875F87688B798B2FBFE6
:1008F000789740815181628173810E851F85288997
:100900003989041B150B260B370B3C96408151810E
:1009100062817381041715072607370708F452C14F
:100920009B8B8A8BDC01D996ED91FC91DA97208123
:100930003181428153812B833C834D835E83DD96DD
:10094000ED91FC9160817181828193810E943118C7
:100950004B015C01EA89FB89E95BFF4F2081318112
:10096000428153816B817C818D819E810E943118EF
:100970006B017C01AA89BB899D962D913D914D917A
:100980005C91D097C501B4010E94021AEA89FB89E3
:10099000ED5BFF4FFA83E9832081318142815381EE
:1009A0000E9432182B013C01A981BA814D925D92BF
:1009B0006D927C921397EA89FB89E85AFF4FB081C8
:1009C000B987B11117C0EA89FB8921A532A543A5D2
:1009D00054A5C701B6010E94021A9B01AC01C301D4
:1009E000B2010E943118A981BA816D937D938D93D4
:1009F0009C931397EA89FB89ED5BFF4FF887EF83A0
:100A00004080518062807380EA89FB89ED5AFF4FF4
:100A10003080218002811381232D322DA801C30152
:100A2000B2010E94FD1918160CF0A5C0832D922D5D
:100A3000D801EF81F88580839183A283B383B98540
:100A4000BB2309F4B6C0EA89FB8921A532A543A5D9
:100A500054A5C501B4010E94021A4B015C01AA8988
:100A6000BB89D1962D913D914D915C91D497C70151
:100A7000B6010E94021A9B01AC01E981FA816081F2
:100A80007181828193810E943118A50194010E9495
:100A900032186B017C019B01AC01632D722DC801E2
:100AA0000E949E1887FD14C0EA89FB89E15BFF4F15
:100AB0003080218002811381232D322DA801B601BF
:100AC000C7010E949E1887FD03C03C2C2D2C870176
:100AD000AA89BB89DB96ED91FC91832D922DD801DB
:100AE00080839183A283B383EA89FB89E95BFF4F0B
:100AF0002B813C814D815E812083318342835383EE
:100B0000EA89FB89FF964E855F85688979894083EC
:100B1000518362837383AA89BB8956968C91811114
:100B20004CC060E070E080E89FE3EA89FB8926859D
:100B30003785408951890E94021A0E9415198A89B5
:100B40009B8963960FB6F894DEBF0FBECDBFDF91D1
:100B5000CF911F910F91FF90EF90DF90CF90BF90BA
:100B6000AF909F908F907F906F905F904F903F904D
:100B70002F900C941604EA89FB89E15BFF4F2081DA
:100B80003181428153812A873B874C875D87C3012E
:100B9000B2010E949E1887FF52CF4A855B856C8503
:100BA0007D85AF81B8854D935D936D937C9313974D
:100BB00046CF812C912C540152CF60E070E080E848
:100BC0009FEBB3CF63960FB6F894DEBF0FBECDBFD9
:100BD000DF91CF911F910F91FF90EF90DF90CF9019
:100BE000BF90AF909F908F907F906F905F904F904D
:100BF0003F902F900895FC0101900020E9F7319774
:100C0000AF01481B590BBC0182E491E00C942F0208
:100C10008F929F92AF92BF920F931F93CF93DF93C8
:100C2000CDB7DEB7A1970FB6F894DEBF0FBECDBF2C
:100C300019A2423008F44AE08E010F5D1F4F842E46
:100C4000912CB12CA12CA50194010E94461CE62FE9
:100C5000B901CA01EA30F4F4E05DD801EE938D01E8
:100C6000232B242B252B79F790E080E0109719F0A7
:100C7000CD010E94FB05A1960FB6F894DEBF0FBE12
:100C8000CDBFDF91CF911F910F91BF90AF909F90FB
:100C90008F900895E95CE1CF4F925F926F927F92BF
:100CA0008F929F92AF92BF92CF92DF92EF92FF927C
:100CB0000F931F93CF936B017C01742EAC019B01AA
:100CC0000E94051B882399F086E191E0CF911F9146
:100CD0000F91FF90EF90DF90CF90BF90AF909F90DB
:100CE0008F907F906F905F904F900C94FB05460122
:100CF0005701E894B7F82FEF3FEF4FE75FE7C501E3
:100D0000B4010E94051B81110DC02FEF3FEF4FE78B
:100D10005FE7C501B4010E949E1818161CF48AE111
:100D200091E0D4CF2FEF3FEF4FE75FE4C701B6016B
:100D30000E94FD1918161CF48EE191E0C7CF2FEF29
:100D40003FEF4FE75FECC701B6010E949E1887FD99
:100D5000F3CF20E030E0A901C701B6010E949E1840
:100D600010E000E087FF0AC06DE282E491E00E949B
:100D7000CF028C01F7FAF094F7F8F094C0E060E04D
:100D800070E080E09FE37C1641F020E030E040E23C
:100D900051E40E94A318CF5FF6CFA70196010E94ED
:100DA00032182B013C010E941C194B015C014AE0E6
:100DB0000E9408067C01E00EF11ECC23C1F1C501A2
:100DC000B4010E944B199B01AC01C301B2010E9406
:100DD00031184B015C016EE282E491E00E94CF0287
:100DE000E80EF91EC15018F120E030E040E251E475
:100DF000C501B4010E94021A2B013C010E941C197A
:100E00004B01B12CA12C4AE0C501B4010E94080697
:100E1000E80EF91EC501B4010E944B199B01AC01FB
:100E2000C301B2010E9431184B015C01DBCFC70145
:100E3000CF911F910F91FF90EF90DF90CF90BF90D7
:100E4000AF909F908F907F906F905F904F9008959C
:100E50004F925F926F927F928F929F92AF92BF92CA
:100E6000CF92DF92EF92FF92CF93DF93CDB7DEB7B1
:100E700064970FB6F894DEBF0FBECDBF2B013C01C7
:100E800080902C0290902D02A0902E02B0902F0204
:100E9000C0902802D0902902E0902A02F0902B0204
:100EA000A7019601C501B4010E9431186D837E83AC
:100EB0008F8398878091FC019091FD01A091FE01A4
:100EC000B091FF0189839A83AB83BC83A501940110
:100ED000C301B2010E9431182B013C0120E030E037
:100EE00040E450E40E946F1A6D877E878F87988B4D
:100EF0008090E8019090E901A090EA01B090EB01A8
:100F0000D501C401B05889879A87AB87BC8720E098
:100F100030E040E450E46D817E818F8198850E94AD
:100F20006F1A698B7A8B8B8B9C8B2091240230916A
:100F300025024091260250912702C701B6010E9466
:100F4000311829853A854B855C850E94021A6B0110
:100F50007C01A5019401C501B4010E94021A4B0154
:100F60005C0129813A814B815C81CA01B9010E94EF
:100F700032189B01AC01C501B4010E94A3189B016A
:100F8000AC01C701B6010E943118A0EEB1E02D916D
:100F90003D914D915C910E9432182D813E814F818F
:100FA00058850E94021A6B017C012D853E854F8574
:100FB000588969817A818B819C810E94021A20E084
:100FC00030E040EC50E40E94A31820914802309198
:100FD000490240914A0250914B020E9432189B01F3
:100FE000AC01C701B6010E9432186B017C012D8152
:100FF0003E814F815885CA01B9010E94021A298594
:101000003A854B855C850E94021A20E030E040E082
:101010005FE30E94021A9B01AC01C701B6010E9466
:1010200032186B017C0129893A894B895C89698175
:101030007A818B819C810E94021A20E030E040EC92
:1010400050E40E94A3189B01AC01C701B6010E94A5
:1010500032186B017C012091F0013091F101409137
:10106000F2015091F301C301B2010E94021A9B01E7
:10107000AC01C701B6010E94321864960FB6F8940D
:10108000DEBF0FBECDBFDF91CF91FF90EF90DF901D
:10109000CF90BF90AF909F908F907F906F905F9018
:1010A0004F9008954F925F926F927F928F929F928E
:1010B000AF92BF92CF92DF92EF92FF92CF93DF93E6
:1010C000EC014A015B01FC01EC5BFF4FC080D18069
:1010D000E280F38034972081318142815381C701BE
:1010E000B6010E9431182B013C01A7019601C501F0
:1010F000B4010E9431186B017C018C8C9D8CAE8CEC
:10110000BF8CB7FAB094B7F8B094A3019201C301B1
:10111000B2010E94021A9B01AC01C501B4010E94F8
:10112000021A20E030E040E05FE30E94021A2881CA
:1011300039814A815B810E943218A70196010E9481
:10114000021AFE01EC59FF4F208131814281538107
:101150000E9432184B015C01A7019601C701B6013C
:101160000E94021A288539854A855B850E94021AE9
:1011700020E030E040E05FE30E94021A9B01AC01F6
:10118000C501B4010E943118DF91CF91FF90EF901B
:10119000DF90CF90BF90AF909F908F907F906F9097
:1011A0005F904F9008958F929F92AF92BF92CF928F
:1011B000DF92EF92FF92CF93DF93EC01CB01BA0164
:1011C000FE01E05CFF4F20813181428153810E940A
:1011D00031186B017C0120E030E040E450E40E94D3
:1011E0006F1A5E0120E6A20EB11C2C8D3D8D4E8D36
:1011F0005F8D0E94021A20E030E040EC50E40E9433
:10120000A3189B01AC01F5016081718182819381FA
:101210000E9431184B015C01288139814A815B8130
:10122000C701B6010E94021A9B01AC01C501B401BD
:101230000E943218DF91CF91FF90EF90DF90CF9016
:10124000BF90AF909F908F9008954F925F926F9252
:101250007F928F929F92AF92BF92CF92DF92EF9246
:10126000FF92CF93DF93CDB7DEB72A970FB6F894EE
:10127000DEBF0FBECDBF9A878987CB01BA01E98552
:10128000FA8580AC91ACA2ACB3AC4480558066804A
:101290007780C08CD18CE28CF38CA50194010E94E4
:1012A000311869837A838B839C8320E030E040E4AB
:1012B00050E40E946F1A6D837E838F839887A30109
:1012C0009201C501B4010E94021A4B015C01A30105
:1012D0009201C301B2010E94021A2B013C01A70135
:1012E0009601C701B6010E9432189B01AC01C301EF
:1012F000B2010E94A3189B01AC01C501B4010E9478
:101300003118E985FA8524893589468957890E94EB
:10131000321829813A814B815C810E94021A298509
:101320003A85285A3F4FF90120813181428153810A
:101330000E9432184B015C01A70196016D817E81EC
:101340008F8198850E94021A20E030E040EC50E442
:101350000E94A3189B01AC01C501B4010E94321880
:101360002A960FB6F894DEBF0FBECDBFDF91CF91A6
:10137000FF90EF90DF90CF90BF90AF909F908F90B5
:101380007F906F905F904F9008952F923F924F9271
:101390005F926F927F928F929F92AF92BF92CF9205
:1013A000DF92EF92FF920F931F93CF93DF93CDB70E
:1013B000DEB7A8970FB6F894DEBF0FBECDBF1C01F5
:1013C0004D8F5E8F6F8F78A30D8B1E8B2F8B388F79
:1013D000898E9A8EAB8EBC8E21964CAC5DAC6EAC79
:1013E0007FAC21972D968CAD9DADAEADBFAD2D9749
:1013F000F10180839183A283B383D901C8018483DF
:101400009583A683B783C086D186E286F386DB0107
:10141000CA0184879587A687B78729968CAD9DAD2D
:10142000AEADBFAD2997808B918BA28BB38B2596E8
:101430008CAD9DADAEADBFAD2597848B958BA68B46
:10144000B78BD501C401808F918FA28FB38F448E4B
:10145000558E668E778E14A215A216A217A2299613
:101460002CAD3DAD4EAD5FAD29972D966CAD7DADEC
:101470008EAD9FAD2D970E943118A70196010E9455
:10148000A3186D877E878F87988BA3019201C70170
:10149000B6010E94A31869A37AA38BA39CA39B0106
:1014A000AC016D857E858F8598890E9431186D838A
:1014B0007E838F83988720E030E040E450E4C701CA
:1014C000B6010E946F1A4B015C01A3019201C30196
:1014D000B2010E94021A69877A878B879C87A701CD
:1014E0009601C701B6010E94021A698B7A8B8B8B19
:1014F0009C8B20E030E040EC50E469857A858B8558
:101500009C850E94021A9B01AC01C501B4010E9496
:10151000A3189B01AC010E9432184B015C0120E032
:1015200030E040E450E4C301B2010E94021A2D965B
:101530002CAD3DAD4EAD5FAD2D970E94021A9B01C3
:10154000AC0169897A898B899C890E943118A7012D
:1015500096010E94021A6DA37EA38FA398A720E094
:1015600030E040E450E469857A858B859C850E9453
:10157000021A9B01AC016DA17EA18FA198A50E94CA
:10158000A3189B01AC01C501B4010E9431184B01A5
:101590005C0129962CAD3DAD4EAD5FAD2997C701DD
:1015A000B6010E94021AA30192010E94A3189B0196
:1015B000AC01C501B4010E94321869837A838B8320
:1015C0009C8389889A88AB88BC88B7FAB094B7F8AE
:1015D000B094A3019201C301B2010E9432189B0191
:1015E000AC01C501B4010E94A3182D962CAD3DADF0
:1015F0004EAD5FAD2D970E9432182D813E814F81F7
:1016000058850E94021A9B01AC0169817A818B8105
:101610009C810E9432184B015C012D813E814F81DB
:101620005885CA01B9010E94021AA70196010E94B9
:10163000021A20E030E040E05FE30E94021A9B01C2
:10164000AC01C501B4010E9431182B013C01D1014C
:101650009C964D925D926D927C929F97F10110AA9B
:1016600011AA12AA13AA298D3A8D4B8D5C8D6D8912
:101670007E898F89988D0E94A3186B017C01D1010E
:10168000D496CD92DD92ED92FC92D79725962CAD13
:101690003DAD4EAD5FAD25972D966CAD7DAD8EAD5C
:1016A0009FAD2D970E9431182D893E894F89588D05
:1016B0000E94A3184B015C01F10180AE91AEA2AE75
:1016C000B3AEAC019B01C701B6010E943218698319
:1016D0007A838B839C83D101DC966D937D938D936C
:1016E0009C93DF97AB01BC01C1010E94250969876A
:1016F0007A878B879C87F10160A771A782A793A740
:101700009B01AC016D8D7E8D8F8D98A10E9431184B
:10171000A30192010E9431182D962CAD3DAD4EAD26
:101720005FAD2D970E94A31829813A814B815C817E
:101730000E9432186D837E838F839887F101E05C6D
:10174000FF4F60837183828393839B01AC0169A106
:101750007AA18BA19CA10E943218698B7A8B8B8B0A
:101760009C8BF101EC5BFF4F6083718382839383D9
:101770002D813E814F8158856D857E858F85988925
:101780000E9432186D877E878F87988BF101E85B06
:10179000FF4F60837183828393839B01AC0169A1B6
:1017A0007AA18BA19CA10E943218F101E45BFF4F4A
:1017B0006083718382839383D10190966D937D932F
:1017C0008D939C9393973496108211821282138288
:1017D00020E030E040E450E4C701B6010E946F1AF7
:1017E0009B01AC01698D7A8D8B8D9C8D0E94021AB4
:1017F00020E030E040EC50E40E94A3182B013C01B3
:1018000025962CAD3DAD4EAD5FAD2597C701B60118
:101810000E94021A9B01AC01C301B2010E9432185E
:101820002B013C01F101EC5AFF4F40825182628250
:101830007382A7019601C501B4010E9431184B01C2
:101840005C018101085A1F4FA7019601C701B6012B
:101850000E94021A298D3A8D4B8D5C8D0E94021ACE
:1018600020E030E040E05FE30E94021A25962CADB4
:101870003DAD4EAD5FAD25970E943218A501940194
:101880000E94021AA30192010E9432186B017C018E
:10189000A5019401C501B4010E94021A2D893E8957
:1018A0004F89588D0E94021A20E030E040E05FE34B
:1018B0000E94021A9B01AC01C701B6010E943218B6
:1018C000F801608371838283938349815A816B819C
:1018D0007C81C1010E942509F101E45AFF4F608318
:1018E0007183828393837101F0E6EF0EF11C2981ED
:1018F0003A814B815C816D817E818F8198850E94C8
:1019000031182D962CAD3DAD4EAD5FAD2D970E949B
:10191000021A29853A854B855C850E943218D701C9
:101920006D937D938D939C93139749895A896B8905
:101930007C89C1010E94D308F101EC59FF4F6083FB
:101940007183828393834D855E856F857889C1011C
:101950000E945208F101E859FF4F6083718382832E
:10196000938334968D8D9E8DAF8DB8A180839183A6
:10197000A283B383A8960FB6F894DEBF0FBECDBF87
:10198000DF91CF911F910F91FF90EF90DF90CF905B
:10199000BF90AF909F908F907F906F905F904F908F
:1019A0003F902F9008952F923F924F925F926F92A7
:1019B0007F928F929F92AF92BF92CF92DF92EF92DF
:1019C000FF920F931F93CF93DF93CDB7DEB7659749
:1019D0000FB6F894DEBF0FBECDBF4B015C01409047
:1019E0003402509035026090360270903702AC019C
:1019F0009B01C301B2010E94FD1918160CF0B9C079
:101A0000C090F801D090F901E090FA01F090FB014C
:101A100020E030E040E450E4C701B6010E946F1AB4
:101A20006D837E838F8398878091F4019091F50177
:101A3000A091F601B091F70189839A83AB83BC83AF
:101A400020E030E040E450E4BC01CD010E946F1A78
:101A50002B013C0120E030E040E151E4C701B60138
:101A60000E94021AA50194010E94021AA501940184
:101A70000E94021A69877A878B879C8720E030E072
:101A800040E051E4C301B2010E94021A9B01AC0183
:101A900069857A858B859C850E9432182D813E81CF
:101AA0004F8158850E94021A0E94C51A2B013C01E1
:101AB00020E030E040E450E4C701B6010E94021A81
:101AC000A70196010E94021AA50194010E94021A20
:101AD000A30192010E9432184B015C012BEA3AEA01
:101AE0004AE25FE30E946F1A2B013C012BEA3AEABB
:101AF0004AEA5EE3C501B4010E946F1A6D837E83DA
:101B00008F839887A7019601C701B6010E943218FA
:101B100029813A814B815C810E94021A9B01AC01B0
:101B2000C301B2010E9431184B015C012D813E813D
:101B30004F815885C701B6010E94021A9B01AC0172
:101B4000C501B4010E94A3189B01AC010E94021AB6
:101B5000A70196010E94021A20E030E040E05FE316
:101B60000E94021A29813A814B815C810E943218BD
:101B700020C2C0903802D0903902E0903A02F09032
:101B80003B02A7019601C501B4010E949E1887FF80
:101B9000D3C08091140290911502A0911602B091C9
:101BA000170289839A83AB83BC83C090E401D090F1
:101BB000E501E090E601F090E7018091F801909155
:101BC000F901A091FA01B091FB0189879A87AB874F
:101BD000BC878091F4019091F501A091F601B0913C
:101BE000F7018D839E83AF83B88729813A814B812A
:101BF0005C81CA01B9010E94021A29853A854B8588
:101C00005C850E94021A20E030E040E05FE30E9421
:101C1000021A2D813E814F8158850E9432186D87AE
:101C20007E878F87988B20E030E040E050ECC30146
:101C3000B2010E94021AA70196010E94021A2B010A
:101C40003C012D853E854F855889CA01B9010E9406
:101C5000021A9B01AC01C301B2010E9432182B0190
:101C60003C01A7019601C701B6010E943218A501E7
:101C700094010E94021A9B01AC01C301B2010E94AF
:101C800032180E94C51A9B01AC016D857E858F8537
:101C900098890E9432184B015C01A7019601698165
:101CA0007A818B819C810E94021A9B01AC01C50143
:101CB000B4010E9431184B015C012D813E814F819E
:101CC0005885CA01B9010E9432189B01AC01C501B7
:101CD000B4010E943118A70196010E94A31829811E
:101CE0003A814B815C810E943218A70196010E94C3
:101CF000021A4B015C01A7019601C701B6010E94BF
:101D0000021A2B013C0129853A854B855C85CA0165
:101D1000B9010E9432189B01AC01C301B2010E94BB
:101D2000A3189B01AC01C501B4010E9431182D819B
:101D30003E814F8158851ACF20913C0230913D025F
:101D400040913E0250913F02C501B4010E949E188D
:101D500087FF19C14090F8015090F9016090FA0195
:101D60007090FB0120E030E040E450E4C301B20198
:101D70000E946F1A6D877E878F87988BA7019601C7
:101D8000C501B4010E9431186B017C0180911802D9
:101D900090911902A0911A02B0911B0289839A8333
:101DA000AB83BC838090E4019090E501A090E601B4
:101DB000B090E701A3019201C301B2010E94321861
:101DC0006D837E838F839887A501940169817A81D1
:101DD0008B819C810E94021A69877A878B879C87F6
:101DE000A5019401C501B4010E94021A2D813E8112
:101DF0004F8158850E94A3189B01AC0169857A85A3
:101E00008B859C850E9431182091F4013091F50159
:101E10004091F6015091F7010E94321869877A8744
:101E20008B879C8720E030E040E450E40E946F1AEA
:101E3000698B7A8B8B8B9C8B20E030E040E151E406
:101E4000C301B2010E94021A4B015C01A701960175
:101E5000C701B6010E94021A9B01AC01C501B40181
:101E60000E94021A4B015C0120E030E040E051E4A6
:101E700069897A898B899C890E94021A9B01AC012D
:101E8000C501B4010E9432182D853E854F855889C1
:101E90000E94021A0E94C51A4B015C01A301920123
:101EA000C301B2010E94021A20E030E040E450E495
:101EB0000E94021AA70196010E94021AA50194012C
:101EC0000E9432184B015C012BEA3AEA4AE25FE3D6
:101ED0000E946F1A6B017C012BEA3AEA4AEA5EE340
:101EE000C501B4010E946F1A4B015C0129853A8536
:101EF0004B855C856D817E818F8198850E94021A59
:101F00009B01AC01C701B6010E9431186B017C0135
:101F1000A5019401C301B2010E94021A9B01AC0108
:101F2000C701B6010E94A31829813A814B815C81C7
:101F30000E94321820911C0230911D0240911E0215
:101F400050911F020E94311873016201F7FAF09458
:101F5000F7F8F0949B01AC010E94021A9B01AC01BE
:101F6000C701B6010E94021A20E030E040E05FE3C2
:101F70000E94021A2091E0013091E1014091E201BA
:101F80005091E301F3CD2091400230914102409104
:101F9000420250914302C501B4010E949E1887FF7E
:101FA00021C06091E0017091E1018091E201909186
:101FB000E30165960FB6F894DEBF0FBECDBFDF918B
:101FC000CF911F910F91FF90EF90DF90CF90BF9036
:101FD000AF909F908F907F906F905F904F903F90C9
:101FE0002F9008952091440230914502409146027D
:101FF00050914702C501B4010E949E1887FFD1C0CD
:1020000010910402909105029D8BA0910602A98B6C
:10201000009107023090200220902102B09122020C
:10202000B983809123028D83232D322D4B2F582F7E
:10203000612F792F8A2F902F0E94FD1918162CF0EE
:10204000132D2D8A9981998B0D81812F9D89A989C5
:10205000B02F8093040290930502A0930602B093E0
:102060000702C090FC01D090FD01E090FE01F090CD
:10207000FF01F7FAF094F7F8F0948091E001909165
:10208000E101A091E201B091E30189879A87AB87D2
:10209000BC87412F5D896989702F80EE91E00E9495
:1020A000D3082B013C01232D322D49815D81612F05
:1020B0007D898989902F0E9431186D877E878F874F
:1020C000988BA5019401C301B2010E9431182B0124
:1020D0003C012D853E854F855889CA01B9010E9472
:1020E000021AA70196010E94021A20E030E040E0A7
:1020F0005FE30E94021A29853A854B855C850E9420
:1021000032189B01AC01C301B2010E94A3189B01CC
:10211000AC01612F7D898989902F0E943118162F7B
:102120007D8B898B092F462F572F682F792F80EEB3
:1021300091E00E94D308A50194010E9431189F7775
:102140002FE632E143E85AE30E949E1887FFA1CFB1
:10215000812F9D89A989B02F809304029093050255
:10216000A0930602B0930702232D322D49815D8191
:10217000612F792F8A2F902F0E9431189B01AC017B
:102180000E94021AA70196010E94021A20E030E084
:1021900040E05FE30E94021A29853A854B855C8501
:1021A000E5CC209148023091490240914A02509179
:1021B0004B02C501B4010E949E1887FFD5C0109143
:1021C0000402909105029D8BA0910602A98B0091BB
:1021D00007023090240220902502B0912602B98394
:1021E000809127028D83232D322D4B2F582F612F65
:1021F000792F8A2F902F0E94FD1918162CF0132D7D
:102200002D8A9981998B0D81812F9D89A989B02F64
:102210008093040290930502A0930602B0930702F4
:102220006091E8017091E9018091EA019091EB01E0
:102230006B017C01F7FAF094F7F8F0949B01AC0184
:102240000E94021A2B013C016091FC017091FD017A
:102250008091FE019091FF019B01AC010E94321818
:102260009B01AC01C301B2010E94A3182B013C01E8
:102270008091E0019091E101A091E201B091E30130
:1022800089879A87AB87BC87412F5D896989702FC1
:1022900080EE91E00E945208A50194010E9431183D
:1022A0006D877E878F87988B232D322D49815D81A5
:1022B000612F7D898989902F0E943118A70196018D
:1022C0000E94021AA30192010E94311829853A85C1
:1022D0004B855C850E9432189B01AC016D857E8523
:1022E0008F8598890E94A3189B01AC01612F7D897D
:1022F0008989902F0E943118162F7D8B898B092F89
:10230000462F572F682F792F80EE91E00E945208B8
:10231000A50194010E9431189F772FE632E143E82E
:102320005AE30E949E1887FFAFCF812F9D89A9890C
:10233000B02F8093040290930502A0930602B093FD
:102340000702232D322D49815D81612F792F8A2F3C
:10235000902F0E943118A70196010E94021AA30132
:1023600092010E94311818CF20914C0230914D02F9
:1023700040914E0250914F02C501B4010E949E1837
:1023800087FFC8C0C0900402D0900502E09006020A
:10239000F09007021091280290912902998BA09148
:1023A0002A02AD8700912B02212F392F4A2F502F5F
:1023B000B601C7010E94FD19181624F41C2DD98AF4
:1023C000ED860F2D812F9989AD85B02F8093040262
:1023D00090930502A0930602B09307028091FC013E
:1023E0009091FD01A091FE01B091FF0189839A8334
:1023F000AB83BC83C0902C02D0902D02E0902E02C3
:10240000F0902F028091F0019091F101A091F201E2
:10241000B091F3018D839E83AF83B887612F798953
:102420008D85902F0E9428072B013C01A701960162
:10243000612F79898D85902F0E94311869877A875D
:102440008B879C87A5019401C301B2010E943118BA
:102450002B013C0129853A854B855C85CA01B90170
:102460000E94021A29813A814B815C810E94021AE2
:1024700020E030E040E05FE30E94021A2D813E81BF
:102480004F8158850E9432189B01AC01C301B201F3
:102490000E94A3189B01AC01612F79898D85902F33
:1024A0000E943118162F798B8D87092F0E942807DB
:1024B000A50194010E9431189F772FE632E143E88D
:1024C0005AE30E949E1887FFA9CF812F9989AD8575
:1024D000B02F8093040290930502A0930602B0935C
:1024E0000702A7019601612F792F8A2F902F0E9452
:1024F00031189B01AC010E94021A29813A814B815B
:102500005C810E94021A20E030E040E05FE30E941C
:10251000021A0DCC60E070E0CB014BCD1F920F9200
:102520000FB60F9211242F933F938F939F93AF93E6
:10253000BF9380913D0190913E01A0913F01B091E8
:1025400040013091380123E0230F2D3758F50196D3
:10255000A11DB11D2093380180933D0190933E0150
:10256000A0933F01B09340018091390190913A01CD
:10257000A0913B01B0913C010196A11DB11D80933A
:10258000390190933A01A0933B01B0933C01BF9174
:10259000AF919F918F913F912F910F900FBE0F9010
:1025A0001F90189526E8230F0296A11DB11DD2CFCA
:1025B0001F920F920FB60F9211242F933F934F93B8
:1025C0005F936F937F938F939F93AF93BF93EF939B
:1025D000FF93E0910201F09103010995FF91EF91C2
:1025E000BF91AF919F918F917F916F915F914F912B
:1025F0003F912F910F900FBE0F901F9018951F9233
:102600000F920FB60F9211242F933F934F935F9326
:102610006F937F938F939F93AF93BF93EF93FF93AA
:10262000E0910001F09101010995FF91EF91BF91B7
:10263000AF919F918F917F916F915F914F913F915A
:102640002F910F900FBE0F901F9018951F920F9211
:102650000FB60F9211242F933F934F935F936F9375
:102660007F938F939F93AF93BF93EF93FF9382E4F6
:1026700091E00E94AD02FF91EF91BF91AF919F91C8
:102680008F917F916F915F914F913F912F910F901B
:102690000FBE0F901F9018951F920F920FB60F92BA
:1026A00011242F938F939F93EF93FF93E091520107
:1026B000F09153018081E0915801F091590182FD20
:1026C0001BC0908180915B018F5F8F7320915C01B3
:1026D000821741F0E0915B01F0E0EE5BFE4F958FD9
:1026E00080935B01FF91EF919F918F912F910F90BC
:1026F0000FBE0F901F9018958081F4CF2F923F92BC
:102700004F925F926F927F928F929F92AF92BF9201
:10271000CF92DF92EF92FF920F931F93CF93DF93AD
:1027200000D01F92CDB7DEB79B838A836983F22ED8
:10273000DC011D921D921D921C92139715961C92FE
:102740001E9214978EEA97E4A1EABFE3EA81FB8127
:1027500086839783A087B187DF011286138614864C
:102760001586068B57966C93579758964C935897A7
:10277000EE24E3945A96EC925A975B96EC925B9710
:1027800082E05C968C930E94BE010E94A9018A811E
:102790009B810E96AA81BB81DC969C938E93DB97DE
:1027A0000A2E1B2EDA961C920E921124D997CD0177
:1027B0004296DE969C938E93DD976D01B7E5CB0E26
:1027C000D11CF60110822A803B80FFE42F0E311CC1
:1027D000D1011D921D921D921C9213976A807B80DD
:1027E000B3E56B0E711C80E090E0AFE7B3E4F3015A
:1027F00080839183A283B3830A811B81055B1F4F72
:1028000084E690E0A0E0B0E0F80180839183A283A9
:10281000B383AA81BB81D6961C921E92D59781E084
:1028200090E0D8969C938E93D797FD01E85AFF4F7E
:10283000E08280E090E0A0E2B0E4EA81FB81858F55
:10284000968FA78FB0A340E050E060EA71E441A307
:1028500052A363A374A340E050E060E87EE345A385
:1028600056A367A370A781A792A7A3A7B4A740E028
:1028700050E060E070E445A756A767A770AB81AB56
:1028800092ABA3ABB4AB2FB7F89480913D0190917C
:102890003E01A0913F01B09140012FBF9F01215CFB
:1028A0003F4FF8014081518162817381841B950BF8
:1028B000A60BB70BF90180839183A283B3830E9497
:1028C000BE01F3E0FF1609F463C084E0F81609F4D2
:1028D0006DC092E0F91609F446C00E94A901AA81D0
:1028E000BB815B96FC925B9782E05C968C935C97D5
:1028F000F6018081811175C0DB96ED91FC91DC972A
:1029000080809180A280B3807D01F3E4EF0EF11C02
:10291000D7018D929D92AD92BC921397AA81BB81F3
:10292000D996ED91FC9180819181A281B381EA8158
:10293000FB81E95BFF4F80839183A283B383F30123
:102940004080518062807380A3019201C501B4016F
:102950000E94FD191816C4F5D7014D925D926D9233
:102960007C9213973EC0809141018D7E80934101FE
:102970000E944D018091B00083628093B000F0927C
:10298000B1001092B40061E083E00E947801A7CF0B
:10299000809141018F75809341010E944D0184B562
:1029A000836884BD17BC61E086E0EFCF8091410170
:1029B0008E7B809341010E944D0184B5836284BD6A
:1029C00018BC61E085E0E1CFF10140805180628078
:1029D0007380A3019201C501B4010E949E1887FD76
:1029E000BBCF81E0F6018083D8016D917D918D91FF
:1029F0009C910E944B199B01AC0160E070E088EC57
:102A000092E40E94A3186B017C01AC019B01EA8156
:102A1000FB8165A576A587A590A90E94021AAA81C7
:102A2000BB819D966D937D938D939C93D097A701C9
:102A30009601D1966D917D918D919C91D4970E9434
:102A4000A318EA81FB8161AB72AB83AB94AB84E6E4
:102A500090E0A0E0B0E0F80180839183A283B3838B
:102A600060E089810F900F900F90DF91CF911F91BF
:102A70000F91FF90EF90DF90CF90BF90AF909F901D
:102A80008F907F906F905F904F903F902F900C941D
:102A900078018F929F92AF92BF92CF92DF92EF9286
:102AA000FF920F931F93E2E4F1E01382128288EE0B
:102AB00093E0A0E0B0E084839583A683B78388E0A9
:102AC00091E09183808385EC90E09587848784EC06
:102AD00090E09787868780EC90E0918B808B81ECEB
:102AE00090E0938B828B82EC90E0958B848B86ECCC
:102AF00090E0978B868B118E128E138E148E10920F
:102B0000DF0101E021E030E042E163E089EA92E0A8
:102B10000E947E1300E024E030E040E162E080E5C6
:102B200092E00E947E1381E48F9390EB9F931F921B
:102B30001F928F9380E28F931F921F9280E48F9356
:102B400080EC8F931F921F9282E48F9388EC8F9377
:102B50001F921F92812C912C8AEFA82E83E4B82E0D
:102B6000C12CD12C90EFE92E91E4F92E00E010E079
:102B700028E432E440E050E060EA71E480EE91E065
:102B80000E94C5098DB79EB740960FB6F8949EBFB8
:102B90000FBE8DBF1F910F91FF90EF90DF90CF90F0
:102BA000BF90AF909F908F900895CF93DF93CDB754
:102BB000DEB7C457D1090FB6F894DEBF0FBECDBF44
:102BC000789484B5826084BD84B5816084BD85B508
:102BD000826085BD85B5816085BD80916E00816014
:102BE00080936E00109281008091810082608093BA
:102BF00081008091810081608093810080918000BC
:102C00008160809380008091B10084608093B100E6
:102C10008091B00081608093B00080917A008460E0
:102C200080937A0080917A00826080937A0080910C
:102C30007A00816080937A0080917A008068809326
:102C40007A001092C100E0915201F091530182E0AC
:102C50008083E0914E01F0914F011082E09150018C
:102C6000F091510180E1808310925A01E091560168
:102C7000F091570186E08083E0915401F091550175
:102C8000808180618083E0915401F09155018081C1
:102C900088608083E0915401F091550180818068C3
:102CA0008083E0915401F091550180818F7D808374
:102CB00060E080E10E9478018EE094E09093010151
:102CC00080930001809169008C7F8160809369000E
:102CD000E89A60E082E10E94780182E194E09093BA
:102CE00003018093020180916900837F8460809357
:102CF0006900E99A8FE38F9395E99F9392EC9F93F4
:102D00009FE89F938F931F921F921F928EE38F9342
:102D10008CE48F938CEC8F938DEC8F9380E48F9366
:102D200086E68F938F938F9388E4882E81EE982E7A
:102D30008AE5A82E80E4B82E9AE9C92E99E9D92E01
:102D4000ED2C9FE3F92E00E010E020E83FE34AE994
:102D500059E969E870E4CE0101960E94C50960E076
:102D600070E0CB010E94FB010FB6F894DEBF0FBEEE
:102D7000CDBF00E010E080E592E00E9496030E9443
:102D8000D30C20E030E0A9010E949E18882309F4AA
:102D900030C10E94D6016B017C0180E592E00E9467
:102DA00096034B015C0189EA92E00E9496039B0125
:102DB000AC01C501B4010E94321820E030E040E0CF
:102DC0005FE30E94021A0E94D30C4B015C010E9437
:102DD000D6012B013C014C185D086E087F0820E0ED
:102DE00030E040E752E4C501B4010E94021A2AE82B
:102DF00036E54DEF50E40E94A3186B017C01C092B0
:102E0000BB02D092BC02E092BD02F092BE02C09220
:102E10006202D0926302E0926402F092650289EA53
:102E200092E00E94480480E592E00E94480480E518
:102E300092E00E949603E5966CAF7DAF8EAF9FAF98
:102E4000E59789EA92E00E9496039B01AC01E59622
:102E50006CAD7DAD8EAD9FADE5970E94321820E040
:102E600030E040E05FE30E94021A42E00E944C061C
:102E700082E291E00E94FB0542E0C501B4010E949C
:102E80004C0682E291E00E94FB054AE0C301B201D8
:102E900077FE0DC06DE282E491E00E94CF026627CA
:102EA0007727CB0164197509860997094AE00E94C2
:102EB000080682E291E00E94FB0542E0C701B601EC
:102EC0000E944C0682E291E00E94FB056091A902FB
:102ED0007091AA028091AB029091AC0242E00E94F4
:102EE0004C0682E291E00E94FB05609150027091D5
:102EF0005102809152029091530242E00E944C068E
:102F000082E291E00E94FB052091A9023091AA0281
:102F10004091AB025091AC0260915002709151020D
:102F200080915202909153020E94321820E030E0CA
:102F300040E05FE30E94021AA70196010E94311847
:102F400042E00E944C0685E291E00E94FB05609100
:102F5000AD027091AE02072E000C880B990B0E94F7
:102F60004D1920E030E040EF54E40E94A318609334
:102F7000B3027093B4028093B5029093B60210929C
:102F8000A9021092AA021092AB021092AC026091B8
:102F9000540270915502072E000C880B990B0E9469
:102FA0004D1920E030E040EF54E40E94A3186093F4
:102FB0005A0270935B0280935C0290935D021092C0
:102FC000500210925102109252021092530264E683
:102FD00070E080E090E00E94FB010115110509F40A
:102FE000CACE0E949902882309F4C5CE0E9400002F
:102FF000C2CE88E291E00E94FB0585E291E00E944A
:10300000FB058DE291E00E94FB052091B302309117
:10301000B4024091B5025091B60260915A0270918B
:103020005B0280915C0290915D020E94321820E068
:1030300030E040E05FE30E94021A42E00E944C064A
:1030400070E060E089EA92E00E94160470E060E0BF
:1030500080E592E00E94160460E07AEC8AE99BE346
:10306000BACF5058BB27AA270E9449180C94C319FD
:103070000E94B51938F00E94BC1920F039F49F3F26
:1030800019F426F40C94B2190EF4E095E7FB0C94B5
:10309000AC19E92F0E94D41958F3BA1762077307C5
:1030A0008407950720F079F4A6F50C94F6190EF430
:1030B000E0950B2EBA2FA02D0B01B90190010C0148
:1030C000CA01A0011124FF27591B99F0593F50F460
:1030D000503E68F11A16F040A22F232F342F4427B8
:1030E000585FF3CF469537952795A795F0405395B0
:1030F000C9F77EF41F16BA0B620B730B840BBAF080
:103100009150A1F0FF0FBB1F661F771F881FC2F7EA
:103110000EC0BA0F621F731F841F48F487957795FE
:103120006795B795F7959E3F08F0B0CF9395880FB8
:1031300008F09927EE0F9795879508950E948819B2
:1031400008F481E008950E94B7180C94C3190E94F6
:10315000BC1958F00E94B51940F029F45F3F29F0DE
:103160000C94AC1951110C94F7190C94B2190E94DB
:10317000D41968F39923B1F3552391F3951B550B9B
:10318000BB27AA2762177307840738F09F5F5F4F3A
:10319000220F331F441FAA1FA9F335D00E2E3AF079
:1031A000E0E832D091505040E695001CCAF72BD091
:1031B000FE2F29D0660F771F881FBB1F26173707E2
:1031C0004807AB07B0E809F0BB0B802DBF01FF2714
:1031D00093585F4F3AF09E3F510578F00C94AC192C
:1031E0000C94F7195F3FE4F3983ED4F386957795F6
:1031F0006795B795F7959F5FC9F7880F911D9695CD
:10320000879597F90895E1E0660F771F881FBB1F28
:10321000621773078407BA0720F0621B730B840BD5
:10322000BA0BEE1F88F7E09508950E941C19689468
:10323000B1110C94F71908950E94DC1988F09F577A
:1032400098F0B92F9927B751B0F0E1F0660F771FCA
:10325000881F991F1AF0BA95C9F714C0B13091F0C0
:103260000E94F619B1E008950C94F619672F782F93
:103270008827B85F39F0B93FCCF386957795679585
:10328000B395D9F73EF490958095709561957F4FF1
:103290008F4F9F4F0895E89409C097FB3EF4909597
:1032A0008095709561957F4F8F4F9F4F9923A9F01F
:1032B000F92F96E9BB279395F695879577956795AE
:1032C000B795F111F8CFFAF4BB0F11F460FF1BC0F2
:1032D0006F5F7F4F8F4F9F4F16C0882311F096E985
:1032E00011C0772321F09EE8872F762F05C0662333
:1032F00071F096E8862F70E060E02AF09A95660FEC
:10330000771F881FDAF7880F9695879597F90895A4
:10331000990F0008550FAA0BE0E8FEEF16161706E6
:10332000E807F907C0F012161306E407F50798F04E
:10333000621B730B840B950B39F40A2661F0232B67
:10334000242B252B21F408950A2609F4A140A695E3
:103350008FEF811D811D089597F99F6780E870E0C8
:1033600060E008959FEF80EC089500240A941616FB
:10337000170618060906089500240A941216130663
:10338000140605060895092E0394000C11F48823F1
:1033900052F0BB0F40F4BF2B11F460FF04C06F5F0D
:1033A0007F4F8F4F9F4F089557FD9058440F551FE3
:1033B00059F05F3F71F04795880F97FB991F61F0B7
:1033C0009F3F79F087950895121613061406551F2E
:1033D000F2CF4695F1DF08C0161617061806991F9A
:1033E000F1CF86957105610508940895E894BB278F
:1033F00066277727CB0197F908950E94881908F46A
:103400008FEF08950E94151A0C94C3190E94B519E4
:1034100038F00E94BC1920F0952311F00C94AC19DF
:103420000C94B21911240C94F7190E94D41970F35A
:10343000959FC1F3950F50E0551F629FF001729F59
:10344000BB27F00DB11D639FAA27F00DB11DAA1F68
:10345000649F6627B00DA11D661F829F2227B00DB5
:10346000A11D621F739FB00DA11D621F839FA00D40
:10347000611D221F749F3327A00D611D231F849F90
:10348000600D211D822F762F6A2F11249F575040E7
:103490009AF0F1F088234AF0EE0FFF1FBB1F661F62
:1034A000771F881F91505040A9F79E3F510580F02B
:1034B0000C94AC190C94F7195F3FE4F3983ED4F3E5
:1034C000869577956795B795F795E7959F5FC1F7CF
:1034D000FE2B880F911D9695879597F90895FA010F
:1034E000EE0FFF1F309621053105A1F16115710521
:1034F00061F48038BFE39B0749F1689490388105F7
:1035000061F08038BFEF9B0741F099234AF5FF3FF8
:10351000E1053105210519F1E8940894E795D901F1
:10352000AA2329F4AB2FBE2FF85FD0F310C0FF5FA2
:1035300070F4A695E0F7F73950F019F0FF3A38F437
:103540009F779F930DD00F9007FC9058089546F0F9
:103550000C94B21960E070E080E89FE308954FE7B3
:103560009F775F934F933F932F930E94CA1B2F9196
:103570003F914F915F910E94021A0C94121B19F413
:1035800016F40C94B2190C94441B0E94DC19B8F385
:103590009923C9F3B6F39F57550B87FF0E94521B1F
:1035A0000024A0E640EA900180585695979528F4AB
:1035B000805C660F771F881F20F0261737074807A3
:1035C00030F4621B730B840B202931294A2BA695FA
:1035D00017940794202531254A2758F7660F771F3F
:1035E000881F20F026173707480730F4620B730B4B
:1035F000840B200D311D411DA09581F7B901842F49
:103600009158880F9695879508950E948819880B80
:10361000990B089529F416F00C94AC190C94F61932
:103620000C94B2190E94DC19A8F39638A0F707F899
:103630000F92E8942BE33AEA48EB5FE70E94181AEE
:103640000F920F920F924DB75EB70F920E94121C0D
:10365000E8E6F0E00E94591B4F915F91EF91FF91D6
:10366000E595EE1FFF1F49F0FE57E0684427EE0F77
:10367000441FFA95E1F74195550B0E948C1B0F9062
:1036800007FE0C94801B08959F3F31F0915020F469
:10369000879577956795B795880F911D969587952E
:1036A00097F9089591505040660F771F881FD2F701
:1036B0000895DF93CF931F930F93FF92EF92DF92C2
:1036C0007B018C01689406C0DA2EEF010E94151A66
:1036D000FE01E894A5912591359145915591A6F368
:1036E000EF010E944918FE019701A801DA9469F7D9
:1036F000DF90EF90FF900F911F91CF91DF91089590
:103700009B01AC0160E070E080E89FE30C94A3189B
:103710000C94AC190C94441B0E94DC19D8F3992327
:10372000C9F3940F511DA3F39150504094F059F0F8
:10373000882332F0660F771F881F91505040C1F7E1
:103740009E3F51052CF7880F911D9695879597F907
:1037500008955F3FACF0983E9CF0BB278695779527
:103760006795B79508F4B1609395C1F7BB0F58F70B
:1037700011F460FFE8CF6F5F7F4F8F4F9F4FE3CF14
:103780000C94F71916F00C94441B0C94B21968941D
:103790000C94AC190E94DC19A8F39923C1F3AEF381
:1037A000DF93CF931F930F93FF92C92FDD278823B9
:1037B0002AF02197660F771F881FDAF720E030E0A4
:1037C00040E85FEB9FE3883920F0803E38F0219697
:1037D0008F770E943218E0E9F0E004C00E943218AE
:1037E000EDEBF0E00E94591B8B01BE01EC01FB2EBA
:1037F0006F5771097595771F880B990B0E944D19AA
:1038000028E132E741E35FE30E94151AAF2D9801EA
:10381000AE01FF900F911F91CF91DF910E94491847
:103820000C94C319FA01DC01AA0FBB1F9B01AC0168
:10383000BF5728F4222733274427507820C0B75198
:1038400090F4AB2F0024469537952795011CA3953E
:10385000D2F3002071F0220F331F441FB395DAF327
:103860000ED00C94311861307105A0E88A07B94672
:1038700030F49B01AC016627772788279078309633
:1038800021F020833183428353830895A1E21A2ECD
:10389000AA1BBB1BFD010DC0AA1FBB1FEE1FFF1FF4
:1038A000A217B307E407F50720F0A21BB30BE40B44
:1038B000F50B661F771F881F991F1A9469F760958B
:1038C0007095809590959B01AC01BD01CF01089545
:1038D000EE0FFF1F0590F491E02D0994F894FFCFAF
:1038E0002E022E0200000000CF022F025C021C03F9
:1038F0008D026B027F026E616E00696E66006F76EC
:1039000066002C20000D0A00446F6E6500726F7413
:083910006174696F6E733A00E7
:107E0000112484B714BE81FFF0D085E080938100F7
:107E100082E08093C00088E18093C10086E0809377
:107E2000C20080E18093C4008EE0C9D0259A86E02C
:107E300020E33CEF91E0309385002093840096BBD3
:107E4000B09BFECF1D9AA8958150A9F7CC24DD24C4
:107E500088248394B5E0AB2EA1E19A2EF3E0BF2EE7
:107E6000A2D0813461F49FD0082FAFD0023811F036
:107E7000013811F484E001C083E08DD089C08234E0
:107E800011F484E103C0853419F485E0A6D080C0E4
:107E9000853579F488D0E82EFF2485D0082F10E0AE
:107EA000102F00270E291F29000F111F8ED06801E7
:107EB0006FC0863521F484E090D080E0DECF843638
:107EC00009F040C070D06FD0082F6DD080E0C81688
:107ED00080E7D80618F4F601B7BEE895C0E0D1E017
:107EE00062D089930C17E1F7F0E0CF16F0E7DF06D8
:107EF00018F0F601B7BEE89568D007B600FCFDCFD4
:107F0000A601A0E0B1E02C9130E011968C91119780
:107F100090E0982F8827822B932B1296FA010C0160
:107F200087BEE89511244E5F5F4FF1E0A038BF0790
:107F300051F7F601A7BEE89507B600FCFDCF97BE46
:107F4000E89526C08437B1F42ED02DD0F82E2BD052
:107F50003CD0F601EF2C8F010F5F1F4F84911BD097
:107F6000EA94F801C1F70894C11CD11CFA94CF0C13
:107F7000D11C0EC0853739F428D08EE10CD085E9AC
:107F80000AD08FE07ACF813511F488E018D01DD067
:107F900080E101D065CF982F8091C00085FFFCCF94
:107FA0009093C60008958091C00087FFFCCF809118
:107FB000C00084FD01C0A8958091C6000895E0E648
:107FC000F0E098E1908380830895EDDF803219F02E
:107FD00088E0F5DFFFCF84E1DECF1F93182FE3DFCA
:107FE0001150E9F7F2DF1F91089580E0E8DFEE27F6
:047FF000FF270994CA
:027FFE00040479
:00000001FF
