:020000040000FA
:100000000C94A3000C94AA090C9483090C94CB00C3
:100010000C94CB000C94CB000C94CB000C94CB0034
:100020000C94CB000C94CB000C94CB000C94CB0024
:100030000C94CB000C94CB000C94CB000C94CB0014
:100040000C9439090C94CB000C94F7090C94D10949
:100050000C94CB000C94CB000C94CB000C94CB00F4
:100060000C94CB000C94CB0007634236B79BD8A707
:100070001A39685618AEBAAB558C1D3CB7CC5763CD
:10008000BD6DEDFD753EF6177231BF000000803F7B
:1000900008000000BE922449123EABAAAA2ABECD97
:1000A000CCCC4C3E00000080BEABAAAAAA3E000009
:1000B0000000BF000000803F000000000008417801
:1000C000D3BB4387D1133D190E3CC3BD4282AD2B38
:1000D0003E68EC8276BED98FE1A93E4C80EFFFBE30
:1000E00001C4FF7F3F00000000000000000024006A
:1000F00027002A0000000000250028002B00000037
:10010000000023002600290004040404040404045D
:1001100002020202020203030303030301020408B2
:100120001020408001020408102001020408102061
:1001300000000008000201000003040700000000A6
:1001400000000000440C11241FBECFEFD8E0DEBF3A
:10015000CDBF11E0A0E0B1E0E8EAF3E302C0059012
:100160000D92A833B107D9F723E0A8E3B1E001C0AD
:100170001D92A231B207E1F710E0C3EAD0E004C05B
:100180002197FE010E94CC19C23AD107C9F70E94FB
:10019000870D0C94D2190C940000833081F028F460
:1001A000813099F08230A9F008958730A9F0883025
:1001B000C9F08430B1F4809180008F7D03C08091BC
:1001C00080008F7780938000089584B58F7784BDF9
:1001D000089584B58F7DFBCF8091B0008F77809399
:1001E000B00008958091B0008F7DF9CFCF93DF9359
:1001F000282F30E0F901E05DFE4F8491F901E45EC3
:10020000FE4FD491F901E85FFE4FC491CC23A1F0D9
:1002100081110E94CD00EC2FF0E0EE0FFF1FE250A5
:10022000FF4FA591B491EC91ED2381E090E009F4AA
:1002300080E0DF91CF91089580E090E0FACF1F93A6
:10024000CF93DF93282F30E0F901E05DFE4F8491DA
:10025000F901E45EFE4FD491F901E85FFE4FC491CD
:10026000CC23A9F0162F81110E94CD00EC2FF0E0D5
:10027000EE0FFF1FEC50FF4FA591B4918FB7F8948C
:10028000EC91111108C0D095DE23DC938FBFDF9174
:10029000CF911F910895DE2BF8CFCF93DF9360E0CD
:1002A0008CE00E941F0160E088E00E941F01C7E00F
:1002B000D0E060E084E00E941F018091410190E065
:1002C0000C2E02C0959587950A94E2F761E080FFB5
:1002D00060E088E00E941F0161E084E00E941F014D
:1002E000219738F761E08CE0DF91CF910C941F01EA
:1002F000CF93DF9390E0FC01E45EFE4F2491885F92
:100300009E4FFC0184918823D1F090E0880F991FC3
:10031000FC01E651FF4FA591B491FC01EC50FF4F59
:10032000C591D49161110EC09FB7F8948C91E22FC2
:10033000E0958E238C932881E223E8839FBFDF9191
:10034000CF9108958FB7F894EC91E22BEC938FBF87
:10035000F6CF80914101837F809341010E944D013E
:10036000E0EBF0E080818368808382E08093B100DD
:100370001092B30061E08BE00C94780161E08CE0B6
:100380000E94780161E087E00E94780161E088E0E6
:100390000E94780161E084E00E947801109241019E
:1003A0000E944D0160E087E00C941F013FB7F89474
:1003B0008091390190913A01A0913B01B0913C01AB
:1003C00026B5A89B05C02F3F19F00196A11DB11DB0
:1003D0003FBFBA2FA92F982F8827BC01CD01620FEC
:1003E000711D811D911D42E0660F771F881F991FA7
:1003F0004A95D1F708958F929F92AF92BF92CF9274
:10040000DF92EF92FF926B017C010E94D6014B01BB
:100410005C01C114D104E104F104B9F00E94D601D9
:10042000681979098A099B09683E7340810591051D
:1004300080F321E0C21AD108E108F10888EE880EA5
:1004400083E0981EA11CB11CE4CFFF90EF90DF90D9
:10045000CF90BF90AF909F908F9008950895AF92E6
:10046000BF92CF92DF92EF92FF920F931F93CF93A1
:10047000DF936C017B018B01040F151FEB015E0103
:10048000AE18BF08C017D10759F06991D601ED9198
:10049000FC910190F081E02DC6010995892B79F737
:1004A000C501DF91CF911F910F91FF90EF90DF90E9
:1004B000CF90BF90AF900895FC01538D448D252FB0
:1004C00030E0842F90E0821B930B541710F0CF96EE
:1004D000089501970895FC01918D828D981761F020
:1004E000A28DAE0FBF2FB11D5D968C91928D9F5F37
:1004F0009F73928F90E008958FEF9FEF0895FC0116
:10050000918D828D981731F0828DE80FF11D858DC8
:1005100090E008958FEF9FEF0895FC01918D228D5B
:10052000892F90E0805C9F4F821B91098F739927E0
:10053000089582E491E00E948D0221E0892B09F464
:1005400020E0822F089580E090E0892B29F00E941E
:10055000990281110C9400000895FC01A48DA80F4C
:10056000B92FB11DA35ABF4F2C91848D90E00196F5
:100570008F739927848FA689B7892C93A089B18915
:100580008C91837080648C93938D848D981306C0B6
:100590000288F389E02D80818F7D80830895EF921A
:1005A000FF920F931F93CF93DF93EC0181E0888F2D
:1005B0009B8D8C8D98131AC0E889F989808185FFFD
:1005C00015C09FB7F894EE89FF896083E889F9899F
:1005D00080818370806480839FBF81E090E0DF91A1
:1005E000CF911F910F91FF90EF900895F62E0B8DF4
:1005F00010E00F5F1F4F0F731127E02E8C8D8E11AF
:100600000CC00FB607FCFACFE889F989808185FF15
:10061000F5CFCE010E94AD02F1CFEB8DEC0FFD2F97
:10062000F11DE35AFF4FF0829FB7F8940B8FEA89D0
:10063000FB8980818062CFCFCF93DF93EC01888DDF
:100640008823B9F0AA89BB89E889F9898C9185FD4D
:1006500003C0808186FD0DC00FB607FCF7CF8C91DB
:1006600085FFF2CF808185FFEDCFCE010E94AD02E4
:10067000E9CFDF91CF910895FC018081823069F04C
:1006800028F423E092E0813051F00895833011F195
:1006900026E090E0843019F0089524E091E0623083
:1006A000E1F0643079F1613009F03FC041E050E0A1
:1006B000BA0101C0660F9A95EAF780914101862B35
:1006C00001C0440F2A95EAF7409548234093410121
:1006D0000C944D0127E095E0E2CF41E050E0BA01F3
:1006E00002C0660F771F9A95E2F7CB018095909133
:1006F0004101892301C0440F2A95EAF7842B809396
:100700004101E6CF41E050E0FA0102C0EE0FFF1FC9
:100710009A95E2F7CF0101C0440F2A95EAF7842B9E
:100720008095909141018923EACF0895CF93DF937B
:10073000EC012E813F81488559856A857B858C85B2
:100740009D850E94A21620E030E040EF54E40E9414
:10075000BD156A8B7B8B8C8B9D8B9B01AC010E94A2
:100760004C1528ED3FE049E450E40E945A172E85CD
:100770003F85488959890E945A17DF91CF91089582
:100780000F931F93CF93DF93EC018F8D0E94F600A0
:100790008C0189A181110DC00130110551F488A18E
:1007A0000E94F6009C019AA121153105C1F4911116
:1007B0001AA209A3AE8DE881F9812E813F81488577
:1007C00059856A857B858C859D85BAA1B1110FC03D
:1007D000A1110FC03196F983E883A1E00EC021304A
:1007E000310539F79111E5CF81E08AA3E2CFA1115C
:1007F000F1CF3197F983E883AFEF0E94C0192E83C0
:100800003F83488759876A877B878C879D87DF91DD
:10081000CF911F910F91089580E592E00C94C00351
:1008200081EB92E00C94C003FC01AC014D5D5F4F85
:100830009B0177FF04C022273327261B370B93A188
:100840009230C9F078F4913099F0868D882319F0B0
:100850007195619571091616170694F461E0CA0145
:100860000C943C03933051F0943079F728BDEDCFD0
:100870002093B300EACF2093B400E7CF27BDE5CFA4
:10088000672B11F062E0EBCF64E0E9CF2F923F924B
:100890004F925F926F927F928F929F92AF92BF9290
:1008A000CF92DF92EF92FF920F931F93CF93DF933C
:1008B000CDB7DEB763970FB6F894DEBF0FBECDBFDE
:1008C0009B8B8A8BFC01E15AFF4F8081882309F4BE
:1008D00031C18FB7F89420913D0130913E01409194
:1008E0003F01509140012E873F87488B598B8FBF26
:1008F000EA89FB89E95BFF4F80819181A281B38105
:100900004E855F8568897989481B590B6A0B7B0B7B
:10091000EA89FB89ED5AFF4F80819181A281B381E1
:10092000481759076A077B0708F404C1EA89FB895D
:10093000EF5BFF4F0190F081E02D80819181A281DA
:10094000B3818B839C83AD83BE83EA89FB89EB5B98
:10095000FF4F0190F081E02D9C01AD01608171811C
:10096000828193810E944B154B015C01EA89FB89CE
:10097000E15BFF4F20813181428153816B817C811A
:100980008D819E810E944B156B017C01AA89BB89D8
:10099000D5962D913D914D915C91D897C501B401AB
:1009A0000E945A17EA89FB89E55BFF4FFA83E983C6
:1009B00020813181428153810E944C152B013C01E1
:1009C000A981BA814D925D926D927C921397EA89CA
:1009D000FB89E05AFF4FB081B987B11117C0EA898E
:1009E000FB8921A932A943A954A9C701B6010E94D4
:1009F0005A179B01AC01C301B2010E944B15A9819A
:100A0000BA816D937D938D939C931397EA89FB89AB
:100A1000E55BFF4FF887EF834080518062807380F1
:100A2000EA89FB89E55AFF4F3080218002811381DA
:100A3000232D322DA801C301B2010E9455171816AB
:100A40000CF0CDC0832D922DD801EF81F8858083E5
:100A50009183A283B383F985FF2309F4D7C0AA89C0
:100A6000BB89D1962D913D914D915C91D497C50153
:100A7000B4010E945A174B015C01EA89FB8921AD40
:100A800032AD43AD54ADC701B6010E945A179B0168
:100A9000AC01A981BA816D917D918D919C910E944B
:100AA0004B15A50194010E944C156B017C019B0123
:100AB000AC01632D722DC8010E94B81587FD14C0CA
:100AC000EA89FB89E95AFF4F308021800281138136
:100AD000232D322DA801B601C7010E94B81587FD4C
:100AE00003C03C2C2D2C8701EA89FB89ED5BFF4F6D
:100AF0000190F081E02D832D922DD8018083918388
:100B0000A283B383EA89FB89E15BFF4F2B813C81A0
:100B10004D815E812083318342835383EA89FB893F
:100B2000E95BFF4F8E859F85A889B9898083918372
:100B3000A283B38320E030E0A901AA89BB895A9639
:100B40006D917D918D919C915D970E945A17EA89D4
:100B5000FB8926893789408D518D0E944C156B0188
:100B60007C0120E030E04FE753E40E94B81587FD98
:100B700006C0C12CD12C8FE7E82E83E4F82EAA8979
:100B8000BB895E968C9120E030E040E85FE38823EB
:100B900021F020E030E040E85FEBC701B6010E94A1
:100BA0005A170E942F168A899B8963960FB6F8946C
:100BB000DEBF0FBECDBFDF91CF911F910F91FF9090
:100BC000EF90DF90CF90BF90AF909F908F907F90ED
:100BD0006F905F904F903F902F900C941404EA898F
:100BE000FB89E95AFF4F20813181428153812A8755
:100BF0003B874C875D87C301B2010E94B81587FF10
:100C00002ACF8A859B85AC85BD851FCF812C912CF1
:100C1000540133CF4F925F926F927F928F929F9247
:100C2000AF92BF92CF92DF92EF92FF92CF93DF937A
:100C30004B015C01C0EED1E0C0902402D0902502AF
:100C4000E0902602F09027022091200230912102AC
:100C50004091220250912302C701B6010E944B1518
:100C60002B013C01A7019601C501B4010E944B155F
:100C70006B017C018C8C9D8CAE8CBF8CB7FAB094D0
:100C8000B7F8B094A3019201C301B2010E945A17B0
:100C90009B01AC01C501B4010E945A1720E030E06D
:100CA00040E05FE30E945A17288139814A815B81C5
:100CB0000E944C15A70196010E945A1720914402E8
:100CC0003091450240914602509147020E944C15D6
:100CD0004B015C01A7019601C701B6010E945A179A
:100CE000288539854A855B850E945A1720E030E0C7
:100CF00040E05FE30E945A179B01AC01C501B401BB
:100D00000E944B15DF91CF91FF90EF90DF90CF9035
:100D1000BF90AF909F908F907F906F905F904F901B
:100D200008958F929F92AF92BF92CF92DF92EF92EF
:100D3000FF92CF93DF93C0EED1E02091200230915B
:100D4000210240912202509123020E944B156B0117
:100D50007C0120E030E040E450E40E94C7172C8D75
:100D60003D8D4E8D5F8D0E945A1720E030E040ECA3
:100D700050E40E94BD159B01AC016091400270914E
:100D8000410280914202909143020E944B154B0117
:100D90005C01288139814A815B81C701B6010E94CB
:100DA0005A179B01AC01C501B4010E944C15DF919B
:100DB000CF91FF90EF90DF90CF90BF90AF909F903A
:100DC0008F9008954F925F926F927F928F929F9231
:100DD000AF92BF92CF92DF92EF92FF92CF93DF93C9
:100DE000CDB7DEB764970FB6F894DEBF0FBECDBFA8
:100DF0002B013C0180902C0290902D02A0902E029D
:100E0000B0902F02C0902802D0902902E0902A02D0
:100E1000F0902B02A7019601C501B4010E944B1569
:100E20006D837E838F8398878091FC019091FD0173
:100E3000A091FE01B091FF0189839A83AB83BC83AB
:100E4000A5019401C301B2010E944B152B013C0185
:100E500020E030E040E450E40E94C7176D877E87B1
:100E60008F87988B8090E8019090E901A090EA012B
:100E7000B090EB01D501C401B05889879A87AB8740
:100E8000BC8720E030E040E450E46D817E818F81BA
:100E900098850E94C717698B7A8B8B8B9C8B2091CE
:100EA0002402309125024091260250912702C70169
:100EB000B6010E944B1529853A854B855C850E94B9
:100EC0005A176B017C01A5019401C501B4010E9470
:100ED0005A174B015C0129813A814B815C81CA011F
:100EE000B9010E944C159B01AC01C501B4010E94DF
:100EF000BD159B01AC01C701B6010E944B15A0EEC8
:100F0000B1E02D913D914D915C910E944C152D8148
:100F10003E814F8158850E945A176B017C012D85B7
:100F20003E854F85588969817A818B819C810E9499
:100F30005A1720E030E040EC50E40E94BD152091AB
:100F400048023091490240914A0250914B020E945E
:100F50004C159B01AC01C701B6010E944C156B01F9
:100F60007C012D813E814F815885CA01B9010E94C3
:100F70005A1729853A854B855C850E945A1720E0CF
:100F800030E040E05FE30E945A179B01AC01C701CB
:100F9000B6010E944C156B017C0129893A894B8965
:100FA0005C8969817A818B819C810E945A1720E03B
:100FB00030E040EC50E40E94BD159B01AC01C7013C
:100FC000B6010E944C156B017C012091F00130911B
:100FD000F1014091F2015091F301C301B2010E946D
:100FE0005A179B01AC01C701B6010E944C156496CB
:100FF0000FB6F894DEBF0FBECDBFDF91CF91FF904B
:10100000EF90DF90CF90BF90AF909F908F907F90A8
:101010006F905F904F900895FC0101900020E9F7D8
:101020003197AF01481B590BBC0182E491E00C944D
:101030002F028F929F92AF92BF920F931F93CF93E5
:10104000DF93CDB7DEB7A1970FB6F894DEBF0FBE22
:10105000CDBF19A2423008F44AE08E010F5D1F4F48
:10106000842E912CB12CA12CA50194010E949E19D3
:10107000E62FB901CA01EA30F4F4E05DD801EE933D
:101080008D01232B242B252B79F790E080E01097FE
:1010900019F0CD010E940C08A1960FB6F894DEBF9E
:1010A0000FBECDBFDF91CF911F910F91BF90AF9039
:1010B0009F908F900895E95CE1CF4F925F926F927D
:1010C0007F928F929F92AF92BF92CF92DF92EF92D8
:1010D000FF920F931F93CF936B017C01742EAC0191
:1010E0009B010E945D18882399F086E191E0CF91E1
:1010F0001F910F91FF90EF90DF90CF90BF90AF9036
:101100009F908F907F906F905F904F900C940C0801
:1011100046015701E894B7F82FEF3FEF4FE75FE73D
:10112000C501B4010E945D1881110DC02FEF3FEF82
:101130004FE75FE7C501B4010E94B81518161CF40B
:101140008AE191E0D4CF2FEF3FEF4FE75FE4C70193
:10115000B6010E94551718161CF48EE191E0C7CF16
:101160002FEF3FEF4FE75FECC701B6010E94B815C4
:1011700087FDF3CF20E030E0A901C701B6010E944E
:10118000B81510E000E087FF0AC06DE282E491E04C
:101190000E94CF028C01F7FAF094F7F8F094C0E0C7
:1011A00060E070E080E09FE37C1641F020E030E0FA
:1011B00040E251E40E94BD15CF5FF6CFA701960132
:1011C0000E944C152B013C010E9436164B015C011C
:1011D0004AE00E9419087C01E00EF11ECC23C1F107
:1011E000C501B4010E9465169B01AC01C301B201A7
:1011F0000E944B154B015C016EE282E491E00E947B
:10120000CF02E80EF91EC15018F120E030E040E2B4
:1012100051E4C501B4010E945A172B013C010E9400
:1012200036164B01B12CA12C4AE0C501B4010E9435
:101230001908E80EF91EC501B4010E9465169B014C
:10124000AC01C301B2010E944B154B015C01DBCF25
:10125000C701CF911F910F91FF90EF90DF90CF903A
:10126000BF90AF909F908F907F906F905F904F90C6
:1012700008951F920F920FB60F9211242F933F9350
:101280008F939F93AF93BF9380913D0190913E01C7
:10129000A0913F01B09140013091380123E0230F2C
:1012A0002D3758F50196A11DB11D2093380180936B
:1012B0003D0190933E01A0933F01B0934001809186
:1012C000390190913A01A0913B01B0913C01019606
:1012D000A11DB11D8093390190933A01A0933B0168
:1012E000B0933C01BF91AF919F918F913F912F910E
:1012F0000F900FBE0F901F90189526E8230F0296AF
:10130000A11DB11DD2CF1F920F920FB60F921124C3
:101310002F933F934F935F936F937F938F939F93FD
:10132000AF93BF93EF93FF93E0910201F09103011C
:101330000995FF91EF91BF91AF919F918F917F910F
:101340006F915F914F913F912F910F900FBE0F9032
:101350001F9018951F920F920FB60F9211242F9382
:101360003F934F935F936F937F938F939F93AF932D
:10137000BF93EF93FF93E0910001F0910101099574
:10138000FF91EF91BF91AF919F918F917F916F915D
:101390005F914F913F912F910F900FBE0F901F9033
:1013A00018951F920F920FB60F9211242F933F930F
:1013B0004F935F936F937F938F939F93AF93BF935D
:1013C000EF93FF9382E491E00E94AD02FF91EF91D1
:1013D000BF91AF919F918F917F916F915F914F914D
:1013E0003F912F910F900FBE0F901F9018951F9255
:1013F0000F920FB60F9211242F938F939F93EF9319
:10140000FF93E0915201F09153018081E0915801E6
:10141000F091590182FD1BC0908180915B018F5F2B
:101420008F7320915C01821741F0E0915B01F0E045
:10143000EE5BFE4F958F80935B01FF91EF919F9143
:101440008F912F910F900FBE0F901F901895808154
:10145000F4CF2F923F924F925F926F927F928F9232
:101460009F92AF92BF92CF92DF92EF92FF920F9333
:101470001F93CF93DF93CDB7DEB729970FB6F894BC
:10148000DEBF0FBECDBF998788876983F22EDC014E
:101490001D921C92FC011282138214821582168204
:1014A00017821086118612861386148615868EEA98
:1014B00097E4A1EABFE386879787A08BB18BDF0112
:1014C000128A138A148A158A068F5F966C935F9727
:1014D00090964C939097EE24E3949296EC92929788
:1014E0009396EC92939782E094968C930E94BE011F
:1014F0000E94A901888599858D5B9F4F9B838A8374
:10150000888599854696AA81BB818D939C93E885B1
:10151000F985EF5BFF4FFD83EC8388859985029603
:1015200091838083E885F985EB5BFF4F88859985FA
:101530004A969183808328843984FFE52F0E311CDD
:10154000D1011C92C884D984B7E5CB0ED11CF60119
:10155000108211821282138288859985855A9F4F45
:101560009F838E8380E090E0AFE7B3E4EE81FF815C
:1015700080839183A283B383088519850D5A1F4FF9
:1015800084E6882E912CA12CB12CD8018D929D92AD
:10159000AD92BC921397E885F98516AE15AEFF960D
:1015A00081E090E091838083E885F985E05AFF4FE0
:1015B000E08280E090E0A0E0B0E4E885F98585A3D2
:1015C00096A3A7A3B0A740E050E060E272E441A771
:1015D00052A763A774A74DEC5CEC6CE07FE345A7D2
:1015E00056A767A770AB81AB92ABA3ABB4AB80E05F
:1015F00090E0A0E8B0E485AB96ABA7ABB0AF80E0DD
:1016000090E0A0EBB0E481AF92AFA3AFB4AF2FB73F
:10161000F89480913D0190913E01A0913F01B091DD
:1016200040012FBFF8014081518162817381E885BB
:10163000F985E95BFF4F841B950BA60BB70B8083E5
:101640009183A283B383CB01BA010E9465169B01EB
:10165000AC0160E070E088EC92E40E94BD152B01C3
:101660003C01AC019B01A885B985D5966D917D9112
:101670008D919C91D8970E945A17E885F98565ABA2
:1016800076AB87AB90AFA301920161AD72AD83AD34
:1016900094AD0E94BD15A885B985D9966D937D93AB
:1016A0008D939C93DC97F80180829182A282B38211
:1016B0000E94BE01F3E0FF1609F462C084E0F81650
:1016C00009F46CC092E0F91609F445C00E94A90122
:1016D000A885B9859396FC92939782E094968C9313
:1016E000F1018081811175C0AA81BB81ED91FC91CE
:1016F00080809180A280B380E884F984BBE4EB0E03
:10170000F11CF70180829182A282B382AC81BD81FB
:10171000ED91FC9180819181A281B381E885F98569
:10172000E15BFF4F80839183A283B383EE81FF81CE
:101730004080518062807380A3019201C501B40191
:101740000E9455171816C4F5D7014D925D926D92FF
:101750007C9213973EC0809141018D7E8093410120
:101760000E944D018091B00083628093B000F0929E
:10177000B1001092B40061E083E00E947801A8CF2C
:10178000809141018F75809341010E944D0184B584
:10179000836884BD17BC61E086E0EFCF8091410192
:1017A0008E7B809341010E944D0184B5836284BD8C
:1017B00018BC61E085E0E1CFF60140805180628095
:1017C0007380A3019201C501B4010E94B81587FD81
:1017D000BBCF81E0F1018083D8016D917D918D9126
:1017E0009C910E9465169B01AC0160E070E088EC62
:1017F00092E40E94BD154B015C01AC019B01E885A0
:10180000F98565A976A987A990AD0E945A17A88580
:10181000B985D5966D937D938D939C93D897A501AB
:101820009401D9966D917D918D919C91DC970E9448
:10183000BD15E885F98561AF72AF83AF94AF84E6DB
:1018400090E0A0E0B0E0F80180839183A283B383AD
:1018500060E0898129960FB6F894DEBF0FBECDBF38
:10186000DF91CF911F910F91FF90EF90DF90CF907C
:10187000BF90AF909F908F907F906F905F904F90B0
:101880003F902F900C947801CF92DF92EF92FF92CD
:101890000F93E2E4F1E01382128288EE93E0A0E07D
:1018A000B0E084839583A683B78388E091E0918339
:1018B000808385EC90E09587848784EC90E097871F
:1018C000868780EC90E0918B808B81EC90E0938B0D
:1018D000828B82EC90E0958B848B86EC90E0978BEA
:1018E000868B118E128E138E148E1092DF0101E002
:1018F00021E030E042E163E081EB92E00E94290ABE
:1019000000E024E030E040E162E080E592E00E9407
:10191000290AE0EEF1E080E090E0A0ECB0E4808302
:101920009183A283B38380E090E0A0EAB0E4848353
:101930009583A683B78380E090E0A0E2B0E480873F
:101940009187A287B387C12CD12C80ECE82E81E44B
:10195000F82EC486D586E686F78680E090E0A0E87B
:10196000BFE3808B918BA28BB38B848B958BA68BE3
:10197000B78B40E050E068E472E4408F518F628F93
:10198000738F40E050E060E271E4448F558F668FC2
:10199000778F14A215A216A217A240E050E06CEFB8
:1019A00070E444A755A766A777A710AA11AA12AAA0
:1019B00013AA4DEC5CEC6CEC7DE344AB55AB66AB31
:1019C00077AB80AF91AFA2AFB3AF8DEC9CECACE83E
:1019D000BFE384AF95AFA6AFB7AF8EED9DEDADED94
:1019E000BDE38093340290933502A0933602B09306
:1019F000370288E898E8A0E5B0E480933802909335
:101A00003902A0933A02B0933B028FED9DEDA5E71A
:101A1000B0E480933C0290933D02A0933E02B093C9
:101A20003F0280A791A7A2A7B3A786E19CE6A9E4FD
:101A3000B0E48093200290932102A0932202B093FD
:101A4000230286E19CE6A9E5B0E48093240290930A
:101A50002502A0932602B09327028BE096EBA4EA1E
:101A6000B0E48093280290932902A0932A02B093B5
:101A70002B028BE096EBACEAB0E480932C029093BF
:101A80002D02A0932E02B0932F0280A391A3A2A3B4
:101A9000B3A31092300210923102109232021092CF
:101AA000330280E090E0A1E8B1E48093400290939B
:101AB0004102A0934202B093430266E17CE689E5CD
:101AC00090E40E94910660934402709345028093D3
:101AD0004602909347026BE076EB84EA90E40E9422
:101AE0000A06609348027093490280934A029093D9
:101AF0004B02C0924C02D0924D02E0924E02F09204
:101B00004F020F91FF90EF90DF90CF900895CF9309
:101B1000DF93CDB7DEB765970FB6F894DEBF0FBE83
:101B2000CDBF789484B5826084BD84B5816084BD66
:101B300085B5826085BD85B5816085BD80916E006B
:101B4000816080936E00109281008091810082609C
:101B500080938100809181008160809381008091D9
:101B600080008160809380008091B10084608093C8
:101B7000B1008091B00081608093B00080917A00C4
:101B8000846080937A0080917A00826080937A00EA
:101B900080917A00816080937A0080917A008068D9
:101BA00080937A001092C100E0915201F0915301AC
:101BB00082E08083E0914E01F0914F011082E0912C
:101BC0005001F091510180E1808310925A01E0911F
:101BD0005601F091570186E08083E0915401F09125
:101BE0005501808180618083E0915401F09155011D
:101BF000808188608083E0915401F091550180815B
:101C000080688083E0915401F091550180818F7D3F
:101C1000808360E080E10E9478018CE094E0909302
:101C2000010180930001809169008C7F8160809325
:101C30006900E89A60E082E10E94780180E194E026
:101C4000909303018093020180916900837F8460F7
:101C500080936900E99A1092C3021092C402109214
:101C6000C5021092C6021092620210926302109294
:101C700064021092650260E070E0CB010E94FB01FB
:101C800080E592E00E9496036B017C0181EB92E07B
:101C90000E9496039B01AC01C701B6010E944C153E
:101CA00020E030E040E05FE30E945A174B015C0106
:101CB00040903402509035026090360270903702A6
:101CC000A30192010E94B81587FFBBC0C090F80124
:101CD000D090F901E090FA01F090FB0120E030E0B3
:101CE00040E450E4C701B6010E94C7176D837E83AC
:101CF0008F8398878091F4019091F501A091F6016E
:101D0000B091F70189839A83AB83BC8320E030E0F4
:101D100040E450E4BC01CD010E94C7172B013C01F7
:101D200020E030E040E151E4C701B6010E945A17BB
:101D3000A50194010E945A17A50194010E945A1707
:101D400069877A878B879C8720E030E040E051E408
:101D5000C301B2010E945A179B01AC0169857A85C3
:101D60008B859C850E944C152D813E814F81588525
:101D70000E945A170E941D182B013C0120E030E000
:101D800040E450E4C701B6010E945A17A70196012A
:101D90000E945A17A50194010E945A17A3019201AB
:101DA0000E944C154B015C012BEA3AEA4AE25FE3E0
:101DB0000E94C7172B013C012BEA3AEA4AEA5EE38C
:101DC000C501B4010E94C7176D837E838F839887F6
:101DD000A7019601C701B6010E944C1529813A81DD
:101DE0004B815C810E945A179B01AC01C301B20177
:101DF0000E944B154B015C012D813E814F8158851E
:101E0000C701B6010E945A179B01AC01C501B4017C
:101E10000E94BD159B01AC010E945A17A7019601B3
:101E20000E945A1720E030E040E05FE30E945A171A
:101E300029813A814B815C810E944C156B017C01A8
:101E400020C2C0903802D0903902E0903A02F0905F
:101E50003B02A7019601C501B4010E94B81587FF96
:101E6000D3C08091140290911502A0911602B091F6
:101E7000170289839A83AB83BC83C090E401D0901E
:101E8000E501E090E601F090E7018091F801909182
:101E9000F901A091FA01B091FB0189879A87AB877C
:101EA000BC878091F4019091F501A091F601B09169
:101EB000F7018D839E83AF83B88729813A814B8157
:101EC0005C81CA01B9010E945A1729853A854B8560
:101ED0005C850E945A1720E030E040E05FE30E94FA
:101EE0005A172D813E814F8158850E944C156D8770
:101EF0007E878F87988B20E030E040E050ECC30174
:101F0000B2010E945A17A70196010E945A172B018D
:101F10003C012D853E854F855889CA01B9010E9433
:101F20005A179B01AC01C301B2010E944C152B0151
:101F30003C01A7019601C701B6010E944C15A501FD
:101F400094010E945A179B01AC01C301B2010E9487
:101F50004C150E941D189B01AC016D857E858F85F7
:101F600098890E944C154B015C01A701960169817B
:101F70007A818B819C810E945A179B01AC01C5011B
:101F8000B4010E944B154B015C012D813E814F81B4
:101F90005885CA01B9010E944C159B01AC01C501CD
:101FA000B4010E944B15A70196010E94BD1529811D
:101FB0003A814B815C810E944C15A70196010E94D9
:101FC0005A174B015C01A7019601C701B6010E9497
:101FD0005A172B013C0129853A854B855C85CA013E
:101FE000B9010E944C159B01AC01C301B2010E94D2
:101FF000BD159B01AC01C501B4010E944B152D819B
:102000003E814F81588518CF20913C0230913D028E
:1020100040913E0250913F02C501B4010E94B815A3
:1020200087FF19C14090F8015090F9016090FA01C2
:102030007090FB0120E030E040E450E4C301B201C5
:102040000E94C7176D877E878F87988BA70196019F
:10205000C501B4010E944B156B017C0180911802EF
:1020600090911902A0911A02B0911B0289839A8360
:10207000AB83BC838090E4019090E501A090E601E1
:10208000B090E701A3019201C301B2010E944C1577
:102090006D837E838F839887A501940169817A81FE
:1020A0008B819C810E945A1769877A878B879C87CE
:1020B000A5019401C501B4010E945A172D813E81EA
:1020C0004F8158850E94BD159B01AC0169857A85B9
:1020D0008B859C850E944B152091F4013091F50170
:1020E0004091F6015091F7010E944C1569877A875B
:1020F0008B879C8720E030E040E450E40E94C717C3
:10210000698B7A8B8B8B9C8B20E030E040E151E433
:10211000C301B2010E945A174B015C01A70196014D
:10212000C701B6010E945A179B01AC01C501B40159
:102130000E945A174B015C0120E030E040E051E47E
:1021400069897A898B899C890E945A179B01AC0105
:10215000C501B4010E944C152D853E854F855889D7
:102160000E945A170E941D184B015C01A3019201A5
:10217000C301B2010E945A1720E030E040E450E46D
:102180000E945A17A70196010E945A17A5019401AF
:102190000E944C154B015C012BEA3AEA4AE25FE3EC
:1021A0000E94C7176B017C012BEA3AEA4AEA5EE318
:1021B000C501B4010E94C7174B015C0129853A850E
:1021C0004B855C856D817E818F8198850E945A1731
:1021D0009B01AC01C701B6010E944B156B017C014C
:1021E000A5019401C301B2010E945A179B01AC01E1
:1021F000C701B6010E94BD1529813A814B815C81DE
:102200000E944C1520911C0230911D0240911E022B
:1022100050911F020E944B1573016201F7FAF0946E
:10222000F7F8F0949B01AC010E945A179B01AC0196
:10223000C701B6010E945A1720E030E040E05FE39A
:102240000E945A172091E0013091E1014091E20192
:102250005091E301F1CD2091400230914102409133
:10226000420250914302C501B4010E94B81587FF94
:1022700052C1C090E001D090E101E090E201F09005
:10228000E30120E030E0A901C701B6010E94B815C2
:10229000882309F4C8C320E030E040E752E4C701D6
:1022A000B6010E945A1726E836E54DEF50E40E9429
:1022B000BD154B015C018092CB029092CC02A092A2
:1022C000CD02B092CE0281EB92E00E944604809251
:1022D0006A0290926B02A0926C02B0926D0280E54D
:1022E00092E00E94460480E592E00E9496034B0132
:1022F0005C0181EB92E00E9496039B01AC01C50159
:10230000B4010E944C1520E030E040E05FE30E9401
:102310005A1742E00E945D0882E291E00E940C0898
:102320002FB7F89460913D0170913E0180913F017B
:10233000909140012FBF0E94651620E030E04AE7EF
:1023400054E40E94BD1542E00E945D0882E291E0E3
:102350000E940C0842E0C701B6010E945D0882E2BB
:1023600091E00E940C08209152023091530240915A
:102370005402509155026091B3027091B402809161
:10238000B5029091B6020E944C1520E030E040E08A
:102390005FE30E945A179B01AC010E944C1528ED87
:1023A0003FE049E450E40E945A172EEA37E441EA3C
:1023B0005FE30E945A1720E030E040E752E40E94B9
:1023C000BD1542E00E945D0885E291E00E940C0884
:1023D0006091B1027091B202072E000C880B990B2C
:1023E0000E94671620E030E040EF54E40E94BD15E3
:1023F0002DEC3CEC4CEC5DE30E94BD1520E030E0A0
:1024000040E752E40E945A176093B3027093B402FB
:102410008093B5029093B6022091B7023091B80232
:102420004091B9025091BA026091BB027091BC0216
:102430008091BD029091BE020E94A21620E030E081
:1024400040EF54E40E94BD156093C3027093C40230
:102450008093C5029093C6021092B2021092B1020C
:102460006091500270915102072E000C880B990B5D
:102470000E94671620E030E040EF54E40E94BD1552
:102480002DEC3CEC4CEC5DE30E94BD1520E030E00F
:1024900040E752E40E945A1760935202709353022D
:1024A0008093540290935502209156023091570226
:1024B000409158025091590260915A0270915B020A
:1024C00080915C0290915D020E94A21620E030E0B3
:1024D00040EF54E40E94BD15609362027093630262
:1024E0008093640290936502109251021092500200
:1024F00064E670E080E090E00E94FB01A0E0B0E0C4
:10250000AB2B09F4BDCB0E949902882309F4B8CB08
:102510000E940000B5CB20914402309145024091C9
:10252000460250914702C501B4010E94B81587FFC9
:10253000C9C010910402909105029D8BA0910602E2
:10254000A98B009107023090200220902102B091C7
:102550002202B983809123028D83232D322D4B2FAC
:10256000582F612F792F8A2F902F0E9455171816F8
:102570002CF0132D2D8A9981998B0D81812F9D89A6
:10258000A989B02F8093040290930502A0930602BC
:10259000B0930702C090FC01D090FD01E090FE01D5
:1025A000F090FF01F7FAF094F7F8F0948091E001D1
:1025B0009091E101A091E201B091E30189879A87AE
:1025C000AB87BC87612F7D898989902F0E949106F6
:1025D0002B013C01232D322D49815D81612F7D89A5
:1025E0008989902F0E944B156D877E878F87988BE6
:1025F000A5019401C301B2010E944B152B013C01BE
:102600002D853E854F855889CA01B9010E945A1708
:10261000A70196010E945A1720E030E040E05FE3F6
:102620000E945A1729853A854B855C850E944C1576
:102630009B01AC01C301B2010E94BD159B01AC011D
:10264000612F7D898989902F0E944B15162F7D8BD4
:10265000898B092F0E949106A50194010E944B15B8
:102660009F772FE632E143E85AE30E94B81587FFCF
:10267000A9CF812F9D89A989B02F809304029093BF
:102680000502A0930602B0930702232D322D498143
:102690005D81612F792F8A2F902F0E944B159B010E
:1026A000AC010E945A17A70196010E945A1720E018
:1026B00030E040E05FE30E945A1729853A854B8558
:1026C0005C85BACB209148023091490240914A0280
:1026D00050914B02C501B4010E94B81587FFCDC0CF
:1026E00010910402909105029D8BA0910602A98B86
:1026F000009107023090240220902502B09126021A
:10270000B983809127028D83232D322D4B2F582F93
:10271000612F792F8A2F902F0E94551718162CF0B1
:10272000132D2D8A9981998B0D81812F9D89A989DE
:10273000B02F8093040290930502A0930602B093F9
:1027400007026091E8017091E9018091EA0190919E
:10275000EB016B017C01F7FAF094F7F8F0949B0120
:10276000AC010E945A172B013C016091FC01709151
:10277000FD018091FE019091FF019B01AC010E943F
:102780004C159B01AC01C301B2010E94BD152B0188
:102790003C018091E0019091E101A091E201B091B2
:1027A000E30189879A87AB87BC87612F7D898989F7
:1027B000902F0E940A06A50194010E944B156D8777
:1027C0007E878F87988B232D322D49815D81612FE4
:1027D0007D898989902F0E944B15A70196010E943F
:1027E0005A17A30192010E944B1529853A854B8502
:1027F0005C850E944C159B01AC016D857E858F85A3
:1028000098890E94BD159B01AC01612F7D89898942
:10281000902F0E944B15162F7D8B898B092F0E94BC
:102820000A06A50194010E944B159F772FE632E11D
:1028300043E85AE30E94B81587FFB7CF812F9D89DF
:10284000A989B02F8093040290930502A0930602F9
:10285000B0930702232D322D49815D81612F792F9D
:102860008A2F902F0E944B15A70196010E945A179C
:10287000A30192010E944B1520CF20914C02309170
:102880004D0240914E0250914F02C501B4010E9489
:10289000B81587FFC8C0C0900402D0900502E09030
:1028A0000602F09007021091280290912902998B5C
:1028B000A0912A02AD8700912B02212F392F4A2F98
:1028C000502FB601C7010E945517181624F41C2D6D
:1028D000D98AED860F2D812F9989AD85B02F8093F0
:1028E000040290930502A0930602B0930702809120
:1028F000FC019091FD01A091FE01B091FF0189833F
:102900009A83AB83BC83C0902C02D0902D02E090C0
:102910002E02F0902F028091F0019091F101A09190
:10292000F201B091F3018D839E83AF83B887612F4D
:1029300079898D85902F0E94E2062B013C01A70129
:102940009601612F79898D85902F0E944B1569879B
:102950007A878B879C87A5019401C301B2010E94ED
:102960004B152B013C0129853A854B855C85CA01B5
:10297000B9010E945A1729813A814B815C810E94DA
:102980005A1720E030E040E05FE30E945A172D81A3
:102990003E814F8158850E944C159B01AC01C301BB
:1029A000B2010E94BD159B01AC01612F79898D8513
:1029B000902F0E944B15162F798B8D87092F0E941F
:1029C000E206A50194010E944B159F772FE632E1A4
:1029D00043E85AE30E94B81587FFA9CF812F998950
:1029E000AD85B02F8093040290930502A093060258
:1029F000B0930702A7019601612F792F8A2F902F9C
:102A00000E944B159B01AC010E945A1729813A8103
:102A10004B815C810E945A1720E030E040E05FE388
:102A20000E945A17ECCA88E291E00E940C0885E2E5
:102A300091E00E940C088DE291E00E940C08209128
:102A4000C3023091C4024091C5025091C602609108
:102A500062027091630280916402909165020E940B
:102A60004C1520E030E040E05FE30E945A1742E05E
:102A70000E945D0870E060E081EB92E00E94140427
:102A800070E060E080E592E00E94140460E07AEC7F
:102A90008AE99BE331CD5058BB27AA270E946315D2
:102AA0000C941B170E940D1738F00E94141720F089
:102AB00039F49F3F19F426F40C940A170EF4E095AC
:102AC000E7FB0C940417E92F0E942C1758F3BA1750
:102AD000620773078407950720F079F4A6F50C9434
:102AE0004E170EF4E0950B2EBA2FA02D0B01B90155
:102AF00090010C01CA01A0011124FF27591B99F074
:102B0000593F50F4503E68F11A16F040A22F232F7F
:102B1000342F4427585FF3CF469537952795A795CF
:102B2000F0405395C9F77EF41F16BA0B620B730B76
:102B3000840BBAF09150A1F0FF0FBB1F661F771FE7
:102B4000881FC2F70EC0BA0F621F731F841F48F49C
:102B5000879577956795B795F7959E3F08F0B0CF25
:102B60009395880F08F09927EE0F9795879508950C
:102B70000E94E01608F481E008950E94D1150C949B
:102B80001B170E94141758F00E940D1740F029F4EB
:102B90005F3F29F00C94041751110C944F170C94BB
:102BA0000A170E942C1768F39923B1F3552391F368
:102BB000951B550BBB27AA2762177307840738F0AC
:102BC0009F5F5F4F220F331F441FAA1FA9F335D009
:102BD0000E2E3AF0E0E832D091505040E695001CBD
:102BE000CAF72BD0FE2F29D0660F771F881FBB1F77
:102BF000261737074807AB07B0E809F0BB0B802D55
:102C0000BF01FF2793585F4F3AF09E3F510578F080
:102C10000C9404170C944F175F3FE4F3983ED4F3E1
:102C2000869577956795B795F7959F5FC9F7880F54
:102C3000911D9695879597F90895E1E0660F771FA6
:102C4000881FBB1F621773078407BA0720F0621B37
:102C5000730B840BBA0BEE1F88F7E09508950E9462
:102C600036166894B1110C944F1708950E943417CA
:102C700088F09F5798F0B92F9927B751B0F0E1F03D
:102C8000660F771F881F991F1AF0BA95C9F714C0ED
:102C9000B13091F00E944E17B1E008950C944E1798
:102CA000672F782F8827B85F39F0B93FCCF3869526
:102CB00077956795B395D9F73EF490958095709583
:102CC00061957F4F8F4F9F4F0895E89409C097FB00
:102CD0003EF490958095709561957F4F8F4F9F4FF3
:102CE0009923A9F0F92F96E9BB279395F695879537
:102CF00077956795B795F111F8CFFAF4BB0F11F4FA
:102D000060FF1BC06F5F7F4F8F4F9F4F16C08823A0
:102D100011F096E911C0772321F09EE8872F762FD6
:102D200005C0662371F096E8862F70E060E02AF017
:102D30009A95660F771F881FDAF7880F9695879503
:102D400097F90895E894F92F96EBFF2381F0121676
:102D500013061406440B9395F6958795779567951A
:102D600057954040FF23B9F71BC099270895882342
:102D700051F49850D2F7872B762F652F542F432F7D
:102D8000322F20E0B1F3121613061406440B8823E9
:102D90003AF09A95440F551F661F771F881FCAF790
:102DA00055234AF4440F551F11F460FF04C06F5FB0
:102DB0007F4F8F4F9F4F880F9695879597F908956E
:102DC000990F0008550FAA0BE0E8FEEF161617063C
:102DD000E807F907C0F012161306E407F50798F0A4
:102DE000621B730B840B950B39F40A2661F0232BBD
:102DF000242B252B21F408950A2609F4A140A69539
:102E00008FEF811D811D089597F99F6780E870E01D
:102E100060E008959FEF80EC089500240A94161650
:102E2000170618060906089500240A9412161306B8
:102E3000140605060895092E0394000C11F4882346
:102E400052F0BB0F40F4BF2B11F460FF04C06F5F62
:102E50007F4F8F4F9F4F089557FD9058440F551F38
:102E600059F05F3F71F04795880F97FB991F61F00C
:102E70009F3F79F087950895121613061406551F83
:102E8000F2CF4695F1DF08C0161617061806991FEF
:102E9000F1CF86957105610508940895E894BB27E4
:102EA00066277727CB0197F908950E94E01608F46A
:102EB0008FEF08950E946D170C941B170E940D1739
:102EC00038F00E94141720F0952311F00C94041789
:102ED0000C940A1711240C944F170E942C1770F3AE
:102EE000959FC1F3950F50E0551F629FF001729FAF
:102EF000BB27F00DB11D639FAA27F00DB11DAA1FBE
:102F0000649F6627B00DA11D661F829F2227B00D0A
:102F1000A11D621F739FB00DA11D621F839FA00D95
:102F2000611D221F749F3327A00D611D231F849FE5
:102F3000600D211D822F762F6A2F11249F5750403C
:102F40009AF0F1F088234AF0EE0FFF1FBB1F661FB7
:102F5000771F881F91505040A9F79E3F510580F080
:102F60000C9404170C944F175F3FE4F3983ED4F38E
:102F7000869577956795B795F795E7959F5FC1F724
:102F8000FE2B880F911D9695879597F90895FA0164
:102F9000EE0FFF1F309621053105A1F16115710576
:102FA00061F48038BFE39B0749F16894903881054C
:102FB00061F08038BFEF9B0741F099234AF5FF3F4E
:102FC000E1053105210519F1E8940894E795D90147
:102FD000AA2329F4AB2FBE2FF85FD0F310C0FF5FF8
:102FE00070F4A695E0F7F73950F019F0FF3A38F48D
:102FF0009F779F930DD00F9007FC9058089546F04F
:103000000C940A1760E070E080E89FE308954FE7B2
:103010009F775F934F933F932F930E9422192F9195
:103020003F914F915F910E945A170C946A1819F4BE
:1030300016F40C940A170C949C180E943417B8F3D9
:103040009923C9F3B6F39F57550B87FF0E94AA181F
:103050000024A0E640EA900180585695979528F400
:10306000805C660F771F881F20F0261737074807F8
:1030700030F4621B730B840B202931294A2BA6954F
:1030800017940794202531254A2758F7660F771F94
:10309000881F20F026173707480730F4620B730BA0
:1030A000840B200D311D411DA09581F7B901842F9E
:1030B0009158880F9695879508950E94E016880B81
:1030C000990B089529F416F00C9404170C944E17DC
:1030D0000C940A170E943417A8F39638A0F707F843
:1030E0000F92E8942BE33AEA48EB5FE70E947017EF
:1030F0000F920F920F924DB75EB70F920E946A190E
:10310000E8E6F0E00E94B1184F915F91EF91FF91D6
:10311000E595EE1FFF1F49F0FE57E0684427EE0FCC
:10312000441FFA95E1F74195550B0E94E4180F9062
:1031300007FE0C94D81808959F3F31F0915020F469
:10314000879577956795B795880F911D9695879583
:1031500097F9089591505040660F771F881FD2F756
:103160000895DF93CF931F930F93FF92EF92DF9217
:103170007B018C01689406C0DA2EEF010E946D1766
:10318000FE01E894A5912591359145915591A6F3BD
:10319000EF010E946315FE019701A801DA9469F717
:1031A000DF90EF90FF900F911F91CF91DF910895E5
:1031B0009B01AC0160E070E080E89FE30C94BD15DA
:1031C0000C9404170C949C180E943417D8F399237C
:1031D000C9F3940F511DA3F39150504094F059F04E
:1031E000882332F0660F771F881F91505040C1F737
:1031F0009E3F51052CF7880F911D9695879597F95D
:1032000008955F3FACF0983E9CF0BB27869577957C
:103210006795B79508F4B1609395C1F7BB0F58F760
:1032200011F460FFE8CF6F5F7F4F8F4F9F4FE3CF69
:103230000C944F1716F00C949C180C940A17689471
:103240000C9404170E943417A8F39923C1F3AEF32A
:10325000DF93CF931F930F93FF92C92FDD2788230E
:103260002AF02197660F771F881FDAF720E030E0F9
:1032700040E85FEB9FE3883920F0803E38F02196EC
:103280008F770E944C15E0E9F0E004C00E944C15D5
:10329000EDEBF0E00E94B1188B01BE01EC01FB2EBA
:1032A0006F5771097595771F880B990B0E946716E8
:1032B00028E132E741E35FE30E946D17AF2D9801EB
:1032C000AE01FF900F911F91CF91DF910E94631586
:1032D0000C941B17FA01DC01AA0FBB1F9B01AC0168
:1032E000BF5728F4222733274427507820C0B751EE
:1032F00090F4AB2F0024469537952795011CA39594
:10330000D2F3002071F0220F331F441FB395DAF37C
:103310000ED00C944B1561307105A0E88A07B946B0
:1033200030F49B01AC016627772788279078309688
:1033300021F020833183428353830895A1E21A2E22
:10334000AA1BBB1BFD010DC0AA1FBB1FEE1FFF1F49
:10335000A217B307E407F50720F0A21BB30BE40B99
:10336000F50B661F771F881F991F1A9469F76095E0
:103370007095809590959B01AC01BD01CF0108959A
:103380000024A7FD00942A0F301D401D501D601D14
:10339000701D801D901D0895EE0FFF1F0590F49184
:1033A000E02D0994F894FFCF2E022E0200000000B9
:1033B000CF022F025C021C038D026B027F026E6142
:1033C0006E00696E66006F7666002C20000D0A00A4
:1033D000446F6E6500726F746174696F6E733A004A
:107E0000112484B714BE81FFF0D085E080938100F7
:107E100082E08093C00088E18093C10086E0809377
:107E2000C20080E18093C4008EE0C9D0259A86E02C
:107E300020E33CEF91E0309385002093840096BBD3
:107E4000B09BFECF1D9AA8958150A9F7CC24DD24C4
:107E500088248394B5E0AB2EA1E19A2EF3E0BF2EE7
:107E6000A2D0813461F49FD0082FAFD0023811F036
:107E7000013811F484E001C083E08DD089C08234E0
:107E800011F484E103C0853419F485E0A6D080C0E4
:107E9000853579F488D0E82EFF2485D0082F10E0AE
:107EA000102F00270E291F29000F111F8ED06801E7
:107EB0006FC0863521F484E090D080E0DECF843638
:107EC00009F040C070D06FD0082F6DD080E0C81688
:107ED00080E7D80618F4F601B7BEE895C0E0D1E017
:107EE00062D089930C17E1F7F0E0CF16F0E7DF06D8
:107EF00018F0F601B7BEE89568D007B600FCFDCFD4
:107F0000A601A0E0B1E02C9130E011968C91119780
:107F100090E0982F8827822B932B1296FA010C0160
:107F200087BEE89511244E5F5F4FF1E0A038BF0790
:107F300051F7F601A7BEE89507B600FCFDCF97BE46
:107F4000E89526C08437B1F42ED02DD0F82E2BD052
:107F50003CD0F601EF2C8F010F5F1F4F84911BD097
:107F6000EA94F801C1F70894C11CD11CFA94CF0C13
:107F7000D11C0EC0853739F428D08EE10CD085E9AC
:107F80000AD08FE07ACF813511F488E018D01DD067
:107F900080E101D065CF982F8091C00085FFFCCF94
:107FA0009093C60008958091C00087FFFCCF809118
:107FB000C00084FD01C0A8958091C6000895E0E648
:107FC000F0E098E1908380830895EDDF803219F02E
:107FD00088E0F5DFFFCF84E1DECF1F93182FE3DFCA
:107FE0001150E9F7F2DF1F91089580E0E8DFEE27F6
:047FF000FF270994CA
:027FFE00040479
:00000001FF
