:020000040000FA
:100000000C94A3000C94E50D0C94BE0D0C94CB0045
:100010000C94CB000C94CB000C94CB000C94CB0034
:100020000C94CB000C94CB000C94CB000C94CB0024
:100030000C94CB000C94CB000C94CB000C94CB0014
:100040000C94740D0C94CB000C94320E0C940C0E8A
:100050000C94CB000C94CB000C94CB000C94CB00F4
:100060000C94CB000C94CB0007634236B79BD8A707
:100070001A39685618AEBAAB558C1D3CB7CC5763CD
:10008000BD6DEDFD753EF6177231BF000000803F7B
:1000900008000000BE922449123EABAAAA2ABECD97
:1000A000CCCC4C3E00000080BEABAAAAAA3E000009
:1000B0000000BF000000803F000000000008417801
:1000C000D3BB4387D1133D190E3CC3BD4282AD2B38
:1000D0003E68EC8276BED98FE1A93E4C80EFFFBE30
:1000E00001C4FF7F3F00000000000000000024006A
:1000F00027002A0000000000250028002B00000037
:10010000000023002600290004040404040404045D
:1001100002020202020203030303030301020408B2
:100120001020408001020408102001020408102061
:1001300000000008000201000003040700000000A6
:1001400000000000771011241FBECFEFD8E0DEBF03
:10015000CDBF11E0A0E0B1E0E2E4FEE302C0059013
:100160000D92A833B107D9F723E0A8E3B1E001C0AD
:100170001D92A231B207E1F710E0C3EAD0E004C05B
:100180002197FE010E94191FC23AD107C9F70E94A8
:1001900001110C941F1F0C9400008F929F92AF923C
:1001A000BF92CF92DF92EF92FF92CF93DF93C0EE98
:1001B000D1E0C884D984EA84FB8420912402309160
:1001C000250240912602509127020E94981AA70109
:1001D000960150580E94A71C4B015C01A701960193
:1001E000C701B6010E94A71C6B017C016C8D7D8D3F
:1001F0008E8D9F8D9B01AC010E94991A9B01AC01D1
:10020000C701B6010E940A1B9B01AC01C501B401E4
:100210000E94981A288139814A815B810E94991A2B
:10022000DF91CF91FF90EF90DF90CF90BF90AF9094
:100230009F908F900895833081F028F4813099F059
:100240008230A9F008958730A9F08830C9F0843051
:10025000B1F4809180008F7D03C0809180008F7702
:1002600080938000089584B58F7784BD089584B508
:100270008F7DFBCF8091B0008F778093B000089581
:100280008091B0008F7DF9CFCF93DF93282F30E09E
:10029000F901E05DFE4F8491F901E45EFE4FD491D7
:1002A000F901E85FFE4FC491CC23A1F081110E94B7
:1002B0001B01EC2FF0E0EE0FFF1FE250FF4FA59166
:1002C000B491EC91ED2381E090E009F480E0DF91BE
:1002D000CF91089580E090E0FACF1F93CF93DF9302
:1002E000282F30E0F901E05DFE4F8491F901E45ED2
:1002F000FE4FD491F901E85FFE4FC491CC23A9F0E1
:10030000162F81110E941B01EC2FF0E0EE0FFF1F52
:10031000EC50FF4FA591B4918FB7F894EC91111167
:1003200008C0D095DE23DC938FBFDF91CF911F9162
:100330000895DE2BF8CFCF93DF9360E08CE00E942E
:100340006D0160E088E00E946D01C7E0D0E060E0F0
:1003500084E00E946D018091410190E00C2E02C06A
:10036000959587950A94E2F761E080FF60E088E068
:100370000E946D0161E084E00E946D01219738F7D1
:1003800061E08CE0DF91CF910C946D01CF93DF930E
:1003900090E0FC01E45EFE4F2491885F9E4FFC01DB
:1003A00084918823D1F090E0880F991FFC01E651D9
:1003B000FF4FA591B491FC01EC50FF4FC591D49132
:1003C00061110EC09FB7F8948C91E22FE0958E23B7
:1003D0008C932881E223E8839FBFDF91CF9108951A
:1003E0008FB7F894EC91E22BEC938FBFF6CF80910E
:1003F0004101837F809341010E949B01E0EBF0E08B
:1004000080818368808382E08093B1001092B30082
:1004100061E08BE00C94C60161E08CE00E94C601B3
:1004200061E087E00E94C60161E088E00E94C601A9
:1004300061E084E00E94C601109241010E949B018C
:1004400060E087E00C946D013FB7F894809139012A
:1004500090913A01A0913B01B0913C0126B5A89B37
:1004600005C02F3F19F00196A11DB11D3FBFBA2F46
:10047000A92F982F8827BC01CD01620F711D811D06
:10048000911D42E0660F771F881F991F4A95D1F78B
:1004900008958F929F92AF92BF92CF92DF92EF9288
:1004A000FF926B017C010E9424024B015C01C1148C
:1004B000D104E104F104B9F00E9424026819790919
:1004C0008A099B09683E73408105910580F321E00C
:1004D000C21AD108E108F10888EE880E83E0981E60
:1004E000A11CB11CE4CFFF90EF90DF90CF90BF90A4
:1004F000AF909F908F9008950895AF92BF92CF9242
:10050000DF92EF92FF920F931F93CF93DF936C01D3
:100510007B018B01040F151FEB015E01AE18BF08B4
:10052000C017D10759F06991D601ED91FC91019066
:10053000F081E02DC6010995892B79F7C501DF917E
:10054000CF911F910F91FF90EF90DF90CF90BF90D0
:10055000AF900895FC01538D448D252F30E0842FFA
:1005600090E0821B930B541710F0CF9608950197DB
:100570000895FC01918D828D981761F0A28DAE0FC8
:10058000BF2FB11D5D968C91928D9F5F9F73928F4F
:1005900090E008958FEF9FEF0895FC01918D828D7B
:1005A000981731F0828DE80FF11D858D90E0089548
:1005B0008FEF9FEF0895FC01918D228D892F90E0A0
:1005C000805C9F4F821B91098F739927089582E465
:1005D00091E00E94DB0221E0892B09F420E0822FC8
:1005E000089580E090E0892B29F00E94E7028111B4
:1005F0000C9400000895FC01A48DA80FB92FB11D23
:10060000A35ABF4F2C91848D90E001968F73992748
:10061000848FA689B7892C93A089B1898C91837026
:1006200080648C93938D848D981306C00288F3891F
:10063000E02D80818F7D80830895EF92FF920F934C
:100640001F93CF93DF93EC0181E0888F9B8D8C8D7E
:1006500098131AC0E889F989808185FF15C09FB772
:10066000F894EE89FF896083E889F9898081837035
:10067000806480839FBF81E090E0DF91CF911F91E4
:100680000F91FF90EF900895F62E0B8D10E00F5F05
:100690001F4F0F731127E02E8C8D8E110CC00FB6DB
:1006A00007FCFACFE889F989808185FFF5CFCE0173
:1006B0000E94FB02F1CFEB8DEC0FFD2FF11DE35AF1
:1006C000FF4FF0829FB7F8940B8FEA89FB898081F6
:1006D0008062CFCFCF93DF93EC01888D8823B9F070
:1006E000AA89BB89E889F9898C9185FD03C080813D
:1006F00086FD0DC00FB607FCF7CF8C9185FFF2CFBA
:10070000808185FFEDCFCE010E94FB02E9CFDF9112
:10071000CF910895FC018081823069F028F423E0B4
:1007200092E0813051F00895833011F126E090E09D
:10073000843019F0089524E091E06230E1F06430F3
:1007400079F1613009F03FC041E050E0BA0101C0E9
:10075000660F9A95EAF780914101862B01C0440FFC
:100760002A95EAF740954823409341010C949B0158
:1007700027E095E0E2CF41E050E0BA0102C0660F09
:10078000771F9A95E2F7CB018095909141018923DB
:1007900001C0440F2A95EAF7842B80934101E6CFEC
:1007A00041E050E0FA0102C0EE0FFF1F9A95E2F718
:1007B000CF0101C0440F2A95EAF7842B80959091D0
:1007C00041018923EACF0895CF93DF93EC012E8175
:1007D0003F81488559856A857B858C859D850E94EA
:1007E000EF1B20E030E040EF54E40E940A1B6A8BCC
:1007F0007B8B8C8B9D8B9B01AC010E94991A2BEDFE
:100800003FE049E450E40E94A71C2E853F854889BB
:1008100059890E94A71CDF91CF9108950F931F93D0
:10082000CF93DF93EC018F8D0E9444018C0189A14D
:1008300081110DC00130110551F488A10E944401BD
:100840009C019AA121153105C1F491111AA209A3A5
:10085000AE8DE881F9812E813F81488559856A8571
:100860007B858C859D85BAA1B1110FC0A1110FC0E8
:100870003196F983E883A1E00EC02130310539F7C4
:100880009111E5CF81E08AA3E2CFA111F1CF319799
:10089000F983E883AFEF0E940D1F2E833F834887C3
:1008A00059876A877B878C879D87DF91CF911F91BE
:1008B0000F91089580E592E00C940E0481EB92E094
:1008C0000C940E04FC01AC014D5D5F4F9B0177FF62
:1008D00004C022273327261B370B93A19230C9F07F
:1008E00078F4913099F0868D882319F0719561958F
:1008F00071091616170694F461E0CA010C948A0374
:10090000933051F0943079F728BDEDCF2093B300A8
:10091000EACF2093B400E7CF27BDE5CF672B11F0D6
:1009200062E0EBCF64E0E9CF2F923F924F925F926B
:100930006F927F928F929F92AF92BF92CF92DF92EF
:10094000EF92FF920F931F93CF93DF93CDB7DEB754
:1009500065970FB6F894DEBF0FBECDBF9D8B8C8B15
:10096000488B598B6A8B7B8BDC015A964D935D9338
:100970006D937C935D97FC01E15AFF4F8081882342
:1009800009F427C18FB7F89420913D0130913E01C1
:1009900040913F01509140012C873D874E875F87F2
:1009A0008FBF789780819181A281B3814C855D85CD
:1009B0006E857F85481B590B6A0B7B0BEC89FD8983
:1009C000ED5AFF4F80819181A281B3814817590769
:1009D0006A077B0708F4FDC0EC89FD89EF5BFF4FD8
:1009E0000190F081E02D80819181A281B3818B8380
:1009F0009C83AD83BE83EC89FD89EB5BFF4F019047
:100A0000F081E02D9C01AD01608171818281938133
:100A10000E94981A4B015C01EC89FD89E15BFF4F54
:100A200020813181428153816B817C818D819E81C6
:100A30000E94981A6B017C01AC89BD89D5962D91D5
:100A40003D914D915C91D897C501B4010E94A71CBE
:100A50000C891D89055B1F4FF8012081318142817E
:100A600053810E94991A2B013C01D8014D925D924D
:100A70006D927C921397EC89FD89E05AFF4FB0810B
:100A8000BF83B11116C0EC89FD8921A932A943A900
:100A900054A9C701B6010E94A71C9B01AC01C30168
:100AA000B2010E94981AD8016D937D938D939C9307
:100AB0001397EC89FD89E55BFF4FFA83E98340805A
:100AC000518062807380EC89FD89E55AFF4F208058
:100AD0003180028113819101A801C301B2010E94FA
:100AE000A21C18160CF0BAC0C101D801E981FA8124
:100AF00080839183A283B383FF81FF2309F4C5C060
:100B0000AC89BD89D1962D913D914D915C91D49741
:100B1000C501B4010E94A71C4B015C01EC89FD8951
:100B200021AD32AD43AD54ADC701B6010E94A71C43
:100B30009B01AC01EC89FD89E55BFF4F6081718110
:100B4000828193810E94981AA50194010E94991AAA
:100B50006B017C019B01AC01B101C8010E94051B26
:100B600087FD12C0EC89FD89E95AFF4F2080318052
:100B7000028113819101A801B601C7010E94051BE2
:100B800087FD02C016018701EC89FD89ED5BFF4FEF
:100B90000190F081E02DC101D80180839183A2836F
:100BA000B383EC89FD89E15BFF4F2B813C814D8153
:100BB0005E812083318342835383EC89FD89E95B25
:100BC000FF4F8C859D85AE85BF8580839183A283F1
:100BD000B383AC89BD895E968C91C12CD12C90E8F1
:100BE000E92E9FE3F92E882331F0C12CD12C80E827
:100BF000E82E8FEBF82E20E030E0A9016889798992
:100C00008A899B890E94A71CEC89FD8926893789DE
:100C1000408D518D0E94991AA70196010E94A71C30
:100C20000E947C1B8C899D8965960FB6F894DEBF67
:100C30000FBECDBFDF91CF911F910F91FF90EF902D
:100C4000DF90CF90BF90AF909F908F907F906F90EC
:100C50005F904F903F902F900C946204EC89FD8937
:100C6000E95AFF4F2081318142815381288739879A
:100C70004A875B87C301B2010E94051B87FF3CCFF7
:100C800088859985AA85BB8531CF812C912C54010B
:100C900045CFFC0101900020E9F73197AF01481BD7
:100CA000590BBC0182E491E00C947D028F929F92DB
:100CB000AF92BF920F931F93CF93DF93CDB7DEB761
:100CC000A1970FB6F894DEBF0FBECDBF19A2423078
:100CD00008F44AE08E010F5D1F4F842E912CB12C39
:100CE000A12CA50194010E94EB1EE62FB901CA01B7
:100CF000EA30F4F4E05DD801EE938D01232B242B30
:100D0000252B79F790E080E0109719F0CD010E9433
:100D10004906A1960FB6F894DEBF0FBECDBFDF9196
:100D2000CF911F910F91BF90AF909F908F9008959A
:100D3000E95CE1CF4F925F926F927F928F929F9288
:100D4000AF92BF92CF92DF92EF92FF920F931F93D9
:100D5000CF936B017C01742EAC019B010E94AA1DF4
:100D6000882399F086E191E0CF911F910F91FF9038
:100D7000EF90DF90CF90BF90AF909F908F907F903B
:100D80006F905F904F900C94490646015701E8948C
:100D9000B7F82FEF3FEF4FE75FE7C501B4010E94BF
:100DA000AA1D81110DC02FEF3FEF4FE75FE7C5018F
:100DB000B4010E94051B18161CF48AE191E0D4CFFF
:100DC0002FEF3FEF4FE75FE4C701B6010E94A21C7F
:100DD00018161CF48EE191E0C7CF2FEF3FEF4FE7DD
:100DE0005FECC701B6010E94051B87FDF3CF20E031
:100DF00030E0A901C701B6010E94051B10E000E028
:100E000087FF0AC06DE282E491E00E941D038C011D
:100E1000F7FAF094F7F8F094C0E060E070E080E05A
:100E20009FE37C1641F020E030E040E251E40E9474
:100E30000A1BCF5FF6CFA70196010E94991A2B01DA
:100E40003C010E94831B4B015C014AE00E94560654
:100E50007C01E00EF11ECC23C1F1C501B4010E945A
:100E6000B21B9B01AC01C301B2010E94981A4B0155
:100E70005C016EE282E491E00E941D03E80EF91E1F
:100E8000C15018F120E030E040E251E4C501B40166
:100E90000E94A71C2B013C010E94831B4B01B12C1B
:100EA000A12C4AE0C501B4010E945606E80EF91EC5
:100EB000C501B4010E94B21B9B01AC01C301B20188
:100EC0000E94981A4B015C01DBCFC701CF911F91A3
:100ED0000F91FF90EF90DF90CF90BF90AF909F90D9
:100EE0008F907F906F905F904F9008954F925F9298
:100EF0006F927F928F929F92AF92BF92CF92DF922A
:100F0000EF92FF92CF93DF93CDB7DEB760970FB626
:100F1000F894DEBF0FBECDBF69837A838B839C8339
:100F200080902C0290902D02A0902E02B0902F0263
:100F3000C0902802D0902902E0902A02F0902B0263
:100F4000A7019601C501B4010E94981A2B013C012A
:100F50008091FC019091FD01A091FE01B091FF01F3
:100F60008D839E83AF83B887A501940169817A81BF
:100F70008B819C810E94981A4B015C0120E030E03B
:100F800040E450E40E94141D9B01AC016D817E8100
:100F90008F8198850E94A71C20E030E040EC50E44F
:100FA0000E940A1B209148023091490240914A0256
:100FB00050914B020E94991A6D877E878F87988B7C
:100FC000C701B6010E94CD0069837A838B839C831D
:100FD00020E030E040E450E4C301B2010E94141D5F
:100FE00069877A878B879C87C090E801D090E90158
:100FF000E090EA01F090EB01F7FAF094F7F8F09442
:10100000A3019201C301B2010E94A71C9B01AC0184
:10101000C701B6010E94A71C20E030E040E05FE37A
:101020000E94A71C6B017C0129813A814B815C8164
:10103000C301B2010E94A71C2D853E854F855889AA
:101040000E94991A9B01AC01C701B6010E94991A2E
:101050006B017C0129853A854B855C856D817E819C
:101060008F8198850E94A71C20E030E040EC50E47E
:101070000E940A1B9B01AC01C701B6010E94991A8C
:101080006B017C012091F0013091F1014091F2015E
:101090005091F301C501B4010E94A71C9B01AC0152
:1010A000C701B6010E94991A60960FB6F894DEBF88
:1010B0000FBECDBFDF91CF91FF90EF90DF90CF902B
:1010C000BF90AF909F908F907F906F905F904F9068
:1010D00008954F925F926F927F928F929F92AF92FC
:1010E000BF92CF92DF92EF92FF92CF93DF93EC010A
:1010F0004A015B01FC01EC5BFF4FC080D180E280C4
:10110000F38034972081318142815381C701B60138
:101110000E94981A2B013C01A7019601C501B40158
:101120000E94981A6B017C018C8C9D8CAE8CBF8CBC
:10113000B7FAB094B7F8B094A3019201C301B20119
:101140000E94A71C9B01AC01C501B4010E94A71C11
:1011500020E030E040E05FE30E94A71C2881398155
:101160004A815B810E94991AA70196010E94A71CDF
:10117000FE01EC59FF4F20813181428153810E9451
:10118000991A4B015C01A7019601C701B6010E94A3
:10119000A71C288539854A855B850E94A71C20E00D
:1011A00030E040E05FE30E94A71C9B01AC01C50159
:1011B000B4010E94981ADF91CF91FF90EF90DF90D9
:1011C000CF90BF90AF909F908F907F906F905F90E7
:1011D0004F9008958F929F92AF92BF92CF92DF92DD
:1011E000EF92FF92CF93DF93EC01CB01BA01FE01A6
:1011F000E05CFF4F20813181428153810E94981A27
:101200006B017C0120E030E040E450E40E94141DBA
:101210005E0120E6A20EB11C2C8D3D8D4E8D5F8DA2
:101220000E94A71C20E030E040EC50E40E940A1B22
:101230009B01AC01F50160817181828193810E94E3
:10124000981A4B015C01288139814A815B81C70171
:10125000B6010E94A71C9B01AC01C501B4010E940C
:10126000991ADF91CF91FF90EF90DF90CF90BF90D0
:10127000AF909F908F9008954F925F926F927F9260
:101280008F929F92AF92BF92CF92DF92EF92FF9296
:10129000CF93DF93CDB7DEB72A970FB6F894DEBFB2
:1012A0000FBECDBF9A878987CB01BA01E985FA8540
:1012B00080AC91ACA2ACB3AC4480558066807780A2
:1012C000C08CD18CE28CF38CA50194010E94981AF9
:1012D00069837A838B839C8320E030E040E450E490
:1012E0000E94141D6D837E838F839887A3019201D2
:1012F000C501B4010E94A71C4B015C01A30192012E
:10130000C301B2010E94A71C2B013C01A701960159
:10131000C701B6010E94991A9B01AC01C301B20139
:101320000E940A1B9B01AC01C501B4010E94981ADE
:10133000E985FA8524893589468957890E94991A51
:1013400029813A814B815C810E94A71C29853A85BD
:10135000285A3F4FF90120813181428153810E94F7
:10136000991A4B015C01A70196016D817E818F81E5
:1013700098850E94A71C20E030E040EC50E40E94D9
:101380000A1B9B01AC01C501B4010E94991A2A965F
:101390000FB6F894DEBF0FBECDBFDF91CF91FF90A7
:1013A000EF90DF90CF90BF90AF909F908F907F9005
:1013B0006F905F904F9008952F923F924F925F925F
:1013C0006F927F928F929F92AF92BF92CF92DF9255
:1013D000EF92FF920F931F93CF93DF93CDB7DEB7BA
:1013E000A6970FB6F894DEBF0FBECDBF1C014B8F82
:1013F0005C8F6D8F7E8F0B8B1C8B2D8B3E8B8F8E1E
:1014000098A2A9A2BAA24BAC5CAC6DAC7EAC2896FB
:101410001FAD289729960FAD29972A968FAD2A9749
:1014200089872B969FAD2B979A87812F902FA9851F
:10143000BA85F10180839183A283B3838B899C89D0
:10144000AD89BE8984839583A683B783C086D18600
:10145000E286F386DB01CA0184879587A687B78772
:1014600027968CAD9DADAEADBFAD2797808B918B90
:10147000A28BB38B23968CAD9DADAEADBFAD239744
:10148000848B958BA68BB78BD501C401808F918FF0
:10149000A28FB38F448E558E668E778E14A215A2BE
:1014A00016A217A2A3019201C701B6010E940A1B4E
:1014B0006F8B788F898F9A8F27962CAD3DAD4EAD6F
:1014C0005FAD2797612F702F89859A850E94981AA2
:1014D000A70196010E940A1B2F89388D498D5A8DCC
:1014E0000E94981A69837A838B839C8320E030E082
:1014F00040E450E4C701B6010E94141D4B015C0199
:10150000A3019201C301B2010E94A71C6D837E83D7
:101510008F839887A7019601C701B6010E94A71C77
:101520006F87788B898B9A8B20E030E040EC50E419
:101530006D817E818F8198850E94A71C9B01AC01E3
:10154000C501B4010E940A1B9B01AC010E94991ABB
:101550004B015C0120E030E040E450E4C301B20103
:101560000E94A71C212F302F49855A850E94A71C55
:101570009B01AC016F85788989899A890E94981AA4
:10158000A70196010E94A71C6BA37CA38DA39EA319
:1015900020E030E040E450E46D817E818F819885C9
:1015A0000E94A71C9B01AC016BA17CA18DA19EA1F7
:1015B0000E940A1B9B01AC01C501B4010E94981A4C
:1015C0004B015C0127962CAD3DAD4EAD5FAD27972D
:1015D000C701B6010E94A71CA30192010E940A1B29
:1015E0009B01AC01C501B4010E94991A6D837E83F1
:1015F0008F8398878F849888A988BA88B7FAB0941F
:10160000B7F8B094A3019201C301B2010E94991AE4
:101610009B01AC01C501B4010E940A1B212F302F90
:1016200049855A850E94991A29813A814B815C81AA
:101630000E94A71C9B01AC016D817E818F819885E2
:101640000E94991A4B015C0129813A814B815C818E
:10165000CA01B9010E94A71CA70196010E94A71CFC
:1016600020E030E040E05FE30E94A71C9B01AC015A
:10167000C501B4010E94981A6D837E838F83988779
:10168000D1019C966D937D938D939C939F97F101CF
:1016900010AA11AA12AA13AA2F8D38A149A15AA1E2
:1016A0006B897C898D899E890E940A1B69837A8354
:1016B0008B839C83D101D4966D937D938D939C9362
:1016C000D79723962CAD3DAD4EAD5FAD2397612FDF
:1016D000702F89859A850E94981A2B893C894D899B
:1016E0005E890E940A1B9B01AC01F10120AF31AF62
:1016F00042AF53AF69817A818B819C810E94991A94
:101700004B015C01D101DC968D929D92AD92BC9211
:10171000DF97BC01A401C1010E943C099B01AC01FF
:10172000F10120A731A742A753A73101F0E46F0EC2
:10173000711C6B8D7C8D8D8D9E8D0E94981A2D81D4
:101740003E814F8158850E94981A212F302F49855C
:101750005A850E940A1BA50194010E94991AD3017F
:101760006D937D938D939C931397580199848A84EC
:101770007CA26BA2EBA1FCA14080518062807380AF
:10178000D101DC968D919D910D90BC91A02D8F87FC
:10179000988BA98BBA8B9C01AD01C301B2010E9449
:1017A000051B87FF5CC020E030E040E85FE36B2D65
:1017B0007A2D892D982D0E94981AB62EA72E982E34
:1017C000892E23962CAD3DAD4EAD5FAD23970E9483
:1017D000981A2B893C894D895E890E940A1B9B01BE
:1017E000AC01F10120AF31AF42AF53AF69817A81D3
:1017F0008B819C810E94991A2B013C01D101DC96BE
:101800004D925D926D927C92DF97BC01A201C10165
:101810000E943C099B01AC01F10120A731A742A71E
:1018200053A76B8D7C8D8D8D9E8D0E94981A2D8176
:101830003E814F8158850E94981A2B2D3A2D492DB3
:10184000582D0E940A1BA30192010E94991AABA174
:10185000BCA16D937D938D939C9313978BCFA30124
:1018600092016F89788D898D9A8D0E94991A6D8366
:101870007E838F839887F101EC5BFF4F60837183D8
:101880008283938327962CAD3DAD4EAD5FAD2797F8
:101890006B2D7A2D892D982D0E94981AA7019601FB
:1018A0000E940A1BA30192010E94991A6B877C87F0
:1018B0008D879E87F101E85BFF4F60837183828390
:1018C00093839B01AC016F89788D898D9A8D0E94DD
:1018D000991AF101E45BFF4F6083718382839383E4
:1018E000F10160A371A382A393A3E05BFF4F108279
:1018F00011821282138220E030E040E450E46981DA
:101900007A818B819C810E94141D9B01AC016F8D9B
:1019100078A189A19AA10E94A71C20E030E040ECA8
:1019200050E40E940A1B4B015C0123962CAD3DAD97
:101930004EAD5FAD239769817A818B819C810E9436
:10194000A71C9B01AC01C501B4010E94991A6B014F
:101950007C01F101EC5AFF4FC082D182E282F38216
:1019600029813A814B815C81D101D8966D917D911D
:101970008D919C91DB970E94981A4B015C01F101BB
:10198000E85AFF4FF88FEF8B29813A814B815C81B8
:10199000CA01B9010E94A71C2F8D38A149A15AA1E3
:1019A0000E94A71C20E030E040E05FE30E94A71CFB
:1019B00023962CAD3DAD4EAD5FAD23970E94991A95
:1019C000A50194010E94A71CA70196010E94991AE3
:1019D0006B017C01A5019401C501B4010E94A71C03
:1019E0002B893C894D895E890E94A71C20E030E04C
:1019F00040E05FE30E94A71C9B01AC01C701B60158
:101A00000E94991AAF89B88D6D937D938D939C93A5
:101A100013974F85588969897A89C1010E943C09C9
:101A2000F101E45AFF4F60837183828393837101D4
:101A3000B0E6EB0EF11C2F85388949895A89C3011C
:101A4000B2010E94981A212F302F49855A850E9491
:101A5000A71CF10120A531A542A553A50E94991A02
:101A6000D7016D937D938D939C9313974D815E81E8
:101A70006F817885C1010E94EA08F101EC59FF4F9E
:101A800060837183828393834B855C856D857E85BE
:101A9000C1010E946908F101E859FF4F6083718319
:101AA0008283938334968B8D9C8DAD8DBE8D808388
:101AB0009183A283B383A6960FB6F894DEBF0FBEC0
:101AC000CDBFDF91CF911F910F91FF90EF90DF90ED
:101AD000CF90BF90AF909F908F907F906F905F90CE
:101AE0004F903F902F9008951F920F920FB60F9234
:101AF00011242F933F938F939F93AF93BF93809124
:101B00003D0190913E01A0913F01B0914001309183
:101B1000380123E0230F2D3758F50196A11DB11D83
:101B20002093380180933D0190933E01A0933F01A3
:101B3000B09340018091390190913A01A0913B010D
:101B4000B0913C010196A11DB11D80933901909384
:101B50003A01A0933B01B0933C01BF91AF919F919B
:101B60008F913F912F910F900FBE0F901F9018955E
:101B700026E8230F0296A11DB11DD2CF1F920F920E
:101B80000FB60F9211242F933F934F935F936F9350
:101B90007F938F939F93AF93BF93EF93FF93E091C6
:101BA0000201F09103010995FF91EF91BF91AF916F
:101BB0009F918F917F916F915F914F913F912F9165
:101BC0000F900FBE0F901F9018951F920F920FB697
:101BD0000F9211242F933F934F935F936F937F93B3
:101BE0008F939F93AF93BF93EF93FF93E091000187
:101BF000F09101010995FF91EF91BF91AF919F91F4
:101C00008F917F916F915F914F913F912F910F90A5
:101C10000FBE0F901F9018951F920F920FB60F9244
:101C200011242F933F934F935F936F937F938F93E1
:101C30009F93AF93BF93EF93FF9382E491E00E9451
:101C4000FB02FF91EF91BF91AF919F918F917F9197
:101C50006F915F914F913F912F910F900FBE0F9019
:101C60001F9018951F920F920FB60F9211242F9369
:101C70008F939F93EF93FF93E0915201F091530163
:101C80008081E0915801F091590182FD1BC0908143
:101C900080915B018F5F8F7320915C01821741F00F
:101CA000E0915B01F0E0EE5BFE4F958F80935B016E
:101CB000FF91EF919F918F912F910F900FBE0F90F9
:101CC0001F9018958081F4CF2F923F924F925F9290
:101CD0006F927F928F929F92AF92BF92CF92DF923C
:101CE000EF92FF920F931F93CF93DF93CDB7DEB7A1
:101CF00029970FB6F894DEBF0FBECDBF99878887AE
:101D00006983F22EDC011D921C92FC011282138267
:101D10001482158216821782108611861286138607
:101D2000148615868EEA97E4A1EABFE38687978733
:101D3000A08BB18BDF01128A138A148A158A068F51
:101D40005F966C935F9790964C939097EE24E394F4
:101D50009296EC9292979396EC92939782E0949657
:101D60008C930E940C020E94F701888599858D5BF7
:101D70009F4F9B838A83888599854696AA81BB81DC
:101D80008D939C93E885F985EF5BFF4FFD83EC8392
:101D900088859985029691838083E885F985EB5B38
:101DA000FF4F888599854A9691838083288439845A
:101DB000FFE52F0E311CD1011C92C884D984B7E5F0
:101DC000CB0ED11CF60110821182128213828885FB
:101DD0009985855A9F4F9F838E8380E090E0AFE77F
:101DE000B3E4EE81FF8180839183A283B38308856E
:101DF00019850D5A1F4F84E6882E912CA12CB12CE9
:101E0000D8018D929D92AD92BC921397E885F98589
:101E100016AE15AEFF9681E090E091838083E88551
:101E2000F985E05AFF4FE08280E090E0A0EAB0E45C
:101E3000E885F98585A396A3A7A3B0A740E050E065
:101E400060EF71E441A752A763A774A715A616A671
:101E500017A610AA81AB92ABA3ABB4AB80E090E025
:101E6000A0E4B0E485AB96ABA7ABB0AF11AE12AEB9
:101E700013AE14AE2FB7F89480913D0190913E01BE
:101E8000A0913F01B09140012FBFF80140815181E5
:101E900062817381E885F985E95BFF4F841B950BAF
:101EA000A60BB70B80839183A283B383CB01BA01C6
:101EB0000E94B21B9B01AC0160E070E088EC92E4F0
:101EC0000E940A1B2B013C01AC019B01A885B9852E
:101ED000D5966D917D918D919C91D8970E94A71C6C
:101EE000E885F98565AB76AB87AB90AFA30192012E
:101EF00061AD72AD83AD94AD0E940A1BA885B98512
:101F0000D9966D937D938D939C93DC97F801808295
:101F10009182A282B3820E940C02F3E0FF1609F4C0
:101F200062C084E0F81609F46CC092E0F91609F476
:101F300045C00E94F701A885B9859396FC929397B6
:101F400082E094968C93F1018081811175C0AA8101
:101F5000BB81ED91FC9180809180A280B380E88468
:101F6000F984BBE4EB0EF11CF70180829182A2821E
:101F7000B382AC81BD81ED91FC9180819181A28180
:101F8000B381E885F985E15BFF4F80839183A2836C
:101F9000B383EE81FF814080518062807380A30112
:101FA0009201C501B4010E94A21C1816C4F5D70104
:101FB0004D925D926D927C9213973EC0809141014B
:101FC0008D7E809341010E949B018091B0008362CD
:101FD0008093B000F092B1001092B40061E083E011
:101FE0000E94C601A8CF809141018F758093410165
:101FF0000E949B0184B5836884BD17BC61E086E0C4
:10200000EFCF809141018E7B809341010E949B0123
:1020100084B5836284BD18BC61E085E0E1CFF60140
:102020004080518062807380A3019201C501B40198
:102030000E94051B87FDBBCF81E0F1018083D801A1
:102040006D917D918D919C910E94B21B9B01AC0181
:1020500060E070E088EC92E40E940A1B4B015C0196
:10206000AC019B01E885F98565A976A987A990ADA2
:102070000E94A71CA885B985D5966D937D938D93F5
:102080009C93D897A5019401D9966D917D918D91DE
:102090009C91DC970E940A1BE885F98561AF72AFBD
:1020A00083AF94AF84E690E0A0E0B0E0F8018083D5
:1020B0009183A283B38360E0898129960FB6F89457
:1020C000DEBF0FBECDBFDF91CF911F910F91FF906B
:1020D000EF90DF90CF90BF90AF909F908F907F90C8
:1020E0006F905F904F903F902F900C94C6018F920D
:1020F0009F92AF92BF92CF92DF92EF92FF920F9397
:102100001F93E2E4F1E01382128288EE93E0A0E0F4
:10211000B0E084839583A683B78388E091E09183C0
:10212000808385EC90E09587848784EC90E09787A6
:10213000868780EC90E0918B808B81EC90E0938B94
:10214000828B82EC90E0958B848B86EC90E0978B71
:10215000868B118E128E138E148E1092DF0101E089
:1021600021E030E042E163E081EB92E00E94640E06
:1021700000E024E030E040E162E080E592E00E948F
:10218000640E80E48F9380EC8F931F921F929FE3E5
:102190009F9380E88F931F921F929F938F931F921C
:1021A0001F9281E48F9380E28F931F921F92812C64
:1021B000912C88E4A82E82E4B82EC12CD12C90E476
:1021C000E92EFE2C00E010E020EA30E440E050E090
:1021D00060E771E480EE91E00E94DC098DB79EB764
:1021E00040960FB6F8949EBF0FBE8DBF1F910F9102
:1021F000FF90EF90DF90CF90BF90AF909F908F9027
:102200000895CF93DF93CDB7DEB7C858D1090FB685
:10221000F894DEBF0FBECDBF789484B5826084BDD4
:1022200084B5816084BD85B5826085BD85B58160DA
:1022300085BD80916E00816080936E001092810058
:102240008091810082608093810080918100816013
:1022500080938100809180008160809380008091D4
:10226000B10084608093B1008091B0008160809360
:10227000B00080917A00846080937A0080917A0027
:10228000826080937A0080917A00816080937A00E6
:1022900080917A00806880937A001092C100E0916A
:1022A0005201F091530182E08083E0914E01F09160
:1022B0004F011082E0915001F091510180E1808343
:1022C00010925A01E0915601F091570186E0808307
:1022D000E0915401F0915501808180618083E0910B
:1022E0005401F0915501808188608083E091540110
:1022F000F0915501808180688083E0915401F091D4
:10230000550180818F7D808360E080E10E94C6015D
:102310008AE594E090930101809300018091690027
:102320008C7F816080936900E89A60E082E10E947E
:10233000C6018EE594E090930301809302018091A1
:102340006900837F846080936900E99A8FE38F93AB
:1023500095E99F9392EC9F939FE89F938F931F9291
:102360001F921F928EE38F938CE48F938CEC8F934C
:102370008DEC8F9380E48F9386E68F938F938F936A
:1023800088E4882E81EE982E8AE5A82E80E4B82E67
:102390009AE9C92E99E9D92EED2C9FE3F92E00E098
:1023A00010E020E83FE34AE959E969E870E4CE012A
:1023B00001960E94DC0960E070E0CB010E944902B6
:1023C0000FB6F894DEBF0FBECDBF80E592E00E944D
:1023D000E4036B017C0181EB92E00E94E4039B012A
:1023E000AC01C701B6010E94991A20E030E040E03C
:1023F0005FE30E94A71C2B013C0180913402909165
:102400003502A0913602B0913702C358DF4F88835E
:102410009983AA83BB83CD57D0409C01AD01C301F2
:10242000B2010E94051B87FFCFC0C090F801D09079
:10243000F901E090FA01F090FB0120E030E040E487
:1024400050E4C701B6010E94141DE9966CAF7DAF40
:102450008EAF9FAFE9972091F4013091F501409143
:10246000F6015091F701E5962CAF3DAF4EAF5FAF4F
:10247000E59720E030E040E450E4E5966CAD7DADBA
:102480008EAD9FADE5970E94141DED966CAF7DAFAC
:102490008EAF9FAFED9720E030E040E151E4C701FF
:1024A000B6010E94A71CA30192010E94A71CA301D0
:1024B00092010E94A71C4B015C0120E030E040E04B
:1024C00051E4ED966CAD7DAD8EAD9FADED970E9464
:1024D000A71C9B01AC01C501B4010E94991AE996A1
:1024E0002CAD3DAD4EAD5FADE9970E94A71C0E949B
:1024F0006A1D4B015C0120E030E040E450E4C7017C
:10250000B6010E94A71CA70196010E94A71CA30167
:1025100092010E94A71CA50194010E94991A4B01E7
:102520005C012BEA3AEA4AE25FE30E94141D2B01A8
:102530003C012BEA3AEA4AEA5EE3C501B4010E9493
:10254000141DE9966CAF7DAF8EAF9FAFE997A701E1
:102550009601C701B6010E94991AE5962CAD3DADD2
:102560004EAD5FADE5970E94A71C9B01AC01C30176
:10257000B2010E94981A4B015C01E9962CAD3DAD69
:102580004EAD5FADE997C701B6010E94A71C9B0144
:10259000AC01C501B4010E940A1B9B01AC010E9461
:1025A000A71CA70196010E94A71C20E030E040E094
:1025B0005FE30E94A71CE5962CAD3DAD4EAD5FAD2F
:1025C000E5970E94991A91C580903802909039023F
:1025D000A0903A02B0903B02A5019401C301B20160
:1025E0000E94051B87FF01C1809114029091150282
:1025F000A0911602B0911702E5968CAF9DAFAEAFD9
:10260000BFAFE5978090E4019090E501A090E601CE
:10261000B090E7012091F8013091F9014091FA0161
:102620005091FB01ED962CAF3DAF4EAF5FAFED97F4
:102630008091F4019091F501A091F601B091F7011C
:10264000E9968CAF9DAFAEAFBFAFE997E5962CADE5
:102650003DAD4EAD5FADE597CA01B9010E94A71C23
:10266000ED962CAD3DAD4EAD5FADED970E94A71C34
:1026700020E030E040E05FE30E94A71CE9962CAD2B
:102680003DAD4EAD5FADE9970E94991A6B017C019B
:1026900020E030E040E050ECC358DF4F68817981A2
:1026A0008A819B81CD57D0400E94A71CA50194012F
:1026B0000E94A71CC358DF4F688379838A839B835A
:1026C000CD57D040A7019601C701B6010E94A71CB3
:1026D0009B01AC01C358DF4F688179818A819B815E
:1026E000CD57D0400E94991AC358DF4F6883798331
:1026F0008A839B83CD57D040A5019401C501B401C5
:102700000E94991AA30192010E94A71C9B01AC018F
:10271000C358DF4F688179818A819B81CD57D04032
:102720000E94991A0E946A1D9B01AC01C701B60163
:102730000E94991A6B017C01A5019401E5966CAD8C
:102740007DAD8EAD9FADE5970E94A71C9B01AC01AE
:10275000C701B6010E94981A6B017C01E9962CAD65
:102760003DAD4EAD5FADE997CA01B9010E94991A1E
:102770009B01AC01C701B6010E94981AA501940102
:102780000E940A1BE5962CAD3DAD4EAD5FADE597C1
:102790000E94991AA50194010E94A71C6B017C015B
:1027A000A5019401C501B4010E94A71C4B015C0165
:1027B000ED962CAD3DAD4EAD5FADED97CA01B901C3
:1027C0000E94991A9B01AC01C501B4010E940A1B29
:1027D0009B01AC01C701B6010E94981AE9962CAD85
:1027E0003DAD4EAD5FADE997ECCE20913C0230910E
:1027F0003D0240913E0250913F02C301B2010E944E
:10280000051B87FF37C1C090F801D090F901E09017
:10281000FA01F090FB0120E030E040E450E4C70111
:10282000B6010E94141DCF57DF4F688379838A83D6
:102830009B83C158D040A5019401C301B2010E94FD
:10284000981AE5966CAF7DAF8EAF9FAFE59720915C
:1028500018023091190240911A0250911B02E99618
:102860002CAF3DAF4EAF5FAFE9978090E401909001
:10287000E501A090E601B090E701A7019601C7012C
:10288000B6010E94991AED966CAF7DAF8EAF9FAFE7
:10289000ED97A5019401E9966CAD7DAD8EAD9FAD30
:1028A000E9970E94A71C2B013C01A5019401C501D9
:1028B000B4010E94A71CED962CAD3DAD4EAD5FADB1
:1028C000ED970E940A1B9B01AC01C301B2010E945B
:1028D000981A2091F4013091F5014091F601509140
:1028E000F7010E94991AC358DF4F688379838A835E
:1028F0009B83CD57D04020E030E040E450E40E947C
:10290000141D2B013C0120E030E040E151E4C701FF
:10291000B6010E94A71C4B015C01E5962CAD3DADB4
:102920004EAD5FADE597CA01B9010E94A71C9B019E
:10293000AC01C501B4010E94A71C4B015C0120E061
:1029400030E040E051E4C301B2010E94A71C9B01AA
:10295000AC01C501B4010E94991ACF57DF4F2881FD
:1029600039814A815B81C158D0400E94A71C0E94D6
:102970006A1D4B015C01A7019601C701B6010E94C7
:10298000A71C20E030E040E450E40E94A71CE5963C
:102990002CAD3DAD4EAD5FADE5970E94A71CA501E6
:1029A00094010E94991A4B015C012BEA3AEA4AE22F
:1029B0005FE30E94141D2B013C012BEA3AEA4AEA2C
:1029C0005EE3C501B4010E94141D4B015C01C358B4
:1029D000DF4F288139814A815B81CD57D040ED9608
:1029E0006CAD7DAD8EAD9FADED970E94A71C9B0198
:1029F000AC01C301B2010E94981A2B013C01A50150
:102A00009401C701B6010E94A71C9B01AC01C30140
:102A1000B2010E940A1BE9962CAD3DAD4EAD5FADF3
:102A2000E9970E94991A20911C0230911D02409151
:102A30001E0250911F020E94981AF7FAF094F7F8BC
:102A4000F0949B01AC010E94A71C9B01AC01C70143
:102A5000B6010E94A71C20E030E040E05FE30E9446
:102A6000A71C2091E0013091E1014091E2015091D9
:102A7000E301A7CD209140023091410240914202F2
:102A800050914302C301B2010E94051B87FFA3C1FD
:102A9000C090E001D090E101E090E201F090E3010C
:102AA00020E030E0A901C701B6010E94051B882380
:102AB00009F406C520E030E040E752E4C701B60162
:102AC0000E94A71C2AE836E54DEF50E40E940A1B3D
:102AD0004B015C01BC01A40181EB92E00E949404D3
:102AE000B501A40180E592E00E94940480E592E0A3
:102AF0000E94E4034B015C0181EB92E00E94E4033D
:102B00009B01AC01C501B4010E94991A20E030E09C
:102B100040E05FE30E94A71C42E00E949A0682E226
:102B200091E00E9449062FB7F89460913D017091A1
:102B30003E0180913F01909140012FBF0E94B21B46
:102B400020E030E04AE754E40E940A1B42E00E9481
:102B50009A0682E291E00E94490642E0C701B6016E
:102B60000E949A0682E291E00E9449062FB7F894EB
:102B700060913D0170913E0180913F019091400133
:102B80002FBF0E94B21B20E030E04AE754E40E94CD
:102B90000A1B6B017C0120911402309115024091B7
:102BA0001602509117020E94051B87FF8FC3A701D1
:102BB0009601C701B6010E94A71C2091F80130912F
:102BC000F9014091FA015091FB010E94A71C20E0FD
:102BD00030E040E05FE30E94A71C2091F4013091B7
:102BE000F5014091F6015091F7010E94991A42E0D7
:102BF0000E949A0682E291E00E9449066091B30227
:102C00007091B4028091B5029091B6029B01AC0123
:102C10000E94991A2BED3FE049E450E40E94A71C62
:102C20002EEA37E441EA5FE30E94A71C20E030E08F
:102C300040E752E40E940A1B42E00E949A0682E2A8
:102C400091E00E9449066091520270915302809176
:102C50005402909155029B01AC010E94991A2BEDF0
:102C60003FE049E450E40E94A71C2EEA37E441EA21
:102C70005FE30E94A71C20E030E040E752E40E949E
:102C80000A1B42E00E949A0685E291E00E944906F2
:102C90006091B1027091B202072E000C880B990B63
:102CA0000E94B41B20E030E040EF54E40E940A1B75
:102CB0002DEC3CEC4CEC5DE30E940A1B20E030E084
:102CC00040E752E40E94A71C6093B3027093B402E1
:102CD0008093B5029093B6022091B7023091B8026A
:102CE0004091B9025091BA026091BB027091BC024E
:102CF0008091BD029091BE020E94EF1B20E030E067
:102D000040EF54E40E940A1B6093C3027093C40214
:102D10008093C5029093C6021092B2021092B10243
:102D20006091500270915102072E000C880B990B94
:102D30000E94B41B20E030E040EF54E40E940A1BE4
:102D40002DEC3CEC4CEC5DE30E940A1B20E030E0F3
:102D500040E752E40E94A71C609352027093530212
:102D6000809354029093550220915602309157025D
:102D7000409158025091590260915A0270915B0241
:102D800080915C0290915D020E94EF1B20E030E098
:102D900040EF54E40E940A1B609362027093630246
:102DA0008093640290936502109251021092500237
:102DB00064E670E080E090E00E94490240E050E06C
:102DC000452B09F402CB0E94E702882309F4FDCACF
:102DD0000E940000FACA20914402309145024091BD
:102DE000460250914702C301B2010E94051B87FFB2
:102DF0000BC1109104020091050230900602209050
:102E0000070230912002E2963FAFE2974091210203
:102E1000E6964FAFE69750912202EA965FAFEA97A7
:102E200080912302EE968FAFEE97232F342F452FFC
:102E3000582F612F702F832D922D0E94A21C1816DF
:102E400064F0E2961FADE297E6960FADE697EA963C
:102E50003FACEA97EE962FACEE97812F902FA32DE3
:102E6000B22D8093040290930502A0930602B093C2
:102E700007028091FC019091FD01A091FE01B091AB
:102E8000FF019C01AD015058CF57DF4F2883398394
:102E90004A835B83C158D0408091E0019091E10169
:102EA000A091E201B091E301CB57DF4F8883998372
:102EB000AA83BB83C558D040412F502F632D722D5C
:102EC00080EE91E00E94EA084B015C01E2962FAD92
:102ED000E297E6963FADE697EA964FADEA97EE9613
:102EE0005FADEE97612F702F832D922D0E94981A5F
:102EF0006B017C01A3019201C501B4010E94981AE3
:102F00004B015C01A7019601C701B6010E94A71CF5
:102F1000CF57DF4F288139814A815B81C158D0402A
:102F20000E94A71C20E030E040E05FE30E94A71C65
:102F3000CB57DF4F288139814A815B81C558D0400A
:102F40000E94991A9B01AC01C501B4010E940A1BA1
:102F50009B01AC01612F702F832D922D0E94981A36
:102F6000162F072F382E292E462F572F682F792FEF
:102F700080EE91E00E94EA08A30192010E94981A53
:102F80009F772FE632E143E85AE30E94051B87FF53
:102F900093CF812F902FA32DB22D80930402909375
:102FA0000502A0930602B0930702E2962FADE297C6
:102FB000E6963FADE697EA964FADEA97EE965FAD9F
:102FC000EE97612F702F832D922D0E94981A9B01EE
:102FD000AC010E94A71CCF57DF4F288139814A815D
:102FE0005B81C158D0400E94A71C20E030E040E047
:102FF0005FE30E94A71CCB57DF4F288139814A81AC
:103000005B81C558D040DDCA209148023091490209
:1030100040914A0250914B02C301B2010E94051B2C
:1030200087FF66C0A0900402B0900502C09006021F
:10303000D0900702E0902402F09025020091260231
:10304000109127029701A801B501C6010E94A21C98
:10305000181614F475018601C701D8018093040283
:1030600090930502A0930602B0930702A701B8014E
:1030700080EE91E00E946908A30192010E94981AD3
:103080004B015C01B701C8010E94CD009B01AC015E
:10309000C501B4010E940A1B9B01AC01B701C80124
:1030A0000E94981A7B018C01AB01BC0180EE91E07B
:1030B0000E946908A30192010E94981A9F772FE647
:1030C00032E143E85AE30E94051B87FFCFCFC701D7
:1030D000D8018093040290930502A0930602B09356
:1030E0000702B701C8010E94CD006B017C01D8CC5A
:1030F00020914C0230914D0240914E0250914F026E
:10310000C301B2010E94051B87FFDAC1C09004020F
:10311000D0900502E0900602F0900702109128027C
:103120000091290230902A0220902B02212F302F6B
:10313000432D522DB601C7010E94A21C181624F47B
:103140001C2D0D2D3E2C2F2C812F902FA32DB22D19
:103150008093040290930502A0930602B0930702A5
:103160002091FC013091FD014091FE015091FF0141
:10317000E5962CAF3DAF4EAF5FAFE59780912C0247
:1031800090912D02A0912E02B0912F02E9968CAF62
:103190009DAFAEAFBFAFE9972091F0013091F10143
:1031A0004091F2015091F301ED962CAF3DAF4EAF3F
:1031B0005FAFED97612F702F832D922D0E947607C0
:1031C0004B015C01E9962CAD3DAD4EAD5FADE9978D
:1031D000612F702F832D922D0E94981A6B017C0114
:1031E000A3019201C501B4010E94981A4B015C0130
:1031F000A7019601C701B6010E94A71CE5962CAD58
:103200003DAD4EAD5FADE5970E94A71C20E030E0DC
:1032100040E05FE30E94A71CED962CAD3DAD4EADA6
:103220005FADED970E94991A9B01AC01C501B401F5
:103230000E940A1B9B01AC01612F702F832D922DE0
:103240000E94981A162F072F382E292E0E947607D3
:10325000A30192010E94981A9F772FE632E143E87A
:103260005AE30E94051B87FFA5CF812F902FA32D26
:10327000B22D8093040290930502A0930602B093AE
:103280000702E9962CAD3DAD4EAD5FADE997612FDC
:10329000702F832D922D0E94981A9B01AC010E94E1
:1032A000A71CE5962CAD3DAD4EAD5FADE5970E94F8
:1032B000A71C20E030E040E05FE30E94A71CED96F1
:1032C0002CAD3DAD4EAD5FADED977BC920911802A1
:1032D0003091190240911A0250911B02C701B601A8
:1032E0000E94051B87FF31C08090E4019090E501AA
:1032F000A090E601B090E701A5019401C701B601D5
:103300000E94A71C6B017C01A5019401C501B401B9
:103310000E94A71C4B015C016091F8017091F901BA
:103320008091FA019091FB019B01AC010E94991AD6
:103330009B01AC01C501B4010E940A1B9B01AC01B9
:10334000C701B6010E94981A48CC80901C02909048
:103350001D02A0901E02B0901F02A5019401C7019A
:10336000B6010E94051B87FF2BC0A5019401C70170
:10337000B6010E94981AC090F801D090F901E0902F
:10338000FA01F090FB01F7FAF094F7F8F0949B0142
:10339000AC010E94A71C9B01AC01C701B6010E94B1
:1033A000A71C20E030E040E05FE30E94A71C2091D2
:1033B000E0013091E1014091E2015091E30115CC2F
:1033C0008090200290902102A0902202B0902302CF
:1033D000A5019401C701B6010E94051B87FF09C022
:1033E0006091E0017091E1018091E2019091E3012F
:1033F000FECB20912402309125024091260250916B
:103400002702C701B6010E94051B87FF0FC0A50157
:103410009401C701B6010E94981AC090FC01D09097
:10342000FD01E090FE01F090FF01ADCF2091280258
:103430003091290240912A0250912B02C701B60116
:103440000E94051B87FF05C0C701B6010E94CD0081
:10345000CECB80902C0290902D02A0902E02B090A6
:103460002F02A5019401C701B6010E94051B87FF29
:1034700023C0A5019401C701B6010E94981A9B01BF
:10348000AC010E94A71C2091FC013091FD014091EC
:10349000FE015091FF010E94A71C20E030E040E0B7
:1034A0005FE30E94A71C2091F0013091F10140914F
:1034B000F2015091F30199CB60E070E0CB0197CB22
:1034C00088E291E00E94490685E291E00E94490667
:1034D0008DE291E00E9449062091C3023091C4021E
:1034E0004091C5025091C6026091620270916302E0
:1034F00080916402909165020E94991A20E030E068
:1035000040E05FE30E94A71C42E00E949A0670E040
:1035100060E081EB92E00E94620470E060E080E590
:1035200092E00E94620460E07AEC8AE99BE344CC7A
:103530005058BB27AA270E94B01A0C94681C0E94FE
:103540005A1C38F00E94611C20F039F49F3F19F496
:1035500026F40C94571C0EF4E095E7FB0C94511CD8
:10356000E92F0E94791C58F3BA1762077307840782
:10357000950720F079F4A6F50C949B1C0EF4E095C9
:103580000B2EBA2FA02D0B01B90190010C01CA011D
:10359000A0011124FF27591B99F0593F50F4503EC8
:1035A00068F11A16F040A22F232F342F4427585FBA
:1035B000F3CF469537952795A795F0405395C9F7D2
:1035C0007EF41F16BA0B620B730B840BBAF091508A
:1035D000A1F0FF0FBB1F661F771F881FC2F70EC029
:1035E000BA0F621F731F841F48F4879577956795FC
:1035F000B795F7959E3F08F0B0CF9395880F08F0E8
:103600009927EE0F9795879508950E942D1C08F431
:1036100081E008950E941E1B0C94681C0E94611C8E
:1036200058F00E945A1C40F029F45F3F29F00C9496
:10363000511C51110C949C1C0C94571C0E94791C19
:1036400068F39923B1F3552391F3951B550BBB27D1
:10365000AA2762177307840738F09F5F5F4F220F16
:10366000331F441FAA1FA9F335D00E2E3AF0E0E80D
:1036700032D091505040E695001CCAF72BD0FE2F57
:1036800029D0660F771F881FBB1F261737074807EB
:10369000AB07B0E809F0BB0B802DBF01FF279358A3
:1036A0005F4F3AF09E3F510578F00C94511C0C94FA
:1036B0009C1C5F3FE4F3983ED4F38695779567951D
:1036C000B795F7959F5FC9F7880F911D96958795D8
:1036D00097F90895E1E0660F771F881FBB1F6217F7
:1036E00073078407BA0720F0621B730B840BBA0BB5
:1036F000EE1F88F7E09508950E94831B6894B1112E
:103700000C949C1C08950E94811C88F09F5798F08F
:10371000B92F9927B751B0F0E1F0660F771F881FD6
:10372000991F1AF0BA95C9F714C0B13091F00E94F0
:103730009B1CB1E008950C949B1C672F782F882761
:10374000B85F39F0B93FCCF3869577956795B39517
:10375000D9F73EF490958095709561957F4F8F4F86
:103760009F4F0895E89409C097FB3EF4909580958B
:10377000709561957F4F8F4F9F4F9923A9F0F92F37
:1037800096E9BB279395F695879577956795B795B5
:10379000F111F8CFFAF4BB0F11F460FF1BC06F5F9B
:1037A0007F4F8F4F9F4F16C0882311F096E911C0AD
:1037B000772321F09EE8872F762F05C0662371F0CE
:1037C00096E8862F70E060E02AF09A95660F771FE2
:1037D000881FDAF7880F9695879597F90895E894EA
:1037E000F92F96EBFF2381F0121613061406440BF3
:1037F0009395F69587957795679557954040FF2364
:10380000B9F71BC099270895882351F49850D2F72F
:10381000872B762F652F542F432F322F20E0B1F3C3
:10382000121613061406440B88233AF09A95440F97
:10383000551F661F771F881FCAF755234AF4440F88
:10384000551F11F460FF04C06F5F7F4F8F4F9F4F74
:10385000880F9695879597F90895990F0008550F49
:10386000AA0BE0E8FEEF16161706E807F907C0F006
:1038700012161306E407F50798F0621B730B840B0E
:10388000950B39F40A2661F0232B242B252B21F4E8
:1038900008950A2609F4A140A6958FEF811D811D88
:1038A000089597F99F6780E870E060E008959FEFC2
:1038B00080EC089500240A941616170618060906C7
:1038C000089500240A941216130614060506089596
:1038D000092E0394000C11F4882352F0BB0F40F41E
:1038E000BF2B11F460FF04C06F5F7F4F8F4F9F4F5E
:1038F000089557FD9058440F551F59F05F3F71F0E0
:103900004795880F97FB991F61F09F3F79F0879546
:103910000895121613061406551FF2CF4695F1DFCF
:1039200008C0161617061806991FF1CF869571055F
:10393000610508940895E894BB2766277727CB0193
:1039400097F908950E942D1C08F48FEF08950E94A6
:10395000BA1C0C94681C0E945A1C38F00E94611C0E
:1039600020F0952311F00C94511C0C94571C112439
:103970000C949C1C0E94791C70F3959FC1F3950FC9
:1039800050E0551F629FF001729FBB27F00DB11DE3
:10399000639FAA27F00DB11DAA1F649F6627B00D73
:1039A000A11D661F829F2227B00DA11D621F739F5C
:1039B000B00DA11D621F839FA00D611D221F749F6A
:1039C0003327A00D611D231F849F600D211D822FB1
:1039D000762F6A2F11249F5750409AF0F1F08823D8
:1039E0004AF0EE0FFF1FBB1F661F771F881F915005
:1039F0005040A9F79E3F510580F00C94511C0C9447
:103A00009C1C5F3FE4F3983ED4F3869577956795C9
:103A1000B795F795E7959F5FC1F7FE2B880F911D2E
:103A20009695879597F90895FA01EE0FFF1F309646
:103A300021053105A1F16115710561F48038BFE3FD
:103A40009B0749F168949038810561F08038BFEF99
:103A50009B0741F099234AF5FF3FE1053105210518
:103A600019F1E8940894E795D901AA2329F4AB2F1A
:103A7000BE2FF85FD0F310C0FF5F70F4A695E0F79B
:103A8000F73950F019F0FF3A38F49F779F930DD033
:103A90000F9007FC9058089546F00C94571C60E076
:103AA00070E080E89FE308954FE79F775F934F931F
:103AB0003F932F930E946F1E2F913F914F915F91E3
:103AC0000E94A71C0C94B71D19F416F40C94571CF3
:103AD0000C94E91D0E94811CB8F39923C9F3B6F335
:103AE0009F57550B87FF0E94F71D0024A0E640EA70
:103AF000900180585695979528F4805C660F771F43
:103B0000881F20F026173707480730F4621B730B15
:103B1000840B202931294A2BA69517940794202538
:103B200031254A2758F7660F771F881F20F0261780
:103B30003707480730F4620B730B840B200D311DDF
:103B4000411DA09581F7B901842F9158880F969552
:103B5000879508950E942D1C880B990B089529F4D0
:103B600016F00C94511C0C949B1C0C94571C0E9436
:103B7000811CA8F39638A0F707F80F92E8942BE37E
:103B80003AEA48EB5FE70E94BD1C0F920F920F923A
:103B90004DB75EB70F920E94B71EE8E6F0E00E94B4
:103BA000FE1D4F915F91EF91FF91E595EE1FFF1F75
:103BB00049F0FE57E0684427EE0F441FFA95E1F7FD
:103BC0004195550B0E94311E0F9007FE0C94251E47
:103BD00008959F3F31F0915020F487957795679530
:103BE000B795880F911D9695879597F908959150EF
:103BF0005040660F771F881FD2F70895DF93CF9349
:103C00001F930F93FF92EF92DF927B018C016894D8
:103C100006C0DA2EEF010E94BA1CFE01E894A591BD
:103C20002591359145915591A6F3EF010E94B01A67
:103C3000FE019701A801DA9469F7DF90EF90FF90F9
:103C40000F911F91CF91DF9108959B01AC0160E02E
:103C500070E080E89FE30C940A1B0C94511C0C94B8
:103C6000E91D0E94811CD8F39923C9F3940F511DBB
:103C7000A3F39150504094F059F0882332F0660F2E
:103C8000771F881F91505040C1F79E3F51052CF778
:103C9000880F911D9695879597F908955F3FACF031
:103CA000983E9CF0BB27869577956795B79508F465
:103CB000B1609395C1F7BB0F58F711F460FFE8CFDF
:103CC0006F5F7F4F8F4F9F4FE3CF0C949C1C16F07C
:103CD0000C94E91D0C94571C68940C94511C0E9480
:103CE000811CA8F39923C1F3AEF3DF93CF931F9305
:103CF0000F93FF92C92FDD2788232AF02197660FA3
:103D0000771F881FDAF720E030E040E85FEB9FE3A1
:103D1000883920F0803E38F021968F770E94991ADA
:103D2000E0E9F0E004C00E94991AEDEBF0E00E9497
:103D3000FE1D8B01BE01EC01FB2E6F5771097595BD
:103D4000771F880B990B0E94B41B28E132E741E3EF
:103D50005FE30E94BA1CAF2D9801AE01FF900F9156
:103D60001F91CF91DF910E94B01A0C94681CFA0148
:103D7000DC01AA0FBB1F9B01AC01BF5728F422270F
:103D800033274427507820C0B75190F4AB2F00243C
:103D9000469537952795011CA395D2F3002071F025
:103DA000220F331F441FB395DAF30ED00C94981AE8
:103DB00061307105A0E88A07B94630F49B01AC0177
:103DC0006627772788279078309621F020833183E3
:103DD000428353830895A1E21A2EAA1BBB1BFD0147
:103DE0000DC0AA1FBB1FEE1FFF1FA217B307E407DA
:103DF000F50720F0A21BB30BE40BF50B661F771F32
:103E0000881F991F1A9469F7609570958095909511
:103E10009B01AC01BD01CF0108950024A7FD0094D2
:103E20002A0F301D401D501D601D701D801D901DEE
:103E30000895EE0FFF1F0590F491E02D0994F8947A
:103E4000FFCF7C027C02000000001D037D02AA025D
:103E50006A03DB02B902CD026E616E00696E660014
:103E60006F7666002C20000D0A00446F6E650072AC
:0A3E70006F746174696F6E733A009D
:107E0000112484B714BE81FFF0D085E080938100F7
:107E100082E08093C00088E18093C10086E0809377
:107E2000C20080E18093C4008EE0C9D0259A86E02C
:107E300020E33CEF91E0309385002093840096BBD3
:107E4000B09BFECF1D9AA8958150A9F7CC24DD24C4
:107E500088248394B5E0AB2EA1E19A2EF3E0BF2EE7
:107E6000A2D0813461F49FD0082FAFD0023811F036
:107E7000013811F484E001C083E08DD089C08234E0
:107E800011F484E103C0853419F485E0A6D080C0E4
:107E9000853579F488D0E82EFF2485D0082F10E0AE
:107EA000102F00270E291F29000F111F8ED06801E7
:107EB0006FC0863521F484E090D080E0DECF843638
:107EC00009F040C070D06FD0082F6DD080E0C81688
:107ED00080E7D80618F4F601B7BEE895C0E0D1E017
:107EE00062D089930C17E1F7F0E0CF16F0E7DF06D8
:107EF00018F0F601B7BEE89568D007B600FCFDCFD4
:107F0000A601A0E0B1E02C9130E011968C91119780
:107F100090E0982F8827822B932B1296FA010C0160
:107F200087BEE89511244E5F5F4FF1E0A038BF0790
:107F300051F7F601A7BEE89507B600FCFDCF97BE46
:107F4000E89526C08437B1F42ED02DD0F82E2BD052
:107F50003CD0F601EF2C8F010F5F1F4F84911BD097
:107F6000EA94F801C1F70894C11CD11CFA94CF0C13
:107F7000D11C0EC0853739F428D08EE10CD085E9AC
:107F80000AD08FE07ACF813511F488E018D01DD067
:107F900080E101D065CF982F8091C00085FFFCCF94
:107FA0009093C60008958091C00087FFFCCF809118
:107FB000C00084FD01C0A8958091C6000895E0E648
:107FC000F0E098E1908380830895EDDF803219F02E
:107FD00088E0F5DFFFCF84E1DECF1F93182FE3DFCA
:107FE0001150E9F7F2DF1F91089580E0E8DFEE27F6
:047FF000FF270994CA
:027FFE00040479
:00000001FF
