:100000000C94A3000C94CE0D0C94A70D0C94CB0073
:100010000C94CB000C94CB000C94CB000C94CB0034
:100020000C94CB000C94CB000C94CB000C94CB0024
:100030000C94CB000C94CB000C94CB000C94CB0014
:100040000C945D0D0C94CB000C941B0E0C94F50DD0
:100050000C94CB000C94CB000C94CB000C94CB00F4
:100060000C94CB000C94CB0007634236B79BD8A707
:100070001A39685618AEBAAB558C1D3CB7CC5763CD
:10008000BD6DEDFD753EF6177231BF000000803F7B
:1000900008000000BE922449123EABAAAA2ABECD97
:1000A000CCCC4C3E00000080BEABAAAAAA3E000009
:1000B0000000BF000000803F000000000008417801
:1000C000D3BB4387D1133D190E3CC3BD4282AD2B38
:1000D0003E68EC8276BED98FE1A93E4C80EFFFBE30
:1000E00001C4FF7F3F00000000000000000024006A
:1000F00027002A0000000000250028002B00000037
:10010000000023002600290004040404040404045D
:1001100002020202020203030303030301020408B2
:100120001020408001020408102001020408102061
:1001300000000008000201000003040700000000A6
:1001400000000000181011241FBECFEFD8E0DEBF62
:10015000CDBF11E0A0E0B1E0E6EDFAE302C005900A
:100160000D92A833B107D9F723E0A8E3B1E001C0AD
:100170001D92A230B207E1F710E0C3EAD0E004C05C
:100180002197FE010E94631DC23AD107C9F70E9460
:10019000A4100C94691D0C940000833081F028F4A5
:1001A000813099F08230A9F008958730A9F0883025
:1001B000C9F08430B1F4809180008F7D03C08091BC
:1001C00080008F7780938000089584B58F7784BDF9
:1001D000089584B58F7DFBCF8091B0008F77809399
:1001E000B00008958091B0008F7DF9CFCF93DF9359
:1001F000282F30E0F901E05DFE4F8491F901E45EC3
:10020000FE4FD491F901E85FFE4FC491CC23A1F0D9
:1002100081110E94CD00EC2FF0E0EE0FFF1FE250A5
:10022000FF4FA591B491EC91ED2381E090E009F4AA
:1002300080E0DF91CF91089580E090E0FACF1F93A6
:10024000CF93DF93282F30E0F901E05DFE4F8491DA
:10025000F901E45EFE4FD491F901E85FFE4FC491CD
:10026000CC23A9F0162F81110E94CD00EC2FF0E0D5
:10027000EE0FFF1FEC50FF4FA591B4918FB7F8948C
:10028000EC91111108C0D095DE23DC938FBFDF9174
:10029000CF911F910895DE2BF8CFCF93DF9360E0CD
:1002A0008CE00E941F0160E088E00E941F01C7E00F
:1002B000D0E060E084E00E941F018091410190E065
:1002C0000C2E02C0959587950A94E2F761E080FFB5
:1002D00060E088E00E941F0161E084E00E941F014D
:1002E000219738F761E08CE0DF91CF910C941F01EA
:1002F000CF93DF9390E0FC01E45EFE4F2491885F92
:100300009E4FFC0184918823D1F090E0880F991FC3
:10031000FC01E651FF4FA591B491FC01EC50FF4F59
:10032000C591D49161110EC09FB7F8948C91E22FC2
:10033000E0958E238C932881E223E8839FBFDF9191
:10034000CF9108958FB7F894EC91E22BEC938FBF87
:10035000F6CF80914101837F809341010E944D013E
:10036000E0EBF0E080818368808382E08093B100DD
:100370001092B30061E08BE00C94780161E08CE0B6
:100380000E94780161E087E00E94780161E088E0E6
:100390000E94780161E084E00E947801109241019E
:1003A0000E944D0160E087E00C941F013FB7F89474
:1003B0008091390190913A01A0913B01B0913C01AB
:1003C00026B5A89B05C02F3F19F00196A11DB11DB0
:1003D0003FBFBA2FA92F982F8827BC01CD01620FEC
:1003E000711D811D911D42E0660F771F881F991FA7
:1003F0004A95D1F708958F929F92AF92BF92CF9274
:10040000DF92EF92FF926B017C010E94D6014B01BB
:100410005C01C114D104E104F104B9F00E94D601D9
:10042000681979098A099B09683E7340810591051D
:1004300080F321E0C21AD108E108F10888EE880EA5
:1004400083E0981EA11CB11CE4CFFF90EF90DF90D9
:10045000CF90BF90AF909F908F9008950895AF92E6
:10046000BF92CF92DF92EF92FF920F931F93CF93A1
:10047000DF936C017B018B01040F151FEB015E0103
:10048000AE18BF08C017D10759F06991D601ED9198
:10049000FC910190F081E02DC6010995892B79F737
:1004A000C501DF91CF911F910F91FF90EF90DF90E9
:1004B000CF90BF90AF900895FC01538D448D252FB0
:1004C00030E0842F90E0821B930B541710F0CF96EE
:1004D000089501970895FC01918D828D981761F020
:1004E000A28DAE0FBF2FB11D5D968C91928D9F5F37
:1004F0009F73928F90E008958FEF9FEF0895FC0116
:10050000918D828D981731F0828DE80FF11D858DC8
:1005100090E008958FEF9FEF0895FC01918D228D5B
:10052000892F90E0805C9F4F821B91098F739927E0
:10053000089582E491E00E948D0221E0892B09F464
:1005400020E0822F089580E090E0892B29F00E941E
:10055000990281110C9400000895FC01A48DA80F4C
:10056000B92FB11DA35ABF4F2C91848D90E00196F5
:100570008F739927848FA689B7892C93A089B18915
:100580008C91837080648C93938D848D981306C0B6
:100590000288F389E02D80818F7D80830895EF921A
:1005A000FF920F931F93CF93DF93EC0181E0888F2D
:1005B0009B8D8C8D98131AC0E889F989808185FFFD
:1005C00015C09FB7F894EE89FF896083E889F9899F
:1005D00080818370806480839FBF81E090E0DF91A1
:1005E000CF911F910F91FF90EF900895F62E0B8DF4
:1005F00010E00F5F1F4F0F731127E02E8C8D8E11AF
:100600000CC00FB607FCFACFE889F989808185FF15
:10061000F5CFCE010E94AD02F1CFEB8DEC0FFD2F97
:10062000F11DE35AFF4FF0829FB7F8940B8FEA89D0
:10063000FB8980818062CFCFCF93DF93EC01888DDF
:100640008823B9F0AA89BB89E889F9898C9185FD4D
:1006500003C0808186FD0DC00FB607FCF7CF8C91DB
:1006600085FFF2CF808185FFEDCFCE010E94AD02E4
:10067000E9CFDF91CF910895FC018081823069F04C
:1006800028F423E092E0813051F00895833011F195
:1006900026E090E0843019F0089524E091E0623083
:1006A000E1F0643079F1613009F03FC041E050E0A1
:1006B000BA0101C0660F9A95EAF780914101862B35
:1006C00001C0440F2A95EAF7409548234093410121
:1006D0000C944D0127E095E0E2CF41E050E0BA01F3
:1006E00002C0660F771F9A95E2F7CB018095909133
:1006F0004101892301C0440F2A95EAF7842B809396
:100700004101E6CF41E050E0FA0102C0EE0FFF1FC9
:100710009A95E2F7CF0101C0440F2A95EAF7842B9E
:100720008095909141018923EACF0895CF93DF937B
:10073000EC016C817D81072E000C880B990B0E94C7
:10074000481A20E030E040EF54E40E949E196A8786
:100750007B878C879D879B01AC010E942D192BED17
:100760003FE049E450E40E94FD1A2E813F81488514
:1007700059850E94FD1ADF91CF9108950F931F9321
:10078000CF93DF93EC018F890E94F6008C01898D55
:1007900081110DC00130110551F4888D0E94F600C1
:1007A0009C019A8D21153105E1F491111A8E098F62
:1007B0002E89688179818A819B810C811D813A8D86
:1007C000311117C0211117C020E030E040E85FE38D
:1007D0000E942D19688379838A839B830F5F1F4F43
:1007E00016C02130310519F79111E1CF81E08A8FD0
:1007F000DECF2111E9CF20E030E040E85FE30E9446
:100800002C19688379838A839B83015011091D8386
:100810000C83DF91CF911F910F91089580E592E0B5
:100820000C94BE0389EA92E00C94BE03FC01AC0177
:10083000455E5F4F9B0177FF04C022273327261BAD
:10084000370B938D9230C9F078F4913099F0868906
:10085000882319F07195619571091616170694F49D
:1008600061E0CA010C943C03933051F0943079F765
:1008700028BDEDCF2093B300EACF2093B400E7CF9B
:1008800027BDE5CF672B11F062E0EBCF64E0E9CF45
:100890002F923F924F925F926F927F928F929F9290
:1008A000AF92BF92CF92DF92EF92FF920F931F937E
:1008B000CF93DF93CDB7DEB763970FB6F894DEBF63
:1008C0000FBECDBFFC01E95AFF4F2081222309F45E
:1008D00079C12FB7F89440913D0150913E0160914C
:1008E0003F01709140014E875F87688B798B2FBFE6
:1008F000789740815181628173810E851F85288997
:100900003989041B150B260B370B3C96408151810E
:1009100062817381041715072607370708F452C14F
:100920009B8B8A8BDC01D996ED91FC91DA97208123
:100930003181428153812B833C834D835E83DD96DD
:10094000ED91FC9160817181828193810E942C19CB
:100950004B015C01EA89FB89E95BFF4F2081318112
:10096000428153816B817C818D819E810E942C19F3
:100970006B017C01AA89BB899D962D913D914D917A
:100980005C91D097C501B4010E94FD1AEA89FB89E8
:10099000ED5BFF4FFA83E9832081318142815381EE
:1009A0000E942D192B013C01A981BA814D925D92C3
:1009B0006D927C921397EA89FB89E85AFF4FB081C8
:1009C000B987B11117C0EA89FB8921A532A543A5D2
:1009D00054A5C701B6010E94FD1A9B01AC01C301D9
:1009E000B2010E942C19A981BA816D937D938D93D8
:1009F0009C931397EA89FB89ED5BFF4FF887EF83A0
:100A00004080518062807380EA89FB89ED5AFF4FF4
:100A10003080218002811381232D322DA801C30152
:100A2000B2010E94F81A18160CF0A5C0832D922D61
:100A3000D801EF81F88580839183A283B383B98540
:100A4000BB2309F4B6C0EA89FB8921A532A543A5D9
:100A500054A5C501B4010E94FD1A4B015C01AA898D
:100A6000BB89D1962D913D914D915C91D497C70151
:100A7000B6010E94FD1A9B01AC01E981FA816081F7
:100A80007181828193810E942C19A50194010E9499
:100A90002D196B017C019B01AC01632D722DC801E6
:100AA0000E94991987FD14C0EA89FB89E15BFF4F19
:100AB0003080218002811381232D322DA801B601BF
:100AC000C7010E94991987FD03C03C2C2D2C87017A
:100AD000AA89BB89DB96ED91FC91832D922DD801DB
:100AE00080839183A283B383EA89FB89E95BFF4F0B
:100AF0002B813C814D815E812083318342835383EE
:100B0000EA89FB89FF964E855F85688979894083EC
:100B1000518362837383AA89BB8956968C91811114
:100B20004CC060E070E080E89FE3EA89FB8926859D
:100B30003785408951890E94FD1A0E94101A8A89BE
:100B40009B8963960FB6F894DEBF0FBECDBFDF91D1
:100B5000CF911F910F91FF90EF90DF90CF90BF90BA
:100B6000AF909F908F907F906F905F904F903F904D
:100B70002F900C941604EA89FB89E15BFF4F2081DA
:100B80003181428153812A873B874C875D87C3012E
:100B9000B2010E94991987FF52CF4A855B856C8507
:100BA0007D85AF81B8854D935D936D937C9313974D
:100BB00046CF812C912C540152CF60E070E080E848
:100BC0009FEBB3CF63960FB6F894DEBF0FBECDBFD9
:100BD000DF91CF911F910F91FF90EF90DF90CF9019
:100BE000BF90AF909F908F907F906F905F904F904D
:100BF0003F902F900895FC0101900020E9F7319774
:100C0000AF01481B590BBC0182E491E00C942F0208
:100C10008F929F92AF92BF920F931F93CF93DF93C8
:100C2000CDB7DEB7A1970FB6F894DEBF0FBECDBF2C
:100C300019A2423008F44AE08E010F5D1F4F842E46
:100C4000912CB12CA12CA50194010E94411DE62FED
:100C5000B901CA01EA30F4F4E05DD801EE938D01E8
:100C6000232B242B252B79F790E080E0109719F0A7
:100C7000CD010E94FB05A1960FB6F894DEBF0FBE12
:100C8000CDBFDF91CF911F910F91BF90AF909F90FB
:100C90008F900895E95CE1CF4F925F926F927F92BF
:100CA0008F929F92AF92BF92CF92DF92EF92FF927C
:100CB0000F931F93CF936B017C01742EAC019B01AA
:100CC0000E94001C882399F086E191E0CF911F914A
:100CD0000F91FF90EF90DF90CF90BF90AF909F90DB
:100CE0008F907F906F905F904F900C94FB05460122
:100CF0005701E894B7F82FEF3FEF4FE75FE7C501E3
:100D0000B4010E94001C81110DC02FEF3FEF4FE78F
:100D10005FE7C501B4010E94991918161CF48AE115
:100D200091E0D4CF2FEF3FEF4FE75FE4C701B6016B
:100D30000E94F81A18161CF48EE191E0C7CF2FEF2D
:100D40003FEF4FE75FECC701B6010E94991987FD9D
:100D5000F3CF20E030E0A901C701B6010E94991944
:100D600010E000E087FF0AC06DE282E491E00E949B
:100D7000CF028C01F7FAF094F7F8F094C0E060E04D
:100D800070E080E09FE37C1641F020E030E040E23C
:100D900051E40E949E19CF5FF6CFA70196010E94F1
:100DA0002D192B013C010E94171A4B015C014AE0EE
:100DB0000E9408067C01E00EF11ECC23C1F1C501A2
:100DC000B4010E94461A9B01AC01C301B2010E940A
:100DD0002C194B015C016EE282E491E00E94CF028B
:100DE000E80EF91EC15018F120E030E040E251E475
:100DF000C501B4010E94FD1A2B013C010E94171A83
:100E00004B01B12CA12C4AE0C501B4010E94080697
:100E1000E80EF91EC501B4010E94461A9B01AC01FF
:100E2000C301B2010E942C194B015C01DBCFC70149
:100E3000CF911F910F91FF90EF90DF90CF90BF90D7
:100E4000AF909F908F907F906F905F904F9008959C
:100E50004F925F926F927F928F929F92AF92BF92CA
:100E6000CF92DF92EF92FF92CF93DF93CDB7DEB7B1
:100E700064970FB6F894DEBF0FBECDBF2B013C01C7
:100E800080902C0290902D02A0902E02B0902F0204
:100E9000C0902802D0902902E0902A02F0902B0204
:100EA000A7019601C501B4010E942C196D837E83B0
:100EB0008F8398878091FC019091FD01A091FE01A4
:100EC000B091FF0189839A83AB83BC83A501940110
:100ED000C301B2010E942C192B013C0120E030E03B
:100EE00040E450E40E946A1B6D877E878F87988B51
:100EF0008090E8019090E901A090EA01B090EB01A8
:100F0000D501C401B05889879A87AB87BC8720E098
:100F100030E040E450E46D817E818F8198850E94AD
:100F20006A1B698B7A8B8B8B9C8B2091240230916E
:100F300025024091260250912702C701B6010E9466
:100F40002C1929853A854B855C850E94FD1A6B0119
:100F50007C01A5019401C501B4010E94FD1A4B0159
:100F60005C0129813A814B815C81CA01B9010E94EF
:100F70002D199B01AC01C501B4010E949E199B0172
:100F8000AC01C701B6010E942C19A0EEB1E02D9171
:100F90003D914D915C910E942D192D813E814F8193
:100FA00058850E94FD1A6B017C012D853E854F8579
:100FB000588969817A818B819C810E94FD1A20E089
:100FC00030E040EC50E40E949E192091480230919C
:100FD000490240914A0250914B020E942D199B01F7
:100FE000AC01C701B6010E942D196B017C012D8156
:100FF0003E814F815885CA01B9010E94FD1A298599
:101000003A854B855C850E94FD1A20E030E040E087
:101010005FE30E94FD1A9B01AC01C701B6010E946B
:101020002D196B017C0129893A894B895C89698179
:101030007A818B819C810E94FD1A20E030E040EC97
:1010400050E40E949E199B01AC01C701B6010E94A9
:101050002D196B017C012091F0013091F10140913B
:10106000F2015091F301C301B2010E94FD1A9B01EC
:10107000AC01C701B6010E942D1964960FB6F89411
:10108000DEBF0FBECDBFDF91CF91FF90EF90DF901D
:10109000CF90BF90AF909F908F907F906F905F9018
:1010A0004F9008954F925F926F927F928F929F928E
:1010B000AF92BF92CF92DF92EF92FF92CF93DF93E6
:1010C000EC014A015B01FC01EC5BFF4FC080D18069
:1010D000E280F38034972081318142815381C701BE
:1010E000B6010E942C192B013C01A7019601C501F4
:1010F000B4010E942C196B017C018C8C9D8CAE8CF0
:10110000BF8CB7FAB094B7F8B094A3019201C301B1
:10111000B2010E94FD1A9B01AC01C501B4010E94FD
:10112000FD1A20E030E040E05FE30E94FD1A2881D4
:1011300039814A815B810E942D19A70196010E9485
:10114000FD1AFE01EC59FF4F20813181428153810C
:101150000E942D194B015C01A7019601C701B60140
:101160000E94FD1A288539854A855B850E94FD1AF3
:1011700020E030E040E05FE30E94FD1A9B01AC01FB
:10118000C501B4010E942C19DF91CF91FF90EF901F
:10119000DF90CF90BF90AF909F908F907F906F9097
:1011A0005F904F9008958F929F92AF92BF92CF928F
:1011B000DF92EF92FF92CF93DF93EC01CB01BA0164
:1011C000FE01E05CFF4F20813181428153810E940A
:1011D0002C196B017C0120E030E040E450E40E94D7
:1011E0006A1B5E0120E6A20EB11C2C8D3D8D4E8D3A
:1011F0005F8D0E94FD1A20E030E040EC50E40E9438
:101200009E199B01AC01F5016081718182819381FE
:101210000E942C194B015C01288139814A815B8134
:10122000C701B6010E94FD1A9B01AC01C501B401C2
:101230000E942D19DF91CF91FF90EF90DF90CF901A
:10124000BF90AF909F908F9008954F925F926F9252
:101250007F928F929F92AF92BF92CF92DF92EF9246
:10126000FF92CF93DF93CDB7DEB72A970FB6F894EE
:10127000DEBF0FBECDBF9A878987CB01BA01E98552
:10128000FA8580AC91ACA2ACB3AC4480558066804A
:101290007780C08CD18CE28CF38CA50194010E94E4
:1012A0002C1969837A838B839C8320E030E040E4AF
:1012B00050E40E946A1B6D837E838F839887A3010D
:1012C0009201C501B4010E94FD1A4B015C01A3010A
:1012D0009201C301B2010E94FD1A2B013C01A7013A
:1012E0009601C701B6010E942D199B01AC01C301F3
:1012F000B2010E949E199B01AC01C501B4010E947C
:101300002C19E985FA8524893589468957890E94EF
:101310002D1929813A814B815C810E94FD1A298512
:101320003A85285A3F4FF90120813181428153810A
:101330000E942D194B015C01A70196016D817E81F0
:101340008F8198850E94FD1A20E030E040EC50E447
:101350000E949E199B01AC01C501B4010E942D1988
:101360002A960FB6F894DEBF0FBECDBFDF91CF91A6
:10137000FF90EF90DF90CF90BF90AF909F908F90B5
:101380007F906F905F904F9008952F923F924F9271
:101390005F926F927F928F929F92AF92BF92CF9205
:1013A000DF92EF92FF920F931F93CF93DF93CDB70E
:1013B000DEB7A6970FB6F894DEBF0FBECDBF1C01F7
:1013C0004B8F5C8F6D8F7E8F0B8B1C8B2D8B3E8B91
:1013D0008F8E98A2A9A2BAA24BAC5CAC6DAC7EACCD
:1013E00028961FAD289729960FAD29972A968FAD7D
:1013F0002A9789872B969FAD2B979A87812F902FBD
:10140000A985BA85F10180839183A283B3838B89F7
:101410009C89AD89BE8984839583A683B783C08662
:10142000D186E286F386DB01CA0184879587A68789
:10143000B78727968CAD9DADAEADBFAD2797808B9E
:10144000918BA28BB38B23968CAD9DADAEADBFAD12
:101450002397848B958BA68BB78BD501C401808F86
:10146000918FA28FB38F448E558E668E778E14A285
:1014700015A216A217A2A3019201C701B6010E94EC
:101480009E196F8B788F898F9A8F27962CAD3DADE3
:101490004EAD5FAD2797612F702F89859A850E9489
:1014A0002C19A70196010E949E192F89388D498D0C
:1014B0005A8D0E942C1969837A838B839C8320E048
:1014C00030E040E450E4C701B6010E946A1B4B01C2
:1014D0005C01A3019201C301B2010E94FD1A6D8358
:1014E0007E838F839887A7019601C701B6010E946A
:1014F000FD1A6F87788B898B9A8B20E030E040EC67
:1015000050E46D817E818F8198850E94FD1A9B0138
:10151000AC01C501B4010E949E199B01AC010E945F
:101520002D194B015C0120E030E040E450E4C301A0
:10153000B2010E94FD1A212F302F49855A850E9441
:10154000FD1A9B01AC016F85788989899A890E946F
:101550002C19A70196010E94FD1A6BA37CA38DA3F1
:101560009EA320E030E040E450E46D817E818F81D5
:1015700098850E94FD1A9B01AC016BA17CA18DA1F5
:101580009EA10E949E199B01AC01C501B4010E945D
:101590002C194B015C0127962CAD3DAD4EAD5FADD6
:1015A0002797C701B6010E94FD1AA30192010E946C
:1015B0009E199B01AC01C501B4010E942D196D83D8
:1015C0007E838F8398878F849888A988BA88B7FA92
:1015D000B094B7F8B094A3019201C301B2010E9484
:1015E0002D199B01AC01C501B4010E949E19212F48
:1015F000302F49855A850E942D1929813A814B81C6
:101600005C810E94FD1A9B01AC016D817E818F81FE
:1016100098850E942D194B015C0129813A814B81EB
:101620005C81CA01B9010E94FD1AA70196010E94BE
:10163000FD1A20E030E040E05FE30E94FD1A9B01CC
:10164000AC01C501B4010E942C196D837E838F8388
:101650009887D1019C966D937D938D939C939F97D2
:10166000F10110AA11AA12AA13AA2F8D38A149A11B
:101670005AA16B897C898D899E890E949E196983F4
:101680007A838B839C83D101D4966D937D938D93C4
:101690009C93D79723962CAD3DAD4EAD5FAD239770
:1016A000612F702F89859A850E942C192B893C897E
:1016B0004D895E890E949E199B01AC01F10120AF0A
:1016C00031AF42AF53AF69817A818B819C810E9497
:1016D0002D194B015C01D101DC968D929D92AD924A
:1016E000BC92DF97BC01A401C1010E9425099B01A6
:1016F000AC01F10120A731A742A753A73101F0E4C3
:101700006F0E711C6B8D7C8D8D8D9E8D0E942C19A2
:101710002D813E814F8158850E942C19212F302F19
:1017200049855A850E949E19A50194010E942D1990
:10173000D3016D937D938D939C9313975801998456
:101740008A847CA26BA2EBA1FCA1408051806280C4
:101750007380D101DC968D919D910D90BC91A02D4F
:101760008F87988BA98BBA8B9C01AD01C301B20105
:101770000E94991987FF5CC020E030E040E85FE3F9
:101780006B2D7A2D892D982D0E942C19B62EA72EFF
:10179000982E892E23962CAD3DAD4EAD5FAD23978F
:1017A0000E942C192B893C894D895E890E949E19C3
:1017B0009B01AC01F10120AF31AF42AF53AF698162
:1017C0007A818B819C810E942D192B013C01D101D2
:1017D000DC964D925D926D927C92DF97BC01A201E6
:1017E000C1010E9425099B01AC01F10120A731A78D
:1017F00042A753A76B8D7C8D8D8D9E8D0E942C19D9
:101800002D813E814F8158850E942C192B2D3A2D18
:10181000492D582D0E949E19A30192010E942D1955
:10182000ABA1BCA16D937D938D939C9313978BCFAC
:10183000A30192016F89788D898D9A8D0E942D194F
:101840006D837E838F839887F101EC5BFF4F60830C
:1018500071838283938327962CAD3DAD4EAD5FADF2
:1018600027976B2D7A2D892D982D0E942C19A70171
:1018700096010E949E19A30192010E942D196B8767
:101880007C878D879E87F101E85BFF4F60837183C2
:10189000828393839B01AC016F89788D898D9A8DAA
:1018A0000E942D19F101E45BFF4F608371838283F5
:1018B0009383F10160A371A382A393A3E05BFF4F25
:1018C000108211821282138220E030E040E450E462
:1018D00069817A818B819C810E946A1B9B01AC018A
:1018E0006F8D78A189A19AA10E94FD1A20E030E0B5
:1018F00040EC50E40E949E194B015C0123962CADF4
:101900003DAD4EAD5FAD239769817A818B819C811E
:101910000E94FD1A9B01AC01C501B4010E942D1962
:101920006B017C01F101EC5AFF4FC082D182E2824F
:10193000F38229813A814B815C81D101D8966D91E6
:101940007D918D919C91DB970E942C194B015C013C
:10195000F101E85AFF4FF88FEF8B29813A814B81D3
:101960005C81CA01B9010E94FD1A2F8D38A149A1DD
:101970005AA10E94FD1A20E030E040E05FE30E949F
:10198000FD1A23962CAD3DAD4EAD5FAD23970E9461
:101990002D19A50194010E94FD1AA70196010E942C
:1019A0002D196B017C01A5019401C501B4010E94B0
:1019B000FD1A2B893C894D895E890E94FD1A20E021
:1019C00030E040E05FE30E94FD1A9B01AC01C701DB
:1019D000B6010E942D19AF89B88D6D937D938D93BB
:1019E0009C9313974F85588969897A89C1010E9410
:1019F0002509F101E45AFF4F608371838283938349
:101A00007101B0E6EB0EF11C2F85388949895A899E
:101A1000C301B2010E942C19212F302F49855A850C
:101A20000E94FD1AF10120A531A542A553A50E94EF
:101A30002D19D7016D937D938D939C9313974D81B1
:101A40005E816F817885C1010E94D308F101EC5954
:101A5000FF4F60837183828393834B855C856D85A3
:101A60007E85C1010E945208F101E859FF4F608351
:101A700071838283938334968B8D9C8DAD8DBE8DC7
:101A800080839183A283B383A6960FB6F894DEBFBA
:101A90000FBECDBFDF91CF911F910F91FF90EF90BF
:101AA000DF90CF90BF90AF909F908F907F906F907E
:101AB0005F904F903F902F9008951F920F920FB616
:101AC0000F9211242F933F938F939F93AF93BF93C4
:101AD00080913D0190913E01A0913F01B091400164
:101AE0003091380123E0230F2D3758F50196A11DC1
:101AF000B11D2093380180933D0190933E01A09346
:101B00003F01B09340018091390190913A01A09139
:101B10003B01B0913C010196A11DB11D809339019B
:101B200090933A01A0933B01B0933C01BF91AF91D8
:101B30009F918F913F912F910F900FBE0F901F900B
:101B4000189526E8230F0296A11DB11DD2CF1F9232
:101B50000F920FB60F9211242F933F934F935F93E1
:101B60006F937F938F939F93AF93BF93EF93FF9365
:101B7000E0910201F09103010995FF91EF91BF916E
:101B8000AF919F918F917F916F915F914F913F9115
:101B90002F910F900FBE0F901F9018951F920F92CC
:101BA0000FB60F9211242F933F934F935F936F9330
:101BB0007F938F939F93AF93BF93EF93FF93E091A6
:101BC0000001F09101010995FF91EF91BF91AF9153
:101BD0009F918F917F916F915F914F913F912F9145
:101BE0000F900FBE0F901F9018951F920F920FB677
:101BF0000F9211242F933F934F935F936F937F9393
:101C00008F939F93AF93BF93EF93FF9382E491E001
:101C10000E94AD02FF91EF91BF91AF919F918F9183
:101C20007F916F915F914F913F912F910F900FBED8
:101C30000F901F9018951F920F920FB60F921124BC
:101C40002F938F939F93EF93FF93E0915201F09125
:101C500053018081E0915801F091590182FD1BC030
:101C6000908180915B018F5F8F7320915C0182175F
:101C700041F0E0915B01F0E0EE5BFE4F958F8093C9
:101C80005B01FF91EF919F918F912F910F900FBE6C
:101C90000F901F9018958081F4CF2F923F924F9212
:101CA0005F926F927F928F929F92AF92BF92CF92EC
:101CB000DF92EF92FF920F931F93CF93DF9300D0A9
:101CC0001F92CDB7DEB79B838A836983F22EDC0136
:101CD0001D921D921D921C92139715961C921E9296
:101CE00014978EEA97E4A1EABFE3EA81FB81868339
:101CF0009783A087B187DF01128613861486158625
:101D0000068B57966C93579758964C935897EE249A
:101D1000E3945A96EC925A975B96EC925B9782E02A
:101D20005C968C930E94BE010E94A9018A819B81CE
:101D30000E96AA81BB81DC969C938E93DB970A2E2C
:101D40001B2EDA961C920E921124D997CD01429641
:101D5000DE969C938E93DD976D01B7E5CB0ED11C7B
:101D6000F60110822A803B80FFE42F0E311CD10146
:101D70001D921D921D921C9213976A807B80B3E581
:101D80006B0E711C80E090E0AFE7B3E4F301808359
:101D90009183A283B3830A811B81055B1F4F84E675
:101DA00090E0A0E0B0E0F80180839183A283B38348
:101DB000AA81BB81D6961C921E92D59781E090E0B5
:101DC000D8969C938E93D797FD01E85AFF4FE082F7
:101DD00080E090E0A0E2B0E4EA81FB81858F968FFD
:101DE000A78FB0A340E050E060EA71E441A352A3A2
:101DF00063A374A340E050E060E87EE345A356A3EC
:101E000067A370A781A792A7A3A7B4A740E050E05B
:101E100060E070E445A756A767A770AB81AB92ABB3
:101E2000A3ABB4AB2FB7F89480913D0190913E01E4
:101E3000A0913F01B09140012FBF9F01215C3F4F16
:101E4000F8014081518162817381841B950BA60B3F
:101E5000B70BF90180839183A283B3830E94BE01F3
:101E6000F3E0FF1609F463C084E0F81609F46DC0CE
:101E700092E0F91609F446C00E94A901AA81BB812B
:101E80005B96FC925B9782E05C968C935C97F60184
:101E90008081811175C0DB96ED91FC91DC9780808B
:101EA0009180A280B3807D01F3E4EF0EF11CD70195
:101EB0008D929D92AD92BC921397AA81BB81D996C7
:101EC000ED91FC9180819181A281B381EA81FB81B6
:101ED000E95BFF4F80839183A283B383F30140804A
:101EE000518062807380A3019201C501B4010E94F8
:101EF000F81A1816C4F5D7014D925D926D927C9236
:101F000013973EC0809141018D7E809341010E94D4
:101F10004D018091B00083628093B000F092B100D7
:101F20001092B40061E083E00E947801A7CF809115
:101F300041018F75809341010E944D0184B58368F2
:101F400084BD17BC61E086E0EFCF809141018E7BBC
:101F5000809341010E944D0184B5836284BD18BC09
:101F600061E085E0E1CFF1014080518062807380C3
:101F7000A3019201C501B4010E94991987FDBBCF4D
:101F800081E0F6018083D8016D917D918D919C91C6
:101F90000E94461A9B01AC0160E070E088EC92E47C
:101FA0000E949E196B017C01AC019B01EA81FB81BF
:101FB00065A576A587A590A90E94FD1AAA81BB8177
:101FC0009D966D937D938D939C93D097A7019601D9
:101FD000D1966D917D918D919C91D4970E949E197F
:101FE000EA81FB8161AB72AB83AB94AB84E690E09A
:101FF000A0E0B0E0F80180839183A283B38360E026
:1020000089810F900F900F90DF91CF911F910F91C9
:10201000FF90EF90DF90CF90BF90AF909F908F9008
:102020007F906F905F904F903F902F900C9478012D
:102030008F929F92AF92BF92CF92DF92EF92FF92D8
:102040000F931F93E2E4F1E01382128288EE93E093
:10205000A0E0B0E084839583A683B78388E091E015
:102060009183808385EC90E09587848784EC90E071
:102070009787868780EC90E0918B808B81EC90E055
:10208000938B828B82EC90E0958B848B86EC90E036
:10209000978B868B118E128E138E148E1092DF0109
:1020A00001E021E030E042E163E089EA92E00E9451
:1020B0004D0E00E024E030E040E162E080E592E097
:1020C0000E944D0E81E48F9390EB9F931F921F927D
:1020D0008F9380E28F931F921F928FE38F9380E8FC
:1020E0008F931F921F9282E48F9388EC8F931F929D
:1020F0001F92812C912C8AEFA82E83E4B82EC12C3C
:10210000D12C90EFE92E91E4F92E00E010E028E4C4
:1021100032E440E050E060EA71E480EE91E00E9439
:10212000C5098DB79EB740960FB6F8949EBF0FBEF7
:102130008DBF1F910F91FF90EF90DF90CF90BF90D8
:10214000AF909F908F900895CF93DF93CDB7DEB778
:10215000C858D1090FB6F894DEBF0FBECDBF789432
:1021600084B5826084BD84B5816084BD85B582609C
:1021700085BD85B5816085BD80916E00816080934D
:102180006E001092810080918100826080938100B6
:1021900080918100816080938100809180008160C6
:1021A000809380008091B10084608093B100809121
:1021B000B00081608093B00080917A008460809349
:1021C0007A0080917A00826080937A0080917A0010
:1021D000816080937A0080917A00806880937A0091
:1021E0001092C100E0915201F091530182E080838E
:1021F000E0914E01F0914F011082E0915001F09179
:10220000510180E1808310925A01E0915601F091D2
:10221000570186E08083E0915401F091550180815F
:1022200080618083E0915401F09155018081886044
:102230008083E0915401F091550180818068808312
:10224000E0915401F091550180818F7D808360E0A1
:1022500080E10E9478018EE094E0909301018093E8
:102260000001809169008C7F816080936900E89A09
:1022700060E082E10E94780182E194E090930301A2
:102280008093020180916900837F8460809369005C
:10229000E99A8FE38F9395E99F9392EC9F939FE840
:1022A0009F938F931F921F921F928EE38F938CE4C4
:1022B0008F938CEC8F938DEC8F9380E48F9386E6D5
:1022C0008F938F938F9388E4882E81EE982E8AE5E2
:1022D000A82E80E4B82E9AE9C92E99E9D92EED2CC2
:1022E0009FE3F92E00E010E020E83FE34AE959E9D6
:1022F00069E870E4CE0101960E94C50960E070E0D3
:10230000CB010E94FB010FB6F894DEBF0FBECDBF1C
:1023100080E592E00E9496036B017C0189EA92E0DD
:102320000E9496039B01AC01C701B6010E942D19C2
:1023300020E030E040E05FE30E94FD1A4B015C01C9
:10234000409034025090350260903602709037020F
:10235000A30192010E94991987FFCDC0C090F80196
:10236000D090F901E090FA01F090FB0120E030E01C
:1023700040E450E4C701B6010E946A1BE9966CAFC5
:102380007DAF8EAF9FAFE9978091F4019091F501F9
:10239000A091F601B091F701E5968CAF9DAFAEAF7D
:1023A000BFAFE59720E030E040E450E4BC01CD0150
:1023B0000E946A1B2B013C0120E030E040E151E427
:1023C000C701B6010E94FD1AA50194010E94FD1AE1
:1023D000A50194010E94FD1AED966CAF7DAF8EAF02
:1023E0009FAFED9720E030E040E051E4C301B2013F
:1023F0000E94FD1A9B01AC01ED966CAD7DAD8EADDA
:102400009FADED970E942D19E9962CAD3DAD4EADD7
:102410005FADE9970E94FD1A0E94C01B2B013C0191
:1024200020E030E040E450E4C701B6010E94FD1A0C
:10243000A70196010E94FD1AA50194010E94FD1AB0
:10244000A30192010E942D194B015C012BEA3AEA8B
:102450004AE25FE30E946A1B2B013C012BEA3AEA45
:102460004AEA5EE3C501B4010E946A1BE9966CAFBB
:102470007DAF8EAF9FAFE997A7019601C701B60167
:102480000E942D19E5962CAD3DAD4EAD5FADE597A3
:102490000E94FD1A9B01AC01C301B2010E942C19DC
:1024A0004B015C01E9962CAD3DAD4EAD5FADE997BA
:1024B000C701B6010E94FD1A9B01AC01C501B40120
:1024C0000E949E199B01AC010E94FD1AA701960172
:1024D0000E94FD1A20E030E040E05FE30E94FD1A18
:1024E000E5962CAD3DAD4EAD5FADE5970E942D1943
:1024F0006B017C0166C2C0903802D0903902E09036
:102500003A02F0903B02A7019601C501B4010E9476
:10251000991987FFF5C08091140290911502A0913E
:102520001602B0911702E5968CAF9DAFAEAFBFAF6C
:10253000E597C090E401D090E501E090E601F090CD
:10254000E7018091F8019091F901A091FA01B09111
:10255000FB01ED968CAF9DAFAEAFBFAFED97809115
:10256000F4019091F501A091F601B091F701E9967F
:102570008CAF9DAFAEAFBFAFE997E5962CAD3DAD4B
:102580004EAD5FADE597CA01B9010E94FD1AED9607
:102590002CAD3DAD4EAD5FADED970E94FD1A20E034
:1025A00030E040E05FE30E94FD1AE9962CAD3DADBE
:1025B0004EAD5FADE9970E942D19C358DF4F688378
:1025C00079838A839B83CD57D04020E030E040E080
:1025D00050ECC301B2010E94FD1AA70196010E94AE
:1025E000FD1A2B013C01C358DF4F288139814A81F4
:1025F0005B81CD57D040CA01B9010E94FD1A9B01F1
:10260000AC01C301B2010E942D192B013C01A701AD
:102610009601C701B6010E942D19A50194010E94DF
:10262000FD1A9B01AC01C301B2010E942D190E9449
:10263000C01B9B01AC01C358DF4F688179818A813F
:102640009B81CD57D0400E942D194B015C01A70101
:102650009601E5966CAD7DAD8EAD9FADE5970E9480
:10266000FD1A9B01AC01C501B4010E942C194B015C
:102670005C01E9962CAD3DAD4EAD5FADE997CA0169
:10268000B9010E942D199B01AC01C501B4010E9442
:102690002C19A70196010E949E19E5962CAD3DAD1F
:1026A0004EAD5FADE5970E942D19A70196010E94DE
:1026B000FD1A4B015C01A7019601C701B6010E94FA
:1026C000FD1A2B013C01ED962CAD3DAD4EAD5FAD3D
:1026D000ED97CA01B9010E942D199B01AC01C301FC
:1026E000B2010E949E199B01AC01C501B4010E9478
:1026F0002C19E9962CAD3DAD4EAD5FADE997F6CE08
:1027000020913C0230913D0240913E0250913F02A7
:10271000C501B4010E94991987FF3DC14090F8019D
:102720005090F9016090FA017090FB0120E030E0D8
:1027300040E450E4C301B2010E946A1BC358DF4F5A
:10274000688379838A839B83CD57D040A701960104
:10275000C501B4010E942C196B017C018091180203
:1027600090911902A0911A02B0911B02E5968CAFCC
:102770009DAFAEAFBFAFE5978090E4019090E501CB
:10278000A090E601B090E701A3019201C301B2015C
:102790000E942D19E9966CAF7DAF8EAF9FAFE99780
:1027A000A5019401E5966CAD7DAD8EAD9FADE5972D
:1027B0000E94FD1AED966CAF7DAF8EAF9FAFED9787
:1027C000A5019401C501B4010E94FD1AE9962CAD42
:1027D0003DAD4EAD5FADE9970E949E199B01AC01E6
:1027E000ED966CAD7DAD8EAD9FADED970E942C1931
:1027F0002091F4013091F5014091F6015091F701DB
:102800000E942D19ED966CAF7DAF8EAF9FAFED9707
:1028100020E030E040E450E40E946A1BCF57DF4FD5
:10282000688379838A839B83C158D04020E030E05D
:1028300040E151E4C301B2010E94FD1A4B015C0169
:10284000A7019601C701B6010E94FD1A9B01AC01C8
:10285000C501B4010E94FD1A4B015C0120E030E08B
:1028600040E051E4CF57DF4F688179818A819B81B5
:10287000C158D0400E94FD1A9B01AC01C501B401B2
:102880000E942D19C358DF4F288139814A815B810D
:10289000CD57D0400E94FD1A0E94C01B4B015C0125
:1028A000A3019201C301B2010E94FD1A20E030E0B1
:1028B00040E450E40E94FD1AA70196010E94FD1A0F
:1028C000A50194010E942D194B015C012BEA3AEA03
:1028D0004AE25FE30E946A1B6B017C012BEA3AEA41
:1028E0004AEA5EE3C501B4010E946A1B4B015C0128
:1028F000ED962CAD3DAD4EAD5FADED97E9966CAD6F
:102900007DAD8EAD9FADE9970E94FD1A9B01AC0194
:10291000C701B6010E942C196B017C01A50194012D
:10292000C301B2010E94FD1A9B01AC01C701B601AF
:102930000E949E19E5962CAD3DAD4EAD5FADE5977D
:102940000E942D1920911C0230911D0240911E02FF
:1029500050911F020E942C1973016201F7FAF09442
:10296000F7F8F0949B01AC010E94FD1A9B01AC01A9
:10297000C701B6010E94FD1A20E030E040E05FE3AD
:102980000E94FD1A2091E0013091E1014091E201A5
:102990005091E301ABCD2091400230914102409132
:1029A000420250914302C501B4010E94991987FF68
:1029B00015C1C090E001D090E101E090E201F090FB
:1029C000E30120E030E0A901C701B6010E94991996
:1029D000882309F409C420E030E040E752E4C7014D
:1029E000B6010E94FD1A2AE836E54DEF50E40E9438
:1029F0009E196093BB027093BC028093BD029093BA
:102A0000BE026093620270936302809364029093AB
:102A1000650289EA92E00E94480480E592E00E9403
:102A2000480480E592E00E9496034B015C0189EA2C
:102A300092E00E9496039B01AC01C501B4010E9483
:102A40002D1920E030E040E05FE30E94FD1A42E0F3
:102A50000E944C0682E291E00E94FB0542E0C70121
:102A6000B6010E944C0682E291E00E94FB052FB75E
:102A7000F89460913D0170913E0180913F019091E9
:102A800040012FBF0E94461A20E030E04AE754E49C
:102A90000E949E1942E00E944C0682E291E00E9450
:102AA000FB056091A9027091AA028091AB029091FE
:102AB000AC029B01AC010E942D192BED3FE049E4D3
:102AC00050E40E94FD1A2EEA37E441EA5FE30E94D7
:102AD000FD1A20E030E040E752E40E949E1942E0F7
:102AE0000E944C0682E291E00E94FB056091500238
:102AF0007091510280915202909153029B01AC015E
:102B00000E942D192BED3FE049E450E40E94FD1A8C
:102B10002EEA37E441EA5FE30E94FD1A20E030E04C
:102B200040E752E40E949E1942E00E944C0685E272
:102B300091E00E94FB056091AD027091AE02072EFC
:102B4000000C880B990B0E94481A20E030E040EFFF
:102B500054E40E949E196093B3027093B402809370
:102B6000B5029093B6021092A9021092AA02109296
:102B7000AB021092AC026091540270915502072E84
:102B8000000C880B990B0E94481A20E030E040EFBF
:102B900054E40E949E1960935A0270935B028093E2
:102BA0005C0290935D0210925002109251021092BA
:102BB00052021092530264E670E080E090E00E94BE
:102BC000FB01A0E0B0E0AB2B09F4A2CB0E9499027C
:102BD000882309F49DCB0E9400009ACB20914402E7
:102BE000309145024091460250914702C501B4011F
:102BF0000E94991987FF04C11091040200910502F7
:102C0000309006022090070290912002E2969FAF3A
:102C1000E297A0912102E696AFAFE697B09122022B
:102C2000EA96BFAFEA9780912302EE968FAFEE97B8
:102C3000292F3A2F4B2F582F612F702F832D922D34
:102C40000E94F81A181664F0E2961FADE297E69615
:102C50000FADE697EA963FACEA97EE962FACEE976B
:102C6000812F902FA32DB22D809304029093050203
:102C7000A0930602B0930702C090FC01D090FD0122
:102C8000E090FE01F090FF01F7FAF094F7F8F0946D
:102C90008091E0019091E101A091E201B091E30106
:102CA000CF57DF4F88839983AA83BB83C158D04015
:102CB000412F502F632D722D80EE91E00E94D3089A
:102CC0002B013C01E2962FADE297E6963FADE697E9
:102CD000EA964FADEA97EE965FADEE97612F702FB3
:102CE000832D922D0E942C19CB57DF4F6883798357
:102CF0008A839B83C558D040A5019401C301B201CA
:102D00000E942C192B013C01CB57DF4F28813981C0
:102D10004A815B81C558D040CA01B9010E94FD1AA1
:102D2000A70196010E94FD1A20E030E040E05FE339
:102D30000E94FD1ACF57DF4F288139814A815B817C
:102D4000C158D0400E942D199B01AC01C301B201B2
:102D50000E949E199B01AC01612F702F832D922D33
:102D60000E942C19162F072F382E292E462F572F49
:102D7000682F792F80EE91E00E94D308A50194017D
:102D80000E942C199F772FE632E143E85AE30E9414
:102D9000991987FF8DCF812F902FA32DB22D80936E
:102DA000040290930502A0930602B0930702E296F4
:102DB0002FADE297E6963FADE697EA964FADEA97DC
:102DC000EE965FADEE97612F702F832D922D0E94AE
:102DD0002C199B01AC010E94FD1AA70196010E94CB
:102DE000FD1A20E030E040E05FE30E94FD1ACF577B
:102DF000DF4F288139814A815B81C158D04076CB31
:102E0000209148023091490240914A0250914B0270
:102E1000C501B4010E94991987FF04C110910402F1
:102E20000091050230900602209007029091240242
:102E3000E2969FAFE297A0912502E696AFAFE697A4
:102E4000B0912602EA96BFAFEA9780912702EE96EC
:102E50008FAFEE97292F3A2F4B2F582F612F702FBE
:102E6000832D922D0E94F81A181664F0E2961FAD79
:102E7000E297E6960FADE697EA963FACEA97EE96B4
:102E80002FACEE97812F902FA32DB22D80930402AB
:102E900090930502A0930602B09307026091E801A7
:102EA0007091E9018091EA019091EB016B017C0145
:102EB000F7FAF094F7F8F0949B01AC010E94FD1A28
:102EC0002B013C016091FC017091FD018091FE019C
:102ED0009091FF019B01AC010E942D199B01AC0157
:102EE000C301B2010E949E192B013C018091E001B7
:102EF0009091E101A091E201B091E301CF57DF4F42
:102F000088839983AA83BB83C158D040412F502F17
:102F1000632D722D80EE91E00E945208A50194016C
:102F20000E942C19CB57DF4F688379838A839B8358
:102F3000C558D040E2962FADE297E6963FADE697B2
:102F4000EA964FADEA97EE965FADEE97612F702F40
:102F5000832D922D0E942C19A70196010E94FD1A23
:102F6000A30192010E942C19CF57DF4F288139818C
:102F70004A815B81C158D0400E942D199B01AC0150
:102F8000CB57DF4F688179818A819B81C558D040BA
:102F90000E949E199B01AC01612F702F832D922DF1
:102FA0000E942C19162F072F382E292E462F572F07
:102FB000682F792F80EE91E00E945208A5019401BC
:102FC0000E942C199F772FE632E143E85AE30E94D2
:102FD000991987FF9BCF812F902FA32DB22D80931E
:102FE000040290930502A0930602B0930702E296B2
:102FF0002FADE297E6963FADE697EA964FADEA979A
:10300000EE965FADEE97612F702F832D922D0E946B
:103010002C19A70196010E94FD1AA30192010E949A
:103020002C19E5CE20914C0230914D0240914E0278
:1030300050914F02C501B4010E94991987FFD4C075
:10304000C0900402D0900502E0900602F0900702C2
:10305000109128020091290230902A0220902B0220
:10306000212F302F432D522DB601C7010E94F81A8F
:10307000181624F41C2D0D2D3E2C2F2C812F902F53
:10308000A32DB22D8093040290930502A093060213
:10309000B09307028091FC019091FD01A091FE0187
:1030A000B091FF01E5968CAF9DAFAEAFBFAFE59796
:1030B000C0902C02D0902D02E0902E02F0902F02B2
:1030C0008091F0019091F101A091F201B091F30192
:1030D000E9968CAF9DAFAEAFBFAFE997612F702F70
:1030E000832D922D0E9428072B013C01A7019601F8
:1030F000612F702F832D922D0E942C19ED966CAFAD
:103100007DAF8EAF9FAFED97A5019401C301B201D2
:103110000E942C192B013C01ED962CAD3DAD4EAD1E
:103120005FADED97CA01B9010E94FD1AE5962CAD7D
:103130003DAD4EAD5FADE5970E94FD1A20E030E059
:1031400040E05FE30E94FD1AE9962CAD3DAD4EAD27
:103150005FADE9970E942D199B01AC01C301B2013B
:103160000E949E199B01AC01612F702F832D922D1F
:103170000E942C19162F072F382E292E0E9428075F
:10318000A50194010E942C199F772FE632E143E8B4
:103190005AE30E94991987FFA1CF812F902FA32D69
:1031A000B22D8093040290930502A0930602B0937F
:1031B0000702A7019601612F702F832D922D0E9487
:1031C0002C199B01AC010E94FD1AE5962CAD3DAD7A
:1031D0004EAD5FADE5970E94FD1A20E030E040E083
:1031E0005FE30E94FD1A85CA88E291E00E94FB0518
:1031F00085E291E00E94FB058DE291E00E94FB05D3
:103200002091B3023091B4024091B5025091B602C0
:1032100060915A0270915B0280915C0290915D0214
:103220000E942D1920E030E040E05FE30E94FD1A8B
:1032300042E00E944C0670E060E089EA92E00E9461
:10324000160470E060E080E592E00E94160460E001
:103250007AEC8AE99BE3B3CC5058BB27AA270E949B
:1032600044190C94BE1A0E94B01A38F00E94B71A82
:1032700020F039F49F3F19F426F40C94AD1A0EF4A3
:10328000E095E7FB0C94A71AE92F0E94CF1A58F398
:10329000BA17620773078407950720F079F4A6F53B
:1032A0000C94F11A0EF4E0950B2EBA2FA02D0B0101
:1032B000B90190010C01CA01A0011124FF27591B7B
:1032C00099F0593F50F4503E68F11A16F040A22F81
:1032D000232F342F4427585FF3CF469537952795F2
:1032E000A795F0405395C9F77EF41F16BA0B620BF1
:1032F000730B840BBAF09150A1F0FF0FBB1F661F38
:10330000771F881FC2F70EC0BA0F621F731F841F7A
:1033100048F4879577956795B795F7959E3F08F0A0
:10332000B0CF9395880F08F09927EE0F9795879562
:1033300008950E94831A08F481E008950E94B2194A
:103340000C94BE1A0E94B71A58F00E94B01A40F0AE
:1033500029F45F3F29F00C94A71A51110C94F21A2A
:103360000C94AD1A0E94CF1A68F39923B1F3552338
:1033700091F3951B550BBB27AA2762177307840788
:1033800038F09F5F5F4F220F331F441FAA1FA9F31E
:1033900035D00E2E3AF0E0E832D091505040E6950C
:1033A000001CCAF72BD0FE2F29D0660F771F881F6D
:1033B000BB1F261737074807AB07B0E809F0BB0B60
:1033C000802DBF01FF2793585F4F3AF09E3F510574
:1033D00078F00C94A71A0C94F21A5F3FE4F3983E2D
:1033E000D4F3869577956795B795F7959F5FC9F75D
:1033F000880F911D9695879597F90895E1E0660FDE
:10340000771F881FBB1F621773078407BA0720F056
:10341000621B730B840BBA0BEE1F88F7E0950895BF
:103420000E94171A6894B1110C94F21A08950E9420
:10343000D71A88F09F5798F0B92F9927B751B0F055
:10344000E1F0660F771F881F991F1AF0BA95C9F728
:1034500014C0B13091F00E94F11AB1E008950C94BB
:10346000F11A672F782F8827B85F39F0B93FCCF36E
:10347000869577956795B395D9F73EF490958095A5
:10348000709561957F4F8F4F9F4F0895E89409C0C5
:1034900097FB3EF490958095709561957F4F8F4F87
:1034A0009F4F9923A9F0F92F96E9BB279395F6959D
:1034B000879577956795B795F111F8CFFAF4BB0F1B
:1034C00011F460FF1BC06F5F7F4F8F4F9F4F16C07F
:1034D000882311F096E911C0772321F09EE8872F09
:1034E000762F05C0662371F096E8862F70E060E0C5
:1034F0002AF09A95660F771F881FDAF7880F96953E
:10350000879597F90895990F0008550FAA0BE0E8E1
:10351000FEEF16161706E807F907C0F01216130695
:10352000E407F50798F0621B730B840B950B39F4D5
:103530000A2661F0232B242B252B21F408950A263B
:1035400009F4A140A6958FEF811D811D089597F97B
:103550009F6780E870E060E008959FEF80EC089539
:1035600000240A9416161706180609060895002462
:103570000A9412161306140605060895092E0394DC
:10358000000C11F4882352F0BB0F40F4BF2B11F450
:1035900060FF04C06F5F7F4F8F4F9F4F089557FDAF
:1035A0009058440F551F59F05F3F71F04795880FB1
:1035B00097FB991F61F09F3F79F087950895121648
:1035C00013061406551FF2CF4695F1DF08C01616F4
:1035D00017061806991FF1CF8695710561050894A5
:1035E0000895E894BB2766277727CB0197F90895BC
:1035F0000E94831A08F48FEF08950E94101B0C9408
:10360000BE1A0E94B01A38F00E94B71A20F0952313
:1036100011F00C94A71A0C94AD1A11240C94F21A00
:103620000E94CF1A70F3959FC1F3950F50E0551F7C
:10363000629FF001729FBB27F00DB11D639FAA2707
:10364000F00DB11DAA1F649F6627B00DA11D661F56
:10365000829F2227B00DA11D621F739FB00DA11D77
:10366000621F839FA00D611D221F749F3327A00D31
:10367000611D231F849F600D211D822F762F6A2FCD
:1036800011249F5750409AF0F1F088234AF0EE0F32
:10369000FF1FBB1F661F771F881F91505040A9F75F
:1036A0009E3F510580F00C94A71A0C94F21A5F3FCC
:1036B000E4F3983ED4F3869577956795B795F7959B
:1036C000E7959F5FC1F7FE2B880F911D9695879513
:1036D00097F90895FA01EE0FFF1F30962105310585
:1036E000A1F16115710561F48038BFE39B0749F1D1
:1036F00068949038810561F08038BFEF9B0741F0F6
:1037000099234AF5FF3FE1053105210519F1E894B8
:103710000894E795D901AA2329F4AB2FBE2FF85FAF
:10372000D0F310C0FF5F70F4A695E0F7F73950F0C2
:1037300019F0FF3A38F49F779F930DD00F9007FC54
:103740009058089546F00C94AD1A60E070E080E85F
:103750009FE308954FE79F775F934F933F932F9396
:103760000E94C51C2F913F914F915F910E94FD1ABD
:103770000C940D1C19F416F40C94AD1A0C943F1C07
:103780000E94D71AB8F39923C9F3B6F39F57550B84
:1037900087FF0E944D1C0024A0E640EA900180585B
:1037A0005695979528F4805C660F771F881F20F048
:1037B00026173707480730F4621B730B840B202948
:1037C00031294A2BA69517940794202531254A279D
:1037D00058F7660F771F881F20F02617370748070E
:1037E00030F4620B730B840B200D311D411DA0952D
:1037F00081F7B901842F9158880F96958795089580
:103800000E94831A880B990B089529F416F00C94E2
:10381000A71A0C94F11A0C94AD1A0E94D71AA8F3A7
:103820009638A0F707F80F92E8942BE33AEA48EBB2
:103830005FE70E94131B0F920F920F924DB75EB776
:103840000F920E940D1DE8E6F0E00E94541C4F917B
:103850005F91EF91FF91E595EE1FFF1F49F0FE5735
:10386000E0684427EE0F441FFA95E1F74195550BA8
:103870000E94871C0F9007FE0C947B1C08959F3FAD
:1038800031F0915020F4879577956795B795880F1B
:10389000911D9695879597F9089591505040660F20
:1038A000771F881FD2F70895DF93CF931F930F934D
:1038B000FF92EF92DF927B018C01689406C0DA2EB2
:1038C000EF010E94101BFE01E894A591259135910E
:1038D00045915591A6F3EF010E944419FE0197010D
:1038E000A801DA9469F7DF90EF90FF900F911F9194
:1038F000CF91DF9108959B01AC0160E070E080E81A
:103900009FE30C949E190C94A71A0C943F1C0E94E0
:10391000D71AD8F39923C9F3940F511DA3F39150EB
:10392000504094F059F0882332F0660F771F881FBB
:1039300091505040C1F79E3F51052CF7880F911DC3
:103940009695879597F908955F3FACF0983E9CF067
:10395000BB27869577956795B79508F4B1609395E1
:10396000C1F7BB0F58F711F460FFE8CF6F5F7F4FCF
:103970008F4F9F4FE3CF0C94F21A16F00C943F1C1C
:103980000C94AD1A68940C94A71A0E94D71AA8F345
:103990009923C1F3AEF3DF93CF931F930F93FF925D
:1039A000C92FDD2788232AF02197660F771F881FEC
:1039B000DAF720E030E040E85FEB9FE3883920F061
:1039C000803E38F021968F770E942D19E0E9F0E0D3
:1039D00004C00E942D19EDEBF0E00E94541C8B01F5
:1039E000BE01EC01FB2E6F5771097595771F880B8F
:1039F000990B0E94481A28E132E741E35FE30E94F5
:103A0000101BAF2D9801AE01FF900F911F91CF9128
:103A1000DF910E9444190C94BE1AFA01DC01AA0F2E
:103A2000BB1F9B01AC01BF5728F422273327442733
:103A3000507820C0B75190F4AB2F002446953795AD
:103A40002795011CA395D2F3002071F0220F331F9C
:103A5000441FB395DAF30ED00C942C196130710524
:103A6000A0E88A07B94630F49B01AC0166277727A6
:103A700088279078309621F02083318342835383C6
:103A80000895A1E21A2EAA1BBB1BFD010DC0AA1F9F
:103A9000BB1FEE1FFF1FA217B307E407F50720F0B7
:103AA000A21BB30BE40BF50B661F771F881F991F32
:103AB0001A9469F760957095809590959B01AC017B
:103AC000BD01CF010895EE0FFF1F0590F491E02D89
:063AD0000994F894FFCFF9
:103AD6002E022E0200000000CF022F025C021C0301
:103AE6008D026B027F026E616E00696E66006F76F4
:103AF60066002C20000D0A00446F6E6500726F741C
:083B06006174696F6E733A00EF
:00000001FF
