:100000000C94A3000C940F090C94E8080C94CB00FA
:100010000C94CB000C94CB000C94CB000C94CB0034
:100020000C94CB000C94CB000C94CB000C94CB0024
:100030000C94CB000C94CB000C94CB000C94CB0014
:100040000C949E080C94CB000C945C090C9436091B
:100050000C94CB000C94CB000C94CB000C94CB00F4
:100060000C94CB000C94CB0007634236B79BD8A707
:100070001A39685618AEBAAB558C1D3CB7CC5763CD
:10008000BD6DEDFD753EF6177231BF000000803F7B
:1000900008000000BE922449123EABAAAA2ABECD97
:1000A000CCCC4C3E00000080BEABAAAAAA3E000009
:1000B0000000BF000000803F000000000008417801
:1000C000D3BB4387D1133D190E3CC3BD4282AD2B38
:1000D0003E68EC8276BED98FE1A93E4C80EFFFBE30
:1000E00001C4FF7F3F00000000000000000024006A
:1000F00027002A0000000000250028002B00000037
:10010000000023002600290004040404040404045D
:1001100002020202020203030303030301020408B2
:100120001020408001020408102001020408102061
:1001300000000008000201000003040700000000A6
:10014000000000004A0C11241FBECFEFD8E0DEBF34
:10015000CDBF11E0A0E0B1E0E4EEFAE202C005900C
:100160000D92A833B107D9F723E0A8E3B1E001C0AD
:100170001D92A231B207E1F710E0C3EAD0E004C05B
:100180002197FE010E946A15C23AD107C9F70E9461
:10019000910E0C9470150C940000833081F028F4BB
:1001A000813099F08230A9F008958730A9F0883025
:1001B000C9F08430B1F4809180008F7D03C08091BC
:1001C00080008F7780938000089584B58F7784BDF9
:1001D000089584B58F7DFBCF8091B0008F77809399
:1001E000B00008958091B0008F7DF9CFCF93DF9359
:1001F000282F30E0F901E05DFE4F8491F901E45EC3
:10020000FE4FD491F901E85FFE4FC491CC23A1F0D9
:1002100081110E94CD00EC2FF0E0EE0FFF1FE250A5
:10022000FF4FA591B491EC91ED2381E090E009F4AA
:1002300080E0DF91CF91089580E090E0FACF1F93A6
:10024000CF93DF93282F30E0F901E05DFE4F8491DA
:10025000F901E45EFE4FD491F901E85FFE4FC491CD
:10026000CC23A9F0162F81110E94CD00EC2FF0E0D5
:10027000EE0FFF1FEC50FF4FA591B4918FB7F8948C
:10028000EC91111108C0D095DE23DC938FBFDF9174
:10029000CF911F910895DE2BF8CFCF93DF9360E0CD
:1002A0008CE00E941F0160E088E00E941F01C7E00F
:1002B000D0E060E084E00E941F018091410190E065
:1002C0000C2E02C0959587950A94E2F761E080FFB5
:1002D00060E088E00E941F0161E084E00E941F014D
:1002E000219738F761E08CE0DF91CF910C941F01EA
:1002F000CF93DF9390E0FC01E45EFE4F2491885F92
:100300009E4FFC0184918823D1F090E0880F991FC3
:10031000FC01E651FF4FA591B491FC01EC50FF4F59
:10032000C591D49161110EC09FB7F8948C91E22FC2
:10033000E0958E238C932881E223E8839FBFDF9191
:10034000CF9108958FB7F894EC91E22BEC938FBF87
:10035000F6CF80914101837F809341010E944D013E
:10036000E0EBF0E080818368808382E08093B100DD
:100370001092B30061E08BE00C94780161E08CE0B6
:100380000E94780161E087E00E94780161E088E0E6
:100390000E94780161E084E00E947801109241019E
:1003A0000E944D0160E087E00C941F013FB7F89474
:1003B00080913D0190913E01A0913F01B09140019B
:1003C00026B5A89B05C02F3F19F00196A11DB11DB0
:1003D0003FBFBA2FA92F982F8827BC01CD01620FEC
:1003E000711D811D911D42E0660F771F881F991FA7
:1003F0004A95D1F708958F929F92AF92BF92CF9274
:10040000DF92EF92FF926B017C010E94D6014B01BB
:100410005C01C114D104E104F104B9F00E94D601D9
:10042000681979098A099B09683E7340810591051D
:1004300080F321E0C21AD108E108F10888EE880EA5
:1004400083E0981EA11CB11CE4CFFF90EF90DF90D9
:10045000CF90BF90AF909F908F9008952FB7F89452
:100460006091390170913A0180913B0190913C017A
:100470002FBF08950895AF92BF92CF92DF92EF926F
:10048000FF920F931F93CF93DF936C017B018B013E
:10049000040F151FEB015E01AE18BF08C017D1078E
:1004A00059F06991D601ED91FC910190F081E02D18
:1004B000C6010995892B79F7C501DF91CF911F916D
:1004C0000F91FF90EF90DF90CF90BF90AF90089585
:1004D000FC01538D448D252F30E0842F90E0821B4A
:1004E000930B541710F0CF96089501970895FC01CF
:1004F000918D828D981761F0A28DAE0FBF2FB11D27
:100500005D968C91928D9F5F9F73928F90E008957E
:100510008FEF9FEF0895FC01918D828D981731F038
:10052000828DE80FF11D858D90E008958FEF9FEF8C
:100530000895FC01918D228D892F90E0805C9F4F62
:10054000821B91098F739927089582E491E00E949C
:10055000990221E0892B09F420E0822F089580E0A0
:1005600090E0892B29F00E94A50281110C940000D3
:100570000895FC01A48DA80FB92FB11DA35ABF4F38
:100580002C91848D90E001968F739927848FA68992
:10059000B7892C93A089B1898C91837080648C93E6
:1005A000938D848D981306C00288F389E02D808195
:1005B0008F7D80830895EF92FF920F931F93CF93C7
:1005C000DF93EC0181E0888F9B8D8C8D98131AC08E
:1005D000E889F989808185FF15C09FB7F894EE8975
:1005E000FF896083E889F9898081837080648083D2
:1005F0009FBF81E090E0DF91CF911F910F91FF901D
:10060000EF900895F62E0B8D10E00F5F1F4F0F73C4
:100610001127E02E8C8D8E110CC00FB607FCFACF7F
:10062000E889F989808185FFF5CFCE010E94B90262
:10063000F1CFEB8DEC0FFD2FF11DE35AFF4FF08250
:100640009FB7F8940B8FEA89FB8980818062CFCFB6
:10065000CF93DF93EC01888D8823B9F0AA89BB89F9
:10066000E889F9898C9185FD03C0808186FD0DC0E4
:100670000FB607FCF7CF8C9185FFF2CF808185FF05
:10068000EDCFCE010E94B902E9CFDF91CF9108955D
:10069000FC018081823069F028F423E092E081300F
:1006A00051F00895833011F126E090E0843019F084
:1006B000089524E091E06230E1F0643079F1613036
:1006C00009F03FC041E050E0BA0101C0660F9A95C1
:1006D000EAF780914101862B01C0440F2A95EAF781
:1006E00040954823409341010C944D0127E095E04B
:1006F000E2CF41E050E0BA0102C0660F771F9A9541
:10070000E2F7CB01809590914101892301C0440F0C
:100710002A95EAF7842B80934101E6CF41E050E02F
:10072000FA0102C0EE0FFF1F9A95E2F7CF0101C058
:10073000440F2A95EAF7842B8095909141018923F3
:10074000EACF08950F931F93CF93DF93EC018F8D22
:100750000E94F6008C0189A181110DC001301105A4
:1007600051F488A10E94F6009C019AA1211531053F
:10077000C1F491111AA209A3AE8DE881F9812E81ED
:100780003F81488559856A857B858C859D85BAA181
:10079000B1110FC0A1110FC03196F983E883A1E018
:1007A0000EC02130310539F79111E5CF81E08AA3E0
:1007B000E2CFA111F1CF3197F983E883AFEF0E9427
:1007C0005E152E833F83488759876A877B878C878E
:1007D0009D87DF91CF911F910F91089580E592E061
:1007E0000C94A20381EB92E00C94A203FC01AC01F7
:1007F0004D5D5F4F9B0177FF04C022273327261BE7
:10080000370B93A19230C9F078F4913099F0868D2E
:10081000882319F07195619571091616170694F4DD
:1008200061E0CA010C944803933051F0943079F799
:1008300028BDEDCF2093B300EACF2093B400E7CFDB
:1008400027BDE5CF672B11F062E0EBCF64E0E9CF85
:100850002F923F924F925F926F927F928F929F92D0
:10086000AF92BF92CF92DF92EF92FF920F931F93BE
:10087000CF93DF93CDB7DEB763970FB6F894DEBFA3
:100880000FBECDBF9B8B8A8BFC01E15AFF4F80814D
:10089000882309F428C10E942E0269877A878B87F2
:1008A0009C87EA89FB89E95BFF4F80819181A28166
:1008B000B38149855A856B857C85481B590B6A0B2A
:1008C0007B0BEA89FB89ED5AFF4F80819181A281E0
:1008D000B381481759076A077B0708F404C1EA89FE
:1008E000FB89EF5BFF4F0190F081E02D80819181CA
:1008F000A281B3818B839C83AD83BE83EA89FB890C
:10090000EB5BFF4F0190F081E02D9C01AD01608118
:100910007181828193810E9436114B015C01EA89C9
:10092000FB89E15BFF4F20813181428153816B81E3
:100930007C818D819E810E9436116B017C01AA8988
:10094000BB89D5962D913D914D915C91D897C5016C
:10095000B4010E944513EA89FB89E55BFF4FFA83E6
:10096000E98320813181428153810E9437112B011B
:100970003C01A981BA814D925D926D927C92139750
:10098000EA89FB89E05AFF4FB081BD87B11117C0DA
:10099000EA89FB8921A932A943A954A9C701B60153
:1009A0000E9445139B01AC01C301B2010E943611A4
:1009B000A981BA816D937D938D939C931397EA8956
:1009C000FB89E55BFF4FF887EF83408051806280B1
:1009D0007380EA89FB89E55AFF4F308021800281CC
:1009E0001381232D322DA801C301B2010E944013AF
:1009F00018160CF0CDC0832D922DD801EF81F8850B
:100A000080839183A283B383FD85FF2309F4D9C03A
:100A1000AA89BB89D1962D913D914D915C91D49736
:100A2000C501B4010E9445134B015C01EA89FB89B1
:100A300021AD32AD43AD54ADC701B6010E9445139F
:100A40009B01AC01A981BA816D917D918D919C91A1
:100A50000E943611A50194010E9437116B017C019F
:100A60009B01AC01632D722DC8010E94A31187FD6B
:100A700014C0EA89FB89E95AFF4F30802180028146
:100A80001381232D322DA801B601C7010E94A311A5
:100A900087FD03C03C2C2D2C8701EA89FB89ED5B87
:100AA000FF4F0190F081E02D832D922DD80180839E
:100AB0009183A283B383EA89FB89E15BFF4F8B813A
:100AC0009C81AD81BE8180839183A283B383EA89B7
:100AD000FB89E95BFF4F89859A85AB85BC8580835F
:100AE0009183A283B38320E030E0A901AA89BB8966
:100AF0005A966D917D918D919C915D970E944513C1
:100B0000EA89FB8926893789408D518D0E943711EA
:100B10006B017C0120E030E04FE753E40E94A31119
:100B200087FD06C0C12CD12C8FE7E82E83E4F82E78
:100B3000AA89BB895E968C9120E030E040E85FE3B3
:100B4000882321F020E030E040E85FEBC701B601E8
:100B50000E9445130E941A128A899B8963960FB6D8
:100B6000F894DEBF0FBECDBFDF91CF911F910F91E3
:100B7000FF90EF90DF90CF90BF90AF909F908F90BD
:100B80007F906F905F904F903F902F900C94F60362
:100B9000EA89FB89E95AFF4F80819181A281B38163
:100BA0008E879F87A88BB98B9C01AD01C301B201D1
:100BB0000E94A31187FF28CF8E859F85A889B989B8
:100BC0001DCF812C912C540131CF4F925F926F92A7
:100BD0007F928F929F92AF92BF92CF92DF92EF92CD
:100BE000FF92CF93DF9300D000D0CDB7DEB76B017B
:100BF0007C01AC019B0160911402709115028091FF
:100C00001602909117020E94401318160CF5A701C6
:100C10009601C701B6010E9445132091F801309159
:100C2000F9014091FA015091FB010E94451320E027
:100C300030E040E05FE30E9445132091F4013091E1
:100C4000F5014091F6015091F7010E94371192C0D1
:100C5000209118023091190240911A0250911B0202
:100C6000C701B6010E94A31187FF31C08090E40143
:100C70009090E501A090E601B090E701A5019401F4
:100C8000C701B6010E9445136B017C01A5019401C7
:100C9000C501B4010E9445134B015C016091F8014C
:100CA0007091F9018091FA019091FB019B01AC01D7
:100CB0000E9437119B01AC01C501B4010E94A8112B
:100CC0009B01AC01C701B6010E943611B6CF8090DE
:100CD0001C0290901D02A0901E02B0901F02A50160
:100CE0009401C701B6010E94A31187FF2BC0A50183
:100CF0009401C701B6010E943611C090F801D0904E
:100D0000F901E090FA01F090FB01F7FAF094F7F89E
:100D1000F0949B01AC010E9445139B01AC01C701FB
:100D2000B6010E94451320E030E040E05FE30E94FE
:100D300045132091E0013091E1014091E201509191
:100D4000E30183CF8090200290902102A0902202A4
:100D5000B0902302A5019401C701B6010E94A3111E
:100D600087FF1BC06091E0017091E1018091E20179
:100D70009091E3010F900F900F900F90DF91CF9122
:100D8000FF90EF90DF90CF90BF90AF909F908F90AB
:100D90007F906F905F904F90089540902402509004
:100DA00025026090260270902702A3019201C701DC
:100DB000B6010E94A31187FF0FC0A5019401C701CE
:100DC000B6010E943611C090FC01D090FD01E09068
:100DD000FE01F090FF0199CF209128023091290265
:100DE00040912A0250912B02C701B6010E94A31123
:100DF00087FF40C08090E8019090E901A090EA014F
:100E0000B090EB01D501C401B05889839A83AB83BC
:100E1000BC83A3019201C701B6010E9436119B0158
:100E2000AC0169817A818B819C810E9445136B01A1
:100E30007C01A5019401C501B4010E9445134B0139
:100E40005C016091FC017091FD018091FE01909127
:100E5000FF019B01AC010E9437119B01AC01C50150
:100E6000B4010E94A8119B01AC01C701B6010E9408
:100E700036115FCF80902C0290902D02A0902E0210
:100E8000B0902F02A5019401C701B6010E94A311E1
:100E900087FF23C0A5019401C701B6010E94361146
:100EA0009B01AC010E9445132091FC013091FD0192
:100EB0004091FE015091FF010E94451320E030E077
:100EC00040E05FE30E9445132091F0013091F10171
:100ED0004091F2015091F301B8CE60E070E0CB0197
:100EE00049CFFC0101900020E9F73197AF01481B81
:100EF000590BBC0182E491E00C943B028F929F92CB
:100F0000AF92BF920F931F93CF93DF93CDB7DEB70E
:100F1000A1970FB6F894DEBF0FBECDBF19A2423025
:100F200008F44AE08E010F5D1F4F842E912CB12CE6
:100F3000A12CA50194010E943C15E62FB901CA011C
:100F4000EA30F4F4E05DD801EE938D01232B242BDD
:100F5000252B79F790E080E0109719F0CD010E94E1
:100F60007107A1960FB6F894DEBF0FBECDBFDF911B
:100F7000CF911F910F91BF90AF909F908F90089548
:100F8000E95CE1CF4F925F926F927F928F929F9236
:100F9000AF92BF92CF92DF92EF92FF920F931F9387
:100FA000CF936B017C01742EAC019B010E94021453
:100FB000882399F086E191E0CF911F910F91FF90E6
:100FC000EF90DF90CF90BF90AF909F908F907F90E9
:100FD0006F905F904F900C94710746015701E89411
:100FE000B7F82FEF3FEF4FE75FE7C501B4010E946D
:100FF000021481110DC02FEF3FEF4FE75FE7C501EE
:10100000B4010E94A31118161CF48AE191E0D4CF18
:101010002FEF3FEF4FE75FE4C701B6010E94401397
:1010200018161CF48EE191E0C7CF2FEF3FEF4FE78A
:101030005FECC701B6010E94A31187FDF3CF20E04A
:1010400030E0A901C701B6010E94A31110E000E041
:1010500087FF0AC06DE282E491E00E94DB028C010E
:10106000F7FAF094F7F8F094C0E060E070E080E008
:101070009FE37C1641F020E030E040E251E40E9422
:10108000A811CF5FF6CFA70196010E9437112B015F
:101090003C010E9421124B015C014AE00E947E0744
:1010A0007C01E00EF11ECC23C1F1C501B4010E9408
:1010B00050129B01AC01C301B2010E9436114B01D9
:1010C0005C016EE282E491E00E94DB02E80EF91E10
:1010D000C15018F120E030E040E251E4C501B40114
:1010E0000E9445132B013C010E9421124B01B12C9F
:1010F000A12C4AE0C501B4010E947E07E80EF91E4A
:10110000C501B4010E9450129B01AC01C301B201A0
:101110000E9436114B015C01DBCFC701CF911F91BB
:101120000F91FF90EF90DF90CF90BF90AF909F9086
:101130008F907F906F905F904F9008951F920F92C5
:101140000FB60F9211242F933F938F939F93AF93DA
:10115000BF938091390190913A01A0913B01B091E8
:101160003C013091380123E0230F2D3758F50196CB
:10117000A11DB11D209338018093390190933A014C
:10118000A0933B01B0933C0180913D0190913E01C1
:10119000A0913F01B09140010196A11DB11D809326
:1011A0003D0190933E01A0933F01B0934001BF9158
:1011B000AF919F918F913F912F910F900FBE0F9004
:1011C0001F90189526E8230F0296A11DB11DD2CFBE
:1011D0001F920F920FB60F9211242F933F934F93AC
:1011E0005F936F937F938F939F93AF93BF93EF938F
:1011F000FF93E0910201F09103010995FF91EF91B6
:10120000BF91AF919F918F917F916F915F914F911E
:101210003F912F910F900FBE0F901F9018951F9226
:101220000F920FB60F9211242F933F934F935F931A
:101230006F937F938F939F93AF93BF93EF93FF939E
:10124000E0910001F09101010995FF91EF91BF91AB
:10125000AF919F918F917F916F915F914F913F914E
:101260002F910F900FBE0F901F9018951F920F9205
:101270000FB60F9211242F933F934F935F936F9369
:101280007F938F939F93AF93BF93EF93FF9382E4EA
:1012900091E00E94B902FF91EF91BF91AF919F91B0
:1012A0008F917F916F915F914F913F912F910F900F
:1012B0000FBE0F901F9018951F920F920FB60F92AE
:1012C00011242F938F939F93EF93FF93E0915201FB
:1012D000F09153018081E0915801F091590182FD14
:1012E0001BC0908180915B018F5F8F7320915C01A7
:1012F000821741F0E0915B01F0E0EE5BFE4F958FCD
:1013000080935B01FF91EF919F918F912F910F90AF
:101310000FBE0F901F9018958081F4CF4F925F926F
:101320006F927F928F929F92AF92BF92CF92DF92F5
:10133000EF92FF92CF93DF93CDB7DEB728970FB62A
:10134000F894DEBF0FBECDBF8090180290901902B6
:10135000A0901A02B0901B024090E4015090E50169
:101360006090E6017090E701C090F801D090F9011B
:10137000E090FA01F090FB01A50194010E94361162
:1013800069837A838B839C8320E030E040E450E4DF
:101390000E94B2136D837E838F839887A30192018D
:1013A000C501B4010E9445134B015C01A3019201E8
:1013B000C301B2010E9445132B013C01A701960114
:1013C000C701B6010E9437119B01AC01C301B201F4
:1013D0000E94A8119B01AC01C501B4010E94361105
:1013E0002091F4013091F5014091F6015091F701FF
:1013F0000E94371129813A814B815C810E944513FB
:10140000209138023091390240913A0250913B02CA
:101410000E9437114B015C01A70196016D817E810D
:101420008F8198850E94451320E030E040EC50E425
:101430000E94A8119B01AC01C501B4010E943711A3
:1014400028960FB6F894DEBF0FBECDBFDF91CF91C7
:10145000FF90EF90DF90CF90BF90AF909F908F90D4
:101460007F906F905F904F9008952F923F924F9290
:101470005F926F927F928F929F92AF92BF92CF9224
:10148000DF92EF92FF920F931F93CF93DF93CDB72D
:10149000DEB729970FB6F894DEBF0FBECDBF998790
:1014A00088876983F22EDC011D921C92FC01128256
:1014B0001382148215821682178210861186128674
:1014C0001386148615868EEA97E4A1EABFE3868721
:1014D0009787A08BB18BDF01128A138A148A158A31
:1014E000068F5F966C935F9790964C939097EE243F
:1014F000E3949296EC9292979396EC92939782E073
:1015000094968C930E94BE010E94A90188859985BA
:101510008D5B9F4F9B838A83888599854696AA8198
:10152000BB818D939C93E885F985EF5BFF4FFD832D
:10153000EC8388859985029691838083E885F98577
:10154000EB5BFF4F888599854A9691838083288439
:101550003984FFE52F0E311CD1011C92C884D98437
:10156000B7E5CB0ED11CF6011082118212821382D4
:1015700088859985855A9F4F9F838E8380E090E070
:10158000AFE7B3E4EE81FF8180839183A283B383CD
:10159000088519850D5A1F4F84E6882E912CA12CA1
:1015A000B12CD8018D929D92AD92BC921397E88593
:1015B000F98516AE15AEFF9681E090E091838083A9
:1015C000E885F985E05AFF4FE08280E090E0A0E0F6
:1015D000B0E4E885F98585A396A3A7A3B0A740E06A
:1015E00050E060E272E441A752A763A774A74DECF4
:1015F0005CEC6CE07FE345A756A767A770AB81ABB7
:1016000092ABA3ABB4AB80E090E0A0E8B0E485ABD4
:1016100096ABA7ABB0AF80E090E0A0EBB0E481AFB9
:1016200092AFA3AFB4AF0E942E02D8014D905D904F
:101630006D907C90E885F985E95BFF4FDC01CB017B
:1016400084199509A609B70980839183A283B3837E
:10165000C301B2010E9450129B01AC0160E070E036
:1016600088EC92E40E94A8112B013C01AC019B0183
:10167000E885F98565A976A987A990AD0E944513EB
:10168000A885B985D5966D937D938D939C93D897B6
:10169000A3019201D9966D917D918D919C91DC97DA
:1016A0000E94A811E885F98561AF72AF83AF94AF4E
:1016B000D8018D929D92AD92BC9213970E94BE016B
:1016C000B3E0FB1609F462C0E4E0FE1609F46CC056
:1016D000F2E0FF1609F445C00E94A901A885B9856A
:1016E0009396FC92939782E094968C93F10180817B
:1016F000811175C0AA81BB81ED91FC9180809180A0
:10170000A280B380E884F984BBE4EB0EF11CF701FE
:1017100080829182A282B382AC81BD81ED91FC91E5
:1017200080819181A281B381E885F985E15BFF4FDA
:1017300080839183A283B383EE81FF8140805180B7
:1017400062807380A3019201C501B4010E9440131D
:101750001816C4F5D7014D925D926D927C92139745
:101760003EC0809141018D7E809341010E944D01D8
:101770008091B00083628093B000F092B10010922B
:10178000B40061E083E00E947801A8CF809141011C
:101790008F75809341010E944D0184B5836884BD9B
:1017A00017BC61E086E0EFCF809141018E7B809392
:1017B00041010E944D0184B5836284BD18BC61E083
:1017C00085E0E1CFF6014080518062807380A30103
:1017D0009201C501B4010E94A31187FDBBCF81E036
:1017E000F1018083D8016D917D918D919C910E9432
:1017F00050129B01AC0160E070E088EC92E40E9422
:10180000A8114B015C01AC019B01E885F98565A934
:1018100076A987A990AD0E944513A885B985D5966C
:101820006D937D938D939C93D897A5019401D99640
:101830006D917D918D919C91DC970E94A811E88516
:10184000F98561AF72AF83AF94AF84E690E0A0E01A
:10185000B0E0F80180839183A283B38360E0898143
:1018600029960FB6F894DEBF0FBECDBFDF91CF91A2
:101870001F910F91FF90EF90DF90CF90BF90AF90AE
:101880009F908F907F906F905F904F903F902F90A0
:101890000C9478014F925F926F927F928F929F92F9
:1018A000AF92BF92CF92DF92EF92FF920F93CF93BE
:1018B000DF9300D000D0CDB7DEB7E2E4F1E01382D1
:1018C000128288EE93E0A0E0B0E084839583A68343
:1018D000B78388E091E09183808385EC90E09587E1
:1018E000848784EC90E09787868780EC90E0918BEA
:1018F000808B81EC90E0938B828B82EC90E0958BD7
:10190000848B86EC90E0978B868B118E128E138ED3
:10191000148E1092DF0101E021E030E042E163E04B
:1019200081EB92E00E94350A00E024E030E040E1E3
:1019300062E080E592E00E94350A80E090E0A0EC51
:10194000B0E4E0EEF1E080839183A283B38380E092
:1019500090E0A0EAB0E48093E4019093E501A093C5
:10196000E601B093E70180E090E0A0E2B0E480936C
:10197000E8019093E901A093EA01B093EB0180E0C4
:1019800090E0A0ECB1E48093EC019093ED01A09382
:10199000EE01B093EF0180E090E0A0E8BFE3809318
:1019A000F0019093F101A093F201B093F3018093C1
:1019B000F4019093F501A093F601B093F70140E094
:1019C00050E068E472E44093F8015093F9016093A9
:1019D000FA017093FB0140E050E060E271E4409353
:1019E000FC015093FD016093FE017093FF01109282
:1019F000040210920502109206021092070240E0C3
:101A000050E06CEF70E440930C0250930D02609331
:101A10000E0270930F021092100210921102109297
:101A20001202109213024DEC5CEC6CEC7DE34093DF
:101A3000140250931502609316027093170280935C
:101A4000180290931902A0931A02B0931B028DEC16
:101A50009CECACE8BFE380931C0290931D02A09322
:101A60001E02B0931F02BC01CD010E948E092B0102
:101A70003C01409208025092090260920A02709260
:101A80000B02AC019B0160E070E080EC91E40E94ED
:101A9000361120E030E04CEF50E40E94361120E097
:101AA00030E040EC50E40E94A8112DEC3CEC4CE8F6
:101AB0005FE30E9437116B017C01C0922002D0923B
:101AC0002102E0922202F092230220E030E040E87E
:101AD0005EE30E94371169837A838B839C836093D2
:101AE000240270932502809326029093270220E01F
:101AF00030E040E050E4C701B6010E9437114B01CD
:101B00005C018092280290922902A0922A02B0924F
:101B10002B0220E030E040E85EE30E943711609342
:101B20002C0270932D0280932E0290932F026093CB
:101B300000027093010280930202909303021092BC
:101B400030021092310210923202109233028EED66
:101B50009DEDADEDBDE38093340290933502A093EB
:101B60003602B093370288E898E8A0E5B0E48093A5
:101B7000380290933902A0933A02B0933B026DEC85
:101B80007CEC8CE89FE30E948E0960933C0270938A
:101B90003D0280933E0290933F022DEC3CEC4CE8DA
:101BA0005FE3C701B6010E94361120E030E040EC4F
:101BB00050E40E944513A30192010E9437112B01AA
:101BC0003C01409240025092410260924202709267
:101BD0004302A701960169817A818B819C810E94D1
:101BE00036116B017C0120E030E040E450E40E94BB
:101BF000B21320E030E040E251E40E94451320E0BF
:101C000030E040EC50E40E94A8119B01AC01C301FC
:101C1000B2010E9436112B013C0120E030E040EC83
:101C200050E4C701B6010E9445139B01AC01C301FA
:101C3000B2010E9437112B013C01409244025092A4
:101C40004502609246027092470229813A814B8197
:101C50005C81C501B4010E9436114B015C01A701F2
:101C60009601C701B6010E94451320E030E040E232
:101C700051EC0E94451320E030E040E05FE30E9419
:101C8000451320E030E040EC50E40E943711A501FC
:101C900094010E944513A30192010E9437116B0128
:101CA0007C01A5019401C501B4010E94451320E007
:101CB00030E040E250E40E94451320E030E040E094
:101CC0005FE30E9445139B01AC01C701B6010E946E
:101CD0003611609348027093490280934A029093B0
:101CE0004B0280E090E0A0ECB1E480934C02909332
:101CF0004D02A0934E02B0934F020F900F900F90A1
:101D00000F90DF91CF910F91FF90EF90DF90CF90E8
:101D1000BF90AF909F908F907F906F905F904F900B
:101D20000895789484B5826084BD84B5816084BD53
:101D300085B5826085BD85B5816085BD80916E0069
:101D4000816080936E00109281008091810082609A
:101D500080938100809181008160809381008091D7
:101D600080008160809380008091B10084608093C6
:101D7000B1008091B00081608093B00080917A00C2
:101D8000846080937A0080917A00826080937A00E8
:101D900080917A00816080937A0080917A008068D7
:101DA00080937A001092C100E0915201F0915301AA
:101DB00082E08083E0914E01F0914F011082E0912A
:101DC0005001F091510180E1808310925A01E0911D
:101DD0005601F091570186E08083E0915401F09123
:101DE0005501808180618083E0915401F09155011B
:101DF000808188608083E0915401F0915501808159
:101E000080688083E0915401F091550180818F7D3D
:101E1000808360E080E10E9478018EEE93E09093F1
:101E2000010180930001809169008C7F8160809323
:101E30006900E89A60E082E10E94780182EF93E015
:101E4000909303018093020180916900837F8460F5
:101E500080936900E99A1092C3021092C402109212
:101E6000C5021092C6021092620210926302109292
:101E700064021092650260E070E0CB010E94FB01F9
:101E8000C0E0D0E00E942E020E94501220E030E01C
:101E90004AE754E40E94A8110E94E5056B017C0109
:101EA00020E030E0A9010E94A311882309F4A6C113
:101EB00020E030E040E752E4C701B6010E9445133C
:101EC00026E836E54DEF50E40E94A8114B015C0175
:101ED0008092CB029092CC02A092CD02B092CE0220
:101EE00081EB92E00E94280480926A0290926B0239
:101EF000A0926C02B0926D0280E592E00E942804EC
:101F00002091560230915702409158025091590247
:101F100060915A0270915B0280915C0290915D0227
:101F20000E948D1220E030E040EF54E40E94A8119E
:101F300060936202709363028093640290936502DF
:101F40009B01AC010E94371128ED3FE049E450E4C9
:101F50000E94451320915E0230915F024091600221
:101F6000509161020E9445134B015C012091B70220
:101F70003091B8024091B9025091BA026091BB020F
:101F80007091BC028091BD029091BE020E948D12A0
:101F900020E030E040EF54E40E94A8116093C302B7
:101FA0007093C4028093C5029093C6029B01AC015A
:101FB0000E94371128ED3FE049E450E40E944513A8
:101FC0002091BF023091C0024091C1025091C202E3
:101FD0000E944513A50194010E94371120E030E0D2
:101FE00040E05FE30E94451342E00E94C20782E2A4
:101FF00091E00E9471070E942E020E94501220E080
:1020000030E04AE754E40E94A81142E00E94C2076F
:1020100082E291E00E94710742E0C701B6010E948E
:10202000C20782E291E00E9471070E942E020E9484
:10203000501220E030E04AE754E40E94A8110E94C8
:10204000E50542E00E94C20782E291E00E9471072A
:102050002091520230915302409154025091550206
:102060006091B3027091B4028091B5029091B60272
:102070000E94371120E030E040E05FE30E9445130A
:102080009B01AC010E94371128ED3FE049E450E488
:102090000E9445132EEA37E441EA5FE30E944513AC
:1020A00020E030E040E752E40E94A81142E00E94A4
:1020B000C20785E291E00E9471076091B1027091C0
:1020C000B202072E000C880B990B0E94521220E0DE
:1020D00030E040EF54E40E94A8112DEC3CEC4CECB5
:1020E0005DE30E94A81120E030E040E752E40E9446
:1020F00045136093B3027093B4028093B50290933A
:10210000B6022091B7023091B8024091B9025091C5
:10211000BA026091BB027091BC028091BD029091A5
:10212000BE020E948D1220E030E040EF54E40E9495
:10213000A8116093C3027093C4028093C502909368
:10214000C6021092B2021092B102609150027091D8
:102150005102072E000C880B990B0E94521220E0AE
:1021600030E040EF54E40E94A8112DEC3CEC4CEC24
:102170005DE30E94A81120E030E040E752E40E94B5
:1021800045136093520270935302809354029093CC
:1021900055022091560230915702409158025091B9
:1021A000590260915A0270915B0280915C02909199
:1021B0005D020E948D1220E030E040EF54E40E9466
:1021C000A8116093620270936302809364029093FB
:1021D0006502109251021092500264E670E080E0B5
:1021E00090E00E94FB01209709F44CCE0E94A502CA
:1021F000882309F447CE0E94000044CE88E291E093
:102200000E94710785E291E00E9471078DE291E0E2
:102210000E9471072091C3023091C4024091C5020F
:102220005091C602609162027091630280916402D3
:10223000909165020E94371120E030E040E05FE3BA
:102240000E94451342E00E94C20770E060E081EB0B
:1022500092E00E94F60370E060E080E592E00E9468
:10226000F60360E07AEC8AE99BE3BBCF5058BB27CA
:10227000AA270E944E110C9406130E94F81238F0FF
:102280000E94FF1220F039F49F3F19F426F40C94B9
:10229000F5120EF4E095E7FB0C94EF12E92F0E9483
:1022A000171358F3BA17620773078407950720F0CE
:1022B00079F4A6F50C9439130EF4E0950B2EBA2F91
:1022C000A02D0B01B90190010C01CA01A00111243C
:1022D000FF27591B99F0593F50F4503E68F11A16E8
:1022E000F040A22F232F342F4427585FF3CF469579
:1022F00037952795A795F0405395C9F77EF41F169B
:10230000BA0B620B730B840BBAF09150A1F0FF0F64
:10231000BB1F661F771F881FC2F70EC0BA0F621F50
:10232000731F841F48F4879577956795B795F79540
:102330009E3F08F0B0CF9395880F08F09927EE0FD5
:102340009795879508950E94CB1208F481E008952F
:102350000E94BC110C9406130E94FF1258F00E94B8
:10236000F81240F029F45F3F29F00C94EF1251115C
:102370000C943A130C94F5120E94171368F39923E6
:10238000B1F3552391F3951B550BBB27AA27621771
:102390007307840738F09F5F5F4F220F331F441F7E
:1023A000AA1FA9F335D00E2E3AF0E0E832D09150B2
:1023B0005040E695001CCAF72BD0FE2F29D0660F9F
:1023C000771F881FBB1F261737074807AB07B0E8E2
:1023D00009F0BB0B802DBF01FF2793585F4F3AF0E8
:1023E0009E3F510578F00C94EF120C943A135F3F26
:1023F000E4F3983ED4F3869577956795B795F7956E
:102400009F5FC9F7880F911D9695879597F9089555
:10241000E1E0660F771F881FBB1F621773078407F1
:10242000BA0720F0621B730B840BBA0BEE1F88F700
:10243000E09508950E9421126894B1110C943A130A
:1024400008950E941F1388F09F5798F0B92F99277D
:10245000B751B0F0E1F0660F771F881F991F1AF08F
:10246000BA95C9F714C0B13091F00E943913B1E0A8
:1024700008950C943913672F782F8827B85F39F0A7
:10248000B93FCCF3869577956795B395D9F73EF428
:1024900090958095709561957F4F8F4F9F4F0895D0
:1024A000E89409C097FB3EF49095809570956195EE
:1024B0007F4F8F4F9F4F9923A9F0F92F96E9BB27A4
:1024C0009395F695879577956795B795F111F8CF20
:1024D000FAF4BB0F11F460FF1BC06F5F7F4F8F4F8B
:1024E0009F4F16C0882311F096E911C0772321F081
:1024F0009EE8872F762F05C0662371F096E8862F19
:1025000070E060E02AF09A95660F771F881FDAF76F
:10251000880F9695879597F90895E894F92F96EB8B
:10252000FF2381F0121613061406440B9395F695BB
:1025300087957795679557954040FF23B9F71BC05E
:1025400099270895882351F49850D2F7872B762F36
:10255000652F542F432F322F20E0B1F312161306AC
:102560001406440B88233AF09A95440F551F661FB2
:10257000771F881FCAF755234AF4440F551F11F4DB
:1025800060FF04C06F5F7F4F8F4F9F4F880F9695FE
:10259000879597F90895990F0008550FAA0BE0E861
:1025A000FEEF16161706E807F907C0F01216130615
:1025B000E407F50798F0621B730B840B950B39F455
:1025C0000A2661F0232B242B252B21F408950A26BB
:1025D00009F4A140A6958FEF811D811D089597F9FB
:1025E0009F6780E870E060E008959FEF80EC0895B9
:1025F00000240A94161617061806090608950024E2
:102600000A9412161306140605060895092E03945B
:10261000000C11F4882352F0BB0F40F4BF2B11F4CF
:1026200060FF04C06F5F7F4F8F4F9F4F089557FD2E
:102630009058440F551F59F05F3F71F04795880F30
:1026400097FB991F61F09F3F79F0879508951216C7
:1026500013061406551FF2CF4695F1DF08C0161673
:1026600017061806991FF1CF869571056105089424
:102670000895E894BB2766277727CB0197F908953B
:102680000E94CB1208F48FEF08950E9458130C9407
:1026900006130E94F81238F00E94FF1220F09523D2
:1026A00011F00C94EF120C94F51211240C943A13BF
:1026B0000E94171370F3959FC1F3950F50E0551FBB
:1026C000629FF001729FBB27F00DB11D639FAA2787
:1026D000F00DB11DAA1F649F6627B00DA11D661FD6
:1026E000829F2227B00DA11D621F739FB00DA11DF7
:1026F000621F839FA00D611D221F749F3327A00DB1
:10270000611D231F849F600D211D822F762F6A2F4C
:1027100011249F5750409AF0F1F088234AF0EE0FB1
:10272000FF1FBB1F661F771F881F91505040A9F7DE
:102730009E3F510580F00C94EF120C943A135F3FCA
:10274000E4F3983ED4F3869577956795B795F7951A
:10275000E7959F5FC1F7FE2B880F911D9695879592
:1027600097F90895FA01EE0FFF1F30962105310504
:10277000A1F16115710561F48038BFE39B0749F150
:1027800068949038810561F08038BFEF9B0741F075
:1027900099234AF5FF3FE1053105210519F1E89438
:1027A0000894E795D901AA2329F4AB2FBE2FF85F2F
:1027B000D0F310C0FF5F70F4A695E0F7F73950F042
:1027C00019F0FF3A38F49F779F930DD00F9007FCD4
:1027D0009058089546F00C94F51260E070E080E89F
:1027E0009FE308954FE79F775F934F933F932F9316
:1027F0000E94B2142F913F914F915F910E94451317
:102800000C940F140E94CB12880B990B089529F495
:1028100016F00C94EF120C9439130C94F5120E94DC
:102820001F13A8F39638A0F707F80F92E8942BE34C
:102830003AEA48EB5FE70E945B130F920F920F9208
:102840004DB75EB70F920E94FA14E8E6F0E00E94DE
:1028500041144F915F91EF91FF91E595EE1FFF1F9E
:1028600049F0FE57E0684427EE0F441FFA95E1F760
:102870004195550B0E9474140F9007FE0C94681438
:102880000895DF93CF931F930F93FF92EF92DF9200
:102890007B018C01689406C0DA2EEF010E94581368
:1028A000FE01E894A5912591359145915591A6F3A6
:1028B000EF010E944E11FE019701A801DA9469F719
:1028C000DF90EF90FF900F911F91CF91DF910895CE
:1028D0009B01AC0160E070E080E89FE30C94A811DC
:1028E0000C94EF120C942E150E941F13D8F3992309
:1028F000C9F3940F511DA3F39150504094F059F037
:10290000882332F0660F771F881F91505040C1F71F
:102910009E3F51052CF7880F911D9695879597F945
:1029200008955F3FACF0983E9CF0BB278695779565
:102930006795B79508F4B1609395C1F7BB0F58F749
:1029400011F460FFE8CF6F5F7F4F8F4F9F4FE3CF52
:102950000C943A1316F00C942E150C94F5126894FE
:102960000C94EF120E941F13A8F39923C1F3AEF346
:10297000DF93CF931F930F93FF92C92FDD278823F7
:102980002AF02197660F771F881FDAF720E030E0E2
:1029900040E85FEB9FE3883920F0803E38F02196D5
:1029A0008F770E943711E0E9F0E004C00E943711F0
:1029B000EDEBF0E00E9441148B01BE01EC01FB2E17
:1029C0006F5771097595771F880B990B0E945212EA
:1029D00028E132E741E35FE30E945813AF2D9801ED
:1029E000AE01FF900F911F91CF91DF910E944E1188
:1029F0000C940613FA01DC01AA0FBB1F9B01AC016A
:102A0000BF5728F4222733274427507820C0B751D6
:102A100090F4AB2F0024469537952795011CA3957C
:102A2000D2F3002071F0220F331F441FB395DAF365
:102A30000ED00C94361161307105A0E88A07B946B2
:102A400030F49B01AC016627772788279078309671
:102A500021F0208331834283538308959F3F31F0D7
:102A6000915020F4879577956795B795880F911DBC
:102A70009695879597F90895A1E21A2EAA1BBB1B7C
:102A8000FD010DC0AA1FBB1FEE1FFF1FA217B3073A
:102A9000E407F50720F0A21BB30BE40BF50B661F50
:102AA000771F881F991F1A9469F760957095809514
:102AB00090959B01AC01BD01CF0108950024A7FDB5
:102AC00000942A0F301D401D501D601D701D801D7B
:102AD000901D0895EE0FFF1F0590F491E02D0994CD
:042AE000F894FFCF98
:102AE4003A023A0200000000DB023B0268022803BB
:102AF400990277028B026E616E00696E66006F76D2
:102B040066002C20000D0A00446F6E6500726F741D
:082B14006174696F6E733A00F1
:00000001FF
