:100000000C94A3000C94C1090C949A090C94CB0095
:100010000C94CB000C94CB000C94CB000C94CB0034
:100020000C94CB000C94CB000C94CB000C94CB0024
:100030000C94CB000C94CB000C94CB000C94CB0014
:100040000C9450090C94CB000C940E0A0C94E80903
:100050000C94CB000C94CB000C94CB000C94CB00F4
:100060000C94CB000C94CB0007634236B79BD8A707
:100070001A39685618AEBAAB558C1D3CB7CC5763CD
:10008000BD6DEDFD753EF6177231BF000000803F7B
:1000900008000000BE922449123EABAAAA2ABECD97
:1000A000CCCC4C3E00000080BEABAAAAAA3E000009
:1000B0000000BF000000803F000000000008417801
:1000C000D3BB4387D1133D190E3CC3BD4282AD2B38
:1000D0003E68EC8276BED98FE1A93E4C80EFFFBE30
:1000E00001C4FF7F3F00000000000000000024006A
:1000F00027002A0000000000250028002B00000037
:10010000000023002600290004040404040404045D
:1001100002020202020203030303030301020408B2
:100120001020408001020408102001020408102061
:1001300000000008000201000003040700000000A6
:1001400000000000020D11241FBECFEFD8E0DEBF7B
:10015000CDBF11E0A0E0B1E0E0E2F8E302C005901D
:100160000D92A833B107D9F723E0A8E3B1E001C0AD
:100170001D92A231B207E1F710E0C3EAD0E004C05B
:100180002197FE010E94081CC23AD107C9F70E94BC
:10019000D90E0C940E1C0C9400008F929F92AF927B
:1001A000BF92CF92DF92EF92FF92CF93DF93C0EE98
:1001B000D1E0C884D984EA84FB8420912402309160
:1001C000250240912602509127020E948717A7011D
:1001D000960150580E9496194B015C01A7019601A7
:1001E000C701B6010E9496196B017C016C8D7D8D53
:1001F0008E8D9F8D9B01AC010E9488179B01AC01E5
:10020000C701B6010E94F9179B01AC01C501B401F9
:100210000E948717288139814A815B810E94881753
:10022000DF91CF91FF90EF90DF90CF90BF90AF9094
:100230009F908F900895833081F028F4813099F059
:100240008230A9F008958730A9F08830C9F0843051
:10025000B1F4809180008F7D03C0809180008F7702
:1002600080938000089584B58F7784BD089584B508
:100270008F7DFBCF8091B0008F778093B000089581
:100280008091B0008F7DF9CFCF93DF93282F30E09E
:10029000F901E05DFE4F8491F901E45EFE4FD491D7
:1002A000F901E85FFE4FC491CC23A1F081110E94B7
:1002B0001B01EC2FF0E0EE0FFF1FE250FF4FA59166
:1002C000B491EC91ED2381E090E009F480E0DF91BE
:1002D000CF91089580E090E0FACF1F93CF93DF9302
:1002E000282F30E0F901E05DFE4F8491F901E45ED2
:1002F000FE4FD491F901E85FFE4FC491CC23A9F0E1
:10030000162F81110E941B01EC2FF0E0EE0FFF1F52
:10031000EC50FF4FA591B4918FB7F894EC91111167
:1003200008C0D095DE23DC938FBFDF91CF911F9162
:100330000895DE2BF8CFCF93DF9360E08CE00E942E
:100340006D0160E088E00E946D01C7E0D0E060E0F0
:1003500084E00E946D018091410190E00C2E02C06A
:10036000959587950A94E2F761E080FF60E088E068
:100370000E946D0161E084E00E946D01219738F7D1
:1003800061E08CE0DF91CF910C946D01CF93DF930E
:1003900090E0FC01E45EFE4F2491885F9E4FFC01DB
:1003A00084918823D1F090E0880F991FFC01E651D9
:1003B000FF4FA591B491FC01EC50FF4FC591D49132
:1003C00061110EC09FB7F8948C91E22FE0958E23B7
:1003D0008C932881E223E8839FBFDF91CF9108951A
:1003E0008FB7F894EC91E22BEC938FBFF6CF80910E
:1003F0004101837F809341010E949B01E0EBF0E08B
:1004000080818368808382E08093B1001092B30082
:1004100061E08BE00C94C60161E08CE00E94C601B3
:1004200061E087E00E94C60161E088E00E94C601A9
:1004300061E084E00E94C601109241010E949B018C
:1004400060E087E00C946D013FB7F894809139012A
:1004500090913A01A0913B01B0913C0126B5A89B37
:1004600005C02F3F19F00196A11DB11D3FBFBA2F46
:10047000A92F982F8827BC01CD01620F711D811D06
:10048000911D42E0660F771F881F991F4A95D1F78B
:1004900008958F929F92AF92BF92CF92DF92EF9288
:1004A000FF926B017C010E9424024B015C01C1148C
:1004B000D104E104F104B9F00E9424026819790919
:1004C0008A099B09683E73408105910580F321E00C
:1004D000C21AD108E108F10888EE880E83E0981E60
:1004E000A11CB11CE4CFFF90EF90DF90CF90BF90A4
:1004F000AF909F908F9008950895AF92BF92CF9242
:10050000DF92EF92FF920F931F93CF93DF936C01D3
:100510007B018B01040F151FEB015E01AE18BF08B4
:10052000C017D10759F06991D601ED91FC91019066
:10053000F081E02DC6010995892B79F7C501DF917E
:10054000CF911F910F91FF90EF90DF90CF90BF90D0
:10055000AF900895FC01538D448D252F30E0842FFA
:1005600090E0821B930B541710F0CF9608950197DB
:100570000895FC01918D828D981761F0A28DAE0FC8
:10058000BF2FB11D5D968C91928D9F5F9F73928F4F
:1005900090E008958FEF9FEF0895FC01918D828D7B
:1005A000981731F0828DE80FF11D858D90E0089548
:1005B0008FEF9FEF0895FC01918D228D892F90E0A0
:1005C000805C9F4F821B91098F739927089582E465
:1005D00091E00E94DB0221E0892B09F420E0822FC8
:1005E000089580E090E0892B29F00E94E7028111B4
:1005F0000C9400000895FC01A48DA80FB92FB11D23
:10060000A35ABF4F2C91848D90E001968F73992748
:10061000848FA689B7892C93A089B1898C91837026
:1006200080648C93938D848D981306C00288F3891F
:10063000E02D80818F7D80830895EF92FF920F934C
:100640001F93CF93DF93EC0181E0888F9B8D8C8D7E
:1006500098131AC0E889F989808185FF15C09FB772
:10066000F894EE89FF896083E889F9898081837035
:10067000806480839FBF81E090E0DF91CF911F91E4
:100680000F91FF90EF900895F62E0B8D10E00F5F05
:100690001F4F0F731127E02E8C8D8E110CC00FB6DB
:1006A00007FCFACFE889F989808185FFF5CFCE0173
:1006B0000E94FB02F1CFEB8DEC0FFD2FF11DE35AF1
:1006C000FF4FF0829FB7F8940B8FEA89FB898081F6
:1006D0008062CFCFCF93DF93EC01888D8823B9F070
:1006E000AA89BB89E889F9898C9185FD03C080813D
:1006F00086FD0DC00FB607FCF7CF8C9185FFF2CFBA
:10070000808185FFEDCFCE010E94FB02E9CFDF9112
:10071000CF910895FC018081823069F028F423E0B4
:1007200092E0813051F00895833011F126E090E09D
:10073000843019F0089524E091E06230E1F06430F3
:1007400079F1613009F03FC041E050E0BA0101C0E9
:10075000660F9A95EAF780914101862B01C0440FFC
:100760002A95EAF740954823409341010C949B0158
:1007700027E095E0E2CF41E050E0BA0102C0660F09
:10078000771F9A95E2F7CB018095909141018923DB
:1007900001C0440F2A95EAF7842B80934101E6CFEC
:1007A00041E050E0FA0102C0EE0FFF1F9A95E2F718
:1007B000CF0101C0440F2A95EAF7842B80959091D0
:1007C00041018923EACF0895CF93DF93EC012E8175
:1007D0003F81488559856A857B858C859D850E94EA
:1007E000DE1820E030E040EF54E40E94F9176A8BF5
:1007F0007B8B8C8B9D8B9B01AC010E94881728ED15
:100800003FE049E450E40E9496192E853F854889CF
:1008100059890E949619DF91CF9108950F931F93E4
:10082000CF93DF93EC018F8D0E9444018C0189A14D
:1008300081110DC00130110551F488A10E944401BD
:100840009C019AA121153105C1F491111AA209A3A5
:10085000AE8DE881F9812E813F81488559856A8571
:100860007B858C859D85BAA1B1110FC0A1110FC0E8
:100870003196F983E883A1E00EC02130310539F7C4
:100880009111E5CF81E08AA3E2CFA111F1CF319799
:10089000F983E883AFEF0E94FC1B2E833F834887D8
:1008A00059876A877B878C879D87DF91CF911F91BE
:1008B0000F91089580E592E00C940E0481EB92E094
:1008C0000C940E04FC01AC014D5D5F4F9B0177FF62
:1008D00004C022273327261B370B93A19230C9F07F
:1008E00078F4913099F0868D882319F0719561958F
:1008F00071091616170694F461E0CA010C948A0374
:10090000933051F0943079F728BDEDCF2093B300A8
:10091000EACF2093B400E7CF27BDE5CF672B11F0D6
:1009200062E0EBCF64E0E9CF2F923F924F925F926B
:100930006F927F928F929F92AF92BF92CF92DF92EF
:10094000EF92FF920F931F93CF93DF93CDB7DEB754
:1009500063970FB6F894DEBF0FBECDBF9B8B8A8B1B
:10096000FC01E15AFF4F8081882309F431C18FB720
:10097000F89420913D0130913E0140913F0150910A
:1009800040012E873F87488B598B8FBFEA89FB89AF
:10099000E95BFF4F80819181A281B3814E855F85A4
:1009A00068897989481B590B6A0B7B0BEA89FB899B
:1009B000ED5AFF4F80819181A281B3814817590779
:1009C0006A077B0708F404C1EA89FB89EF5BFF4FE4
:1009D0000190F081E02D80819181A281B3818B8390
:1009E0009C83AD83BE83EA89FB89EB5BFF4F01905B
:1009F000F081E02D9C01AD01608171818281938144
:100A00000E9487174B015C01EA89FB89E15BFF4F7C
:100A100020813181428153816B817C818D819E81D6
:100A20000E9487176B017C01AA89BB89D5962D91FD
:100A30003D914D915C91D897C501B4010E949619E2
:100A4000EA89FB89E55BFF4FFA83E98320813181E5
:100A5000428153810E9488172B013C01A981BA81F0
:100A60004D925D926D927C921397EA89FB89E05AD0
:100A7000FF4FB081B987B11117C0EA89FB8921A95D
:100A800032A943A954A9C701B6010E9496199B0136
:100A9000AC01C301B2010E948717A981BA816D938D
:100AA0007D938D939C931397EA89FB89E55BFF4FB8
:100AB000F887EF834080518062807380EA89FB89E8
:100AC000E55AFF4F3080218002811381232D322D82
:100AD000A801C301B2010E94911918160CF0CDC0F3
:100AE000832D922DD801EF81F88580839183A28395
:100AF000B383F985FF2309F4D7C0AA89BB89D196AE
:100B00002D913D914D915C91D497C501B4010E9406
:100B100096194B015C01EA89FB8921AD32AD43ADE9
:100B200054ADC701B6010E9496199B01AC01A98181
:100B3000BA816D917D918D919C910E948717A5013D
:100B400094010E9488176B017C019B01AC01632D0D
:100B5000722DC8010E94F41787FD14C0EA89FB8931
:100B6000E95AFF4F3080218002811381232D322DDD
:100B7000A801B601C7010E94F41787FD03C03C2CF1
:100B80002D2C8701EA89FB89ED5BFF4F0190F081F5
:100B9000E02D832D922DD80180839183A283B3838E
:100BA000EA89FB89E15BFF4F2B813C814D815E81AE
:100BB0002083318342835383EA89FB89E95BFF4FBA
:100BC0008E859F85A889B98980839183A283B38309
:100BD00020E030E0A901AA89BB895A966D917D91E8
:100BE0008D919C915D970E949619EA89FB892689CF
:100BF0003789408D518D0E9488176B017C0120E060
:100C000030E04FE753E40E94F41787FD06C0C12C83
:100C1000D12C8FE7E82E83E4F82EAA89BB895E9653
:100C20008C9120E030E040E85FE3882321F020E071
:100C300030E040E85FEBC701B6010E9496190E94C0
:100C40006B188A899B8963960FB6F894DEBF0FBE36
:100C5000CDBFDF91CF911F910F91FF90EF90DF906B
:100C6000CF90BF90AF909F908F907F906F905F904C
:100C70004F903F902F900C946204EA89FB89E95AC7
:100C8000FF4F20813181428153812A873B874C87E6
:100C90005D87C301B2010E94F41787FF2ACF8A85BE
:100CA0009B85AC85BD851FCF812C912C540133CF02
:100CB0004F925F926F927F928F929F92AF92BF926C
:100CC000CF92DF92EF92FF92CF93DF934B015C01C3
:100CD000C0EED1E0C0902402D0902502E090260220
:100CE000F0902702209120023091210240912202AF
:100CF00050912302C701B6010E9487172B013C01C6
:100D0000A7019601C501B4010E9487176B017C0100
:100D10008C8C9D8CAE8CBF8CB7FAB094B7F8B09425
:100D2000A3019201C301B2010E9496199B01AC017B
:100D3000C501B4010E94961920E030E040E05FE375
:100D40000E949619288139814A815B810E94881707
:100D5000A70196010E949619209144023091450204
:100D600040914602509147020E9488174B015C0156
:100D7000A7019601C701B6010E94961928853985F9
:100D80004A855B850E94961920E030E040E05FE3F1
:100D90000E9496199B01AC01C501B4010E948717FE
:100DA000DF91CF91FF90EF90DF90CF90BF90AF9009
:100DB0009F908F907F906F905F904F9008958F924B
:100DC0009F92AF92BF92CF92DF92EF92FF92CF931A
:100DD000DF93C0EED1E020912002309121024091BA
:100DE0002202509123020E9487176B017C0120E0B0
:100DF00030E040E450E40E94031A2C8D3D8D4E8D6E
:100E00005F8D0E94961920E030E040EC50E40E9493
:100E1000F9179B01AC0160914002709141028091F1
:100E20004202909143020E9487174B015C01288186
:100E300039814A815B81C701B6010E9496199B01E5
:100E4000AC01C501B4010E948817DF91CF91FF90DA
:100E5000EF90DF90CF90BF90AF909F908F900895CC
:100E60004F925F926F927F928F929F92AF92BF92BA
:100E7000CF92DF92EF92FF92CF93DF93CDB7DEB7A1
:100E800060970FB6F894DEBF0FBECDBF69837A833B
:100E90008B839C8380902C0290902D02A0902E0238
:100EA000B0902F02C0902802D0902902E0902A0230
:100EB000F0902B02A7019601C501B4010E9487178B
:100EC0002B013C018091FC019091FD01A091FE015C
:100ED000B091FF018D839E83AF83B887A5019401F4
:100EE00069817A818B819C810E9487174B015C010B
:100EF00020E030E040E450E40E94031A9B01AC0182
:100F00006D817E818F8198850E94961920E030E066
:100F100040EC50E40E94F9172091480230914902B8
:100F200040914A0250914B020E9488176D877E873C
:100F30008F87988BC701B6010E94CD0069837A83A1
:100F40008B839C8320E030E040E450E4C301B20195
:100F50000E94031A69877A878B879C87C090E80173
:100F6000D090E901E090EA01F090EB01F7FAF094FB
:100F7000F7F8F094A3019201C301B2010E949619FF
:100F80009B01AC01C701B6010E94961920E030E038
:100F900040E05FE30E9496196B017C0129813A8150
:100FA0004B815C81C301B2010E9496192D853E855B
:100FB0004F8558890E9488179B01AC01C701B60173
:100FC0000E9488176B017C0129853A854B855C85D9
:100FD0006D817E818F8198850E94961920E030E096
:100FE00040EC50E40E94F9179B01AC01C701B60127
:100FF0000E9488176B017C012091F0013091F10172
:101000004091F2015091F301C501B4010E9496197B
:101010009B01AC01C701B6010E94881760960FB60C
:10102000F894DEBF0FBECDBFDF91CF91FF90EF9060
:10103000DF90CF90BF90AF909F908F907F906F90F8
:101040005F904F900895FC0101900020E9F73197DF
:10105000AF01481B590BBC0182E491E00C947D0266
:101060008F929F92AF92BF920F931F93CF93DF9374
:10107000CDB7DEB7A1970FB6F894DEBF0FBECDBFD8
:1010800019A2423008F44AE08E010F5D1F4F842EF2
:10109000912CB12CA12CA50194010E94DA1BE62F02
:1010A000B901CA01EA30F4F4E05DD801EE938D0194
:1010B000232B242B252B79F790E080E0109719F053
:1010C000CD010E942308A1960FB6F894DEBF0FBE93
:1010D000CDBFDF91CF911F910F91BF90AF909F90A7
:1010E0008F900895E95CE1CF4F925F926F927F926B
:1010F0008F929F92AF92BF92CF92DF92EF92FF9228
:101100000F931F93CF936B017C01742EAC019B0155
:101110000E94991A882399F086E191E0CF911F915E
:101120000F91FF90EF90DF90CF90BF90AF909F9086
:101130008F907F906F905F904F900C9423084601A2
:101140005701E894B7F82FEF3FEF4FE75FE7C5018E
:10115000B4010E94991A81110DC02FEF3FEF4FE7A4
:101160005FE7C501B4010E94F41718161CF48AE168
:1011700091E0D4CF2FEF3FEF4FE75FE4C701B60117
:101180000E94911918161CF48EE191E0C7CF2FEF41
:101190003FEF4FE75FECC701B6010E94F41787FDF0
:1011A000F3CF20E030E0A901C701B6010E94F41797
:1011B00010E000E087FF0AC06DE282E491E00E9447
:1011C0001D038C01F7FAF094F7F8F094C0E060E0AA
:1011D00070E080E09FE37C1641F020E030E040E2E8
:1011E00051E40E94F917CF5FF6CFA70196010E9444
:1011F00088172B013C010E9472184B015C014AE0E8
:101200000E9430087C01E00EF11ECC23C1F1C50123
:10121000B4010E94A1189B01AC01C301B2010E945C
:1012200087174B015C016EE282E491E00E941D038E
:10123000E80EF91EC15018F120E030E040E251E420
:10124000C501B4010E9496192B013C010E9472183D
:101250004B01B12CA12C4AE0C501B4010E94300819
:10126000E80EF91EC501B4010E94A1189B01AC0152
:10127000C301B2010E9487174B015C01DBCFC7019C
:10128000CF911F910F91FF90EF90DF90CF90BF9083
:10129000AF909F908F907F906F905F904F90089548
:1012A0001F920F920FB60F9211242F933F938F939B
:1012B0009F93AF93BF9380913D0190913E01A09188
:1012C0003F01B09140013091380123E0230F2D37C9
:1012D00058F50196A11DB11D2093380180933D0161
:1012E00090933E01A0933F01B0934001809139015A
:1012F00090913A01A0913B01B0913C010196A11D52
:10130000B11D8093390190933A01A0933B01B093B2
:101310003C01BF91AF919F918F913F912F910F9081
:101320000FBE0F901F90189526E8230F0296A11D5F
:10133000B11DD2CF1F920F920FB60F9211242F938F
:101340003F934F935F936F937F938F939F93AF934D
:10135000BF93EF93FF93E0910201F0910301099590
:10136000FF91EF91BF91AF919F918F917F916F917D
:101370005F914F913F912F910F900FBE0F901F9053
:1013800018951F920F920FB60F9211242F933F932F
:101390004F935F936F937F938F939F93AF93BF937D
:1013A000EF93FF93E0910001F09101010995FF9106
:1013B000EF91BF91AF919F918F917F916F915F91CD
:1013C0004F913F912F910F900FBE0F901F90189546
:1013D0001F920F920FB60F9211242F933F934F93AA
:1013E0005F936F937F938F939F93AF93BF93EF938D
:1013F000FF9382E491E00E94FB02FF91EF91BF9185
:10140000AF919F918F917F916F915F914F913F919C
:101410002F910F900FBE0F901F9018951F920F9253
:101420000FB60F9211242F938F939F93EF93FF93F7
:10143000E0915201F09153018081E0915801F091C7
:10144000590182FD1BC0908180915B018F5F8F737A
:1014500020915C01821741F0E0915B01F0E0EE5BCE
:10146000FE4F958F80935B01FF91EF919F918F913C
:101470002F910F900FBE0F901F9018958081F4CF81
:101480004F925F926F927F928F929F92AF92BF9294
:10149000CF92DF92EF92FF92CF93DF93CDB7DEB77B
:1014A00028970FB6F894DEBF0FBECDBF809018020C
:1014B00090901902A0901A02B0901B024090E40193
:1014C0005090E5016090E6017090E701C090F8014E
:1014D000D090F901E090FA01F090FB01A501940190
:1014E0000E94871769837A838B839C8320E030E096
:1014F00040E450E40E94031A6D837E838F839887B3
:10150000A3019201C501B4010E9496194B015C012F
:10151000A3019201C301B2010E9496192B013C0163
:10152000A7019601C701B6010E9488179B01AC0173
:10153000C301B2010E94F9179B01AC01C501B401BE
:101540000E9487172091F4013091F5014091F60136
:101550005091F7010E94881729813A814B815C8163
:101560000E949619209138023091390240913A0236
:1015700050913B020E9488174B015C01A701960124
:101580006D817E818F8198850E94961920E030E0E0
:1015900040EC50E40E94F9179B01AC01C501B40175
:1015A0000E94881728960FB6F894DEBF0FBECDBFF5
:1015B000DF91CF91FF90EF90DF90CF90BF90AF90F1
:1015C0009F908F907F906F905F904F9008952F9293
:1015D0003F924F925F926F927F928F929F92AF92C3
:1015E000BF92CF92DF92EF92FF920F931F93CF9310
:1015F000DF93CDB7DEB729970FB6F894DEBF0FBEE5
:10160000CDBF998788876983F22EDC011D921C92D9
:10161000FC011282138214821582168217821086B0
:10162000118612861386148615868EEA97E4A1EA3F
:10163000BFE386879787A08BB18BDF01128A138A5D
:10164000148A158A068F5F966C935F9790964C93D9
:101650009097EE24E3949296EC9292979396EC9264
:10166000939782E094968C930E940C020E94F7015B
:10167000888599858D5B9F4F9B838A838885998513
:101680004696AA81BB818D939C93E885F985EF5B93
:10169000FF4FFD83EC838885998502969183808333
:1016A000E885F985EB5BFF4F888599854A9691839C
:1016B000808328843984FFE52F0E311CD1011C92D0
:1016C000C884D984B7E5CB0ED11CF60110821182F3
:1016D0001282138288859985855A9F4F9F838E83B6
:1016E00080E090E0AFE7B3E4EE81FF8180839183F7
:1016F000A283B383088519850D5A1F4F84E6882E6F
:10170000912CA12CB12CD8018D929D92AD92BC92BE
:101710001397E885F98516AE15AEFF9681E090E047
:1017200091838083E885F985E05AFF4FE08280E06D
:1017300090E0A0E0B0E4E885F98585A396A3A7A38F
:10174000B0A740E050E060E272E441A752A763A76F
:1017500074A74DEC5CEC6CE07FE345A756A767A748
:1017600070AB81AB92ABA3ABB4AB80E090E0A0E8F0
:10177000B0E485AB96ABA7ABB0AF80E090E0A0EB58
:10178000B0E481AF92AFA3AFB4AF2FB7F89480911C
:101790003D0190913E01A0913F01B09140012FBFCA
:1017A000F8014081518162817381E885F985E95BA7
:1017B000FF4F841B950BA60BB70B80839183A283ED
:1017C000B383CB01BA010E94A1189B01AC0160E078
:1017D00070E088EC92E40E94F9172B013C01AC0107
:1017E0009B01A885B985D5966D917D918D919C9130
:1017F000D8970E949619E885F98565AB76AB87ABDB
:1018000090AFA301920161AD72AD83AD94AD0E9422
:10181000F917A885B985D9966D937D938D939C937F
:10182000DC97F80180829182A282B3820E940C022E
:10183000F3E0FF1609F462C084E0F81609F46CC006
:1018400092E0F91609F445C00E94F701A885B98510
:101850009396FC92939782E094968C93F101808109
:10186000811175C0AA81BB81ED91FC91808091802E
:10187000A280B380E884F984BBE4EB0EF11CF7018D
:1018800080829182A282B382AC81BD81ED91FC9174
:1018900080819181A281B381E885F985E15BFF4F69
:1018A00080839183A283B383EE81FF814080518046
:1018B00062807380A3019201C501B4010E94911955
:1018C0001816C4F5D7014D925D926D927C921397D4
:1018D0003EC0809141018D7E809341010E949B0119
:1018E0008091B00083628093B000F092B1001092BA
:1018F000B40061E083E00E94C601A8CF809141015D
:101900008F75809341010E949B0184B5836884BDDB
:1019100017BC61E086E0EFCF809141018E7B809320
:1019200041010E949B0184B5836284BD18BC61E0C3
:1019300085E0E1CFF6014080518062807380A30191
:101940009201C501B4010E94F41787FDBBCF81E06D
:10195000F1018083D8016D917D918D919C910E94C0
:10196000A1189B01AC0160E070E088EC92E40E9459
:10197000F9174B015C01AC019B01E885F98565A96C
:1019800076A987A990AD0E949619A885B985D596A4
:101990006D937D938D939C93D897A5019401D996CF
:1019A0006D917D918D919C91DC970E94F917E8854E
:1019B000F98561AF72AF83AF94AF84E690E0A0E0A9
:1019C000B0E0F80180839183A283B38360E08981D2
:1019D00029960FB6F894DEBF0FBECDBFDF91CF9131
:1019E0001F910F91FF90EF90DF90CF90BF90AF903D
:1019F0009F908F907F906F905F904F903F902F902F
:101A00000C94C6014F925F926F927F928F929F9239
:101A1000AF92BF92CF92DF92EF92FF920F93CF934C
:101A2000DF9300D000D0CDB7DEB7E2E4F1E013825F
:101A3000128288EE93E0A0E0B0E084839583A683D1
:101A4000B78388E091E09183808385EC90E095876F
:101A5000848784EC90E09787868780EC90E0918B78
:101A6000808B81EC90E0938B828B82EC90E0958B65
:101A7000848B86EC90E0978B868B118E128E138E62
:101A8000148E1092DF0101E021E030E042E163E0DA
:101A900081EB92E00E94E70A00E024E030E040E1C0
:101AA00062E080E592E00E94E70A80E090E0A0EC2E
:101AB000B0E4E0EEF1E080839183A283B38380E021
:101AC00090E0A0EAB0E48093E4019093E501A09354
:101AD000E601B093E70180E090E0A0E2B0E48093FB
:101AE000E8019093E901A093EA01B093EB0180E053
:101AF00090E0A0ECB1E48093EC019093ED01A09311
:101B0000EE01B093EF0180E090E0A0E8BFE38093A6
:101B1000F0019093F101A093F201B093F30180934F
:101B2000F4019093F501A093F601B093F70140E022
:101B300050E068E472E44093F8015093F901609337
:101B4000FA017093FB0140E050E060E271E44093E1
:101B5000FC015093FD016093FE017093FF01109210
:101B6000040210920502109206021092070240E051
:101B700050E06CEF70E440930C0250930D026093C0
:101B80000E0270930F021092100210921102109226
:101B90001202109213024DEC5CEC6CEC7DE340936E
:101BA00014025093150260931602709317028093EB
:101BB000180290931902A0931A02B0931B028DECA5
:101BC0009CECACE8BFE380931C0290931D02A093B1
:101BD0001E02B0931F02BC01CD010E94400A2B01DE
:101BE0003C01409208025092090260920A027092EF
:101BF0000B02AC019B0160E070E080EC91E40E947C
:101C0000871720E030E04CEF50E40E94871720E077
:101C100030E040EC50E40E94F9172DEC3CEC4CE82D
:101C20005FE30E9488176B017C01C0922002D09272
:101C30002102E0922202F092230220E030E040E80C
:101C40005EE30E94881769837A838B839C83609309
:101C5000240270932502809326029093270220E0AD
:101C600030E040E050E4C701B6010E9488174B0104
:101C70005C018092280290922902A0922A02B092DE
:101C80002B0220E030E040E85EE30E94881760937A
:101C90002C0270932D0280932E0290932F0260935A
:101CA000000270930102809302029093030210924B
:101CB00030021092310210923202109233028EEDF5
:101CC0009DEDADEDBDE38093340290933502A0937A
:101CD0003602B093370288E898E8A0E5B0E4809334
:101CE000380290933902A0933A02B0933B026DEC14
:101CF0007CEC8CE89FE30E94400A60933C02709366
:101D00003D0280933E0290933F022DEC3CEC4CE868
:101D10005FE3C701B6010E94871720E030E040EC86
:101D200050E40E949619A30192010E9488176093C3
:101D30004002709341028093420290934302698172
:101D40007A818B819C810E94DF06609344027093AC
:101D500045028093460290934702C501B4010E9458
:101D60005806609348027093490280934A02909308
:101D70004B0280E090E0A0ECB1E480934C029093A1
:101D80004D02A0934E02B0934F020F900F900F9010
:101D90000F90DF91CF910F91FF90EF90DF90CF9058
:101DA000BF90AF909F908F907F906F905F904F907B
:101DB0000895CF93DF93CDB7DEB765970FB6F8944C
:101DC000DEBF0FBECDBF789484B5826084BD84B57C
:101DD000816084BD85B5826085BD85B5816085BD26
:101DE00080916E00816080936E00109281008091DE
:101DF0008100826080938100809181008160809366
:101E00008100809180008160809380008091B1008A
:101E100084608093B1008091B00081608093B000B5
:101E200080917A00846080937A0080917A00826049
:101E300080937A0080917A00816080937A0080910B
:101E40007A00806880937A001092C100E09152017C
:101E5000F091530182E08083E0914E01F0914F01B7
:101E60001082E0915001F091510180E18083109245
:101E70005A01E0915601F091570186E08083E0918C
:101E80005401F0915501808180618083E09154017B
:101E9000F0915501808188608083E0915401F09138
:101EA0005501808180688083E0915401F091550153
:101EB00080818F7D808360E080E10E94C6018AE599
:101EC00094E09093010180930001809169008C7FE0
:101ED000816080936900E89A60E082E10E94C60117
:101EE0008EE594E090930301809302018091690054
:101EF000837F846080936900E99A1092C3021092F4
:101F0000C4021092C5021092C60210926202109290
:101F10006302109264021092650260E070E0CB01EF
:101F20000E94490280E592E00E94E4036B017C017B
:101F300081EB92E00E94E4039B01AC01C701B60172
:101F40000E94881720E030E040E05FE30E9496198D
:101F50002B013C0120913402309135024091360230
:101F6000509137022D873E874F87588B0E94F41778
:101F700087FFB9C0C090F801D090F901E090FA0154
:101F8000F090FB0120E030E040E450E4C701B601EE
:101F90000E94031A6D837E838F8398878091F4015A
:101FA0009091F501A091F601B091F70189839A8390
:101FB000AB83BC8320E030E040E450E4BC01CD01C1
:101FC0000E94031A69877A878B879C8720E030E01C
:101FD00040E151E4C701B6010E949619A3019201A4
:101FE0000E949619A30192010E9496194B015C016F
:101FF00020E030E040E051E469857A858B859C855E
:102000000E9496199B01AC01C501B4010E9488177A
:102010002D813E814F8158850E9496190E94591A40
:102020004B015C0120E030E040E450E4C701B60120
:102030000E949619A70196010E949619A301920188
:102040000E949619A50194010E9488174B015C011A
:102050002BEA3AEA4AE25FE30E94031A2B013C01B1
:102060002BEA3AEA4AEA5EE3C501B4010E94031A88
:102070006D837E838F839887A7019601C701B60180
:102080000E94881729813A814B815C810E949619B0
:102090009B01AC01C301B2010E9487174B015C0197
:1020A0002D813E814F815885C701B6010E94961946
:1020B0009B01AC01C501B4010E94F9179B01AC0161
:1020C0000E949619A70196010E94961920E030E01F
:1020D00040E05FE30E94961929813A814B815C813F
:1020E0000E94881701C58090380290903902A09014
:1020F0003A02B0903B02A5019401C301B2010E94D3
:10210000F41787FFD7C02091140230911502409137
:1021100016025091170229833A834B835C83809087
:10212000E4019090E501A090E601B090E701809174
:10213000F8019091F901A091FA01B091FB01898712
:102140009A87AB87BC872091F4013091F5014091CB
:10215000F6015091F7012D833E834F8358872981E3
:102160003A814B815C81CA01B9010E949619298587
:102170003A854B855C850E94961920E030E040E06E
:102180005FE30E9496192D813E814F8158850E9400
:1021900088176B017C0120E030E040E050EC6D8559
:1021A0007E858F8598890E949619A50194010E94C9
:1021B00096196D877E878F87988BA7019601C70137
:1021C000B6010E9496199B01AC016D857E858F85B5
:1021D00098890E9488176D877E878F87988BA501C5
:1021E0009401C501B4010E948817A30192010E94C5
:1021F00096199B01AC016D857E858F8598890E941B
:1022000088170E94591A9B01AC01C701B6010E94B0
:1022100088176B017C01A501940169817A818B810A
:102220009C810E9496199B01AC01C701B6010E94D6
:1022300087176B017C012D813E814F815885CA0132
:10224000B9010E9488179B01AC01C701B6010E9429
:102250008717A50194010E94F91729813A814B81C2
:102260005C810E948817A50194010E9496196B0158
:102270007C01A5019401C501B4010E9496194B018E
:102280005C0129853A854B855C85CA01B9010E94AC
:1022900088179B01AC01C501B4010E94F9179B018D
:1022A000AC01C701B6010E9487172D813E814F8185
:1022B000588516CF20913C0230913D0240913E025C
:1022C00050913F02C301B2010E94F41787FF15C16C
:1022D000C090F801D090F901E090FA01F090FB0174
:1022E00020E030E040E450E4C701B6010E94031A48
:1022F000698B7A8B8B8B9C8BA5019401C301B201F6
:102300000E94871769837A838B839C83809118024C
:1023100090911902A0911A02B0911B028D839E83A5
:10232000AF83B8878090E4019090E501A090E6012A
:10233000B090E701A7019601C701B6010E94881776
:1023400069877A878B879C87A50194016D817E813F
:102350008F8198850E9496192B013C01A50194015B
:10236000C501B4010E94961929853A854B855C8583
:102370000E94F9179B01AC01C301B2010E948717AB
:102380002091F4013091F5014091F6015091F7014F
:102390000E9488176D877E878F87988B20E030E0BA
:1023A00040E450E40E94031A2B013C0120E030E09D
:1023B00040E151E4C701B6010E9496194B015C014E
:1023C00029813A814B815C81CA01B9010E94961929
:1023D0009B01AC01C501B4010E9496194B015C013F
:1023E00020E030E040E051E4C301B2010E949619C0
:1023F0009B01AC01C501B4010E94881729893A8963
:102400004B895C890E9496190E94591A4B015C0104
:10241000A7019601C701B6010E94961920E030E09D
:1024200040E450E40E94961929813A814B815C81F5
:102430000E949619A50194010E9488174B015C0126
:102440002BEA3AEA4AE25FE30E94031A2B013C01BD
:102450002BEA3AEA4AEA5EE3C501B4010E94031A94
:102460004B015C012D853E854F85588969857A85AC
:102470008B859C850E9496199B01AC01C301B2011A
:102480000E9487172B013C01A5019401C701B601E9
:102490000E9496199B01AC01C301B2010E94F91779
:1024A0002D813E814F8158850E94881720911C0202
:1024B00030911D0240911E0250911F020E94871709
:1024C000F7FAF094F7F8F0949B01AC010E9496198A
:1024D0009B01AC01C701B6010E94961920E030E0D3
:1024E00040E05FE30E9496192091E0013091E10104
:1024F0004091E2015091E301F3CD209140023091EF
:1025000041024091420250914302C301B2010E9434
:10251000F41787FF9AC1C090E001D090E101E090EC
:10252000E201F090E30120E030E0A901C701B6012B
:102530000E94F417882309F4B2C420E030E040E799
:1025400052E4C701B6010E94961926E836E54DEF20
:1025500050E40E94F9174B015C018092CB029092EB
:10256000CC02A092CD02B092CE0281EB92E00E940A
:10257000940480926A0290926B02A0926C02B092D4
:102580006D0280E592E00E94940480E592E00E9452
:10259000E4034B015C0181EB92E00E94E4039B01A8
:1025A000AC01C501B4010E94881720E030E040E092
:1025B0005FE30E94961942E00E94740882E291E073
:1025C0000E9423082FB7F89460913D0170913E015D
:1025D00080913F01909140012FBF0E94A11820E0FF
:1025E00030E04AE754E40E94F91742E00E94740880
:1025F00082E291E00E94230842E0C701B6010E94F6
:10260000740882E291E00E9423082FB7F894609149
:102610003D0170913E0180913F01909140012FBF9B
:102620000E94A11820E030E04AE754E40E94F91724
:102630006B017C0120911402309115024091160229
:10264000509117020E94F41787FF2FC3A70196012C
:10265000C701B6010E9496192091F8013091F90145
:102660004091FA015091FB010E94961920E030E060
:1026700040E05FE30E9496192091F4013091F5014A
:102680004091F6015091F7010E94881742E00E94A4
:10269000740882E291E00E94230820915202309156
:1026A000530240915402509155026091B3027091CF
:1026B000B4028091B5029091B6020E94881720E082
:1026C00030E040E05FE30E9496199B01AC010E945C
:1026D000881728ED3FE049E450E40E9496192EEA5D
:1026E00037E441EA5FE30E94961920E030E040E7DA
:1026F00052E40E94F91742E00E94740885E291E0DA
:102700000E9423086091B1027091B202072E000C62
:10271000880B990B0E94A31820E030E040EF54E4AE
:102720000E94F9172DEC3CEC4CEC5DE30E94F9178C
:1027300020E030E040E752E40E9496196093B30233
:102740007093B4028093B5029093B6022091B702C1
:102750003091B8024091B9025091BA026091BB0227
:102760007091BC028091BD029091BE020E94DE1861
:1027700020E030E040EF54E40E94F9176093C30278
:102780007093C4028093C5029093C6021092B20265
:102790001092B1026091500270915102072E000C0C
:1027A000880B990B0E94A31820E030E040EF54E41E
:1027B0000E94F9172DEC3CEC4CEC5DE30E94F917FC
:1027C00020E030E040E752E40E9496196093520204
:1027D00070935302809354029093550220915602B5
:1027E00030915702409158025091590260915A021B
:1027F00070915B0280915C0290915D020E94DE18F4
:1028000020E030E040EF54E40E94F9176093620248
:102810007093630280936402909365021092510258
:102820001092500264E670E080E090E00E9449025D
:10283000A0E0B0E0AB2B09F475CB0E94E70288233F
:1028400009F470CB0E9400006DCB209144023091BE
:1028500045024091460250914702C301B2010E94D5
:10286000F41787FFCCC010910402909105029D8B54
:10287000A0910602A98B00910702309020022090BF
:102880002102B0912202B983209123022D83232DAE
:10289000322D4B2F5D81612F792F8A2F902F0E942F
:1028A000911918162CF0132D2D8A3981398B0D8131
:1028B000812F9D89A989B02F8093040290930502EE
:1028C000A0930602B09307028091FC019091FD0154
:1028D000A091FE01B091FF019C01AD0150582987E4
:1028E0003A874B875C878091E0019091E101A0914C
:1028F000E201B091E3018D879E87AF87B88B612F8E
:102900007D898989902F0E94DF064B015C01232D70
:10291000322D49815D81612F7D898989902F0E94A7
:1029200087176B017C01A3019201C501B4010E94CC
:1029300087174B015C01A7019601C701B6010E94F0
:10294000961929853A854B855C850E94961920E069
:1029500030E040E05FE30E9496192D853E854F856B
:1029600058890E9488179B01AC01C501B4010E94DF
:10297000F9179B01AC01612F7D898989902F0E94F5
:102980008717162F7D8B898B092F0E94DF06A301E5
:1029900092010E9487179F772FE632E143E85AE3BE
:1029A0000E94F41787FFABCF812F9D89A989B02F93
:1029B0008093040290930502A0930602B09307024D
:1029C000232D322D49815D81612F792F8A2F902F00
:1029D0000E9487179B01AC010E94961929853A85B0
:1029E0004B855C850E94961920E030E040E05FE373
:1029F0000E9496192D853E854F85588971CB20916F
:102A000048023091490240914A0250914B02C30161
:102A1000B2010E94F41787FF6AC0C0900402D090F0
:102A20000502E0900602F090070200912402109146
:102A30002502909126029D83A0912702A9839801E7
:102A4000492F5A2FB601C7010E94911918161CF47C
:102A50008601ED82F982C801AD81B98180930402BB
:102A600090930502A0930602B0930702B8018D81EE
:102A700099810E945806A30192010E9487176B0159
:102A80007C01B8018D8199810E94CD009B01AC0130
:102A9000C701B6010E94F9179B01AC01B8018D81F5
:102AA00099810E9487178B018D8399830E94580614
:102AB000A30192010E9487179F772FE632E143E836
:102AC0005AE30E94F41787FFD1CFC801AD81B981C5
:102AD0008093040290930502A0930602B09307022C
:102AE000B801CD010E94CD006B017C011CCD20916D
:102AF0004C0230914D0240914E0250914F02C30161
:102B0000B2010E94F41787FFCAC1C0900402D0909E
:102B10000502E0900602F090070210912802B091A1
:102B20002902B98B20912A022D8700912B02212F97
:102B30003B2F4D85502FB601C7010E9491191816E1
:102B400024F41C2DD98AED860F2D812F9989AD850E
:102B5000B02F8093040290930502A0930602B093D5
:102B600007028091FC019091FD01A091FE01B091BE
:102B7000FF0189839A83AB83BC8320912C0230911F
:102B80002D0240912E0250912F022D833E834F83C0
:102B900058878091F0019091F101A091F201B091DC
:102BA000F30189879A87AB87BC87612F79898D85E7
:102BB000902F0E9430074B015C012D813E814F8197
:102BC0005885612F79898D85902F0E9487176B0119
:102BD0007C01A3019201C501B4010E9487174B013A
:102BE0005C01A7019601C701B6010E9496192981CF
:102BF0003A814B815C810E94961920E030E040E0F0
:102C00005FE30E94961929853A854B855C850E9471
:102C100088179B01AC01C501B4010E94F9179B0103
:102C2000AC01612F79898D85902F0E948717162F0F
:102C3000798B8D87092F0E943007A30192010E9492
:102C400087179F772FE632E143E85AE30E94F41793
:102C500087FFABCF812F9989AD85B02F8093040278
:102C600090930502A0930602B09307022D813E8146
:102C70004F815885612F792F8A2F902F0E948717B7
:102C80009B01AC010E94961929813A814B815C819C
:102C90000E94961920E030E040E05FE30E94961920
:102CA00029853A854B855C851BCA20911802309195
:102CB000190240911A0250911B02C701B6010E94ED
:102CC000F41787FF31C08090E4019090E501A09057
:102CD000E601B090E701A5019401C701B6010E9489
:102CE00096196B017C01A5019401C501B4010E94F4
:102CF00096194B015C016091F8017091F901809186
:102D0000FA019091FB019B01AC010E9488179B0185
:102D1000AC01C501B4010E94F9179B01AC01C701C8
:102D2000B6010E948717A8CC80901C0290901D02CB
:102D3000A0901E02B0901F02A5019401C701B60128
:102D40000E94F41787FF2BC0A5019401C701B601AB
:102D50000E948717C090F801D090F901E090FA0125
:102D6000F090FB01F7FAF094F7F8F0949B01AC01B6
:102D70000E9496199B01AC01C701B6010E949619E9
:102D800020E030E040E05FE30E9496192091E001EE
:102D90003091E1014091E2015091E30175CC8090C6
:102DA000200290902102A0902202B0902302A5015F
:102DB0009401C701B6010E94F41787FF09C0609112
:102DC000E0017091E1018091E2019091E3015ECC1C
:102DD0002091240230912502409126025091270231
:102DE000C701B6010E94F41787FF0FC0A501940127
:102DF000C701B6010E948717C090FC01D090FD0169
:102E0000E090FE01F090FF01ADCF209128023091BB
:102E1000290240912A0250912B02C701B6010E945B
:102E2000F41787FF05C0C701B6010E94CD002ECC64
:102E300080902C0290902D02A0902E02B0902F0234
:102E4000A5019401C701B6010E94F41787FF23C0B2
:102E5000A5019401C701B6010E9487179B01AC012F
:102E60000E9496192091FC013091FD014091FE01D4
:102E70005091FF010E94961920E030E040E05FE3AE
:102E80000E9496192091F0013091F1014091F201D8
:102E90005091F301F9CB60E070E0CB01F7CB88E211
:102EA00091E00E94230885E291E00E9423088DE2D0
:102EB00091E00E9423082091C3023091C402409106
:102EC000C5025091C60260916202709163028091C6
:102ED0006402909165020E94881720E030E040E093
:102EE0005FE30E94961942E00E94740870E060E07F
:102EF00081EB92E00E94620470E060E080E592E085
:102F00000E94620460E07AEC8AE99BE38FCC50581F
:102F1000BB27AA270E949F170C9457190E94491992
:102F200038F00E94501920F039F49F3F19F426F42C
:102F30000C9446190EF4E095E7FB0C944019E92F28
:102F40000E94681958F3BA17620773078407950738
:102F500020F079F4A6F50C948A190EF4E0950B2E66
:102F6000BA2FA02D0B01B90190010C01CA01A001DB
:102F70001124FF27591B99F0593F50F4503E68F136
:102F80001A16F040A22F232F342F4427585FF3CF77
:102F9000469537952795A795F0405395C9F77EF448
:102FA0001F16BA0B620B730B840BBAF09150A1F091
:102FB000FF0FBB1F661F771F881FC2F70EC0BA0F17
:102FC000621F731F841F48F4879577956795B7959F
:102FD000F7959E3F08F0B0CF9395880F08F099279A
:102FE000EE0F9795879508950E941C1908F481E0CB
:102FF00008950E940D180C9457190E94501958F00A
:103000000E94491940F029F45F3F29F00C944019BF
:1030100051110C948B190C9446190E94681968F38D
:103020009923B1F3552391F3951B550BBB27AA2781
:1030300062177307840738F09F5F5F4F220F331FBB
:10304000441FAA1FA9F335D00E2E3AF0E0E832D083
:1030500091505040E695001CCAF72BD0FE2F29D086
:10306000660F771F881FBB1F261737074807AB0758
:10307000B0E809F0BB0B802DBF01FF2793585F4FCD
:103080003AF09E3F510578F00C9440190C948B193E
:103090005F3FE4F3983ED4F3869577956795B795AF
:1030A000F7959F5FC9F7880F911D9695879597F9BA
:1030B0000895E1E0660F771F881FBB1F6217730733
:1030C0008407BA0720F0621B730B840BBA0BEE1F48
:1030D00088F7E09508950E9472186894B1110C94D5
:1030E0008B1908950E94701988F09F5798F0B92F96
:1030F0009927B751B0F0E1F0660F771F881F991F2D
:103100001AF0BA95C9F714C0B13091F00E948A192B
:10311000B1E008950C948A19672F782F8827B85F3B
:1031200039F0B93FCCF3869577956795B395D9F784
:103130003EF490958095709561957F4F8F4F9F4F8E
:103140000895E89409C097FB3EF49095809570959A
:1031500061957F4F8F4F9F4F9923A9F0F92F96E9E3
:10316000BB279395F695879577956795B795F11158
:10317000F8CFFAF4BB0F11F460FF1BC06F5F7F4FF5
:103180008F4F9F4F16C0882311F096E911C0772307
:1031900021F09EE8872F762F05C0662371F096E810
:1031A000862F70E060E02AF09A95660F771F881FDF
:1031B000DAF7880F9695879597F90895E894F92F8F
:1031C00096EBFF2381F0121613061406440B939519
:1031D000F69587957795679557954040FF23B9F702
:1031E0001BC099270895882351F49850D2F7872B54
:1031F000762F652F542F432F322F20E0B1F3121674
:1032000013061406440B88233AF09A95440F551F71
:10321000661F771F881FCAF755234AF4440F551FAE
:1032200011F460FF04C06F5F7F4F8F4F9F4F880F77
:103230009695879597F90895990F0008550FAA0B51
:10324000E0E8FEEF16161706E807F907C0F01216B9
:103250001306E407F50798F0621B730B840B950BBC
:1032600039F40A2661F0232B242B252B21F4089511
:103270000A2609F4A140A6958FEF811D811D0895AE
:1032800097F99F6780E870E060E008959FEF80EC19
:10329000089500240A9416161706180609060895BC
:1032A00000240A9412161306140605060895092E22
:1032B0000394000C11F4882352F0BB0F40F4BF2B91
:1032C00011F460FF04C06F5F7F4F8F4F9F4F0895D1
:1032D00057FD9058440F551F59F05F3F71F04795C7
:1032E000880F97FB991F61F09F3F79F087950895AC
:1032F000121613061406551FF2CF4695F1DF08C0CB
:10330000161617061806991FF1CF869571056105E7
:1033100008940895E894BB2766277727CB0197F98F
:1033200008950E941C1908F48FEF08950E94A919AE
:103330000C9457190E94491938F00E94501920F036
:10334000952311F00C9440190C94461911240C94F7
:103350008B190E94681970F3959FC1F3950F50E087
:10336000551F629FF001729FBB27F00DB11D639F37
:10337000AA27F00DB11DAA1F649F6627B00DA11DDD
:10338000661F829F2227B00DA11D621F739FB00D83
:10339000A11D621F839FA00D611D221F749F3327F3
:1033A000A00D611D231F849F600D211D822F762F8C
:1033B0006A2F11249F5750409AF0F1F088234AF069
:1033C000EE0FFF1FBB1F661F771F881F91505040D5
:1033D000A9F79E3F510580F00C9440190C948B196D
:1033E0005F3FE4F3983ED4F3869577956795B7955C
:1033F000F795E7959F5FC1F7FE2B880F911D969576
:10340000879597F90895FA01EE0FFF1F3096210571
:103410003105A1F16115710561F48038BFE39B07A7
:1034200049F168949038810561F08038BFEF9B07BF
:1034300041F099234AF5FF3FE1053105210519F1D6
:10344000E8940894E795D901AA2329F4AB2FBE2F5D
:10345000F85FD0F310C0FF5F70F4A695E0F7F7397E
:1034600050F019F0FF3A38F49F779F930DD00F90EA
:1034700007FC9058089546F00C94461960E070E0FF
:1034800080E89FE308954FE79F775F934F933F93C3
:103490002F930E945E1B2F913F914F915F910E944D
:1034A00096190C94A61A19F416F40C9446190C9457
:1034B000D81A0E947019B8F39923C9F3B6F39F572D
:1034C000550B87FF0E94E61A0024A0E640EA90010F
:1034D00080585695979528F4805C660F771F881F53
:1034E00020F026173707480730F4621B730B840B54
:1034F000202931294A2BA695179407942025312598
:103500004A2758F7660F771F881F20F026173707BE
:10351000480730F4620B730B840B200D311D411DE5
:10352000A09581F7B901842F9158880F96958795BA
:1035300008950E941C19880B990B089529F416F020
:103540000C9440190C948A190C9446190E94701915
:10355000A8F39638A0F707F80F92E8942BE33AEA1D
:1035600048EB5FE70E94AC190F920F920F924DB794
:103570005EB70F920E94A61BE8E6F0E00E94ED1AEB
:103580004F915F91EF91FF91E595EE1FFF1F49F07D
:10359000FE57E0684427EE0F441FFA95E1F7419586
:1035A000550B0E94201B0F9007FE0C94141B0895CE
:1035B0009F3F31F0915020F4879577956795B795A7
:1035C000880F911D9695879597F9089591505040D1
:1035D000660F771F881FD2F70895DF93CF931F934D
:1035E0000F93FF92EF92DF927B018C01689406C0EB
:1035F000DA2EEF010E94A919FE01E894A591259108
:10360000359145915591A6F3EF010E949F17FE0158
:103610009701A801DA9469F7DF90EF90FF900F917E
:103620001F91CF91DF9108959B01AC0160E070E0A4
:1036300080E89FE30C94F9170C9440190C94D81A65
:103640000E947019D8F39923C9F3940F511DA3F365
:103650009150504094F059F0882332F0660F771F54
:10366000881F91505040C1F79E3F51052CF7880F9D
:10367000911D9695879597F908955F3FACF0983E18
:103680009CF0BB27869577956795B79508F4B16050
:103690009395C1F7BB0F58F711F460FFE8CF6F5F48
:1036A0007F4F8F4F9F4FE3CF0C948B1916F00C94E4
:1036B000D81A0C94461968940C9440190E947019F9
:1036C000A8F39923C1F3AEF3DF93CF931F930F9326
:1036D000FF92C92FDD2788232AF02197660F771FD5
:1036E000881FDAF720E030E040E85FEB9FE388399D
:1036F00020F0803E38F021968F770E948817E0E90D
:10370000F0E004C00E948817EDEBF0E00E94ED1A93
:103710008B01BE01EC01FB2E6F5771097595771F68
:10372000880B990B0E94A31828E132E741E35FE37D
:103730000E94A919AF2D9801AE01FF900F911F9122
:10374000CF91DF910E949F170C945719FA01DC0169
:10375000AA0FBB1F9B01AC01BF5728F422273327B8
:103760004427507820C0B75190F4AB2F00244695E1
:1037700037952795011CA395D2F3002071F0220FF5
:10378000331F441FB395DAF30ED00C9487176130C2
:103790007105A0E88A07B94630F49B01AC016627A1
:1037A000772788279078309621F0208331834283D1
:1037B00053830895A1E21A2EAA1BBB1BFD010DC065
:1037C000AA1FBB1FEE1FFF1FA217B307E407F507D1
:1037D00020F0A21BB30BE40BF50B661F771F881FAD
:1037E000991F1A9469F760957095809590959B0143
:1037F000AC01BD01CF0108950024A7FD00942A0F5C
:10380000301D401D501D601D701D801D901D0895B0
:10381000EE0FFF1F0590F491E02D0994F894FFCF6F
:103820007C027C02000000001D037D02AA026A03E4
:10383000DB02B902CD026E616E00696E66006F76C2
:1038400066002C20000D0A00446F6E6500726F74D4
:083850006174696F6E733A00A8
:00000001FF
