:020000040000FA
:100000000C94A3000C94E00D0C94B90D0C94CB004F
:100010000C94CB000C94CB000C94CB000C94CB0034
:100020000C94CB000C94CB000C94CB000C94CB0024
:100030000C94CB000C94CB000C94CB000C94CB0014
:100040000C946F0D0C94CB000C942D0E0C94070E99
:100050000C94CB000C94CB000C94CB000C94CB00F4
:100060000C94CB000C94CB0007634236B79BD8A707
:100070001A39685618AEBAAB558C1D3CB7CC5763CD
:10008000BD6DEDFD753EF6177231BF000000803F7B
:1000900008000000BE922449123EABAAAA2ABECD97
:1000A000CCCC4C3E00000080BEABAAAAAA3E000009
:1000B0000000BF000000803F000000000008417801
:1000C000D3BB4387D1133D190E3CC3BD4282AD2B38
:1000D0003E68EC8276BED98FE1A93E4C80EFFFBE30
:1000E00001C4FF7F3F00000000000000000024006A
:1000F00027002A0000000000250028002B00000037
:10010000000023002600290004040404040404045D
:1001100002020202020203030303030301020408B2
:100120001020408001020408102001020408102061
:1001300000000008000201000003040700000000A6
:10014000000000002E1011241FBECFEFD8E0DEBF4C
:10015000CDBF11E0A0E0B1E0EEEEFAE302C0059001
:100160000D92A234B107D9F723E0A2E4B1E001C0B7
:100170001D92AC30B207E1F710E0C3EAD0E004C052
:100180002197FE010E946F1DC23AD107C9F70E9454
:10019000BA100C94751D0C940000833081F028F483
:1001A000813099F08230A9F008958730A9F0883025
:1001B000C9F08430B1F4809180008F7D03C08091BC
:1001C00080008F7780938000089584B58F7784BDF9
:1001D000089584B58F7DFBCF8091B0008F77809399
:1001E000B00008958091B0008F7DF9CFCF93DF9359
:1001F000282F30E0F901E05DFE4F8491F901E45EC3
:10020000FE4FD491F901E85FFE4FC491CC23A1F0D9
:1002100081110E94CD00EC2FF0E0EE0FFF1FE250A5
:10022000FF4FA591B491EC91ED2381E090E009F4AA
:1002300080E0DF91CF91089580E090E0FACF1F93A6
:10024000CF93DF93282F30E0F901E05DFE4F8491DA
:10025000F901E45EFE4FD491F901E85FFE4FC491CD
:10026000CC23A9F0162F81110E94CD00EC2FF0E0D5
:10027000EE0FFF1FEC50FF4FA591B4918FB7F8948C
:10028000EC91111108C0D095DE23DC938FBFDF9174
:10029000CF911F910895DE2BF8CFCF93DF9360E0CD
:1002A0008CE00E941F0160E088E00E941F01C7E00F
:1002B000D0E060E084E00E941F0180914B0190E05B
:1002C0000C2E02C0959587950A94E2F761E080FFB5
:1002D00060E088E00E941F0161E084E00E941F014D
:1002E000219738F761E08CE0DF91CF910C941F01EA
:1002F000CF93DF9390E0FC01E45EFE4F2491885F92
:100300009E4FFC0184918823D1F090E0880F991FC3
:10031000FC01E651FF4FA591B491FC01EC50FF4F59
:10032000C591D49161110EC09FB7F8948C91E22FC2
:10033000E0958E238C932881E223E8839FBFDF9191
:10034000CF9108958FB7F894EC91E22BEC938FBF87
:10035000F6CF80914B01837F80934B010E944D012A
:10036000E0EBF0E080818368808382E08093B100DD
:100370001092B30061E08BE00C94780161E08CE0B6
:100380000E94780161E087E00E94780161E088E0E6
:100390000E94780161E084E00E94780110924B0194
:1003A0000E944D0160E087E00C941F013FB7F89474
:1003B0008091430190914401A0914501B091460183
:1003C00026B5A89B05C02F3F19F00196A11DB11DB0
:1003D0003FBFBA2FA92F982F8827BC01CD01620FEC
:1003E000711D811D911D42E0660F771F881F991FA7
:1003F0004A95D1F708958F929F92AF92BF92CF9274
:10040000DF92EF92FF926B017C010E94D6014B01BB
:100410005C01C114D104E104F104B9F00E94D601D9
:10042000681979098A099B09683E7340810591051D
:1004300080F321E0C21AD108E108F10888EE880EA5
:1004400083E0981EA11CB11CE4CFFF90EF90DF90D9
:10045000CF90BF90AF909F908F9008950895AF92E6
:10046000BF92CF92DF92EF92FF920F931F93CF93A1
:10047000DF936C017B018B01040F151FEB015E0103
:10048000AE18BF08C017D10759F06991D601ED9198
:10049000FC910190F081E02DC6010995892B79F737
:1004A000C501DF91CF911F910F91FF90EF90DF90E9
:1004B000CF90BF90AF900895FC01538D448D252FB0
:1004C00030E0842F90E0821B930B541710F0CF96EE
:1004D000089501970895FC01918D828D981761F020
:1004E000A28DAE0FBF2FB11D5D968C91928D9F5F37
:1004F0009F73928F90E008958FEF9FEF0895FC0116
:10050000918D828D981731F0828DE80FF11D858DC8
:1005100090E008958FEF9FEF0895FC01918D228D5B
:10052000892F90E0805C9F4F821B91098F739927E0
:1005300008958CE491E00E948D0221E0892B09F45A
:1005400020E0822F089580E090E0892B29F00E941E
:10055000990281110C9400000895FC01A48DA80F4C
:10056000B92FB11DA35ABF4F2C91848D90E00196F5
:100570008F739927848FA689B7892C93A089B18915
:100580008C91837080648C93938D848D981306C0B6
:100590000288F389E02D80818F7D80830895EF921A
:1005A000FF920F931F93CF93DF93EC0181E0888F2D
:1005B0009B8D8C8D98131AC0E889F989808185FFFD
:1005C00015C09FB7F894EE89FF896083E889F9899F
:1005D00080818370806480839FBF81E090E0DF91A1
:1005E000CF911F910F91FF90EF900895F62E0B8DF4
:1005F00010E00F5F1F4F0F731127E02E8C8D8E11AF
:100600000CC00FB607FCFACFE889F989808185FF15
:10061000F5CFCE010E94AD02F1CFEB8DEC0FFD2F97
:10062000F11DE35AFF4FF0829FB7F8940B8FEA89D0
:10063000FB8980818062CFCFCF93DF93EC01888DDF
:100640008823B9F0AA89BB89E889F9898C9185FD4D
:1006500003C0808186FD0DC00FB607FCF7CF8C91DB
:1006600085FFF2CF808185FFEDCFCE010E94AD02E4
:10067000E9CFDF91CF910895FC018081823069F04C
:1006800028F423E092E0813051F00895833011F195
:1006900026E090E0843019F0089524E091E0623083
:1006A000E1F0643079F1613009F03FC041E050E0A1
:1006B000BA0101C0660F9A95EAF780914B01862B2B
:1006C00001C0440F2A95EAF74095482340934B0117
:1006D0000C944D0127E095E0E2CF41E050E0BA01F3
:1006E00002C0660F771F9A95E2F7CB018095909133
:1006F0004B01892301C0440F2A95EAF7842B80938C
:100700004B01E6CF41E050E0FA0102C0EE0FFF1FBF
:100710009A95E2F7CF0101C0440F2A95EAF7842B9E
:10072000809590914B018923EACF0895CF93DF9371
:10073000EC016C817D81072E000C880B990B0E94C7
:10074000541A20E030E040EF54E40E94AA196A876E
:100750007B878C879D879B01AC010E9439192BED0B
:100760003FE049E450E40E94091B2E813F81488507
:1007700059850E94091BDF91CF9108950F931F9314
:10078000CF93DF93EC018F890E94F6008C01898D55
:1007900081110DC00130110551F4888D0E94F600C1
:1007A0009C019A8D21153105E1F491111A8E098F62
:1007B0002E89688179818A819B810C811D813A8D86
:1007C000311117C0211117C020E030E040E85FE38D
:1007D0000E943919688379838A839B830F5F1F4F37
:1007E00016C02130310519F79111E1CF81E08A8FD0
:1007F000DECF2111E9CF20E030E040E85FE30E9446
:100800003819688379838A839B83015011091D837A
:100810000C83DF91CF911F910F9108958AE592E0AB
:100820000C94BE0383EB92E00C94BE03FC01AC017C
:10083000455E5F4F9B0177FF04C022273327261BAD
:10084000370B938D9230C9F078F4913099F0868906
:10085000882319F07195619571091616170694F49D
:1008600061E0CA010C943C03933051F0943079F765
:1008700028BDEDCF2093B300EACF2093B400E7CF9B
:1008800027BDE5CF672B11F062E0EBCF64E0E9CF45
:10089000FC0101900020E9F73197AF01481B590B8B
:1008A000BC018CE491E00C942F028F929F92AF9246
:1008B000BF920F931F93CF93DF93CDB7DEB7A1976E
:1008C0000FB6F894DEBF0FBECDBF19A2423008F4B8
:1008D0004AE08E010F5D1F4F842E912CB12CA12C6C
:1008E000A50194010E944D1DE62FB901CA01EA300D
:1008F000F4F4E05DD801EE938D01232B242B252BFE
:1009000079F790E080E0109719F0CD010E9448043B
:10091000A1960FB6F894DEBF0FBECDBFDF91CF9189
:100920001F910F91BF90AF909F908F900895E95CB9
:10093000E1CF4F925F926F927F928F929F92AF9290
:10094000BF92CF92DF92EF92FF920F931F93CF93BC
:100950006B017C01742EAC019B010E940C1C88234E
:1009600099F086E191E0CF911F910F91FF90EF9068
:10097000DF90CF90BF90AF909F908F907F906F90BF
:100980005F904F900C94480446015701E894B7F8E3
:100990002FEF3FEF4FE75FE7C501B4010E940C1C4A
:1009A00081110DC02FEF3FEF4FE75FE7C501B401A5
:1009B0000E94A51918161CF48AE191E0D4CF2FEFFC
:1009C0003FEF4FE75FE4C701B6010E94041B181612
:1009D0001CF48EE191E0C7CF2FEF3FEF4FE75FECC4
:1009E000C701B6010E94A51987FDF3CF20E030E0D2
:1009F000A901C701B6010E94A51910E000E087FF18
:100A00000AC06DE28CE491E00E94CF028C01F7FAFB
:100A1000F094F7F8F094C0E060E070E080E09FE3CD
:100A20007C1641F020E030E040E251E40E94AA1937
:100A3000CF5FF6CFA70196010E9439192B013C0127
:100A40000E94231A4B015C014AE00E9455047C017C
:100A5000E00EF11ECC23C1F1C501B4010E94521A6F
:100A60009B01AC01C301B2010E9438194B015C012A
:100A70006EE28CE491E00E94CF02E80EF91EC150B4
:100A800018F120E030E040E251E4C501B4010E94D9
:100A9000091B2B013C010E94231A4B01B12CA12CF4
:100AA0004AE0C501B4010E945504E80EF91EC501D3
:100AB000B4010E94521A9B01AC01C301B2010E9411
:100AC00038194B015C01DBCFC701CF911F910F910A
:100AD000FF90EF90DF90CF90BF90AF909F908F905E
:100AE0007F906F905F904F9008952F923F924F921A
:100AF0005F926F927F928F929F92AF92BF92CF92AE
:100B0000DF92EF92FF920F931F93CF93DF93CDB7B6
:100B1000DEB765970FB6F894DEBF0FBECDBF9D8BD5
:100B20008C8B488B598B6A8B7B8BDC0152964D9357
:100B30005D936D937C935597FC01E95AFF4F80813B
:100B4000882309F41DC18FB7F89420914701309193
:100B500048014091490150914A012C873D874E87B9
:100B60005F878FBF789780819181A281B3814C8507
:100B70005D856E857F85481B590B6A0B7B0BEC8965
:100B8000FD89E55BFF4F80819181A281B381481788
:100B900059076A077B0708F4F3C0AC89BD89D99669
:100BA000ED91FC91DA9720813181428153812B8331
:100BB0003C834D835E83DD96ED91FC916081718174
:100BC000828193810E9438194B015C01EC89FD8977
:100BD000E95BFF4F20813181428153816B817C81B0
:100BE0008D819E810E9438196B017C01AC89BD8981
:100BF0009D962D913D914D915C91D097C501B40189
:100C00000E94091B0C891D890D5B1F4FF801208173
:100C10003181428153810E9439192B013C01D80155
:100C20004D925D926D927C921397EC89FD89E85A02
:100C3000FF4FB081BF83B11116C0EC89FD8921A59A
:100C400032A543A554A5C701B6010E94091B9B010B
:100C5000AC01C301B2010E943819D8016D937D9394
:100C60008D939C931397EC89FD89ED5BFF4FFA837D
:100C7000E9834080518062807380EC89FD89ED5A60
:100C8000FF4F20803180028113819101A801C301AF
:100C9000B2010E94041B18160CF0D1C0C101D8018A
:100CA000E981FA8180839183A283B383FF81FF234B
:100CB00009F4DCC0AC89BD8999962D913D914D9187
:100CC0005C919C97C501B4010E94091B4B015C011A
:100CD000EC89FD8921A932A943A954A9C701B6010C
:100CE0000E94091B9B01AC01EC89FD89ED5BFF4F64
:100CF00060817181828193810E943819A5019401DC
:100D00000E9439196B017C019B01AC01B101C80142
:100D10000E94A51987FD12C0EC89FD89E15BFF4F98
:100D200020803180028113819101A801B601C701A1
:100D30000E94A51987FD02C016018701AC89BD89F3
:100D4000DB96ED91FC91C101D80180839183A28350
:100D5000B383EC89FD89E95BFF4F2B813C814D8199
:100D60005E812083318342835383EC89FD89FF9622
:100D70008C859D85AE85BF8580839183A283B38357
:100D8000AC89BD8956968C91812C912C90E8A92E26
:100D90009FE3B92E882331F0812C912C80E8A82E76
:100DA0008FEBB82E2BE13AEC4BEA5FE36889798947
:100DB0008A899B890E94091B6B017C01EC89FD8952
:100DC00026853785408951890E943919A5019401EA
:100DD0000E94091B0E941C1A8C899D890E9416047E
:100DE00082E291E00E944804AC89BD891E962D9153
:100DF0003D914D915C915197C701B6010E943919FF
:100E000042E00E9499048BE291E065960FB6F89457
:100E1000DEBF0FBECDBFDF91CF911F910F91FF902D
:100E2000EF90DF90CF90BF90AF909F908F907F908A
:100E30006F905F904F903F902F900C944804EC89F6
:100E4000FD89E15BFF4F20813181428153812887F9
:100E500039874A875B87C301B2010E94A51987FFC2
:100E600025CF88859985AA85BB851ACF812C912CA1
:100E700054012ECF4F925F926F927F928F929F92EA
:100E8000AF92BF92CF92DF92EF92FF92CF93DF9318
:100E9000CDB7DEB764970FB6F894DEBF0FBECDBFF7
:100EA0002B013C018090360290903702A0903802CE
:100EB000B0903902C0903202D0903302E0903402F8
:100EC000F0903502A7019601C501B4010E943819BE
:100ED0006D837E838F8398878091060290910702AD
:100EE000A0910802B091090289839A83AB83BC83E5
:100EF000A5019401C301B2010E9438192B013C01E4
:100F000020E030E040E450E40E94761B6D877E874D
:100F10008F87988B8090F2019090F301A090F4015C
:100F2000B090F501D501C401B05889879A87AB8785
:100F3000BC8720E030E040E450E46D817E818F8109
:100F400098850E94761B698B7A8B8B8B9C8B20916A
:100F50002E0230912F024091300250913102C70190
:100F6000B6010E94381929853A854B855C850E9417
:100F7000091B6B017C01A5019401C501B4010E940C
:100F8000091B4B015C0129813A814B815C81CA01BB
:100F9000B9010E9439199B01AC01C501B4010E943D
:100FA000AA199B01AC01C701B6010E943819AAEE2B
:100FB000B1E02D913D914D915C910E9439192D81A7
:100FC0003E814F8158850E94091B6B017C012D8554
:100FD0003E854F85588969817A818B819C810E94E9
:100FE000091B20E030E040EC50E40E94AA19209157
:100FF00052023091530240915402509155020E9486
:1010000039199B01AC01C701B6010E9439196B0166
:101010007C012D813E814F815885CA01B9010E9412
:10102000091B29853A854B855C850E94091B20E0B8
:1010300030E040E05FE30E94091B9B01AC01C70167
:10104000B6010E9439196B017C0129893A894B89C3
:101050005C8969817A818B819C810E94091B20E0D7
:1010600030E040EC50E40E94AA199B01AC01C7019A
:10107000B6010E9439196B017C012091FA0130916F
:10108000FB014091FC015091FD01C301B2010E949E
:10109000091B9B01AC01C701B6010E943919649676
:1010A0000FB6F894DEBF0FBECDBFDF91CF91FF909A
:1010B000EF90DF90CF90BF90AF909F908F907F90F8
:1010C0006F905F904F9008954F925F926F927F92D2
:1010D0008F929F92AF92BF92CF92DF92EF92FF9248
:1010E000CF93DF93EC014A015B01FC01EC5BFF4F06
:1010F000C080D180E280F3803497208131814281A9
:101100005381C701B6010E9438192B013C01A70188
:101110009601C501B4010E9438196B017C018C8CC9
:101120009D8CAE8CBF8CB7FAB094B7F8B094A30185
:101130009201C301B2010E94091B9B01AC01C501D0
:10114000B4010E94091B20E030E040E05FE30E9410
:10115000091B288139814A815B810E943919A701C5
:1011600096010E94091BFE01EC59FF4F208131813D
:10117000428153810E9439194B015C01A7019601FC
:10118000C701B6010E94091B288539854A855B8500
:101190000E94091B20E030E040E05FE30E94091B51
:1011A0009B01AC01C501B4010E943819DF91CF91B8
:1011B000FF90EF90DF90CF90BF90AF909F908F9077
:1011C0007F906F905F904F9008958F929F92AF9213
:1011D000BF92CF92DF92EF92FF92CF93DF93EC0119
:1011E000CB01BA01FE01E05CFF4F208131814281D9
:1011F00053810E9438196B017C0120E030E040E40B
:1012000050E40E94761B5E0120E6A20EB11C2C8DDC
:101210003D8D4E8D5F8D0E94091B20E030E040EC3B
:1012200050E40E94AA199B01AC01F5016081718113
:10123000828193810E9438194B015C012881398198
:101240004A815B81C701B6010E94091B9B01AC0169
:10125000C501B4010E943919DF91CF91FF90EF9041
:10126000DF90CF90BF90AF909F908F9008954F9256
:101270005F926F927F928F929F92AF92BF92CF9226
:10128000DF92EF92FF92CF93DF93CDB7DEB72A972D
:101290000FB6F894DEBF0FBECDBF9A878987CB010A
:1012A000BA01E985FA8580AC91ACA2ACB3AC4480BC
:1012B000558066807780C08CD18CE28CF38CA50140
:1012C00094010E94381969837A838B839C8320E080
:1012D00030E040E450E40E94761B6D837E838F8370
:1012E0009887A3019201C501B4010E94091B4B011B
:1012F0005C01A3019201C301B2010E94091B2B01F1
:101300003C01A7019601C701B6010E9439199B0152
:10131000AC01C301B2010E94AA199B01AC01C50135
:10132000B4010E943819E985FA85248935894689EE
:1013300057890E94391929813A814B815C810E9429
:10134000091B29853A85285A3F4FF90120813181AF
:10135000428153810E9439194B015C01A70196011A
:101360006D817E818F8198850E94091B20E030E08D
:1013700040EC50E40E94AA199B01AC01C501B401E4
:101380000E9439192A960FB6F894DEBF0FBECDBF62
:10139000DF91CF91FF90EF90DF90CF90BF90AF9013
:1013A0009F908F907F906F905F904F9008952F92B5
:1013B0003F924F925F926F927F928F929F92AF92E5
:1013C000BF92CF92DF92EF92FF920F931F93CF9332
:1013D000DF93CDB7DEB7A6970FB6F894DEBF0FBE8A
:1013E000CDBF1C014B8F5C8F6D8F7E8F0B8B1C8B49
:1013F0002D8B3E8B8F8E98A2A9A2BAA24BAC5CAC6F
:101400006DAC7EAC28961FAD289729960FAD299715
:101410002A968FAD2A9789872B969FAD2B979A870F
:10142000812F902FA985BA85F10180839183A283B2
:10143000B3838B899C89AD89BE8984839583A68378
:10144000B783C086D186E286F386DB01CA01848732
:101450009587A687B78727968CAD9DADAEADBFADFE
:101460002797808B918BA28BB38B23968CAD9DADF0
:10147000AEADBFAD2397848B958BA68BB78BD50173
:10148000C401808F918FA28FB38F448E558E668E4C
:10149000778E14A215A216A217A2A3019201C7016A
:1014A000B6010E94AA196F8B788F898F9A8F279621
:1014B0002CAD3DAD4EAD5FAD2797612F702F898567
:1014C0009A850E943819A70196010E94AA192F89AE
:1014D000388D498D5A8D0E94381969837A838B83A0
:1014E0009C8320E030E040E450E4C701B6010E9454
:1014F000761B4B015C01A3019201C301B2010E9462
:10150000091B6D837E838F839887A7019601C7018E
:10151000B6010E94091B6F87788B898B9A8B20E01C
:1015200030E040EC50E46D817E818F8198850E948F
:10153000091B9B01AC01C501B4010E94AA199B01C2
:10154000AC010E9439194B015C0120E030E040E41D
:1015500050E4C301B2010E94091B212F302F49859D
:101560005A850E94091B9B01AC016F857889898986
:101570009A890E943819A70196010E94091B6BA342
:101580007CA38DA39EA320E030E040E450E46D8175
:101590007E818F8198850E94091B9B01AC016BA104
:1015A0007CA18DA19EA10E94AA199B01AC01C5013D
:1015B000B4010E9438194B015C0127962CAD3DAD5A
:1015C0004EAD5FAD2797C701B6010E94091BA3016D
:1015D00092010E94AA199B01AC01C501B4010E94AD
:1015E00039196D837E838F8398878F849888A98823
:1015F000BA88B7FAB094B7F8B094A3019201C301C6
:10160000B2010E9439199B01AC01C501B4010E94CD
:10161000AA19212F302F49855A850E94391929810D
:101620003A814B815C810E94091B9B01AC016D8159
:101630007E818F8198850E9439194B015C01298137
:101640003A814B815C81CA01B9010E94091BA70143
:1016500096010E94091B20E030E040E05FE30E9419
:10166000091B9B01AC01C501B4010E9438196D83AF
:101670007E838F839887D1019C966D937D938D9304
:101680009C939F97F10110AA11AA12AA13AA2F8D59
:1016900038A149A15AA16B897C898D899E890E94B4
:1016A000AA1969837A838B839C83D101D4966D9325
:1016B0007D938D939C93D79723962CAD3DAD4EADE6
:1016C0005FAD2397612F702F89859A850E94381905
:1016D0002B893C894D895E890E94AA199B01AC0126
:1016E000F10120AF31AF42AF53AF69817A818B8175
:1016F0009C810E9439194B015C01D101DC968D92CD
:101700009D92AD92BC92DF97BC01A401C1010E94E1
:1017100037099B01AC01F10120A731A742A753A7CC
:101720003101F0E46F0E711C6B8D7C8D8D8D9E8D63
:101730000E9438192D813E814F8158850E943819A9
:10174000212F302F49855A850E94AA19A50194019D
:101750000E943919D3016D937D938D939C931397B8
:10176000580199848A847CA26BA2EBA1FCA14080E1
:10177000518062807380D101DC968D919D910D9096
:10178000BC91A02D8F87988BA98BBA8B9C01AD0142
:10179000C301B2010E94A51987FF5CC020E030E0C0
:1017A00040E85FE36B2D7A2D892D982D0E94381922
:1017B000B62EA72E982E892E23962CAD3DAD4EAD7C
:1017C0005FAD23970E9438192B893C894D895E892A
:1017D0000E94AA199B01AC01F10120AF31AF42AFC9
:1017E00053AF69817A818B819C810E9439192B01C9
:1017F0003C01D101DC964D925D926D927C92DF9717
:10180000BC01A201C1010E9437099B01AC01F10199
:1018100020A731A742A753A76B8D7C8D8D8D9E8D00
:101820000E9438192D813E814F8158850E943819B8
:101830002B2D3A2D492D582D0E94AA19A301920152
:101840000E943919ABA1BCA16D937D938D939C939C
:1018500013978BCFA30192016F89788D898D9A8D13
:101860000E9439196D837E838F839887F101EC5B29
:10187000FF4F608371838283938327962CAD3DADA8
:101880004EAD5FAD27976B2D7A2D892D982D0E9437
:101890003819A70196010E94AA19A30192010E947A
:1018A00039196B877C878D879E87F101E85BFF4F35
:1018B00060837183828393839B01AC016F89788DF0
:1018C000898D9A8D0E943919F101E45BFF4F608385
:1018D000718382839383F10160A371A382A393A395
:1018E000E05BFF4F108211821282138220E030E011
:1018F00040E450E469817A818B819C810E94761B4F
:101900009B01AC016F8D78A189A19AA10E94091B4E
:1019100020E030E040EC50E40E94AA194B015C0149
:1019200023962CAD3DAD4EAD5FAD239769817A8195
:101930008B819C810E94091B9B01AC01C501B401F4
:101940000E9439196B017C01F101EC5AFF4FC082F2
:10195000D182E282F38229813A814B815C81D1017B
:10196000D8966D917D918D919C91DB970E9438194D
:101970004B015C01F101E85AFF4FF88FEF8B298191
:101980003A814B815C81CA01B9010E94091B2F8DEC
:1019900038A149A15AA10E94091B20E030E040E093
:1019A0005FE30E94091B23962CAD3DAD4EAD5FADAC
:1019B00023970E943919A50194010E94091BA701D0
:1019C00096010E9439196B017C01A5019401C501A2
:1019D000B4010E94091B2B893C894D895E890E94B4
:1019E000091B20E030E040E05FE30E94091B9B01FF
:1019F000AC01C701B6010E943919AF89B88D6D934A
:101A00007D938D939C9313974F85588969897A8923
:101A1000C1010E943709F101E45AFF4F60837183CD
:101A2000828393837101B0E6EB0EF11C2F85388918
:101A300049895A89C301B2010E943819212F302FD8
:101A400049855A850E94091BF10120A531A542A5AF
:101A500053A50E943919D7016D937D938D939C9363
:101A600013974D815E816F817885C1010E94E508E1
:101A7000F101EC59FF4F60837183828393834B851F
:101A80005C856D857E85C1010E946408F101E8597D
:101A9000FF4F608371838283938334968B8D9C8DFB
:101AA000AD8DBE8D80839183A283B383A6960FB63E
:101AB000F894DEBF0FBECDBFDF91CF911F910F9184
:101AC000FF90EF90DF90CF90BF90AF909F908F905E
:101AD0007F906F905F904F903F902F9008951F924E
:101AE0000F920FB60F9211242F933F938F939F93D2
:101AF000AF93BF938091470190914801A091490114
:101B0000B0914A013091420123E0230F2D3758F55F
:101B10000196A11DB11D209342018093470190932E
:101B20004801A0934901B0934A01809143019091EB
:101B30004401A0914501B09146010196A11DB11D3E
:101B40008093430190934401A0934501B0934601D3
:101B5000BF91AF919F918F913F912F910F900FBEA9
:101B60000F901F90189526E8230F0296A11DB11D16
:101B7000D2CF1F920F920FB60F9211242F933F9343
:101B80004F935F936F937F938F939F93AF93BF9385
:101B9000EF93FF93E0910201F09103010995FF910A
:101BA000EF91BF91AF919F918F917F916F915F91D5
:101BB0004F913F912F910F900FBE0F901F9018954E
:101BC0001F920F920FB60F9211242F933F934F93B2
:101BD0005F936F937F938F939F93AF93BF93EF9395
:101BE000FF93E0910001F09101010995FF91EF91C0
:101BF000BF91AF919F918F917F916F915F914F9125
:101C00003F912F910F900FBE0F901F9018951F922C
:101C10000F920FB60F9211242F933F934F935F9320
:101C20006F937F938F939F93AF93BF93EF93FF93A4
:101C30008CE491E00E94AD02FF91EF91BF91AF91D2
:101C40009F918F917F916F915F914F913F912F91D4
:101C50000F900FBE0F901F9018951F920F920FB606
:101C60000F9211242F938F939F93EF93FF93E09103
:101C70005C01F0915D018081E0916201F09163016E
:101C800082FD1BC09081809165018F5F8F732091D1
:101C90006601821741F0E0916501F0E0E45BFE4FE0
:101CA000958F80936501FF91EF919F918F912F9177
:101CB0000F900FBE0F901F9018958081F4CF2F9238
:101CC0003F924F925F926F927F928F929F92AF92CC
:101CD000BF92CF92DF92EF92FF920F931F93CF9319
:101CE000DF9300D01F92CDB7DEB79B838A836983D1
:101CF000F22EDC011D921D921D921C9213971596D7
:101D00001C921E9214978EEA97E4A1EABFE3EA813F
:101D1000FB8186839783A087B187DF0112861386B4
:101D200014861586068B57966C93579758964C9346
:101D30005897EE24E3945A96EC925A975B96EC925D
:101D40005B9782E05C968C930E94BE010E94A90181
:101D50008A819B810E96AA81BB81DC969C938E938F
:101D6000DB970A2E1B2EDA961C920E921124D9971D
:101D7000CD014296DE969C938E93DD976D01B7E57B
:101D8000CB0ED11CF60110822A803B80FFE42F0E7F
:101D9000311CD1011D921D921D921C9213976A80D5
:101DA0007B80B3E56B0E711C80E090E0AFE7B3E49D
:101DB000F30180839183A283B3830A811B81055B36
:101DC0001F4F84E690E0A0E0B0E0F80180839183AB
:101DD000A283B383AA81BB81D6961C921E92D5970B
:101DE00081E090E0D8969C938E93D797FD01E85AB6
:101DF000FF4FE08280E090E0A0E0BFE3EA81FB815A
:101E0000858F968FA78FB0A340E050E060E271E429
:101E100041A352A363A374A340E050E060E87EE3D3
:101E200045A356A367A370A781A792A7A3A7B4A7AA
:101E300080E090E0A0E8BFE385A796A7A7A7B0AB96
:101E400080E090E0A0E2B0E481AB92ABA3ABB4AB96
:101E50002FB7F8948091470190914801A0914901D2
:101E6000B0914A012FBF9F01215C3F4FF801408193
:101E7000518162817381841B950BA60BB70BF9010D
:101E800080839183A283B3830E94BE01F3E0FF1697
:101E900009F463C084E0F81609F46DC092E0F91605
:101EA00009F446C00E94A901AA81BB815B96FC92FD
:101EB0005B9782E05C968C935C97F6018081811140
:101EC00075C0DB96ED91FC91DC9780809180A280BB
:101ED000B3807D01F3E4EF0EF11CD7018D929D924A
:101EE000AD92BC921397AA81BB81D996ED91FC91DA
:101EF00080819181A281B381EA81FB81E95BFF4FFF
:101F000080839183A283B383F301408051806280F8
:101F10007380A3019201C501B4010E94041B18162D
:101F2000C4F5D7014D925D926D927C9213973EC09D
:101F300080914B018D7E80934B010E944D018091D9
:101F4000B00083628093B000F092B1001092B400B0
:101F500061E083E00E947801A7CF80914B018F75EB
:101F600080934B010E944D0184B5836884BD17BCEA
:101F700061E086E0EFCF80914B018E7B80934B0137
:101F80000E944D0184B5836284BD18BC61E085E088
:101F9000E1CFF1014080518062807380A301920102
:101FA000C501B4010E94A51987FDBBCF81E0F601F0
:101FB0008083D8016D917D918D919C910E94521AE0
:101FC0009B01AC0160E070E088EC92E40E94AA19E9
:101FD0006B017C01AC019B01EA81FB8165A576A5C3
:101FE00087A590A90E94091BAA81BB819D966D932C
:101FF0007D938D939C93D097A7019601D1966D9177
:102000007D918D919C91D4970E94AA19EA81FB81C0
:1020100061AB72AB83AB94AB84E690E0A0E0B0E040
:10202000F80180839183A283B38360E089810F905C
:102030000F900F90DF91CF911F910F91FF90EF9034
:10204000DF90CF90BF90AF909F908F907F906F90D8
:102050005F904F903F902F900C9478018F929F92B9
:10206000AF92BF92CF92DF92EF92FF920F931F93A6
:10207000ECE4F1E01382128288EE93E0A0E0B0E09D
:1020800084839583A683B78388E091E091838083DE
:1020900085EC90E09587848784EC90E0978786872D
:1020A00080EC90E0918B808B81EC90E0938B828B25
:1020B00082EC90E0958B848B86EC90E0978B868BFE
:1020C000118E128E138E148E1092E90101E021E020
:1020D00030E042E163E083EB92E00E945F0E00E0BB
:1020E00024E030E040E162E08AE592E00E945F0E89
:1020F00081E48F9390EB9F931F921F928F9380E2C6
:102100008F931F921F928FE38F9380E88F931F927C
:102110001F9282E48F9388EC8F931F921F92812CE1
:10212000912C8AEFA82E83E4B82EC12CD12C90EFED
:10213000E92E91E4F92E00E010E028E432E440E0DA
:1021400050E060EA71E48AEE91E00E94D7098DB711
:102150009EB740960FB6F8949EBF0FBE8DBF1F91DD
:102160000F91FF90EF90DF90CF90BF90AF909F9036
:102170008F900895CF93DF93CDB7DEB7C858D109BC
:102180000FB6F894DEBF0FBECDBF789484B58260E1
:1021900084BD84B5816084BD85B5826085BD85B50B
:1021A000816085BD80916E00816080936E00109289
:1021B0008100809181008260809381008091810004
:1021C0008160809381008091800081608093800095
:1021D0008091B10084608093B1008091B0008160F3
:1021E0008093B00080917A00846080937A0080911F
:1021F0007A00826080937A0080917A008160809377
:102200007A0080917A00806880937A001092C100F1
:10221000E0915C01F0915D0182E08083E0915801E2
:10222000F09159011082E0915A01F0915B0180E137
:10223000808310926401E0916001F091610186E079
:102240008083E0915E01F0915F01808180618083F5
:10225000E0915E01F0915F01808188608083E09170
:102260005E01F0915F01808180688083E0915E0172
:10227000F0915F0180818F7D808360E080E10E942A
:1022800078018EE094E090930101809300018091A9
:1022900069008C7F816080936900E89A60E082E148
:1022A0000E94780182E194E09093030180930201FF
:1022B00080916900837F846080936900E99A8FE34D
:1022C0008F9395E99F9392EC9F939FE89F938F93B1
:1022D0001F921F921F928EE38F938CE48F938CEC4E
:1022E0008F938DEC8F9380E48F9386E68F938F93FB
:1022F0008F9388E4882E81EE982E8AE5A82E80E4BC
:10230000B82E9AE9C92E99E9D92EED2C9FE3F92E22
:1023100000E010E020E83FE34AE959E969E870E4A9
:10232000CE0101960E94D70960E070E0CB010E94C7
:10233000FB010FB6F894DEBF0FBECDBF8AE592E079
:102340000E9496036B017C0183EB92E00E9496034E
:102350009B01AC01C701B6010E94391920E030E0B1
:1023600040E05FE30E94091B4B015C0140903E028C
:1023700050903F026090400270904102A301920190
:102380000E94A51987FFCDC0C0900202D090030221
:10239000E0900402F090050220E030E040E450E4D8
:1023A000C701B6010E94761BE9966CAF7DAF8EAF78
:1023B0009FAFE9978091FE019091FF01A0910002EB
:1023C000B0910102E5968CAF9DAFAEAFBFAFE59780
:1023D00020E030E040E450E4BC01CD010E94761BD7
:1023E0002B013C0120E030E040E151E4C701B6019F
:1023F0000E94091BA50194010E94091BA5019401DB
:102400000E94091BED966CAF7DAF8EAF9FAFED972D
:1024100020E030E040E051E4C301B2010E94091B1A
:102420009B01AC01ED966CAD7DAD8EAD9FADED9792
:102430000E943919E9962CAD3DAD4EAD5FADE997DF
:102440000E94091B0E94CC1B2B013C0120E030E0C4
:1024500040E450E4C701B6010E94091BA7019601A0
:102460000E94091BA50194010E94091BA30192016E
:102470000E9439194B015C012BEA3AEA4AE25FE318
:102480000E94761B2B013C012BEA3AEA4AEA5EE302
:10249000C501B4010E94761BE9966CAF7DAF8EAF8B
:1024A0009FAFE997A7019601C701B6010E943919AC
:1024B000E5962CAD3DAD4EAD5FADE5970E94091B95
:1024C0009B01AC01C301B2010E9438194B015C01B0
:1024D000E9962CAD3DAD4EAD5FADE997C701B601B4
:1024E0000E94091B9B01AC01C501B4010E94AA19FD
:1024F0009B01AC010E94091BA70196010E94091BC8
:1025000020E030E040E05FE30E94091BE5962CAD3F
:102510003DAD4EAD5FADE5970E9439196B017C0171
:1025200066C2C0904202D0904302E0904402F09014
:102530004502A7019601C501B4010E94A51987FFB4
:10254000F5C080911E0290911F02A0912002B091CF
:102550002102E5968CAF9DAFAEAFBFAFE597C090BF
:10256000EE01D090EF01E090F001F090F101809148
:10257000020290910302A0910402B0910502ED962F
:102580008CAF9DAFAEAFBFAFED978091FE01909144
:10259000FF01A0910002B0910102E9968CAF9DAFBE
:1025A000AEAFBFAFE997E5962CAD3DAD4EAD5FAD9B
:1025B000E597CA01B9010E94091BED962CAD3DAD0E
:1025C0004EAD5FADED970E94091B20E030E040E08A
:1025D0005FE30E94091BE9962CAD3DAD4EAD5FADAA
:1025E000E9970E943919C358DF4F688379838A833A
:1025F0009B83CD57D04020E030E040E050ECC30159
:10260000B2010E94091BA70196010E94091B2B0120
:102610003C01C358DF4F288139814A815B81CD5706
:10262000D040CA01B9010E94091B9B01AC01C30142
:10263000B2010E9439192B013C01A7019601C70183
:10264000B6010E943919A50194010E94091B9B0142
:10265000AC01C301B2010E9439190E94CC1B9B013D
:10266000AC01C358DF4F688179818A819B81CD5746
:10267000D0400E9439194B015C01A7019601E596F3
:102680006CAD7DAD8EAD9FADE5970E94091B9B01A2
:10269000AC01C501B4010E9438194B015C01E996F7
:1026A0002CAD3DAD4EAD5FADE997CA01B9010E94B9
:1026B00039199B01AC01C501B4010E943819A70169
:1026C00096010E94AA19E5962CAD3DAD4EAD5FADC9
:1026D000E5970E943919A70196010E94091B4B0139
:1026E0005C01A7019601C701B6010E94091B2B01DD
:1026F0003C01ED962CAD3DAD4EAD5FADED97CA0101
:10270000B9010E9439199B01AC01C301B2010E94B9
:10271000AA199B01AC01C501B4010E943819E996C0
:102720002CAD3DAD4EAD5FADE997F6CE20914602A2
:10273000309147024091480250914902C501B401CD
:102740000E94A51987FF3DC14090020250900302EC
:10275000609004027090050220E030E040E450E414
:10276000C301B2010E94761BC358DF4F688379838F
:102770008A839B83CD57D040A7019601C501B40140
:102780000E9438196B017C018091220290912302F2
:10279000A0912402B0912502E5968CAF9DAFAEAF1B
:1027A000BFAFE5978090EE019090EF01A090F0010F
:1027B000B090F101A3019201C301B2010E94391945
:1027C000E9966CAF7DAF8EAF9FAFE997A5019401FD
:1027D000E5966CAD7DAD8EAD9FADE5970E94091B72
:1027E000ED966CAF7DAF8EAF9FAFED97A5019401D5
:1027F000C501B4010E94091BE9962CAD3DAD4EAD5B
:102800005FADE9970E94AA199B01AC01ED966CADF2
:102810007DAD8EAD9FADED970E9438192091FE01E0
:102820003091FF0140910002509101020E9439193C
:10283000ED966CAF7DAF8EAF9FAFED9720E030E0AF
:1028400040E450E40E94761BCF57DF4F68837983C2
:102850008A839B83C158D04020E030E040E151E4BE
:10286000C301B2010E94091B4B015C01A701960143
:10287000C701B6010E94091B9B01AC01C501B4014F
:102880000E94091B4B015C0120E030E040E051E474
:10289000CF57DF4F688179818A819B81C158D040B1
:1028A0000E94091B9B01AC01C501B4010E943919AA
:1028B000C358DF4F288139814A815B81CD57D04091
:1028C0000E94091B0E94CC1B4B015C01A3019201D9
:1028D000C301B2010E94091B20E030E040E450E453
:1028E0000E94091BA70196010E94091BA5019401E2
:1028F0000E9439194B015C012BEA3AEA4AE25FE394
:102900000E94761B6B017C012BEA3AEA4AEA5EE3FD
:10291000C501B4010E94761B4B015C01ED962CAD04
:102920003DAD4EAD5FADED97E9966CAD7DAD8EAD35
:102930009FADE9970E94091B9B01AC01C701B6013D
:102940000E9438196B017C01A5019401C301B201F9
:102950000E94091B9B01AC01C701B6010E94AA1984
:10296000E5962CAD3DAD4EAD5FADE5970E943919B2
:10297000209126023091270240912802509129028D
:102980000E94381973016201F7FAF094F7F8F09495
:102990009B01AC010E94091B9B01AC01C701B60160
:1029A0000E94091B20E030E040E05FE30E94091B29
:1029B0002091EA013091EB014091EC015091ED0141
:1029C000ABCD20914A0230914B0240914C02509184
:1029D0004D02C501B4010E94A51987FF0BC1C0902B
:1029E000EA01D090EB01E090EC01F090ED0120E0E5
:1029F00030E0A901C701B6010E94A519882309F496
:102A0000FFC320E030E040E752E4C701B6010E9476
:102A1000091B2AE836E54DEF50E40E94AA194B0144
:102A20005C01BC01A40183EB92E00E947505B50135
:102A3000A4018AE592E00E9475058AE592E00E9471
:102A400096034B015C0183EB92E00E9496039B018D
:102A5000AC01C501B4010E94391920E030E040E02A
:102A60005FE30E94091B42E00E9499048EE291E01C
:102A70000E9448042FB7F894609147017091480173
:102A80008091490190914A012FBF0E94521A20E083
:102A900030E04AE754E40E94AA1942E00E949904F7
:102AA0008EE291E00E94480442E0C701B6010E9414
:102AB00099048EE291E00E9448046091B302709103
:102AC000B4028091B5029091B6029B01AC010E94C4
:102AD00039192BED3FE049E450E40E94091B2EEA2E
:102AE00037E441EA5FE30E94091B20E030E040E761
:102AF00052E40E94AA1942E00E9499048EE291E0F9
:102B00000E94480460915A0270915B0280915C02BD
:102B100090915D029B01AC010E9439192BED3FE0C1
:102B200049E450E40E94091B2EEA37E441EA5FE3DE
:102B30000E94091B20E030E040E752E40E94AA19FD
:102B400042E00E9499048BE291E00E944804609167
:102B5000B7027091B802072E000C880B990B0E94E7
:102B6000541A20E030E040EF54E40E94AA19609328
:102B7000BD027093BE028093BF029093C002109278
:102B8000B3021092B4021092B5021092B602609194
:102B90005E0270915F02072E000C880B990B0E9459
:102BA000541A20E030E040EF54E40E94AA196093E8
:102BB000640270936502809366029093670210929C
:102BC0005A0210925B0210925C0210925D0264E65F
:102BD00070E080E090E00E94FB01A0E0B0E0AB2B51
:102BE00009F4ACCB0E949902882309F4A7CB0E9478
:102BF0000000A4CB20914E0230914F024091500230
:102C000050915102C501B4010E94A51987FF04C16A
:102C100010910E0200910F023090100220901102CC
:102C200090912A02E2969FAFE297A0912B02E6963E
:102C3000AFAFE697B0912C02EA96BFAFEA978091CA
:102C40002D02EE968FAFEE97292F3A2F4B2F582F4C
:102C5000612F702F832D922D0E94041B181664F093
:102C6000E2961FADE297E6960FADE697EA963FAC87
:102C7000EA97EE962FACEE97812F902FA32DB22DD1
:102C800080930E0290930F02A0931002B093110252
:102C9000C0900602D0900702E0900802F09009026E
:102CA000F7FAF094F7F8F0948091EA019091EB0133
:102CB000A091EC01B091ED01CF57DF4F888399834C
:102CC000AA83BB83C158D040412F502F632D722D52
:102CD0008AEE91E00E94E5082B013C01E2962FADBF
:102CE000E297E6963FADE697EA964FADEA97EE9605
:102CF0005FADEE97612F702F832D922D0E943819B2
:102D0000CB57DF4F688379838A839B83C558D04034
:102D1000A5019401C301B2010E9438192B013C01A5
:102D2000CB57DF4F288139814A815B81C558D0401C
:102D3000CA01B9010E94091BA70196010E94091B43
:102D400020E030E040E05FE30E94091BCF57DF4FF7
:102D5000288139814A815B81C158D0400E9439194C
:102D60009B01AC01C301B2010E94AA199B01AC01F5
:102D7000612F702F832D922D0E943819162F072F47
:102D8000382E292E462F572F682F792F8AEE91E063
:102D90000E94E508A50194010E9438199F772FE64B
:102DA00032E143E85AE30E94A51987FF8DCF812FB6
:102DB000902FA32DB22D80930E0290930F02A0931B
:102DC0001002B0931102E2962FADE297E6963FAD66
:102DD000E697EA964FADEA97EE965FADEE97612FD4
:102DE000702F832D922D0E9438199B01AC010E94F7
:102DF000091BA70196010E94091B20E030E040E07A
:102E00005FE30E94091BCF57DF4F288139814A8138
:102E10005B81C158D04080CB209152023091530247
:102E20004091540250915502C501B4010E94A51968
:102E300087FF04C110910E0200910F023090100222
:102E40002090110290912E02E2969FAFE297A091FE
:102E50002F02E696AFAFE697B0913002EA96BFAF89
:102E6000EA9780913102EE968FAFEE97292F3A2F95
:102E70004B2F582F612F702F832D922D0E94041BF2
:102E8000181664F0E2961FADE297E6960FADE6974E
:102E9000EA963FACEA97EE962FACEE97812F902FF3
:102EA000A32DB22D80930E0290930F02A0931002D7
:102EB000B09311026091F2017091F3018091F401DD
:102EC0009091F5016B017C01F7FAF094F7F8F0941A
:102ED0009B01AC010E94091B2B013C016091060281
:102EE0007091070280910802909109029B01AC0148
:102EF0000E9439199B01AC01C301B2010E94AA19B9
:102F00002B013C018091EA019091EB01A091EC0131
:102F1000B091ED01CF57DF4F88839983AA83BB839C
:102F2000C158D040412F502F632D722D8AEE91E071
:102F30000E946408A50194010E943819CB57DF4F05
:102F4000688379838A839B83C558D040E2962FADEE
:102F5000E297E6963FADE697EA964FADEA97EE9692
:102F60005FADEE97612F702F832D922D0E9438193F
:102F7000A70196010E94091BA30192010E94381922
:102F8000CF57DF4F288139814A815B81C158D040BA
:102F90000E9439199B01AC01CB57DF4F68817981C1
:102FA0008A819B81C558D0400E94AA199B01AC011F
:102FB000612F702F832D922D0E943819162F072F05
:102FC000382E292E462F572F682F792F8AEE91E021
:102FD0000E946408A50194010E9438199F772FE68A
:102FE00032E143E85AE30E94A51987FF9BCF812F66
:102FF000902FA32DB22D80930E0290930F02A093D9
:103000001002B0931102E2962FADE297E6963FAD23
:10301000E697EA964FADEA97EE965FADEE97612F91
:10302000702F832D922D0E943819A70196010E94BE
:10303000091BA30192010E943819E5CE2091560286
:10304000309157024091580250915902C501B40184
:103050000E94A51987FFD4C0C0900E02D0900F0225
:10306000E0901002F09011021091320200913302B0
:103070003090340220903502212F302F432D522DD5
:10308000B601C7010E94041B181624F41C2D0D2D37
:103090003E2C2F2C812F902FA32DB22D80930E022A
:1030A00090930F02A0931002B09311028091060238
:1030B00090910702A0910802B0910902E5968CAFA9
:1030C0009DAFAEAFBFAFE597C0903602D09037024C
:1030D000E0903802F09039028091FA019091FB0162
:1030E000A091FC01B091FD01E9968CAF9DAFAEAF10
:1030F000BFAFE997612F702F832D922D0E943A0761
:103100002B013C01A7019601612F702F832D922D79
:103110000E943819ED966CAF7DAF8EAF9FAFED97E3
:10312000A5019401C301B2010E9438192B013C0191
:10313000ED962CAD3DAD4EAD5FADED97CA01B90139
:103140000E94091BE5962CAD3DAD4EAD5FADE597F8
:103150000E94091B20E030E040E05FE30E94091B71
:10316000E9962CAD3DAD4EAD5FADE9970E943919A2
:103170009B01AC01C301B2010E94AA199B01AC01E1
:10318000612F702F832D922D0E943819162F072F33
:10319000382E292E0E943A07A50194010E94381961
:1031A0009F772FE632E143E85AE30E94A51987FF93
:1031B000A1CF812F902FA32DB22D80930E0290933B
:1031C0000F02A0931002B0931102A7019601612F84
:1031D000702F832D922D0E9438199B01AC010E9403
:1031E000091BE5962CAD3DAD4EAD5FADE5970E9458
:1031F000091B20E030E040E05FE30E94091B8FCA1A
:1032000081E391E00E9448048BE291E00E9448042F
:1032100086E391E00E9448042091BD023091BE02F5
:103220004091BF025091C0026091640270916502AA
:1032300080916602909167020E94391920E030E087
:1032400040E05FE30E94091B42E00E94990470E0A5
:1032500060E083EB92E00E94160470E060E08AE593
:1032600092E00E94160460E07AEC8AE99BE3B3CC1A
:103270005058BB27AA270E9450190C94CA1A0E94C2
:10328000BC1A38F00E94C31A20F039F49F3F19F499
:1032900026F40C94B91A0EF4E095E7FB0C94B31ADB
:1032A000E92F0E94DB1A58F3BA17620773078407E5
:1032B000950720F079F4A6F50C94FD1A0EF4E0952C
:1032C0000B2EBA2FA02D0B01B90190010C01CA01E0
:1032D000A0011124FF27591B99F0593F50F4503E8B
:1032E00068F11A16F040A22F232F342F4427585F7D
:1032F000F3CF469537952795A795F0405395C9F795
:103300007EF41F16BA0B620B730B840BBAF091504C
:10331000A1F0FF0FBB1F661F771F881FC2F70EC0EB
:10332000BA0F621F731F841F48F4879577956795BE
:10333000B795F7959E3F08F0B0CF9395880F08F0AA
:103340009927EE0F9795879508950E948F1A08F494
:1033500081E008950E94BE190C94CA1A0E94C31AF3
:1033600058F00E94BC1A40F029F45F3F29F00C94F9
:10337000B31A51110C94FE1A0C94B91A0E94DB1A5C
:1033800068F39923B1F3552391F3951B550BBB2794
:10339000AA2762177307840738F09F5F5F4F220FD9
:1033A000331F441FAA1FA9F335D00E2E3AF0E0E8D0
:1033B00032D091505040E695001CCAF72BD0FE2F1A
:1033C00029D0660F771F881FBB1F261737074807AE
:1033D000AB07B0E809F0BB0B802DBF01FF27935866
:1033E0005F4F3AF09E3F510578F00C94B31A0C945D
:1033F000FE1A5F3FE4F3983ED4F386957795679580
:10340000B795F7959F5FC9F7880F911D969587959A
:1034100097F90895E1E0660F771F881FBB1F6217B9
:1034200073078407BA0720F0621B730B840BBA0B77
:10343000EE1F88F7E09508950E94231A6894B11151
:103440000C94FE1A08950E94E31A88F09F5798F092
:10345000B92F9927B751B0F0E1F0660F771F881F99
:10346000991F1AF0BA95C9F714C0B13091F00E94B3
:10347000FD1AB1E008950C94FD1A672F782F882764
:10348000B85F39F0B93FCCF3869577956795B395DA
:10349000D9F73EF490958095709561957F4F8F4F49
:1034A0009F4F0895E89409C097FB3EF4909580954E
:1034B000709561957F4F8F4F9F4F9923A9F0F92FFA
:1034C00096E9BB279395F695879577956795B79578
:1034D000F111F8CFFAF4BB0F11F460FF1BC06F5F5E
:1034E0007F4F8F4F9F4F16C0882311F096E911C070
:1034F000772321F09EE8872F762F05C0662371F091
:1035000096E8862F70E060E02AF09A95660F771FA4
:10351000881FDAF7880F9695879597F90895990F80
:103520000008550FAA0BE0E8FEEF16161706E8078D
:10353000F907C0F012161306E407F50798F0621BAE
:10354000730B840B950B39F40A2661F0232B242B83
:10355000252B21F408950A2609F4A140A6958FEFA2
:10356000811D811D089597F99F6780E870E060E0F4
:1035700008959FEF80EC089500240A94161617060C
:1035800018060906089500240A9412161306140654
:1035900005060895092E0394000C11F4882352F0B7
:1035A000BB0F40F4BF2B11F460FF04C06F5F7F4F6F
:1035B0008F4F9F4F089557FD9058440F551F59F056
:1035C0005F3F71F04795880F97FB991F61F09F3F10
:1035D00079F087950895121613061406551FF2CF39
:1035E0004695F1DF08C0161617061806991FF1CF89
:1035F00086957105610508940895E894BB276627B0
:103600007727CB0197F908950E948F1A08F48FEF5E
:1036100008950E941C1B0C94CA1A0E94BC1A38F010
:103620000E94C31A20F0952311F00C94B31A0C9445
:10363000B91A11240C94FE1A0E94DB1A70F3959F9C
:10364000C1F3950F50E0551F629FF001729FBB2799
:10365000F00DB11D639FAA27F00DB11DAA1F649F35
:103660006627B00DA11D661F829F2227B00DA11DE8
:10367000621F739FB00DA11D621F839FA00D611D6E
:10368000221F749F3327A00D611D231F849F600D8F
:10369000211D822F762F6A2F11249F5750409AF0B8
:1036A000F1F088234AF0EE0FFF1FBB1F661F771F44
:1036B000881F91505040A9F79E3F510580F00C940F
:1036C000B31A0C94FE1A5F3FE4F3983ED4F3869548
:1036D00077956795B795F795E7959F5FC1F7FE2BAF
:1036E000880F911D9695879597F90895FA01EE0F29
:1036F000FF1F309621053105A1F16115710561F4B7
:103700008038BFE39B0749F168949038810561F0E8
:103710008038BFEF9B0741F099234AF5FF3FE10551
:103720003105210519F1E8940894E795D901AA23F8
:1037300029F4AB2FBE2FF85FD0F310C0FF5F70F4F9
:10374000A695E0F7F73950F019F0FF3A38F49F7773
:103750009F930DD00F9007FC9058089546F00C945D
:10376000B91A60E070E080E89FE308954FE79F7723
:103770005F934F933F932F930E94D11C2F913F91C2
:103780004F915F910E94091B0C94191C19F416F4B7
:103790000C94B91A0C944B1C0E94E31AB8F39923A9
:1037A000C9F3B6F39F57550B87FF0E94591C00249D
:1037B000A0E640EA900180585695979528F4805CE1
:1037C000660F771F881F20F026173707480730F449
:1037D000621B730B840B202931294A2BA695179461
:1037E0000794202531254A2758F7660F771F881F31
:1037F00020F026173707480730F4620B730B840B51
:10380000200D311D411DA09581F7B901842F9158DC
:10381000880F9695879508950E948F1A880B990BAB
:10382000089529F416F00C94B31A0C94FD1A0C9414
:10383000B91A0E94E31AA8F39638A0F707F80F9276
:10384000E8942BE33AEA48EB5FE70E941F1B0F92D4
:103850000F920F924DB75EB70F920E94191DE8E6C6
:10386000F0E00E94601C4F915F91EF91FF91E59510
:10387000EE1FFF1F49F0FE57E0684427EE0F441F7C
:10388000FA95E1F74195550B0E94931C0F9007FEA6
:103890000C94871C08959F3F31F0915020F4879538
:1038A00077956795B795880F911D9695879597F9A8
:1038B000089591505040660F771F881FD2F70895E2
:1038C000DF93CF931F930F93FF92EF92DF927B01D1
:1038D0008C01689406C0DA2EEF010E941C1BFE01C9
:1038E000E894A5912591359145915591A6F3EF0165
:1038F0000E945019FE019701A801DA9469F7DF9040
:10390000EF90FF900F911F91CF91DF9108959B0150
:10391000AC0160E070E080E89FE30C94AA190C947D
:10392000B31A0C944B1C0E94E31AD8F39923C9F3E1
:10393000940F511DA3F39150504094F059F08823F7
:1039400032F0660F771F881F91505040C1F79E3F9D
:1039500051052CF7880F911D9695879597F9089535
:103960005F3FACF0983E9CF0BB27869577956795B6
:10397000B79508F4B1609395C1F7BB0F58F711F4F0
:1039800060FFE8CF6F5F7F4F8F4F9F4FE3CF0C9467
:10399000FE1A16F00C944B1C0C94B91A68940C94F3
:1039A000B31A0E94E31AA8F39923C1F3AEF3DF938D
:1039B000CF931F930F93FF92C92FDD2788232AF0FF
:1039C0002197660F771F881FDAF720E030E040E884
:1039D0005FEB9FE3883920F0803E38F021968F77A7
:1039E0000E943919E0E9F0E004C00E943919EDEBBA
:1039F000F0E00E94601C8B01BE01EC01FB2E6F57B2
:103A000071097595771F880B990B0E94541A28E14C
:103A100032E741E35FE30E941C1BAF2D9801AE012A
:103A2000FF900F911F91CF91DF910E9450190C943C
:103A3000CA1AFA01DC01AA0FBB1F9B01AC01BF57D8
:103A400028F4222733274427507820C0B75190F418
:103A5000AB2F0024469537952795011CA395D2F3EB
:103A6000002071F0220F331F441FB395DAF30ED0FC
:103A70000C94381961307105A0E88A07B94630F412
:103A80009B01AC016627772788279078309621F034
:103A900020833183428353830895A1E21A2EAA1B07
:103AA000BB1BFD010DC0AA1FBB1FEE1FFF1FA217EE
:103AB000B307E407F50720F0A21BB30BE40BF50BEB
:103AC000661F771F881F991F1A9469F76095709574
:103AD000809590959B01AC01BD01CF010895EE0F3B
:103AE000FF1F0590F491E02D0994F894FFCF2E026A
:103AF0002E0200000000CF022F025C021C038D0288
:103B00006B027F026E616E00696E66006F76660002
:103B10006F75747075743A20000D0A002C200044F3
:103B20006F6E6500726F746174696F6E733A000036
:107E0000112484B714BE81FFF0D085E080938100F7
:107E100082E08093C00088E18093C10086E0809377
:107E2000C20080E18093C4008EE0C9D0259A86E02C
:107E300020E33CEF91E0309385002093840096BBD3
:107E4000B09BFECF1D9AA8958150A9F7CC24DD24C4
:107E500088248394B5E0AB2EA1E19A2EF3E0BF2EE7
:107E6000A2D0813461F49FD0082FAFD0023811F036
:107E7000013811F484E001C083E08DD089C08234E0
:107E800011F484E103C0853419F485E0A6D080C0E4
:107E9000853579F488D0E82EFF2485D0082F10E0AE
:107EA000102F00270E291F29000F111F8ED06801E7
:107EB0006FC0863521F484E090D080E0DECF843638
:107EC00009F040C070D06FD0082F6DD080E0C81688
:107ED00080E7D80618F4F601B7BEE895C0E0D1E017
:107EE00062D089930C17E1F7F0E0CF16F0E7DF06D8
:107EF00018F0F601B7BEE89568D007B600FCFDCFD4
:107F0000A601A0E0B1E02C9130E011968C91119780
:107F100090E0982F8827822B932B1296FA010C0160
:107F200087BEE89511244E5F5F4FF1E0A038BF0790
:107F300051F7F601A7BEE89507B600FCFDCF97BE46
:107F4000E89526C08437B1F42ED02DD0F82E2BD052
:107F50003CD0F601EF2C8F010F5F1F4F84911BD097
:107F6000EA94F801C1F70894C11CD11CFA94CF0C13
:107F7000D11C0EC0853739F428D08EE10CD085E9AC
:107F80000AD08FE07ACF813511F488E018D01DD067
:107F900080E101D065CF982F8091C00085FFFCCF94
:107FA0009093C60008958091C00087FFFCCF809118
:107FB000C00084FD01C0A8958091C6000895E0E648
:107FC000F0E098E1908380830895EDDF803219F02E
:107FD00088E0F5DFFFCF84E1DECF1F93182FE3DFCA
:107FE0001150E9F7F2DF1F91089580E0E8DFEE27F6
:047FF000FF270994CA
:027FFE00040479
:00000001FF
