:100000000C94A3000C9494090C946D090C94CB00EF
:100010000C94CB000C94CB000C94CB000C94CB0034
:100020000C94CB000C94CB000C94CB000C94CB0024
:100030000C94CB000C94CB000C94CB000C94CB0014
:100040000C9423090C94CB000C94E1090C94BB098B
:100050000C94CB000C94CB000C94CB000C94CB00F4
:100060000C94CB000C94CB0007634236B79BD8A707
:100070001A39685618AEBAAB558C1D3CB7CC5763CD
:10008000BD6DEDFD753EF6177231BF000000803F7B
:1000900008000000BE922449123EABAAAA2ABECD97
:1000A000CCCC4C3E00000080BEABAAAAAA3E000009
:1000B0000000BF000000803F000000000008417801
:1000C000D3BB4387D1133D190E3CC3BD4282AD2B38
:1000D0003E68EC8276BED98FE1A93E4C80EFFFBE30
:1000E00001C4FF7F3F00000000000000000024006A
:1000F00027002A0000000000250028002B00000037
:10010000000023002600290004040404040404045D
:1001100002020202020203030303030301020408B2
:100120001020408001020408102001020408102061
:1001300000000008000201000003040700000000A6
:10014000000000002E0C11241FBECFEFD8E0DEBF50
:10015000CDBF11E0A0E0B1E0E8E1F5E302C0059019
:100160000D92AE33B107D9F723E0AEE3B1E001C0A1
:100170001D92A831B207E1F710E0C3EAD0E004C055
:100180002197FE010E94841AC23AD107C9F70E9442
:10019000750D0C948A1A0C940000833081F028F4B9
:1001A000813099F08230A9F008958730A9F0883025
:1001B000C9F08430B1F4809180008F7D03C08091BC
:1001C00080008F7780938000089584B58F7784BDF9
:1001D000089584B58F7DFBCF8091B0008F77809399
:1001E000B00008958091B0008F7DF9CFCF93DF9359
:1001F000282F30E0F901E05DFE4F8491F901E45EC3
:10020000FE4FD491F901E85FFE4FC491CC23A1F0D9
:1002100081110E94CD00EC2FF0E0EE0FFF1FE250A5
:10022000FF4FA591B491EC91ED2381E090E009F4AA
:1002300080E0DF91CF91089580E090E0FACF1F93A6
:10024000CF93DF93282F30E0F901E05DFE4F8491DA
:10025000F901E45EFE4FD491F901E85FFE4FC491CD
:10026000CC23A9F0162F81110E94CD00EC2FF0E0D5
:10027000EE0FFF1FEC50FF4FA591B4918FB7F8948C
:10028000EC91111108C0D095DE23DC938FBFDF9174
:10029000CF911F910895DE2BF8CFCF93DF9360E0CD
:1002A0008CE00E941F0160E088E00E941F01C7E00F
:1002B000D0E060E084E00E941F018091470190E05F
:1002C0000C2E02C0959587950A94E2F761E080FFB5
:1002D00060E088E00E941F0161E084E00E941F014D
:1002E000219738F761E08CE0DF91CF910C941F01EA
:1002F000CF93DF9390E0FC01E45EFE4F2491885F92
:100300009E4FFC0184918823D1F090E0880F991FC3
:10031000FC01E651FF4FA591B491FC01EC50FF4F59
:10032000C591D49161110EC09FB7F8948C91E22FC2
:10033000E0958E238C932881E223E8839FBFDF9191
:10034000CF9108958FB7F894EC91E22BEC938FBF87
:10035000F6CF80914701837F809347010E944D0132
:10036000E0EBF0E080818368808382E08093B100DD
:100370001092B30061E08BE00C94780161E08CE0B6
:100380000E94780161E087E00E94780161E088E0E6
:100390000E94780161E084E00E9478011092470198
:1003A0000E944D0160E087E00C941F013FB7F89474
:1003B00080913F0190914001A0914101B091420193
:1003C00026B5A89B05C02F3F19F00196A11DB11DB0
:1003D0003FBFBA2FA92F982F8827BC01CD01620FEC
:1003E000711D811D911D42E0660F771F881F991FA7
:1003F0004A95D1F708958F929F92AF92BF92CF9274
:10040000DF92EF92FF926B017C010E94D6014B01BB
:100410005C01C114D104E104F104B9F00E94D601D9
:10042000681979098A099B09683E7340810591051D
:1004300080F321E0C21AD108E108F10888EE880EA5
:1004400083E0981EA11CB11CE4CFFF90EF90DF90D9
:10045000CF90BF90AF909F908F9008950895AF92E6
:10046000BF92CF92DF92EF92FF920F931F93CF93A1
:10047000DF936C017B018B01040F151FEB015E0103
:10048000AE18BF08C017D10759F06991D601ED9198
:10049000FC910190F081E02DC6010995892B79F737
:1004A000C501DF91CF911F910F91FF90EF90DF90E9
:1004B000CF90BF90AF900895FC01538D448D252FB0
:1004C00030E0842F90E0821B930B541710F0CF96EE
:1004D000089501970895FC01918D828D981761F020
:1004E000A28DAE0FBF2FB11D5D968C91928D9F5F37
:1004F0009F73928F90E008958FEF9FEF0895FC0116
:10050000918D828D981731F0828DE80FF11D858DC8
:1005100090E008958FEF9FEF0895FC01918D228D5B
:10052000892F90E0805C9F4F821B91098F739927E0
:10053000089588E491E00E948D0221E0892B09F45E
:1005400020E0822F089580E090E0892B29F00E941E
:10055000990281110C9400000895FC01A48DA80F4C
:10056000B92FB11DA35ABF4F2C91848D90E00196F5
:100570008F739927848FA689B7892C93A089B18915
:100580008C91837080648C93938D848D981306C0B6
:100590000288F389E02D80818F7D80830895EF921A
:1005A000FF920F931F93CF93DF93EC0181E0888F2D
:1005B0009B8D8C8D98131AC0E889F989808185FFFD
:1005C00015C09FB7F894EE89FF896083E889F9899F
:1005D00080818370806480839FBF81E090E0DF91A1
:1005E000CF911F910F91FF90EF900895F62E0B8DF4
:1005F00010E00F5F1F4F0F731127E02E8C8D8E11AF
:100600000CC00FB607FCFACFE889F989808185FF15
:10061000F5CFCE010E94AD02F1CFEB8DEC0FFD2F97
:10062000F11DE35AFF4FF0829FB7F8940B8FEA89D0
:10063000FB8980818062CFCFCF93DF93EC01888DDF
:100640008823B9F0AA89BB89E889F9898C9185FD4D
:1006500003C0808186FD0DC00FB607FCF7CF8C91DB
:1006600085FFF2CF808185FFEDCFCE010E94AD02E4
:10067000E9CFDF91CF910895FC018081823069F04C
:1006800028F423E092E0813051F00895833011F195
:1006900026E090E0843019F0089524E091E0623083
:1006A000E1F0643079F1613009F03FC041E050E0A1
:1006B000BA0101C0660F9A95EAF780914701862B2F
:1006C00001C0440F2A95EAF740954823409347011B
:1006D0000C944D0127E095E0E2CF41E050E0BA01F3
:1006E00002C0660F771F9A95E2F7CB018095909133
:1006F0004701892301C0440F2A95EAF7842B809390
:100700004701E6CF41E050E0FA0102C0EE0FFF1FC3
:100710009A95E2F7CF0101C0440F2A95EAF7842B9E
:100720008095909147018923EACF0895CF93DF9375
:10073000EC012E813F81488559856A857B858C85B2
:100740009D850E94071720E030E040EF54E40E94AE
:100750005F166A8B7B8B8C8B9D8B9B01AC010E94FF
:10076000EE1528ED3FE049E450E40E9412182E8572
:100770003F85488959890E941218DF91CF910895C9
:100780000F931F93CF93DF93EC018F8D0E94F600A0
:100790008C0189A181110DC00130110551F488A18E
:1007A0000E94F6009C019AA121153105C1F4911116
:1007B0001AA209A3AE8DE881F9812E813F81488577
:1007C00059856A857B858C859D85BAA1B1110FC03D
:1007D000A1110FC03196F983E883A1E00EC021304A
:1007E000310539F79111E5CF81E08AA3E2CFA1115C
:1007F000F1CF3197F983E883AFEF0E94781A2E8307
:100800003F83488759876A877B878C879D87DF91DD
:10081000CF911F910F91089586E592E00C94C0034B
:1008200087EB92E00C94C003AC014D5D5F4F9B01E0
:1008300077FF04C022273327261B370BFC0193A127
:10084000923099F048F4913069F01616170694F436
:1008500061E0CA010C943C03933051F09430A9F745
:1008600028BDF3CF2093B300F0CF2093B400EDCF99
:1008700027BDEBCF672B11F062E0EBCF64E0E9CF4F
:100880002F923F924F925F926F927F928F929F92A0
:10089000AF92BF92CF92DF92EF92FF920F931F938E
:1008A000CF93DF93CDB7DEB763970FB6F894DEBF73
:1008B0000FBECDBF9B8B8A8BFC01E15AFF4F80811D
:1008C000882309F431C18FB7F89420914301309106
:1008D000440140914501509146012E873F87488B46
:1008E000598B8FBFEA89FB89E95BFF4F808191813A
:1008F000A281B3814E855F8568897989481B590B30
:100900006A0B7B0BEA89FB89ED5AFF4F808191814D
:10091000A281B381481759076A077B0708F404C10D
:10092000EA89FB89EF5BFF4F0190F081E02D808128
:100930009181A281B3818B839C83AD83BE83EA893D
:10094000FB89EB5BFF4F0190F081E02D9C01AD0135
:1009500060817181828193810E94ED154B015C0160
:10096000EA89FB89E15BFF4F20813181428153811C
:100970006B817C818D819E810E94ED156B017C01D4
:10098000AA89BB89D5962D913D914D915C91D897BF
:10099000C501B4010E941218EA89FB89E55BFF4F8B
:1009A000FA83E98320813181428153810E94EE15CF
:1009B0002B013C01A981BA814D925D926D927C928E
:1009C0001397EA89FB89E05AFF4FB081B987B111CB
:1009D00017C0EA89FB8921A932A943A954A9C701F3
:1009E000B6010E9412189B01AC01C301B2010E9422
:1009F000ED15A981BA816D937D938D939C93139787
:100A0000EA89FB89E55BFF4FF887EF8340805180DF
:100A100062807380EA89FB89E55AFF4F308021802C
:100A200002811381232D322DA801C301B2010E943E
:100A30000D1818160CF0BDC0832D922DD801EF8132
:100A4000F88580839183A283B383F985FF2309F41A
:100A5000C7C0AA89BB89D1962D913D914D915C91DA
:100A6000D497C501B4010E9412184B015C01EA89B8
:100A7000FB8921AD32AD43AD54ADC701B6010E9433
:100A800012189B01AC01A981BA816D917D918D9164
:100A90009C910E94ED15A50194010E94EE156B0139
:100AA0007C019B01AC01632D722DC8010E945A1676
:100AB00087FD14C0EA89FB89E95AFF4F3080218005
:100AC00002811381232D322DA801B601C7010E9496
:100AD0005A1687FD03C03C2C2D2C8701EA89FB891F
:100AE000ED5BFF4F0190F081E02D832D922DD80119
:100AF00080839183A283B383EA89FB89E15BFF4F03
:100B00002B813C814D815E812083318342835383DD
:100B1000EA89FB89E95BFF4F8E859F85A889B989A2
:100B200080839183A283B38320E030E0A901AA8966
:100B3000BB895A966D917D918D919C915D970E9494
:100B40001218EA89FB8926893789408D518D0E94C8
:100B5000EE156B017C0120E030E04FE753E40E948A
:100B60005A1687FD06C0C12CD12C8FE7E82E83E4EE
:100B7000F82EC701B6010E94D1168A899B89639617
:100B80000FB6F894DEBF0FBECDBFDF91CF911F919E
:100B90000F91FF90EF90DF90CF90BF90AF909F901C
:100BA0008F907F906F905F904F903F902F900C941C
:100BB0001404EA89FB89E95AFF4F2081318142817F
:100BC00053812A873B874C875D87C301B2010E940E
:100BD0005A1687FF3ACF8A859B85AC85BD852FCF76
:100BE000812C912C540143CF4F925F926F927F9250
:100BF0008F929F92AF92BF92CF92DF92EF92FF922D
:100C0000CF93DF934B015C01C6EED1E0C0902A0286
:100C1000D0902B02E0902C02F0902D022091260221
:100C2000309127024091280250912902C701B60154
:100C30000E94ED152B013C01A7019601C501B401ED
:100C40000E94ED156B017C018C8C9D8CAE8CBF8C51
:100C5000B7FAB094B7F8B094A3019201C301B201FE
:100C60000E9412189B01AC01C501B4010E94121828
:100C700020E030E040E05FE30E94121828813981D3
:100C80004A815B810E94EE15A70196010E9412180D
:100C900020914A0230914B0240914C0250914D02FA
:100CA0000E94EE154B015C01A7019601C701B60138
:100CB0000E941218288539854A855B850E94121882
:100CC00020E030E040E05FE30E9412189B01AC019D
:100CD000C501B4010E94ED15DF91CF91FF90EF9017
:100CE000DF90CF90BF90AF909F908F907F906F904C
:100CF0005F904F9008958F929F92AF92BF92CF9244
:100D0000DF92EF92FF92CF93DF93C6EED1E0209176
:100D100026023091270240912802509129020E9418
:100D2000ED156B017C0120E030E040E450E40E94CE
:100D30007F182C8D3D8D4E8D5F8D0E94121820E006
:100D400030E040EC50E40E945F169B01AC016091E2
:100D500046027091470280914802909149020E9498
:100D6000ED154B015C01288139814A815B81C70106
:100D7000B6010E9412189B01AC01C501B4010E948A
:100D8000EE15DF91CF91FF90EF90DF90CF90BF9065
:100D9000AF909F908F9008954F925F926F927F9245
:100DA0008F929F92AF92BF92CF92DF92EF92FF927B
:100DB000CF93DF93CDB7DEB764970FB6F894DEBF5D
:100DC0000FBECDBF2B013C018090320290903302C8
:100DD000A0903402B0903502C0902E02D0902F0225
:100DE000E0903002F0903102A7019601C501B401F4
:100DF0000E94ED156D837E838F8398878091020218
:100E000090910302A0910402B091050289839A8314
:100E1000AB83BC83A5019401C301B2010E94ED150F
:100E20002B013C0120E030E040E450E40E947F18B8
:100E30006D877E878F87988B8090EE019090EF0171
:100E4000A090F001B090F101D501C401B05889879C
:100E50009A87AB87BC8720E030E040E450E46D81A6
:100E60007E818F8198850E947F18698B7A8B8B8B0E
:100E70009C8B20912A0230912B0240912C025091A0
:100E80002D02C701B6010E94ED1529853A854B85D3
:100E90005C850E9412186B017C01A5019401C501BB
:100EA000B4010E9412184B015C0129813A814B81E7
:100EB0005C81CA01B9010E94EE159B01AC01C5011C
:100EC000B4010E945F169B01AC01C701B6010E94EC
:100ED000ED15A6EEB1E02D913D914D915C910E94F2
:100EE000EE152D813E814F8158850E9412186B01AD
:100EF0007C012D853E854F85588969817A818B815A
:100F00009C810E94121820E030E040EC50E40E94E6
:100F10005F1620914E0230914F0240915002509145
:100F200051020E94EE159B01AC01C701B6010E945F
:100F3000EE156B017C012D813E814F815885CA01E0
:100F4000B9010E94121829853A854B855C850E945B
:100F5000121820E030E040E05FE30E9412189B018D
:100F6000AC01C701B6010E94EE156B017C01298915
:100F70003A894B895C8969817A818B819C810E9445
:100F8000121820E030E040EC50E40E945F169B0114
:100F9000AC01C701B6010E94EE156B017C012091E6
:100FA000F6013091F7014091F8015091F901C30128
:100FB000B2010E9412189B01AC01C701B6010E9448
:100FC000EE1564960FB6F894DEBF0FBECDBFDF916D
:100FD000CF91FF90EF90DF90CF90BF90AF909F9018
:100FE0008F907F906F905F904F900895FC010190DB
:100FF0000020E9F73197AF01481B590BBC0188E489
:1010000091E00C942F028F929F92AF92BF920F9318
:101010001F93CF93DF93CDB7DEB7A1970FB6F894A8
:10102000DEBF0FBECDBF19A2423008F44AE08E01E8
:101030000F5D1F4F842E912CB12CA12CA501940182
:101040000E94561AE62FB901CA01EA30F4F4E05DB5
:10105000D801EE938D01232B242B252B79F790E0DB
:1010600080E0109719F0CD010E94F607A1960FB607
:10107000F894DEBF0FBECDBFDF91CF911F910F91CE
:10108000BF90AF909F908F900895E95CE1CF4F9211
:101090005F926F927F928F929F92AF92BF92CF9208
:1010A000DF92EF92FF920F931F93CF936B017C011E
:1010B000742EAC019B010E941519882399F08BE1D5
:1010C00091E0CF911F910F91FF90EF90DF90CF9023
:1010D000BF90AF909F908F907F906F905F904F9058
:1010E0000C94F60746015701E894B7F82FEF3FEF4D
:1010F0004FE75FE7C501B4010E94151981110DC0CA
:101100002FEF3FEF4FE75FE7C501B4010E945A168A
:1011100018161CF48FE191E0D4CF2FEF3FEF4FE78B
:101120005FE4C701B6010E940D1818161CF483E293
:1011300091E0C7CF2FEF3FEF4FE75FECC701B6015C
:101140000E945A1687FDF3CF20E030E0A901C701C5
:10115000B6010E945A1610E000E087FF0AC06DE257
:1011600088E491E00E94CF028C01F7FAF094F7F83E
:10117000F094C0E060E070E080E09FE37C1641F016
:1011800020E030E040E251E40E945F16CF5FF6CFEE
:10119000A70196010E94EE152B013C010E94D81672
:1011A0004B015C014AE00E9403087C01E00EF11E45
:1011B000CC23C1F1C501B4010E940D179B01AC0104
:1011C000C301B2010E94ED154B015C016EE288E49F
:1011D00091E00E94CF02E80EF91EC15018F120E004
:1011E00030E040E251E4C501B4010E9412182B0125
:1011F0003C010E94D8164B01B12CA12C4AE0C5013C
:10120000B4010E940308E80EF91EC501B4010E9452
:101210000D179B01AC01C301B2010E94ED154B01FA
:101220005C01DBCFC701CF911F910F91FF90EF9031
:10123000DF90CF90BF90AF909F908F907F906F90F6
:101240005F904F9008951F920F920FB60F92112446
:101250002F933F938F939F93AF93BF9380914301BD
:1012600090914401A0914501B091460130913E0119
:1012700023E0230F2D3758F50196A11DB11D2093B2
:101280003E018093430190934401A0934501B093A4
:10129000460180913F0190914001A0914101B091A0
:1012A00042010196A11DB11D80933F019093400121
:1012B000A0934101B0934201BF91AF919F918F9153
:1012C0003F912F910F900FBE0F901F90189526E819
:1012D000230F0296A11DB11DD2CF1F920F920FB600
:1012E0000F9211242F933F934F935F936F937F93AC
:1012F0008F939F93AF93BF93EF93FF93E09102017E
:10130000F09103010995FF91EF91BF91AF919F91EA
:101310008F917F916F915F914F913F912F910F909E
:101320000FBE0F901F9018951F920F920FB60F923D
:1013300011242F933F934F935F936F937F938F93DA
:101340009F93AF93BF93EF93FF93E0910001F091D0
:1013500001010995FF91EF91BF91AF919F918F91FD
:101360007F916F915F914F913F912F910F900FBEA1
:101370000F901F9018951F920F920FB60F92112485
:101380002F933F934F935F936F937F938F939F938D
:10139000AF93BF93EF93FF9388E491E00E94AD0277
:1013A000FF91EF91BF91AF919F918F917F916F913D
:1013B0005F914F913F912F910F900FBE0F901F9013
:1013C00018951F920F920FB60F9211242F938F939F
:1013D0009F93EF93FF93E0915801F0915901808121
:1013E000E0915E01F0915F0182FD1BC090818091D0
:1013F00061018F5F8F7320916201821741F0E0914C
:101400006101F0E0E85BFE4F958F80936101FF91F1
:10141000EF919F918F912F910F900FBE0F901F9082
:1014200018958081F4CF2F923F924F925F926F92E6
:101430007F928F929F92AF92BF92CF92DF92EF9264
:10144000FF920F931F93CF93DF93CDB7DEB729970A
:101450000FB6F894DEBF0FBECDBF9987888769832A
:10146000F22EDC011D921C92FC0112821382148266
:1014700015821682178210861186128613861486AC
:1014800015868EEA97E4A1EABFE386879787A08B4B
:10149000B18BDF01128A138A148A158A068F5F9630
:1014A0006C935F9790964C939097EE24E39492966A
:1014B000EC9292979396EC92939782E094968C9309
:1014C0000E94BE010E94A901888599858D5B9F4F6E
:1014D0009B838A83888599854696AA81BB818D9353
:1014E0009C93E885F985EF5BFF4FFD83EC8388854E
:1014F0009985029691838083E885F985EB5BFF4FA0
:10150000888599854A969183808328843984FFE56C
:101510002F0E311CD1011C92C884D984B7E5CB0EA3
:10152000D11CF6011082118212821382888599855E
:10153000855A9F4F9F838E8380E090E0AFE7B3E4AE
:10154000EE81FF8180839183A283B383088519850F
:101550000D5A1F4F84E6882E912CA12CB12CD80156
:101560008D929D92AD92BC921397E885F98516AE47
:1015700015AEFF9681E090E091838083E885F98540
:10158000E05AFF4FE08280E090E0A0ECBFE3E88506
:10159000F98585A396A3A7A3B0A740E050E060E239
:1015A00072E441A752A763A774A74DEC5CEC6CE012
:1015B0007FE345A756A767A770AB81AB92ABA3AB00
:1015C000B4AB80E090E0A0E8B0E485AB96ABA7AB0D
:1015D000B0AF80E090E0A0EBB0E481AF92AFA3AFFA
:1015E000B4AF2FB7F8948091430190914401A0913A
:1015F0004501B09146012FBFF801408151816281C0
:101600007381E885F985E95BFF4F841B950BA60B79
:10161000B70B80839183A283B383CB01BA010E946D
:101620000D179B01AC0160E070E088EC92E40E9431
:101630005F162B013C01AC019B01A885B985D596AD
:101640006D917D918D919C91D8970E941218E8859B
:10165000F98565AB76AB87AB90AFA301920161AD25
:1016600072AD83AD94AD0E945F16A885B985D996F9
:101670006D937D938D939C93DC97F801808291828A
:10168000A282B3820E94BE01F3E0FF1609F462C099
:1016900084E0F81609F46CC092E0F91609F445C02C
:1016A0000E94A901A885B9859396FC92939782E040
:1016B00094968C93F1018081811175C0AA81BB81C0
:1016C000ED91FC9180809180A280B380E884F984C0
:1016D000BBE4EB0EF11CF70180829182A282B382FF
:1016E000AC81BD81ED91FC9180819181A281B3811A
:1016F000E885F985E15BFF4F80839183A283B38303
:10170000EE81FF814080518062807380A30192014D
:10171000C501B4010E940D181816C4F5D7014D92E9
:101720005D926D927C9213973EC0809147018D7EB1
:10173000809347010E944D018091B00083628093A5
:10174000B000F092B1001092B40061E083E00E941A
:101750007801A8CF809147018F75809347010E943F
:101760004D0184B5836884BD17BC61E086E0EFCF8E
:10177000809147018E7B809347010E944D0184B583
:10178000836284BD18BC61E085E0E1CFF601408052
:10179000518062807380A3019201C501B4010E944F
:1017A0005A1687FDBBCF81E0F1018083D8016D918E
:1017B0007D918D919C910E940D179B01AC0160E081
:1017C00070E088EC92E40E945F164B015C01AC0172
:1017D0009B01E885F98565A976A987A990AD0E9446
:1017E0001218A885B985D5966D937D938D939C939A
:1017F000D897A5019401D9966D917D918D919C9179
:10180000DC970E945F16E885F98561AF72AF83AF00
:1018100094AF84E690E0A0E0B0E0F801808391838B
:10182000A283B38360E0898129960FB6F894DEBF66
:101830000FBECDBFDF91CF911F910F91FF90EF9021
:10184000DF90CF90BF90AF909F908F907F906F90E0
:101850005F904F903F902F900C947801CF92DF9241
:10186000EF92FF920F93E8E4F1E01382128288EE88
:1018700093E0A0E0B0E084839583A683B7838DE0F6
:1018800091E09183808385EC90E09587848784EC58
:1018900090E09787868780EC90E0918B808B81EC3D
:1018A00090E0938B828B82EC90E0958B848B86EC1E
:1018B00090E0978B868B118E128E138E148E109261
:1018C000E50101E021E030E042E163E087EB92E0F6
:1018D0000E94130A00E024E030E040E162E086E587
:1018E00092E00E94130AE6EEF1E080E090E0A0ECC6
:1018F000B0E480839183A283B38380E090E0A0EA88
:10190000B0E484839583A683B78380E090E0A0E66B
:10191000B0E480879187A287B387C12CD12C80E95E
:10192000E82E81E4F82EC486D586E686F78680E028
:1019300090E0A0E0B0E4808B918BA28BB38B80E031
:1019400090E0A0E8BFE3848B958BA68BB78B40E03B
:1019500050E068E472E4408F518F628F738F40E0F3
:1019600050E060E271E4448F558F668F778F14A248
:1019700015A216A217A242EF55E16FEB70E444A73F
:1019800055A766A777A710AA11AA12AA13AA4DEC09
:101990005CEC6CEC7DE344AB55AB66AB77AB80AFF6
:1019A00091AFA2AFB3AF8DEC9CECACE8BFE384AFDA
:1019B00095AFA6AFB7AF8EED9DEDADEDBDE38093D6
:1019C0003A0290933B02A0933C02B0933D0288E818
:1019D00098E8A0E5B0E480933E0290933F02A09384
:1019E0004002B09341028FED9DEDA5E7B0E48093F6
:1019F000420290934302A0934402B093450280A711
:101A000091A7A2A7B3A78BE19AEBADE1B0E48093D5
:101A1000260290932702A0932802B093290281E81E
:101A200090E2A4E3B0E480932A0290932B02A09367
:101A30002C02B0932D028EEA9EEDA6E6B0E48093D0
:101A40002E0290932F02A0933002B093310284E1D2
:101A500095E4ADE7B0E48093320290933302A09313
:101A60003402B093350280A391A3A2A3B3A3109232
:101A7000360210923702109238021092390287E033
:101A800095E7A0E4B1E48093460290934702A093C7
:101A90004802B093490261E870E284E390E40E9456
:101AA0007B0660934A0270934B0280934C029093A2
:101AB0004D026EEA7EED86E690E40E94F4056093A6
:101AC0004E0270934F028093500290935102C09245
:101AD0005202D0925302E0925402F09255020F91BA
:101AE000FF90EF90DF90CF900895CF93DF93CDB725
:101AF000DEB765970FB6F894DEBF0FBECDBF789402
:101B000084B5826084BD84B5816084BD85B5826002
:101B100085BD85B5816085BD80916E0081608093B3
:101B20006E0010928100809181008260809381001C
:101B3000809181008160809381008091800081602C
:101B4000809380008091B10084608093B100809187
:101B5000B00081608093B00080917A0084608093AF
:101B60007A0080917A00826080937A0080917A0076
:101B7000816080937A0080917A00806880937A00F7
:101B80001092C100E0915801F091590182E08083E8
:101B9000E0915401F09155011082E0915601F091CD
:101BA000570180E1808310926001E0915C01F09127
:101BB0005D0186E08083E0915A01F0915B018081B4
:101BC00080618083E0915A01F0915B01808188609F
:101BD0008083E0915A01F0915B018081806880836D
:101BE000E0915A01F0915B0180818F7D808360E0FC
:101BF00080E10E9478018CE094E090930101809351
:101C00000001809169008C7F816080936900E89A6F
:101C100060E082E10E94780180E194E0909303010A
:101C20008093020180916900837F846080936900C2
:101C3000E99A1092C9021092CA021092CB02109235
:101C4000CC02109268021092690210926A021092FD
:101C50006B021092BD021092BE021092BF0210924F
:101C6000C0021092C1021092C2021092C3021092DE
:101C7000C40210925C0210925D0210925E021092F9
:101C80005F02109260021092610210926202109242
:101C9000630260E070E0CB010E94FB0160E083E141
:101CA0000E94780181E0809308014AE061E070E0E1
:101CB00080E090E00E94030887E291E00E94F6072E
:101CC00080910801882309F4F3C686E592E00E941A
:101CD00096036B017C0187EB92E00E9496039B01C7
:101CE000AC01C701B6010E94EE1520E030E040E0F3
:101CF0005FE30E9412184B015C0140903A02509041
:101D00003B0260903C0270903D02A30192010E9450
:101D10005A1687FFB7C0C090FE01D090FF01E09037
:101D20000002F090010220E030E040E450E4C701FE
:101D3000B6010E947F186D837E838F8398872091E0
:101D4000FA013091FB014091FC015091FD01298382
:101D50003A834B835C8320E030E040E450E46981C7
:101D60007A818B819C810E947F182B013C0120E0AD
:101D700030E040E151E4C701B6010E941218A5010C
:101D800094010E941218A50194010E9412186987FB
:101D90007A878B879C8720E030E040E051E4C301E4
:101DA000B2010E9412189B01AC0169857A858B856E
:101DB0009C850E94EE152D813E814F8158850E94A1
:101DC00012180E94D5182B013C0120E030E040E4BD
:101DD00050E4C701B6010E941218A70196010E94A3
:101DE0001218A50194010E941218A30192010E94E9
:101DF000EE154B015C012BEA3AEA4AE25FE30E94EE
:101E00007F182B013C012BEA3AEA4AEA5EE3C5015E
:101E1000B4010E947F184B015C01A7019601C70124
:101E2000B6010E94EE1529813A814B815C810E94A6
:101E300012189B01AC01C301B2010E94ED152B01E8
:101E40003C01A5019401C701B6010E9412189B0133
:101E5000AC01C301B2010E945F169B01AC010E945C
:101E60001218A70196010E94121820E030E040E00D
:101E70005FE30E94121829813A814B815C810E94A4
:101E8000EE1522C2C0903E02D0903F02E090400288
:101E9000F0904102A7019601C501B4010E945A16B3
:101EA00087FFD3C080911A0290911B02A0911C025F
:101EB000B0911D0289839A83AB83BC83C090EA01F1
:101EC000D090EB01E090EC01F090ED012091FE014B
:101ED0003091FF01409100025091010229873A8719
:101EE0004B875C878091FA019091FB01A091FC01E6
:101EF000B091FD018D839E83AF83B88729813A819C
:101F00004B815C81CA01B9010E94121829853A856A
:101F10004B855C850E94121820E030E040E05FE3D2
:101F20000E9412182D813E814F8158850E94EE1526
:101F30006D877E878F87988B20E030E040E050EC03
:101F4000C301B2010E941218A70196010E94121843
:101F50002B013C012D853E854F855889CA01B90169
:101F60000E9412189B01AC01C301B2010E94EE1540
:101F70002B013C01A7019601C701B6010E94EE1595
:101F8000A50194010E9412189B01AC01C301B2018A
:101F90000E94EE150E94D5189B01AC016D857E85CF
:101FA0008F8598890E94EE154B015C01A70196016F
:101FB00069817A818B819C810E9412189B01AC01FE
:101FC000C501B4010E94ED154B015C012D813E81DC
:101FD0004F815885CA01B9010E94EE159B01AC01E1
:101FE000C501B4010E94ED15A70196010E945F167C
:101FF00029813A814B815C810E94EE15A7019601EF
:102000000E9412184B015C01A7019601C701B6019D
:102010000E9412182B013C0129853A854B855C856D
:10202000CA01B9010E94EE159B01AC01C301B201C6
:102030000E945F169B01AC01C501B4010E94ED1521
:102040002D813E814F8158851ACF209142023091D7
:1020500043024091440250914502C501B4010E94DF
:102060005A1687FF1BC14090FE015090FF016090FF
:1020700000027090010220E030E040E450E4C3012F
:10208000B2010E947F186D877E878F87988BA7018A
:102090009601C501B4010E94ED1569837A838B8393
:1020A0009C8320911E0230911F024091200250918A
:1020B00021022D833E834F835887C090EA01D09040
:1020C000EB01E090EC01F090ED01A3019201C3015E
:1020D000B2010E94EE1569877A878B879C87A701DA
:1020E00096016D817E818F8198850E9412184B0127
:1020F0005C01A7019601C701B6010E94121829854B
:102100003A854B855C850E945F169B01AC01C50139
:10211000B4010E94ED152091FA013091FB0140912C
:10212000FC015091FD010E94EE156B017C0120E045
:1021300030E040E450E40E947F18698B7A8B8B8BEF
:102140009C8B20E030E040E151E4C301B2010E94E9
:1021500012184B015C0129813A814B815C81CA01D3
:10216000B9010E9412189B01AC01C501B4010E9483
:1021700012184B015C0120E030E040E051E4698935
:102180007A898B899C890E9412189B01AC01C50138
:10219000B4010E94EE152D853E854F8558890E9419
:1021A00012180E94D5184B015C01A3019201C301D2
:1021B000B2010E94121820E030E040E450E40E9496
:1021C000121829813A814B815C810E941218A50165
:1021D00094010E94EE154B015C012BEA3AEA4AE2B7
:1021E0005FE30E947F1869837A838B839C832BEA49
:1021F0003AEA4AEA5EE3C501B4010E947F184B0146
:102200005C01A701960169857A858B859C850E9472
:1022100012189B01AC0169817A818B819C810E949B
:10222000ED156B017C01A5019401C301B2010E946F
:1022300012189B01AC01C701B6010E945F162D81E7
:102240003E814F8158850E94EE15209122023091E7
:10225000230240912402509125020E94ED15730142
:102260006201F7FAF094F7F8F0949B01AC010E9438
:1022700012189B01AC01C701B6010E94121820E0A0
:1022800030E040E05FE30E9412182091E6013091B7
:10229000E7014091E8015091E901F1CD209146021A
:1022A000309147024091480250914902C501B40162
:1022B0000E945A1687FF6DC16091E6017091E70197
:1022C0008091E8019091E901609304017093050108
:1022D0008093060190930701C0900401D0900501FE
:1022E000E0900601F090070120E030E0A901C7016D
:1022F000B6010E945A16882309F41BC48091080174
:10230000882309F409C420E030E040E752E4C70123
:10231000B6010E94121826E836E54DEF50E40E94FF
:102320005F166B017C01C092D102D092D202E09282
:10233000D302F092D40287EB92E00E944004C09254
:102340007002D0927102E0927202F092730286E5FE
:1023500092E00E94400486E592E00E9496036B01A1
:102360007C0187EB92E00E9496039B01AC01C701C0
:10237000B6010E94EE1520E030E040E05FE30E94ED
:10238000121842E00E9447088AE291E00E94F60794
:102390002FB7F894609143017091440180914501F9
:1023A000909146012FBF0E940D1720E030E04AE7D0
:1023B00054E40E945F1642E00E9447088AE291E0DE
:1023C0000E94F60760910401709105018091060159
:1023D0009091070142E00E9447088AE291E00E9442
:1023E000F607209158023091590240915A025091BB
:1023F0005B026091B9027091BA028091BB02909128
:10240000BC020E94EE1520E030E040E05FE30E9455
:1024100012189B01AC010E94EE1528ED3FE049E443
:1024200050E40E9412182EEA37E441EA5FE30E946A
:10243000121820E030E040E752E40E945F1642E0CC
:102440000E94470887E291E00E94F6076091B70278
:102450007091B802072E000C880B990B0E940F1781
:1024600020E030E040EF54E40E945F162DEC3CEC9D
:102470004CEC5DE30E945F1620E030E040E752E460
:102480000E9412186093B9027093BA028093BB0243
:102490009093BC022091BD023091BE024091BF02D8
:1024A0005091C0026091C1027091C2028091C3023A
:1024B0009091C4020E94071720E030E040EF54E4FE
:1024C0000E945F166093C9027093CA028093CB0288
:1024D0009093CC021092B8021092B702609156020B
:1024E00070915702072E000C880B990B0E940F1752
:1024F00020E030E040EF54E40E945F162DEC3CEC0D
:102500004CEC5DE30E945F1620E030E040E752E4CF
:102510000E941218609358027093590280935A02D5
:1025200090935B0220915C0230915D0240915E02CB
:1025300050915F026091600270916102809162022D
:10254000909163020E94071720E030E040EF54E4CE
:102550000E945F16609368027093690280936A021A
:1025600090936B02109257021092560264E670E04C
:1025700080E090E00E94FB01A0E0B0E0AB2B09F40A
:102580009FCB0E949902882309F49ACB0E940000F5
:1025900097CB20914A0230914B0240914C025091CE
:1025A0004D02C501B4010E945A1687FFCDC010919B
:1025B0000A0230910B023D8B40910C02498B009135
:1025C0000D02309026022090270250912802598354
:1025D000809129028D83232D322D452F582F612F75
:1025E0007D898989902F0E940D1818162CF0132DC3
:1025F0002D8A9981998B0D81812F9D89A989B02F71
:1026000080930A0290930B02A0930C02B0930D02E8
:102610004090020250900302609004027090050204
:1026200077FA709477F870942091E6013091E70181
:102630004091E8015091E90129873A874B875C87EF
:10264000612F7D898989902F0E947B066D877E8707
:102650008F87988B232D322D49815D81612F7D8954
:102660008989902F0E94ED156B017C01A5019401D1
:102670006D857E858F8598890E94ED156D877E8793
:102680008F87988BA7019601C701B6010E94121887
:10269000A30192010E94121820E030E040E05FE3C5
:1026A0000E94121829853A854B855C850E94EE159B
:1026B0009B01AC016D857E858F8598890E945F1690
:1026C0009B01AC01612F7D898989902F0E94ED15B6
:1026D000162F7D8B898B092F0E947B06A501940103
:1026E0000E94ED159F772FE632E143E85AE30E94FE
:1026F0005A1687FFA5CF812F9D89A989B02F809376
:102700000A0290930B02A0930C02B0930D02232DAA
:10271000322D49815D81612F792F8A2F902F0E9460
:10272000ED159B01AC010E941218A30192010E94B9
:10273000121820E030E040E05FE30E941218298583
:102740003A854B855C859BCB20914E0230914F02A0
:102750004091500250915102C501B4010E945A1695
:1027600087FFCEC010910A0230910B023D8B409141
:102770000C02498B00910D0230902A0220902B020E
:1027800050912C02598380912D028D83232D322D5F
:10279000452F582F612F7D898989902F0E940D1810
:1027A00018162CF0132D2D8A9981998B0D81812F6C
:1027B0009D89A989B02F80930A0290930B02A09360
:1027C0000C02B0930D026091EE017091EF018091C7
:1027D000F0019091F1019B01AC01505829873A8793
:1027E0004B875C879B01AC010E9412186B017C0136
:1027F000609102027091030280910402909105029F
:102800009B01AC010E94EE159B01AC01C701B60112
:102810000E945F166B017C014090E6015090E70139
:102820006090E8017090E901612F7D898989902F7E
:102830000E94F405A50194010E94ED156D877E8725
:102840008F87988B232D322D49815D81612F7D8962
:102850008989902F0E94ED1529853A854B855C85E5
:102860000E941218A70196010E94ED15A301920182
:102870000E94EE159B01AC016D857E858F85988940
:102880000E945F169B01AC01612F7D898989902F81
:102890000E94ED15162F7D8B898B092F0E94F40560
:1028A000A50194010E94ED159F772FE632E143E8E0
:1028B0005AE30E945A1687FFB7CF812F9D89A989B5
:1028C000B02F80930A0290930B02A0930C02B09356
:1028D0000D02232D322D49815D81612F792F8A2FA1
:1028E000902F0E94ED1529853A854B855C850E94C5
:1028F0001218A70196010E94ED15A3019201BFCA0B
:10290000209152023091530240915402509155024D
:10291000C501B4010E945A1687FFC6C0C0900A02C2
:10292000D0900B02E0900C02F0900D0210912E025C
:1029300030912F02398B409130024D870091310246
:10294000212F502FB601C7010E940D18181624F42C
:102950001C2DD98AED860F2D812F9989AD85B02F39
:1029600080930A0290930B02A0930C02B0930D0285
:102970008091020290910302A0910402B09105029D
:1029800089839A83AB83BC83C0903202D090330298
:10299000E0903402F09035022091F6013091F70179
:1029A0004091F8015091F9012D833E834F83588760
:1029B000612F79898D85902F0E94CC062B013C01D7
:1029C000A7019601612F79898D85902F0E94ED15C1
:1029D00069877A878B879C87A5019401C301B2011F
:1029E0000E94ED152B013C0129853A854B855C85BC
:1029F000CA01B9010E94121829813A814B815C8178
:102A00000E94121820E030E040E05FE30E941218BC
:102A10002D813E814F8158850E94EE159B01AC01AE
:102A2000C301B2010E945F169B01AC01612F79893D
:102A30008D85902F0E94ED15162F798B8D87092F8C
:102A40000E94CC06A50194010E94ED159F772FE608
:102A500032E143E85AE30E945A1687FFA9CF812F3B
:102A60009989AD85B02F80930A0290930B02A093B1
:102A70000C02B0930D02A7019601612F792F8A2FC6
:102A8000902F0E94ED159B01AC010E941218298124
:102A90003A814B815C810E94121820E030E040E0D6
:102AA0005FE30E941218CCCA60E070E0CB010CCC4E
:102AB00080E090E0A8ECB2E48093040190930501DB
:102AC000A0930601B093070186E592E00E94960369
:102AD0006B017C0187EB92E00E9496039B01AC01A5
:102AE000C701B6010E94EE1520E030E040E05FE350
:102AF0000E94121820E030E040E951E40E940D18D5
:102B000018160CF0E9CB10920401109205011092F6
:102B1000060110920701E0CB6FEF70E087EB92E0C7
:102B20000E9414046FEF70E086E592E00E941404A6
:102B300012CC8DE291E00E94F60787E291E00E94BC
:102B4000F60782E391E00E94F6072091C9023091D6
:102B5000CA024091CB025091CC0260916802709100
:102B6000690280916A0290916B020E94EE1520E04A
:102B700030E040E05FE30E94121842E00E94470804
:102B800070E060E087EB92E00E94140463E08AED5D
:102B900092E00E943C0370E060E086E592E00E94D3
:102BA000140463E089E792E00E943C0368EE73E05E
:102BB00080E090E00E94FB0170E060E087EB92E033
:102BC0000E94140470E060E086E592E00E94140424
:102BD00060E071EE85EF95E0CDCC5058BB27AA2779
:102BE0000E9405160C94D3170E94C51738F00E9456
:102BF000CC1720F039F49F3F19F426F40C94B21747
:102C00000EF4E095E7FB0C94AC17E92F0E94E41753
:102C100058F3BA17620773078407950720F079F411
:102C2000A6F50C9406180EF4E0950B2EBA2FA02DE5
:102C30000B01B90190010C01CA01A0011124FF2769
:102C4000591B99F0593F50F4503E68F11A16F04064
:102C5000A22F232F342F4427585FF3CF4695379563
:102C60002795A795F0405395C9F77EF41F16BA0B28
:102C7000620B730B840BBAF09150A1F0FF0FBB1FD6
:102C8000661F771F881FC2F70EC0BA0F621F731F1F
:102C9000841F48F4879577956795B795F7959E3F7C
:102CA00008F0B0CF9395880F08F09927EE0F97950D
:102CB000879508950E94881708F481E008950E947E
:102CC00073160C94D3170E94CC1758F00E94C517A6
:102CD00040F029F45F3F29F00C94AC1751110C948B
:102CE00007180C94B2170E94E41768F39923B1F304
:102CF000552391F3951B550BBB27AA276217730722
:102D0000840738F09F5F5F4F220F331F441FAA1FB5
:102D1000A9F335D00E2E3AF0E0E832D09150504071
:102D2000E695001CCAF72BD0FE2F29D0660F771F1F
:102D3000881FBB1F261737074807AB07B0E809F005
:102D4000BB0B802DBF01FF2793585F4F3AF09E3F8A
:102D5000510578F00C94AC170C9407185F3FE4F31E
:102D6000983ED4F3869577956795B795F7959F5FCD
:102D7000C9F7880F911D9695879597F90895E1E019
:102D8000660F771F881FBB1F621773078407BA0778
:102D900020F0621B730B840BBA0BEE1F88F7E095D3
:102DA00008950E94D8166894B1110C9407180895DC
:102DB0000E94EC1788F09F5798F0B92F9927B751C8
:102DC000B0F0E1F0660F771F881F991F1AF0BA95CF
:102DD000C9F714C0B13091F00E940618B1E008950F
:102DE0000C940618672F782F8827B85F39F0B93F01
:102DF000CCF3869577956795B395D9F73EF4909582
:102E00008095709561957F4F8F4F9F4F089597FBE9
:102E100016F40E94B5170C944B17E89409C097FB61
:102E20003EF490958095709561957F4F8F4F9F4FA1
:102E30009923A9F0F92F96E9BB279395F6958795E5
:102E400077956795B795F111F8CFFAF4BB0F11F4A8
:102E500060FF1BC06F5F7F4F8F4F9F4F16C088234F
:102E600011F096E911C0772321F09EE8872F762F85
:102E700005C0662371F096E8862F70E060E02AF0C6
:102E80009A95660F771F881FDAF7880F96958795B2
:102E900097F90895E894F92F96EBFF2381F0121625
:102EA00013061406440B9395F695879577956795C9
:102EB00057954040FF23B9F71BC0992708958823F1
:102EC00051F49850D2F7872B762F652F542F432F2C
:102ED000322F20E0B1F3121613061406440B882398
:102EE0003AF09A95440F551F661F771F881FCAF73F
:102EF00055234AF4440F551F11F460FF04C06F5F5F
:102F00007F4F8F4F9F4F880F9695879597F908951C
:102F1000990F0008550FAA0BE0E8FEEF16161706EA
:102F2000E807F907C0F012161306E407F50798F052
:102F3000621B730B840B950B39F40A2661F0232B6B
:102F4000242B252B21F408950A2609F4A140A695E7
:102F50008FEF811D811D089597F99F6780E870E0CC
:102F600060E008959FEF80EC0895909580957095AE
:102F7000609550954095309521953F4F4F4F5F4F4D
:102F80006F4F7F4F8F4F9F4F089500240A9416165E
:102F9000170618060906089500240A941216130647
:102FA000140605060895092E0394000C11F48823D5
:102FB00052F0BB0F40F4BF2B11F460FF04C06F5FF1
:102FC0007F4F8F4F9F4F089557FD9058440F551FC7
:102FD00059F05F3F71F04795880F97FB991F61F09B
:102FE0009F3F79F087950895121613061406551F12
:102FF000F2CF4695F1DF08C0161617061806991F7E
:10300000F1CF86957105610508940895E894BB2772
:1030100066277727CB0197F908950E94881708F44F
:103020008FEF08950E9425180C94D3170E94C5179E
:1030300038F00E94CC1720F0952311F00C94AC17B7
:103040000C94B21711240C9407180E94E41770F323
:10305000959FC1F3950F50E0551F629FF001729F3D
:10306000BB27F00DB11D639FAA27F00DB11DAA1F4C
:10307000649F6627B00DA11D661F829F2227B00D99
:10308000A11D621F739FB00DA11D621F839FA00D24
:10309000611D221F749F3327A00D611D231F849F74
:1030A000600D211D822F762F6A2F11249F575040CB
:1030B0009AF0F1F088234AF0EE0FFF1FBB1F661F46
:1030C000771F881F91505040A9F79E3F510580F00F
:1030D0000C94AC170C9407185F3FE4F3983ED4F3BC
:1030E000869577956795B795F795E7959F5FC1F7B3
:1030F000FE2B880F911D9695879597F90895FA01F3
:10310000EE0FFF1F309621053105A1F16115710504
:1031100061F48038BFE39B0749F1689490388105DA
:1031200061F08038BFEF9B0741F099234AF5FF3FDC
:10313000E1053105210519F1E8940894E795D901D5
:10314000AA2329F4AB2FBE2FF85FD0F310C0FF5F86
:1031500070F4A695E0F7F73950F019F0FF3A38F41B
:103160009F779F930DD00F9007FC9058089546F0DD
:103170000C94B21760E070E080E89FE308954FE799
:103180009F775F934F933F932F930E94DA192F916C
:103190003F914F915F910E9412180C94221919F4DB
:1031A00016F40C94B2170C9454190E94EC17B8F34F
:1031B0009923C9F3B6F39F57550B87FF0E946219F5
:1031C0000024A0E640EA900180585695979528F48F
:1031D000805C660F771F881F20F026173707480787
:1031E00030F4621B730B840B202931294A2BA695DE
:1031F00017940794202531254A2758F7660F771F23
:10320000881F20F026173707480730F4620B730B2E
:10321000840B200D311D411DA09581F7B901842F2C
:103220009158880F9695879508950E948817880B66
:10323000990B089529F416F00C94AC170C94061809
:103240000C94B2170E94EC17A8F39638A0F707F871
:103250000F92E8942BE33AEA48EB5FE70E942818C4
:103260000F920F920F924DB75EB70F920E94221AE3
:10327000E8E6F0E00E9469194F915F91EF91FF91AC
:10328000E595EE1FFF1F49F0FE57E0684427EE0F5B
:10329000441FFA95E1F74195550B0E949C190F9038
:1032A00007FE0C94901908959F3F31F0915020F43F
:1032B000879577956795B795880F911D9695879512
:1032C00097F9089591505040660F771F881FD2F7E5
:1032D0000895DF93CF931F930F93FF92EF92DF92A6
:1032E0007B018C01689406C0DA2EEF010E9425183C
:1032F000FE01E894A5912591359145915591A6F34C
:10330000EF010E940516FE019701A801DA9469F702
:10331000DF90EF90FF900F911F91CF91DF91089573
:103320009B01AC0160E070E080E89FE30C945F16C5
:103330000C94AC170C9454190E94EC17D8F39923F1
:10334000C9F3940F511DA3F39150504094F059F0DC
:10335000882332F0660F771F881F91505040C1F7C5
:103360009E3F51052CF7880F911D9695879597F9EB
:1033700008955F3FACF0983E9CF0BB27869577950B
:103380006795B79508F4B1609395C1F7BB0F58F7EF
:1033900011F460FFE8CF6F5F7F4F8F4F9F4FE3CFF8
:1033A0000C94071816F00C9454190C94B2176894E6
:1033B0000C94AC170E94EC17A8F39923C1F3AEF359
:1033C000DF93CF931F930F93FF92C92FDD2788239D
:1033D0002AF02197660F771F881FDAF720E030E088
:1033E00040E85FEB9FE3883920F0803E38F021967B
:1033F0008F770E94EE15E0E9F0E004C00E94EE1520
:10340000EDEBF0E00E9469198B01BE01EC01FB2E8F
:103410006F5771097595771F880B990B0E940F17CD
:1034200028E132E741E35FE30E942518AF2D9801C0
:10343000AE01FF900F911F91CF91DF910E94051671
:103440000C94D317FA01DC01AA0FBB1F9B01AC013E
:10345000BF5728F4222733274427507820C0B7517C
:1034600090F4AB2F0024469537952795011CA39522
:10347000D2F3002071F0220F331F441FB395DAF30B
:103480000ED00C94ED1561307105A0E88A07B9469D
:1034900030F49B01AC016627772788279078309617
:1034A00021F020833183428353830895A1E21A2EB1
:1034B000AA1BBB1BFD010DC0AA1FBB1FEE1FFF1FD8
:1034C000A217B307E407F50720F0A21BB30BE40B28
:1034D000F50B661F771F881F991F1A9469F760956F
:1034E0007095809590959B01AC01BD01CF01089529
:1034F0000024A7FD00942A0F301D401D501D601DA3
:10350000701D801D901D0895EE0FFF1F0590F49112
:08351000E02D0994F894FFCFAF
:103518002E022E020000803F0100000000CF022F83
:10352800025C021C038D026B027F026E616E0069F1
:103538006E66006F7666000D0A002C2000446F6EE0
:0E3548006500726F746174696F6E733A0000F3
:00000001FF
